{
  "contracts/functions.sol": {
    "Functions": {
      "abi": [
        {
          "inputs": [],
          "stateMutability": "nonpayable",
          "type": "constructor"
        },
        {
          "anonymous": false,
          "inputs": [
            {
              "indexed": false,
              "internalType": "address",
              "name": "accountAddress",
              "type": "address"
            },
            {
              "indexed": false,
              "internalType": "uint256",
              "name": "accountNumber",
              "type": "uint256"
            },
            {
              "indexed": false,
              "internalType": "uint256",
              "name": "time",
              "type": "uint256"
            }
          ],
          "name": "eventAccountCreation",
          "type": "event"
        },
        {
          "anonymous": false,
          "inputs": [
            {
              "indexed": false,
              "internalType": "address",
              "name": "accountAddress",
              "type": "address"
            },
            {
              "indexed": false,
              "internalType": "uint256",
              "name": "accountNumber",
              "type": "uint256"
            },
            {
              "indexed": false,
              "internalType": "uint256",
              "name": "depositedBalance",
              "type": "uint256"
            },
            {
              "indexed": false,
              "internalType": "uint256",
              "name": "time",
              "type": "uint256"
            }
          ],
          "name": "eventBalanceDeposit",
          "type": "event"
        },
        {
          "anonymous": false,
          "inputs": [
            {
              "indexed": false,
              "internalType": "uint256",
              "name": "accountFrom",
              "type": "uint256"
            },
            {
              "indexed": false,
              "internalType": "uint256",
              "name": "accountTo",
              "type": "uint256"
            },
            {
              "indexed": false,
              "internalType": "uint256",
              "name": "transferedBalance",
              "type": "uint256"
            },
            {
              "indexed": false,
              "internalType": "uint256",
              "name": "time",
              "type": "uint256"
            }
          ],
          "name": "eventBalanceTransfer",
          "type": "event"
        },
        {
          "anonymous": false,
          "inputs": [
            {
              "indexed": false,
              "internalType": "address",
              "name": "accountAddress",
              "type": "address"
            },
            {
              "indexed": false,
              "internalType": "uint256",
              "name": "accountNumber",
              "type": "uint256"
            },
            {
              "indexed": false,
              "internalType": "uint256",
              "name": "withdrawlBalance",
              "type": "uint256"
            },
            {
              "indexed": false,
              "internalType": "uint256",
              "name": "time",
              "type": "uint256"
            }
          ],
          "name": "eventBalanceWithdraw",
          "type": "event"
        },
        {
          "inputs": [
            {
              "internalType": "uint256",
              "name": "",
              "type": "uint256"
            }
          ],
          "name": "accounts",
          "outputs": [
            {
              "internalType": "uint256",
              "name": "",
              "type": "uint256"
            }
          ],
          "stateMutability": "view",
          "type": "function"
        },
        {
          "inputs": [
            {
              "internalType": "uint256",
              "name": "",
              "type": "uint256"
            }
          ],
          "name": "addresses",
          "outputs": [
            {
              "internalType": "address",
              "name": "",
              "type": "address"
            }
          ],
          "stateMutability": "view",
          "type": "function"
        },
        {
          "inputs": [
            {
              "internalType": "uint256",
              "name": "_fromAccount",
              "type": "uint256"
            },
            {
              "internalType": "uint256",
              "name": "_toAccount",
              "type": "uint256"
            },
            {
              "internalType": "address",
              "name": "_toAddress",
              "type": "address"
            },
            {
              "internalType": "uint256",
              "name": "_balance",
              "type": "uint256"
            }
          ],
          "name": "balanceTransfer",
          "outputs": [],
          "stateMutability": "nonpayable",
          "type": "function"
        },
        {
          "inputs": [
            {
              "internalType": "uint256",
              "name": "_accountNumber",
              "type": "uint256"
            },
            {
              "internalType": "uint256",
              "name": "_bankName",
              "type": "uint256"
            },
            {
              "internalType": "string",
              "name": "_branch",
              "type": "string"
            },
            {
              "internalType": "uint256",
              "name": "_balance",
              "type": "uint256"
            }
          ],
          "name": "createAccount",
          "outputs": [],
          "stateMutability": "nonpayable",
          "type": "function"
        },
        {
          "inputs": [
            {
              "internalType": "uint256",
              "name": "_accountNumber",
              "type": "uint256"
            },
            {
              "internalType": "uint256",
              "name": "_depositbalance",
              "type": "uint256"
            }
          ],
          "name": "deposit",
          "outputs": [],
          "stateMutability": "nonpayable",
          "type": "function"
        },
        {
          "inputs": [
            {
              "internalType": "address",
              "name": "_addressCheckBalance",
              "type": "address"
            },
            {
              "internalType": "uint256",
              "name": "_accountCheckBalance",
              "type": "uint256"
            }
          ],
          "name": "getBalance",
          "outputs": [
            {
              "internalType": "uint256",
              "name": "",
              "type": "uint256"
            }
          ],
          "stateMutability": "view",
          "type": "function"
        },
        {
          "inputs": [
            {
              "internalType": "uint256",
              "name": "_bankName",
              "type": "uint256"
            }
          ],
          "name": "getBankData",
          "outputs": [
            {
              "components": [
                {
                  "internalType": "uint256",
                  "name": "accountNumber",
                  "type": "uint256"
                },
                {
                  "internalType": "string",
                  "name": "branch",
                  "type": "string"
                },
                {
                  "internalType": "uint256",
                  "name": "balance",
                  "type": "uint256"
                }
              ],
              "internalType": "struct Data.returnBankData[]",
              "name": "",
              "type": "tuple[]"
            }
          ],
          "stateMutability": "view",
          "type": "function"
        },
        {
          "inputs": [],
          "name": "personalInfo",
          "outputs": [
            {
              "components": [
                {
                  "internalType": "uint256",
                  "name": "accountNumber",
                  "type": "uint256"
                },
                {
                  "internalType": "uint256",
                  "name": "bankName",
                  "type": "uint256"
                },
                {
                  "internalType": "string",
                  "name": "branch",
                  "type": "string"
                },
                {
                  "internalType": "uint256",
                  "name": "balance",
                  "type": "uint256"
                }
              ],
              "internalType": "struct Data.returnData[]",
              "name": "",
              "type": "tuple[]"
            }
          ],
          "stateMutability": "view",
          "type": "function"
        },
        {
          "inputs": [
            {
              "internalType": "uint256",
              "name": "",
              "type": "uint256"
            }
          ],
          "name": "returnBankDataArray",
          "outputs": [
            {
              "internalType": "uint256",
              "name": "accountNumber",
              "type": "uint256"
            },
            {
              "internalType": "string",
              "name": "branch",
              "type": "string"
            },
            {
              "internalType": "uint256",
              "name": "balance",
              "type": "uint256"
            }
          ],
          "stateMutability": "view",
          "type": "function"
        },
        {
          "inputs": [
            {
              "internalType": "uint256",
              "name": "",
              "type": "uint256"
            }
          ],
          "name": "returnDataArray",
          "outputs": [
            {
              "internalType": "uint256",
              "name": "accountNumber",
              "type": "uint256"
            },
            {
              "internalType": "uint256",
              "name": "bankName",
              "type": "uint256"
            },
            {
              "internalType": "string",
              "name": "branch",
              "type": "string"
            },
            {
              "internalType": "uint256",
              "name": "balance",
              "type": "uint256"
            }
          ],
          "stateMutability": "view",
          "type": "function"
        },
        {
          "inputs": [
            {
              "internalType": "uint256",
              "name": "_accountNumber",
              "type": "uint256"
            },
            {
              "internalType": "uint256",
              "name": "_withdrawbalance",
              "type": "uint256"
            }
          ],
          "name": "withdraw",
          "outputs": [],
          "stateMutability": "nonpayable",
          "type": "function"
        }
      ],
      "evm": {
        "bytecode": {
          "linkReferences": {},
          "object": "608060405234801561001057600080fd5b50336000806101000a81548173ffffffffffffffffffffffffffffffffffffffff021916908373ffffffffffffffffffffffffffffffffffffffff160217905550612298806100606000396000f3fe608060405234801561001057600080fd5b50600436106100a95760003560e01c8063b26ea79811610071578063b26ea7981461017b578063c8cb55ae146101ab578063e2bbb158146101c7578063edf26d9b146101e3578063f2a40db814610213578063f2dbf12e14610243576100a9565b8063078c9ed3146100ae57806315f1d66d146100e15780632b04e840146100fd578063441a3e701461012d578063b0fb25cc14610149575b600080fd5b6100c860048036038101906100c39190611499565b610261565b6040516100d89493929190611565565b60405180910390f35b6100fb60048036038101906100f6919061160f565b610329565b005b61011760048036038101906101129190611676565b61061d565b60405161012491906116b6565b60405180910390f35b610147600480360381019061014291906116d1565b61067b565b005b610163600480360381019061015e9190611499565b61080c565b60405161017293929190611711565b60405180910390f35b61019560048036038101906101909190611499565b6108ce565b6040516101a291906118ba565b60405180910390f35b6101c560048036038101906101c09190611a11565b610d16565b005b6101e160048036038101906101dc91906116d1565b610f45565b005b6101fd60048036038101906101f89190611499565b61103c565b60405161020a9190611aa3565b60405180910390f35b61022d60048036038101906102289190611499565b61107b565b60405161023a91906116b6565b60405180910390f35b61024b61109f565b6040516102589190611be3565b60405180910390f35b6001818154811061027157600080fd5b90600052602060002090600402016000915090508060000154908060010154908060020180546102a090611c34565b80601f01602080910402602001604051908101604052809291908181526020018280546102cc90611c34565b80156103195780601f106102ee57610100808354040283529160200191610319565b820191906000526020600020905b8154815290600101906020018083116102fc57829003601f168201915b5050505050908060030154905084565b838180600360003373ffffffffffffffffffffffffffffffffffffffff1673ffffffffffffffffffffffffffffffffffffffff16815260200190815260200160002060008481526020019081526020016000206002015410156103c1576040517f08c379a00000000000000000000000000000000000000000000000000000000081526004016103b890611cb1565b60405180910390fd5b838560011515600360008473ffffffffffffffffffffffffffffffffffffffff1673ffffffffffffffffffffffffffffffffffffffff168152602001908152602001600020600083815260200190815260200160002060030160009054906101000a900460ff1615151461046a576040517f08c379a000000000000000000000000000000000000000000000000000000000815260040161046190611d1d565b60405180910390fd5b84600360003373ffffffffffffffffffffffffffffffffffffffff1673ffffffffffffffffffffffffffffffffffffffff16815260200190815260200160002060008a8152602001908152602001600020600201546104c99190611d6c565b600360003373ffffffffffffffffffffffffffffffffffffffff1673ffffffffffffffffffffffffffffffffffffffff16815260200190815260200160002060008a81526020019081526020016000206002018190555084600360008873ffffffffffffffffffffffffffffffffffffffff1673ffffffffffffffffffffffffffffffffffffffff16815260200190815260200160002060008981526020019081526020016000206002015461057f9190611da0565b600360008873ffffffffffffffffffffffffffffffffffffffff1673ffffffffffffffffffffffffffffffffffffffff1681526020019081526020016000206000898152602001908152602001600020600201819055507f8f0bcad820b3433bf6ffda6be49871f18b8c267ac1c7db8f94432ae3224adb5d8888874260405161060b9493929190611dd4565b60405180910390a15050505050505050565b6000600360008473ffffffffffffffffffffffffffffffffffffffff1673ffffffffffffffffffffffffffffffffffffffff168152602001908152602001600020600083815260200190815260200160002060020154905092915050565b818180600360003373ffffffffffffffffffffffffffffffffffffffff1673ffffffffffffffffffffffffffffffffffffffff1681526020019081526020016000206000848152602001908152602001600020600201541015610713576040517f08c379a000000000000000000000000000000000000000000000000000000000815260040161070a90611cb1565b60405180910390fd5b82600360003373ffffffffffffffffffffffffffffffffffffffff1673ffffffffffffffffffffffffffffffffffffffff1681526020019081526020016000206000868152602001908152602001600020600201546107729190611d6c565b600360003373ffffffffffffffffffffffffffffffffffffffff1673ffffffffffffffffffffffffffffffffffffffff1681526020019081526020016000206000868152602001908152602001600020600201819055507f2c475b8285d302922e0b51cace5489a97d98708a2a3a01edf1e62f3b3900c487338585426040516107fe9493929190611e19565b60405180910390a150505050565b6002818154811061081c57600080fd5b906000526020600020906003020160009150905080600001549080600101805461084590611c34565b80601f016020809104026020016040519081016040528092919081815260200182805461087190611c34565b80156108be5780601f10610893576101008083540402835291602001916108be565b820191906000526020600020905b8154815290600101906020018083116108a157829003601f168201915b5050505050908060020154905083565b606060008054906101000a900473ffffffffffffffffffffffffffffffffffffffff1673ffffffffffffffffffffffffffffffffffffffff163373ffffffffffffffffffffffffffffffffffffffff161461095e576040517f08c379a000000000000000000000000000000000000000000000000000000000815260040161095590611eaa565b60405180910390fd5b60008060058054905067ffffffffffffffff8111156109805761097f6118e6565b5b6040519080825280602002602001820160405280156109b957816020015b6109a6611406565b81526020019060019003908161099e5790505b50905060005b600480549050811015610d0b5760005b600580549050811015610cf7578560036000600485815481106109f5576109f4611eca565b5b9060005260206000200160009054906101000a900473ffffffffffffffffffffffffffffffffffffffff1673ffffffffffffffffffffffffffffffffffffffff1673ffffffffffffffffffffffffffffffffffffffff168152602001908152602001600020600060058481548110610a7057610a6f611eca565b5b906000526020600020015481526020019081526020016000206000015403610ce4576000604051806060016040528060058481548110610ab357610ab2611eca565b5b906000526020600020015481526020016003600060048781548110610adb57610ada611eca565b5b9060005260206000200160009054906101000a900473ffffffffffffffffffffffffffffffffffffffff1673ffffffffffffffffffffffffffffffffffffffff1673ffffffffffffffffffffffffffffffffffffffff168152602001908152602001600020600060058681548110610b5657610b55611eca565b5b906000526020600020015481526020019081526020016000206001018054610b7d90611c34565b80601f0160208091040260200160405190810160405280929190818152602001828054610ba990611c34565b8015610bf65780601f10610bcb57610100808354040283529160200191610bf6565b820191906000526020600020905b815481529060010190602001808311610bd957829003601f168201915b505050505081526020016003600060048781548110610c1857610c17611eca565b5b9060005260206000200160009054906101000a900473ffffffffffffffffffffffffffffffffffffffff1673ffffffffffffffffffffffffffffffffffffffff1673ffffffffffffffffffffffffffffffffffffffff168152602001908152602001600020600060058681548110610c9357610c92611eca565b5b9060005260206000200154815260200190815260200160002060020154815250905080848681518110610cc957610cc8611eca565b5b60200260200101819052508480610cdf90611ef9565b955050505b8080610cef90611ef9565b9150506109cf565b508080610d0390611ef9565b9150506109bf565b508092505050919050565b83600080600090505b600580549050811015610d6d578260058281548110610d4157610d40611eca565b5b906000526020600020015403610d5a5760019150610d6d565b8080610d6590611ef9565b915050610d1f565b506000151581151514610db5576040517f08c379a0000000000000000000000000000000000000000000000000000000008152600401610dac90611f8d565b60405180910390fd5b6004339080600181540180825580915050600190039060005260206000200160009091909190916101000a81548173ffffffffffffffffffffffffffffffffffffffff021916908373ffffffffffffffffffffffffffffffffffffffff1602179055506005869080600181540180825580915050600190039060005260206000200160009091909190915055604051806080016040528086815260200185815260200184815260200160011515815250600360003373ffffffffffffffffffffffffffffffffffffffff1673ffffffffffffffffffffffffffffffffffffffff1681526020019081526020016000206000888152602001908152602001600020600082015181600001556020820151816001019081610ed49190612159565b506040820151816002015560608201518160030160006101000a81548160ff0219169083151502179055509050507f86dc9b84d24d91976389928021d50a70822f4a52230234823092b04c828fb7a6338742604051610f359392919061222b565b60405180910390a1505050505050565b80600360003373ffffffffffffffffffffffffffffffffffffffff1673ffffffffffffffffffffffffffffffffffffffff168152602001908152602001600020600084815260200190815260200160002060020154610fa49190611da0565b600360003373ffffffffffffffffffffffffffffffffffffffff1673ffffffffffffffffffffffffffffffffffffffff1681526020019081526020016000206000848152602001908152602001600020600201819055507f2c475b8285d302922e0b51cace5489a97d98708a2a3a01edf1e62f3b3900c487338383426040516110309493929190611e19565b60405180910390a15050565b6004818154811061104c57600080fd5b906000526020600020016000915054906101000a900473ffffffffffffffffffffffffffffffffffffffff1681565b6005818154811061108b57600080fd5b906000526020600020016000915090505481565b6060600060058054905067ffffffffffffffff8111156110c2576110c16118e6565b5b6040519080825280602002602001820160405280156110fb57816020015b6110e8611427565b8152602001906001900390816110e05790505b509050600080600090505b6005805490508110156113fd5760011515600360003373ffffffffffffffffffffffffffffffffffffffff1673ffffffffffffffffffffffffffffffffffffffff16815260200190815260200160002060006005848154811061116c5761116b611eca565b5b9060005260206000200154815260200190815260200160002060030160009054906101000a900460ff161515036113ea5760006040518060800160405280600584815481106111be576111bd611eca565b5b90600052602060002001548152602001600360003373ffffffffffffffffffffffffffffffffffffffff1673ffffffffffffffffffffffffffffffffffffffff16815260200190815260200160002060006005868154811061122357611222611eca565b5b90600052602060002001548152602001908152602001600020600001548152602001600360003373ffffffffffffffffffffffffffffffffffffffff1673ffffffffffffffffffffffffffffffffffffffff16815260200190815260200160002060006005868154811061129a57611299611eca565b5b9060005260206000200154815260200190815260200160002060010180546112c190611c34565b80601f01602080910402602001604051908101604052809291908181526020018280546112ed90611c34565b801561133a5780601f1061130f5761010080835404028352916020019161133a565b820191906000526020600020905b81548152906001019060200180831161131d57829003601f168201915b50505050508152602001600360003373ffffffffffffffffffffffffffffffffffffffff1673ffffffffffffffffffffffffffffffffffffffff16815260200190815260200160002060006005868154811061139957611398611eca565b5b90600052602060002001548152602001908152602001600020600201548152509050808484815181106113cf576113ce611eca565b5b602002602001018190525082806113e590611ef9565b935050505b80806113f590611ef9565b915050611106565b50819250505090565b60405180606001604052806000815260200160608152602001600081525090565b6040518060800160405280600081526020016000815260200160608152602001600081525090565b6000604051905090565b600080fd5b600080fd5b6000819050919050565b61147681611463565b811461148157600080fd5b50565b6000813590506114938161146d565b92915050565b6000602082840312156114af576114ae611459565b5b60006114bd84828501611484565b91505092915050565b6114cf81611463565b82525050565b600081519050919050565b600082825260208201905092915050565b60005b8381101561150f5780820151818401526020810190506114f4565b60008484015250505050565b6000601f19601f8301169050919050565b6000611537826114d5565b61154181856114e0565b93506115518185602086016114f1565b61155a8161151b565b840191505092915050565b600060808201905061157a60008301876114c6565b61158760208301866114c6565b8181036040830152611599818561152c565b90506115a860608301846114c6565b95945050505050565b600073ffffffffffffffffffffffffffffffffffffffff82169050919050565b60006115dc826115b1565b9050919050565b6115ec816115d1565b81146115f757600080fd5b50565b600081359050611609816115e3565b92915050565b6000806000806080858703121561162957611628611459565b5b600061163787828801611484565b945050602061164887828801611484565b9350506040611659878288016115fa565b925050606061166a87828801611484565b91505092959194509250565b6000806040838503121561168d5761168c611459565b5b600061169b858286016115fa565b92505060206116ac85828601611484565b9150509250929050565b60006020820190506116cb60008301846114c6565b92915050565b600080604083850312156116e8576116e7611459565b5b60006116f685828601611484565b925050602061170785828601611484565b9150509250929050565b600060608201905061172660008301866114c6565b8181036020830152611738818561152c565b905061174760408301846114c6565b949350505050565b600081519050919050565b600082825260208201905092915050565b6000819050602082019050919050565b61178481611463565b82525050565b600082825260208201905092915050565b60006117a6826114d5565b6117b0818561178a565b93506117c08185602086016114f1565b6117c98161151b565b840191505092915050565b60006060830160008301516117ec600086018261177b565b5060208301518482036020860152611804828261179b565b9150506040830151611819604086018261177b565b508091505092915050565b600061183083836117d4565b905092915050565b6000602082019050919050565b60006118508261174f565b61185a818561175a565b93508360208202850161186c8561176b565b8060005b858110156118a857848403895281516118898582611824565b945061189483611838565b925060208a01995050600181019050611870565b50829750879550505050505092915050565b600060208201905081810360008301526118d48184611845565b905092915050565b600080fd5b600080fd5b7f4e487b7100000000000000000000000000000000000000000000000000000000600052604160045260246000fd5b61191e8261151b565b810181811067ffffffffffffffff8211171561193d5761193c6118e6565b5b80604052505050565b600061195061144f565b905061195c8282611915565b919050565b600067ffffffffffffffff82111561197c5761197b6118e6565b5b6119858261151b565b9050602081019050919050565b82818337600083830152505050565b60006119b46119af84611961565b611946565b9050828152602081018484840111156119d0576119cf6118e1565b5b6119db848285611992565b509392505050565b600082601f8301126119f8576119f76118dc565b5b8135611a088482602086016119a1565b91505092915050565b60008060008060808587031215611a2b57611a2a611459565b5b6000611a3987828801611484565b9450506020611a4a87828801611484565b935050604085013567ffffffffffffffff811115611a6b57611a6a61145e565b5b611a77878288016119e3565b9250506060611a8887828801611484565b91505092959194509250565b611a9d816115d1565b82525050565b6000602082019050611ab86000830184611a94565b92915050565b600081519050919050565b600082825260208201905092915050565b6000819050602082019050919050565b6000608083016000830151611b02600086018261177b565b506020830151611b15602086018261177b565b5060408301518482036040860152611b2d828261179b565b9150506060830151611b42606086018261177b565b508091505092915050565b6000611b598383611aea565b905092915050565b6000602082019050919050565b6000611b7982611abe565b611b838185611ac9565b935083602082028501611b9585611ada565b8060005b85811015611bd15784840389528151611bb28582611b4d565b9450611bbd83611b61565b925060208a01995050600181019050611b99565b50829750879550505050505092915050565b60006020820190508181036000830152611bfd8184611b6e565b905092915050565b7f4e487b7100000000000000000000000000000000000000000000000000000000600052602260045260246000fd5b60006002820490506001821680611c4c57607f821691505b602082108103611c5f57611c5e611c05565b5b50919050565b7f496e73756666696369656e742042616c616e6365000000000000000000000000600082015250565b6000611c9b6014836114e0565b9150611ca682611c65565b602082019050919050565b60006020820190508181036000830152611cca81611c8e565b9050919050565b7f496e636f7272656374204163636f756e74204e756d6265720000000000000000600082015250565b6000611d076018836114e0565b9150611d1282611cd1565b602082019050919050565b60006020820190508181036000830152611d3681611cfa565b9050919050565b7f4e487b7100000000000000000000000000000000000000000000000000000000600052601160045260246000fd5b6000611d7782611463565b9150611d8283611463565b9250828203905081811115611d9a57611d99611d3d565b5b92915050565b6000611dab82611463565b9150611db683611463565b9250828201905080821115611dce57611dcd611d3d565b5b92915050565b6000608082019050611de960008301876114c6565b611df660208301866114c6565b611e0360408301856114c6565b611e1060608301846114c6565b95945050505050565b6000608082019050611e2e6000830187611a94565b611e3b60208301866114c6565b611e4860408301856114c6565b611e5560608301846114c6565b95945050505050565b7f556e617574686f72697a6564207065726d697373696f6e000000000000000000600082015250565b6000611e946017836114e0565b9150611e9f82611e5e565b602082019050919050565b60006020820190508181036000830152611ec381611e87565b9050919050565b7f4e487b7100000000000000000000000000000000000000000000000000000000600052603260045260246000fd5b6000611f0482611463565b91507fffffffffffffffffffffffffffffffffffffffffffffffffffffffffffffffff8203611f3657611f35611d3d565b5b600182019050919050565b7f4163636f756e7420416c72656164792045786973740000000000000000000000600082015250565b6000611f776015836114e0565b9150611f8282611f41565b602082019050919050565b60006020820190508181036000830152611fa681611f6a565b9050919050565b60008190508160005260206000209050919050565b60006020601f8301049050919050565b600082821b905092915050565b60006008830261200f7fffffffffffffffffffffffffffffffffffffffffffffffffffffffffffffffff82611fd2565b6120198683611fd2565b95508019841693508086168417925050509392505050565b6000819050919050565b600061205661205161204c84611463565b612031565b611463565b9050919050565b6000819050919050565b6120708361203b565b61208461207c8261205d565b848454611fdf565b825550505050565b600090565b61209961208c565b6120a4818484612067565b505050565b5b818110156120c8576120bd600082612091565b6001810190506120aa565b5050565b601f82111561210d576120de81611fad565b6120e784611fc2565b810160208510156120f6578190505b61210a61210285611fc2565b8301826120a9565b50505b505050565b600082821c905092915050565b600061213060001984600802612112565b1980831691505092915050565b6000612149838361211f565b9150826002028217905092915050565b612162826114d5565b67ffffffffffffffff81111561217b5761217a6118e6565b5b6121858254611c34565b6121908282856120cc565b600060209050601f8311600181146121c357600084156121b1578287015190505b6121bb858261213d565b865550612223565b601f1984166121d186611fad565b60005b828110156121f9578489015182556001820191506020850194506020810190506121d4565b868310156122165784890151612212601f89168261211f565b8355505b6001600288020188555050505b505050505050565b60006060820190506122406000830186611a94565b61224d60208301856114c6565b61225a60408301846114c6565b94935050505056fea2646970667358221220f1b3229ee55ff5ed7fb7b56e83dde01df784d49ba7bcef75acc714c5c7af374d64736f6c63430008100033",
          "opcodes": "PUSH1 0x80 PUSH1 0x40 MSTORE CALLVALUE DUP1 ISZERO PUSH2 0x10 JUMPI PUSH1 0x0 DUP1 REVERT JUMPDEST POP CALLER PUSH1 0x0 DUP1 PUSH2 0x100 EXP DUP2 SLOAD DUP2 PUSH20 0xFFFFFFFFFFFFFFFFFFFFFFFFFFFFFFFFFFFFFFFF MUL NOT AND SWAP1 DUP4 PUSH20 0xFFFFFFFFFFFFFFFFFFFFFFFFFFFFFFFFFFFFFFFF AND MUL OR SWAP1 SSTORE POP PUSH2 0x2298 DUP1 PUSH2 0x60 PUSH1 0x0 CODECOPY PUSH1 0x0 RETURN INVALID PUSH1 0x80 PUSH1 0x40 MSTORE CALLVALUE DUP1 ISZERO PUSH2 0x10 JUMPI PUSH1 0x0 DUP1 REVERT JUMPDEST POP PUSH1 0x4 CALLDATASIZE LT PUSH2 0xA9 JUMPI PUSH1 0x0 CALLDATALOAD PUSH1 0xE0 SHR DUP1 PUSH4 0xB26EA798 GT PUSH2 0x71 JUMPI DUP1 PUSH4 0xB26EA798 EQ PUSH2 0x17B JUMPI DUP1 PUSH4 0xC8CB55AE EQ PUSH2 0x1AB JUMPI DUP1 PUSH4 0xE2BBB158 EQ PUSH2 0x1C7 JUMPI DUP1 PUSH4 0xEDF26D9B EQ PUSH2 0x1E3 JUMPI DUP1 PUSH4 0xF2A40DB8 EQ PUSH2 0x213 JUMPI DUP1 PUSH4 0xF2DBF12E EQ PUSH2 0x243 JUMPI PUSH2 0xA9 JUMP JUMPDEST DUP1 PUSH4 0x78C9ED3 EQ PUSH2 0xAE JUMPI DUP1 PUSH4 0x15F1D66D EQ PUSH2 0xE1 JUMPI DUP1 PUSH4 0x2B04E840 EQ PUSH2 0xFD JUMPI DUP1 PUSH4 0x441A3E70 EQ PUSH2 0x12D JUMPI DUP1 PUSH4 0xB0FB25CC EQ PUSH2 0x149 JUMPI JUMPDEST PUSH1 0x0 DUP1 REVERT JUMPDEST PUSH2 0xC8 PUSH1 0x4 DUP1 CALLDATASIZE SUB DUP2 ADD SWAP1 PUSH2 0xC3 SWAP2 SWAP1 PUSH2 0x1499 JUMP JUMPDEST PUSH2 0x261 JUMP JUMPDEST PUSH1 0x40 MLOAD PUSH2 0xD8 SWAP5 SWAP4 SWAP3 SWAP2 SWAP1 PUSH2 0x1565 JUMP JUMPDEST PUSH1 0x40 MLOAD DUP1 SWAP2 SUB SWAP1 RETURN JUMPDEST PUSH2 0xFB PUSH1 0x4 DUP1 CALLDATASIZE SUB DUP2 ADD SWAP1 PUSH2 0xF6 SWAP2 SWAP1 PUSH2 0x160F JUMP JUMPDEST PUSH2 0x329 JUMP JUMPDEST STOP JUMPDEST PUSH2 0x117 PUSH1 0x4 DUP1 CALLDATASIZE SUB DUP2 ADD SWAP1 PUSH2 0x112 SWAP2 SWAP1 PUSH2 0x1676 JUMP JUMPDEST PUSH2 0x61D JUMP JUMPDEST PUSH1 0x40 MLOAD PUSH2 0x124 SWAP2 SWAP1 PUSH2 0x16B6 JUMP JUMPDEST PUSH1 0x40 MLOAD DUP1 SWAP2 SUB SWAP1 RETURN JUMPDEST PUSH2 0x147 PUSH1 0x4 DUP1 CALLDATASIZE SUB DUP2 ADD SWAP1 PUSH2 0x142 SWAP2 SWAP1 PUSH2 0x16D1 JUMP JUMPDEST PUSH2 0x67B JUMP JUMPDEST STOP JUMPDEST PUSH2 0x163 PUSH1 0x4 DUP1 CALLDATASIZE SUB DUP2 ADD SWAP1 PUSH2 0x15E SWAP2 SWAP1 PUSH2 0x1499 JUMP JUMPDEST PUSH2 0x80C JUMP JUMPDEST PUSH1 0x40 MLOAD PUSH2 0x172 SWAP4 SWAP3 SWAP2 SWAP1 PUSH2 0x1711 JUMP JUMPDEST PUSH1 0x40 MLOAD DUP1 SWAP2 SUB SWAP1 RETURN JUMPDEST PUSH2 0x195 PUSH1 0x4 DUP1 CALLDATASIZE SUB DUP2 ADD SWAP1 PUSH2 0x190 SWAP2 SWAP1 PUSH2 0x1499 JUMP JUMPDEST PUSH2 0x8CE JUMP JUMPDEST PUSH1 0x40 MLOAD PUSH2 0x1A2 SWAP2 SWAP1 PUSH2 0x18BA JUMP JUMPDEST PUSH1 0x40 MLOAD DUP1 SWAP2 SUB SWAP1 RETURN JUMPDEST PUSH2 0x1C5 PUSH1 0x4 DUP1 CALLDATASIZE SUB DUP2 ADD SWAP1 PUSH2 0x1C0 SWAP2 SWAP1 PUSH2 0x1A11 JUMP JUMPDEST PUSH2 0xD16 JUMP JUMPDEST STOP JUMPDEST PUSH2 0x1E1 PUSH1 0x4 DUP1 CALLDATASIZE SUB DUP2 ADD SWAP1 PUSH2 0x1DC SWAP2 SWAP1 PUSH2 0x16D1 JUMP JUMPDEST PUSH2 0xF45 JUMP JUMPDEST STOP JUMPDEST PUSH2 0x1FD PUSH1 0x4 DUP1 CALLDATASIZE SUB DUP2 ADD SWAP1 PUSH2 0x1F8 SWAP2 SWAP1 PUSH2 0x1499 JUMP JUMPDEST PUSH2 0x103C JUMP JUMPDEST PUSH1 0x40 MLOAD PUSH2 0x20A SWAP2 SWAP1 PUSH2 0x1AA3 JUMP JUMPDEST PUSH1 0x40 MLOAD DUP1 SWAP2 SUB SWAP1 RETURN JUMPDEST PUSH2 0x22D PUSH1 0x4 DUP1 CALLDATASIZE SUB DUP2 ADD SWAP1 PUSH2 0x228 SWAP2 SWAP1 PUSH2 0x1499 JUMP JUMPDEST PUSH2 0x107B JUMP JUMPDEST PUSH1 0x40 MLOAD PUSH2 0x23A SWAP2 SWAP1 PUSH2 0x16B6 JUMP JUMPDEST PUSH1 0x40 MLOAD DUP1 SWAP2 SUB SWAP1 RETURN JUMPDEST PUSH2 0x24B PUSH2 0x109F JUMP JUMPDEST PUSH1 0x40 MLOAD PUSH2 0x258 SWAP2 SWAP1 PUSH2 0x1BE3 JUMP JUMPDEST PUSH1 0x40 MLOAD DUP1 SWAP2 SUB SWAP1 RETURN JUMPDEST PUSH1 0x1 DUP2 DUP2 SLOAD DUP2 LT PUSH2 0x271 JUMPI PUSH1 0x0 DUP1 REVERT JUMPDEST SWAP1 PUSH1 0x0 MSTORE PUSH1 0x20 PUSH1 0x0 KECCAK256 SWAP1 PUSH1 0x4 MUL ADD PUSH1 0x0 SWAP2 POP SWAP1 POP DUP1 PUSH1 0x0 ADD SLOAD SWAP1 DUP1 PUSH1 0x1 ADD SLOAD SWAP1 DUP1 PUSH1 0x2 ADD DUP1 SLOAD PUSH2 0x2A0 SWAP1 PUSH2 0x1C34 JUMP JUMPDEST DUP1 PUSH1 0x1F ADD PUSH1 0x20 DUP1 SWAP2 DIV MUL PUSH1 0x20 ADD PUSH1 0x40 MLOAD SWAP1 DUP2 ADD PUSH1 0x40 MSTORE DUP1 SWAP3 SWAP2 SWAP1 DUP2 DUP2 MSTORE PUSH1 0x20 ADD DUP3 DUP1 SLOAD PUSH2 0x2CC SWAP1 PUSH2 0x1C34 JUMP JUMPDEST DUP1 ISZERO PUSH2 0x319 JUMPI DUP1 PUSH1 0x1F LT PUSH2 0x2EE JUMPI PUSH2 0x100 DUP1 DUP4 SLOAD DIV MUL DUP4 MSTORE SWAP2 PUSH1 0x20 ADD SWAP2 PUSH2 0x319 JUMP JUMPDEST DUP3 ADD SWAP2 SWAP1 PUSH1 0x0 MSTORE PUSH1 0x20 PUSH1 0x0 KECCAK256 SWAP1 JUMPDEST DUP2 SLOAD DUP2 MSTORE SWAP1 PUSH1 0x1 ADD SWAP1 PUSH1 0x20 ADD DUP1 DUP4 GT PUSH2 0x2FC JUMPI DUP3 SWAP1 SUB PUSH1 0x1F AND DUP3 ADD SWAP2 JUMPDEST POP POP POP POP POP SWAP1 DUP1 PUSH1 0x3 ADD SLOAD SWAP1 POP DUP5 JUMP JUMPDEST DUP4 DUP2 DUP1 PUSH1 0x3 PUSH1 0x0 CALLER PUSH20 0xFFFFFFFFFFFFFFFFFFFFFFFFFFFFFFFFFFFFFFFF AND PUSH20 0xFFFFFFFFFFFFFFFFFFFFFFFFFFFFFFFFFFFFFFFF AND DUP2 MSTORE PUSH1 0x20 ADD SWAP1 DUP2 MSTORE PUSH1 0x20 ADD PUSH1 0x0 KECCAK256 PUSH1 0x0 DUP5 DUP2 MSTORE PUSH1 0x20 ADD SWAP1 DUP2 MSTORE PUSH1 0x20 ADD PUSH1 0x0 KECCAK256 PUSH1 0x2 ADD SLOAD LT ISZERO PUSH2 0x3C1 JUMPI PUSH1 0x40 MLOAD PUSH32 0x8C379A000000000000000000000000000000000000000000000000000000000 DUP2 MSTORE PUSH1 0x4 ADD PUSH2 0x3B8 SWAP1 PUSH2 0x1CB1 JUMP JUMPDEST PUSH1 0x40 MLOAD DUP1 SWAP2 SUB SWAP1 REVERT JUMPDEST DUP4 DUP6 PUSH1 0x1 ISZERO ISZERO PUSH1 0x3 PUSH1 0x0 DUP5 PUSH20 0xFFFFFFFFFFFFFFFFFFFFFFFFFFFFFFFFFFFFFFFF AND PUSH20 0xFFFFFFFFFFFFFFFFFFFFFFFFFFFFFFFFFFFFFFFF AND DUP2 MSTORE PUSH1 0x20 ADD SWAP1 DUP2 MSTORE PUSH1 0x20 ADD PUSH1 0x0 KECCAK256 PUSH1 0x0 DUP4 DUP2 MSTORE PUSH1 0x20 ADD SWAP1 DUP2 MSTORE PUSH1 0x20 ADD PUSH1 0x0 KECCAK256 PUSH1 0x3 ADD PUSH1 0x0 SWAP1 SLOAD SWAP1 PUSH2 0x100 EXP SWAP1 DIV PUSH1 0xFF AND ISZERO ISZERO EQ PUSH2 0x46A JUMPI PUSH1 0x40 MLOAD PUSH32 0x8C379A000000000000000000000000000000000000000000000000000000000 DUP2 MSTORE PUSH1 0x4 ADD PUSH2 0x461 SWAP1 PUSH2 0x1D1D JUMP JUMPDEST PUSH1 0x40 MLOAD DUP1 SWAP2 SUB SWAP1 REVERT JUMPDEST DUP5 PUSH1 0x3 PUSH1 0x0 CALLER PUSH20 0xFFFFFFFFFFFFFFFFFFFFFFFFFFFFFFFFFFFFFFFF AND PUSH20 0xFFFFFFFFFFFFFFFFFFFFFFFFFFFFFFFFFFFFFFFF AND DUP2 MSTORE PUSH1 0x20 ADD SWAP1 DUP2 MSTORE PUSH1 0x20 ADD PUSH1 0x0 KECCAK256 PUSH1 0x0 DUP11 DUP2 MSTORE PUSH1 0x20 ADD SWAP1 DUP2 MSTORE PUSH1 0x20 ADD PUSH1 0x0 KECCAK256 PUSH1 0x2 ADD SLOAD PUSH2 0x4C9 SWAP2 SWAP1 PUSH2 0x1D6C JUMP JUMPDEST PUSH1 0x3 PUSH1 0x0 CALLER PUSH20 0xFFFFFFFFFFFFFFFFFFFFFFFFFFFFFFFFFFFFFFFF AND PUSH20 0xFFFFFFFFFFFFFFFFFFFFFFFFFFFFFFFFFFFFFFFF AND DUP2 MSTORE PUSH1 0x20 ADD SWAP1 DUP2 MSTORE PUSH1 0x20 ADD PUSH1 0x0 KECCAK256 PUSH1 0x0 DUP11 DUP2 MSTORE PUSH1 0x20 ADD SWAP1 DUP2 MSTORE PUSH1 0x20 ADD PUSH1 0x0 KECCAK256 PUSH1 0x2 ADD DUP2 SWAP1 SSTORE POP DUP5 PUSH1 0x3 PUSH1 0x0 DUP9 PUSH20 0xFFFFFFFFFFFFFFFFFFFFFFFFFFFFFFFFFFFFFFFF AND PUSH20 0xFFFFFFFFFFFFFFFFFFFFFFFFFFFFFFFFFFFFFFFF AND DUP2 MSTORE PUSH1 0x20 ADD SWAP1 DUP2 MSTORE PUSH1 0x20 ADD PUSH1 0x0 KECCAK256 PUSH1 0x0 DUP10 DUP2 MSTORE PUSH1 0x20 ADD SWAP1 DUP2 MSTORE PUSH1 0x20 ADD PUSH1 0x0 KECCAK256 PUSH1 0x2 ADD SLOAD PUSH2 0x57F SWAP2 SWAP1 PUSH2 0x1DA0 JUMP JUMPDEST PUSH1 0x3 PUSH1 0x0 DUP9 PUSH20 0xFFFFFFFFFFFFFFFFFFFFFFFFFFFFFFFFFFFFFFFF AND PUSH20 0xFFFFFFFFFFFFFFFFFFFFFFFFFFFFFFFFFFFFFFFF AND DUP2 MSTORE PUSH1 0x20 ADD SWAP1 DUP2 MSTORE PUSH1 0x20 ADD PUSH1 0x0 KECCAK256 PUSH1 0x0 DUP10 DUP2 MSTORE PUSH1 0x20 ADD SWAP1 DUP2 MSTORE PUSH1 0x20 ADD PUSH1 0x0 KECCAK256 PUSH1 0x2 ADD DUP2 SWAP1 SSTORE POP PUSH32 0x8F0BCAD820B3433BF6FFDA6BE49871F18B8C267AC1C7DB8F94432AE3224ADB5D DUP9 DUP9 DUP8 TIMESTAMP PUSH1 0x40 MLOAD PUSH2 0x60B SWAP5 SWAP4 SWAP3 SWAP2 SWAP1 PUSH2 0x1DD4 JUMP JUMPDEST PUSH1 0x40 MLOAD DUP1 SWAP2 SUB SWAP1 LOG1 POP POP POP POP POP POP POP POP JUMP JUMPDEST PUSH1 0x0 PUSH1 0x3 PUSH1 0x0 DUP5 PUSH20 0xFFFFFFFFFFFFFFFFFFFFFFFFFFFFFFFFFFFFFFFF AND PUSH20 0xFFFFFFFFFFFFFFFFFFFFFFFFFFFFFFFFFFFFFFFF AND DUP2 MSTORE PUSH1 0x20 ADD SWAP1 DUP2 MSTORE PUSH1 0x20 ADD PUSH1 0x0 KECCAK256 PUSH1 0x0 DUP4 DUP2 MSTORE PUSH1 0x20 ADD SWAP1 DUP2 MSTORE PUSH1 0x20 ADD PUSH1 0x0 KECCAK256 PUSH1 0x2 ADD SLOAD SWAP1 POP SWAP3 SWAP2 POP POP JUMP JUMPDEST DUP2 DUP2 DUP1 PUSH1 0x3 PUSH1 0x0 CALLER PUSH20 0xFFFFFFFFFFFFFFFFFFFFFFFFFFFFFFFFFFFFFFFF AND PUSH20 0xFFFFFFFFFFFFFFFFFFFFFFFFFFFFFFFFFFFFFFFF AND DUP2 MSTORE PUSH1 0x20 ADD SWAP1 DUP2 MSTORE PUSH1 0x20 ADD PUSH1 0x0 KECCAK256 PUSH1 0x0 DUP5 DUP2 MSTORE PUSH1 0x20 ADD SWAP1 DUP2 MSTORE PUSH1 0x20 ADD PUSH1 0x0 KECCAK256 PUSH1 0x2 ADD SLOAD LT ISZERO PUSH2 0x713 JUMPI PUSH1 0x40 MLOAD PUSH32 0x8C379A000000000000000000000000000000000000000000000000000000000 DUP2 MSTORE PUSH1 0x4 ADD PUSH2 0x70A SWAP1 PUSH2 0x1CB1 JUMP JUMPDEST PUSH1 0x40 MLOAD DUP1 SWAP2 SUB SWAP1 REVERT JUMPDEST DUP3 PUSH1 0x3 PUSH1 0x0 CALLER PUSH20 0xFFFFFFFFFFFFFFFFFFFFFFFFFFFFFFFFFFFFFFFF AND PUSH20 0xFFFFFFFFFFFFFFFFFFFFFFFFFFFFFFFFFFFFFFFF AND DUP2 MSTORE PUSH1 0x20 ADD SWAP1 DUP2 MSTORE PUSH1 0x20 ADD PUSH1 0x0 KECCAK256 PUSH1 0x0 DUP7 DUP2 MSTORE PUSH1 0x20 ADD SWAP1 DUP2 MSTORE PUSH1 0x20 ADD PUSH1 0x0 KECCAK256 PUSH1 0x2 ADD SLOAD PUSH2 0x772 SWAP2 SWAP1 PUSH2 0x1D6C JUMP JUMPDEST PUSH1 0x3 PUSH1 0x0 CALLER PUSH20 0xFFFFFFFFFFFFFFFFFFFFFFFFFFFFFFFFFFFFFFFF AND PUSH20 0xFFFFFFFFFFFFFFFFFFFFFFFFFFFFFFFFFFFFFFFF AND DUP2 MSTORE PUSH1 0x20 ADD SWAP1 DUP2 MSTORE PUSH1 0x20 ADD PUSH1 0x0 KECCAK256 PUSH1 0x0 DUP7 DUP2 MSTORE PUSH1 0x20 ADD SWAP1 DUP2 MSTORE PUSH1 0x20 ADD PUSH1 0x0 KECCAK256 PUSH1 0x2 ADD DUP2 SWAP1 SSTORE POP PUSH32 0x2C475B8285D302922E0B51CACE5489A97D98708A2A3A01EDF1E62F3B3900C487 CALLER DUP6 DUP6 TIMESTAMP PUSH1 0x40 MLOAD PUSH2 0x7FE SWAP5 SWAP4 SWAP3 SWAP2 SWAP1 PUSH2 0x1E19 JUMP JUMPDEST PUSH1 0x40 MLOAD DUP1 SWAP2 SUB SWAP1 LOG1 POP POP POP POP JUMP JUMPDEST PUSH1 0x2 DUP2 DUP2 SLOAD DUP2 LT PUSH2 0x81C JUMPI PUSH1 0x0 DUP1 REVERT JUMPDEST SWAP1 PUSH1 0x0 MSTORE PUSH1 0x20 PUSH1 0x0 KECCAK256 SWAP1 PUSH1 0x3 MUL ADD PUSH1 0x0 SWAP2 POP SWAP1 POP DUP1 PUSH1 0x0 ADD SLOAD SWAP1 DUP1 PUSH1 0x1 ADD DUP1 SLOAD PUSH2 0x845 SWAP1 PUSH2 0x1C34 JUMP JUMPDEST DUP1 PUSH1 0x1F ADD PUSH1 0x20 DUP1 SWAP2 DIV MUL PUSH1 0x20 ADD PUSH1 0x40 MLOAD SWAP1 DUP2 ADD PUSH1 0x40 MSTORE DUP1 SWAP3 SWAP2 SWAP1 DUP2 DUP2 MSTORE PUSH1 0x20 ADD DUP3 DUP1 SLOAD PUSH2 0x871 SWAP1 PUSH2 0x1C34 JUMP JUMPDEST DUP1 ISZERO PUSH2 0x8BE JUMPI DUP1 PUSH1 0x1F LT PUSH2 0x893 JUMPI PUSH2 0x100 DUP1 DUP4 SLOAD DIV MUL DUP4 MSTORE SWAP2 PUSH1 0x20 ADD SWAP2 PUSH2 0x8BE JUMP JUMPDEST DUP3 ADD SWAP2 SWAP1 PUSH1 0x0 MSTORE PUSH1 0x20 PUSH1 0x0 KECCAK256 SWAP1 JUMPDEST DUP2 SLOAD DUP2 MSTORE SWAP1 PUSH1 0x1 ADD SWAP1 PUSH1 0x20 ADD DUP1 DUP4 GT PUSH2 0x8A1 JUMPI DUP3 SWAP1 SUB PUSH1 0x1F AND DUP3 ADD SWAP2 JUMPDEST POP POP POP POP POP SWAP1 DUP1 PUSH1 0x2 ADD SLOAD SWAP1 POP DUP4 JUMP JUMPDEST PUSH1 0x60 PUSH1 0x0 DUP1 SLOAD SWAP1 PUSH2 0x100 EXP SWAP1 DIV PUSH20 0xFFFFFFFFFFFFFFFFFFFFFFFFFFFFFFFFFFFFFFFF AND PUSH20 0xFFFFFFFFFFFFFFFFFFFFFFFFFFFFFFFFFFFFFFFF AND CALLER PUSH20 0xFFFFFFFFFFFFFFFFFFFFFFFFFFFFFFFFFFFFFFFF AND EQ PUSH2 0x95E JUMPI PUSH1 0x40 MLOAD PUSH32 0x8C379A000000000000000000000000000000000000000000000000000000000 DUP2 MSTORE PUSH1 0x4 ADD PUSH2 0x955 SWAP1 PUSH2 0x1EAA JUMP JUMPDEST PUSH1 0x40 MLOAD DUP1 SWAP2 SUB SWAP1 REVERT JUMPDEST PUSH1 0x0 DUP1 PUSH1 0x5 DUP1 SLOAD SWAP1 POP PUSH8 0xFFFFFFFFFFFFFFFF DUP2 GT ISZERO PUSH2 0x980 JUMPI PUSH2 0x97F PUSH2 0x18E6 JUMP JUMPDEST JUMPDEST PUSH1 0x40 MLOAD SWAP1 DUP1 DUP3 MSTORE DUP1 PUSH1 0x20 MUL PUSH1 0x20 ADD DUP3 ADD PUSH1 0x40 MSTORE DUP1 ISZERO PUSH2 0x9B9 JUMPI DUP2 PUSH1 0x20 ADD JUMPDEST PUSH2 0x9A6 PUSH2 0x1406 JUMP JUMPDEST DUP2 MSTORE PUSH1 0x20 ADD SWAP1 PUSH1 0x1 SWAP1 SUB SWAP1 DUP2 PUSH2 0x99E JUMPI SWAP1 POP JUMPDEST POP SWAP1 POP PUSH1 0x0 JUMPDEST PUSH1 0x4 DUP1 SLOAD SWAP1 POP DUP2 LT ISZERO PUSH2 0xD0B JUMPI PUSH1 0x0 JUMPDEST PUSH1 0x5 DUP1 SLOAD SWAP1 POP DUP2 LT ISZERO PUSH2 0xCF7 JUMPI DUP6 PUSH1 0x3 PUSH1 0x0 PUSH1 0x4 DUP6 DUP2 SLOAD DUP2 LT PUSH2 0x9F5 JUMPI PUSH2 0x9F4 PUSH2 0x1ECA JUMP JUMPDEST JUMPDEST SWAP1 PUSH1 0x0 MSTORE PUSH1 0x20 PUSH1 0x0 KECCAK256 ADD PUSH1 0x0 SWAP1 SLOAD SWAP1 PUSH2 0x100 EXP SWAP1 DIV PUSH20 0xFFFFFFFFFFFFFFFFFFFFFFFFFFFFFFFFFFFFFFFF AND PUSH20 0xFFFFFFFFFFFFFFFFFFFFFFFFFFFFFFFFFFFFFFFF AND PUSH20 0xFFFFFFFFFFFFFFFFFFFFFFFFFFFFFFFFFFFFFFFF AND DUP2 MSTORE PUSH1 0x20 ADD SWAP1 DUP2 MSTORE PUSH1 0x20 ADD PUSH1 0x0 KECCAK256 PUSH1 0x0 PUSH1 0x5 DUP5 DUP2 SLOAD DUP2 LT PUSH2 0xA70 JUMPI PUSH2 0xA6F PUSH2 0x1ECA JUMP JUMPDEST JUMPDEST SWAP1 PUSH1 0x0 MSTORE PUSH1 0x20 PUSH1 0x0 KECCAK256 ADD SLOAD DUP2 MSTORE PUSH1 0x20 ADD SWAP1 DUP2 MSTORE PUSH1 0x20 ADD PUSH1 0x0 KECCAK256 PUSH1 0x0 ADD SLOAD SUB PUSH2 0xCE4 JUMPI PUSH1 0x0 PUSH1 0x40 MLOAD DUP1 PUSH1 0x60 ADD PUSH1 0x40 MSTORE DUP1 PUSH1 0x5 DUP5 DUP2 SLOAD DUP2 LT PUSH2 0xAB3 JUMPI PUSH2 0xAB2 PUSH2 0x1ECA JUMP JUMPDEST JUMPDEST SWAP1 PUSH1 0x0 MSTORE PUSH1 0x20 PUSH1 0x0 KECCAK256 ADD SLOAD DUP2 MSTORE PUSH1 0x20 ADD PUSH1 0x3 PUSH1 0x0 PUSH1 0x4 DUP8 DUP2 SLOAD DUP2 LT PUSH2 0xADB JUMPI PUSH2 0xADA PUSH2 0x1ECA JUMP JUMPDEST JUMPDEST SWAP1 PUSH1 0x0 MSTORE PUSH1 0x20 PUSH1 0x0 KECCAK256 ADD PUSH1 0x0 SWAP1 SLOAD SWAP1 PUSH2 0x100 EXP SWAP1 DIV PUSH20 0xFFFFFFFFFFFFFFFFFFFFFFFFFFFFFFFFFFFFFFFF AND PUSH20 0xFFFFFFFFFFFFFFFFFFFFFFFFFFFFFFFFFFFFFFFF AND PUSH20 0xFFFFFFFFFFFFFFFFFFFFFFFFFFFFFFFFFFFFFFFF AND DUP2 MSTORE PUSH1 0x20 ADD SWAP1 DUP2 MSTORE PUSH1 0x20 ADD PUSH1 0x0 KECCAK256 PUSH1 0x0 PUSH1 0x5 DUP7 DUP2 SLOAD DUP2 LT PUSH2 0xB56 JUMPI PUSH2 0xB55 PUSH2 0x1ECA JUMP JUMPDEST JUMPDEST SWAP1 PUSH1 0x0 MSTORE PUSH1 0x20 PUSH1 0x0 KECCAK256 ADD SLOAD DUP2 MSTORE PUSH1 0x20 ADD SWAP1 DUP2 MSTORE PUSH1 0x20 ADD PUSH1 0x0 KECCAK256 PUSH1 0x1 ADD DUP1 SLOAD PUSH2 0xB7D SWAP1 PUSH2 0x1C34 JUMP JUMPDEST DUP1 PUSH1 0x1F ADD PUSH1 0x20 DUP1 SWAP2 DIV MUL PUSH1 0x20 ADD PUSH1 0x40 MLOAD SWAP1 DUP2 ADD PUSH1 0x40 MSTORE DUP1 SWAP3 SWAP2 SWAP1 DUP2 DUP2 MSTORE PUSH1 0x20 ADD DUP3 DUP1 SLOAD PUSH2 0xBA9 SWAP1 PUSH2 0x1C34 JUMP JUMPDEST DUP1 ISZERO PUSH2 0xBF6 JUMPI DUP1 PUSH1 0x1F LT PUSH2 0xBCB JUMPI PUSH2 0x100 DUP1 DUP4 SLOAD DIV MUL DUP4 MSTORE SWAP2 PUSH1 0x20 ADD SWAP2 PUSH2 0xBF6 JUMP JUMPDEST DUP3 ADD SWAP2 SWAP1 PUSH1 0x0 MSTORE PUSH1 0x20 PUSH1 0x0 KECCAK256 SWAP1 JUMPDEST DUP2 SLOAD DUP2 MSTORE SWAP1 PUSH1 0x1 ADD SWAP1 PUSH1 0x20 ADD DUP1 DUP4 GT PUSH2 0xBD9 JUMPI DUP3 SWAP1 SUB PUSH1 0x1F AND DUP3 ADD SWAP2 JUMPDEST POP POP POP POP POP DUP2 MSTORE PUSH1 0x20 ADD PUSH1 0x3 PUSH1 0x0 PUSH1 0x4 DUP8 DUP2 SLOAD DUP2 LT PUSH2 0xC18 JUMPI PUSH2 0xC17 PUSH2 0x1ECA JUMP JUMPDEST JUMPDEST SWAP1 PUSH1 0x0 MSTORE PUSH1 0x20 PUSH1 0x0 KECCAK256 ADD PUSH1 0x0 SWAP1 SLOAD SWAP1 PUSH2 0x100 EXP SWAP1 DIV PUSH20 0xFFFFFFFFFFFFFFFFFFFFFFFFFFFFFFFFFFFFFFFF AND PUSH20 0xFFFFFFFFFFFFFFFFFFFFFFFFFFFFFFFFFFFFFFFF AND PUSH20 0xFFFFFFFFFFFFFFFFFFFFFFFFFFFFFFFFFFFFFFFF AND DUP2 MSTORE PUSH1 0x20 ADD SWAP1 DUP2 MSTORE PUSH1 0x20 ADD PUSH1 0x0 KECCAK256 PUSH1 0x0 PUSH1 0x5 DUP7 DUP2 SLOAD DUP2 LT PUSH2 0xC93 JUMPI PUSH2 0xC92 PUSH2 0x1ECA JUMP JUMPDEST JUMPDEST SWAP1 PUSH1 0x0 MSTORE PUSH1 0x20 PUSH1 0x0 KECCAK256 ADD SLOAD DUP2 MSTORE PUSH1 0x20 ADD SWAP1 DUP2 MSTORE PUSH1 0x20 ADD PUSH1 0x0 KECCAK256 PUSH1 0x2 ADD SLOAD DUP2 MSTORE POP SWAP1 POP DUP1 DUP5 DUP7 DUP2 MLOAD DUP2 LT PUSH2 0xCC9 JUMPI PUSH2 0xCC8 PUSH2 0x1ECA JUMP JUMPDEST JUMPDEST PUSH1 0x20 MUL PUSH1 0x20 ADD ADD DUP2 SWAP1 MSTORE POP DUP5 DUP1 PUSH2 0xCDF SWAP1 PUSH2 0x1EF9 JUMP JUMPDEST SWAP6 POP POP POP JUMPDEST DUP1 DUP1 PUSH2 0xCEF SWAP1 PUSH2 0x1EF9 JUMP JUMPDEST SWAP2 POP POP PUSH2 0x9CF JUMP JUMPDEST POP DUP1 DUP1 PUSH2 0xD03 SWAP1 PUSH2 0x1EF9 JUMP JUMPDEST SWAP2 POP POP PUSH2 0x9BF JUMP JUMPDEST POP DUP1 SWAP3 POP POP POP SWAP2 SWAP1 POP JUMP JUMPDEST DUP4 PUSH1 0x0 DUP1 PUSH1 0x0 SWAP1 POP JUMPDEST PUSH1 0x5 DUP1 SLOAD SWAP1 POP DUP2 LT ISZERO PUSH2 0xD6D JUMPI DUP3 PUSH1 0x5 DUP3 DUP2 SLOAD DUP2 LT PUSH2 0xD41 JUMPI PUSH2 0xD40 PUSH2 0x1ECA JUMP JUMPDEST JUMPDEST SWAP1 PUSH1 0x0 MSTORE PUSH1 0x20 PUSH1 0x0 KECCAK256 ADD SLOAD SUB PUSH2 0xD5A JUMPI PUSH1 0x1 SWAP2 POP PUSH2 0xD6D JUMP JUMPDEST DUP1 DUP1 PUSH2 0xD65 SWAP1 PUSH2 0x1EF9 JUMP JUMPDEST SWAP2 POP POP PUSH2 0xD1F JUMP JUMPDEST POP PUSH1 0x0 ISZERO ISZERO DUP2 ISZERO ISZERO EQ PUSH2 0xDB5 JUMPI PUSH1 0x40 MLOAD PUSH32 0x8C379A000000000000000000000000000000000000000000000000000000000 DUP2 MSTORE PUSH1 0x4 ADD PUSH2 0xDAC SWAP1 PUSH2 0x1F8D JUMP JUMPDEST PUSH1 0x40 MLOAD DUP1 SWAP2 SUB SWAP1 REVERT JUMPDEST PUSH1 0x4 CALLER SWAP1 DUP1 PUSH1 0x1 DUP2 SLOAD ADD DUP1 DUP3 SSTORE DUP1 SWAP2 POP POP PUSH1 0x1 SWAP1 SUB SWAP1 PUSH1 0x0 MSTORE PUSH1 0x20 PUSH1 0x0 KECCAK256 ADD PUSH1 0x0 SWAP1 SWAP2 SWAP1 SWAP2 SWAP1 SWAP2 PUSH2 0x100 EXP DUP2 SLOAD DUP2 PUSH20 0xFFFFFFFFFFFFFFFFFFFFFFFFFFFFFFFFFFFFFFFF MUL NOT AND SWAP1 DUP4 PUSH20 0xFFFFFFFFFFFFFFFFFFFFFFFFFFFFFFFFFFFFFFFF AND MUL OR SWAP1 SSTORE POP PUSH1 0x5 DUP7 SWAP1 DUP1 PUSH1 0x1 DUP2 SLOAD ADD DUP1 DUP3 SSTORE DUP1 SWAP2 POP POP PUSH1 0x1 SWAP1 SUB SWAP1 PUSH1 0x0 MSTORE PUSH1 0x20 PUSH1 0x0 KECCAK256 ADD PUSH1 0x0 SWAP1 SWAP2 SWAP1 SWAP2 SWAP1 SWAP2 POP SSTORE PUSH1 0x40 MLOAD DUP1 PUSH1 0x80 ADD PUSH1 0x40 MSTORE DUP1 DUP7 DUP2 MSTORE PUSH1 0x20 ADD DUP6 DUP2 MSTORE PUSH1 0x20 ADD DUP5 DUP2 MSTORE PUSH1 0x20 ADD PUSH1 0x1 ISZERO ISZERO DUP2 MSTORE POP PUSH1 0x3 PUSH1 0x0 CALLER PUSH20 0xFFFFFFFFFFFFFFFFFFFFFFFFFFFFFFFFFFFFFFFF AND PUSH20 0xFFFFFFFFFFFFFFFFFFFFFFFFFFFFFFFFFFFFFFFF AND DUP2 MSTORE PUSH1 0x20 ADD SWAP1 DUP2 MSTORE PUSH1 0x20 ADD PUSH1 0x0 KECCAK256 PUSH1 0x0 DUP9 DUP2 MSTORE PUSH1 0x20 ADD SWAP1 DUP2 MSTORE PUSH1 0x20 ADD PUSH1 0x0 KECCAK256 PUSH1 0x0 DUP3 ADD MLOAD DUP2 PUSH1 0x0 ADD SSTORE PUSH1 0x20 DUP3 ADD MLOAD DUP2 PUSH1 0x1 ADD SWAP1 DUP2 PUSH2 0xED4 SWAP2 SWAP1 PUSH2 0x2159 JUMP JUMPDEST POP PUSH1 0x40 DUP3 ADD MLOAD DUP2 PUSH1 0x2 ADD SSTORE PUSH1 0x60 DUP3 ADD MLOAD DUP2 PUSH1 0x3 ADD PUSH1 0x0 PUSH2 0x100 EXP DUP2 SLOAD DUP2 PUSH1 0xFF MUL NOT AND SWAP1 DUP4 ISZERO ISZERO MUL OR SWAP1 SSTORE POP SWAP1 POP POP PUSH32 0x86DC9B84D24D91976389928021D50A70822F4A52230234823092B04C828FB7A6 CALLER DUP8 TIMESTAMP PUSH1 0x40 MLOAD PUSH2 0xF35 SWAP4 SWAP3 SWAP2 SWAP1 PUSH2 0x222B JUMP JUMPDEST PUSH1 0x40 MLOAD DUP1 SWAP2 SUB SWAP1 LOG1 POP POP POP POP POP POP JUMP JUMPDEST DUP1 PUSH1 0x3 PUSH1 0x0 CALLER PUSH20 0xFFFFFFFFFFFFFFFFFFFFFFFFFFFFFFFFFFFFFFFF AND PUSH20 0xFFFFFFFFFFFFFFFFFFFFFFFFFFFFFFFFFFFFFFFF AND DUP2 MSTORE PUSH1 0x20 ADD SWAP1 DUP2 MSTORE PUSH1 0x20 ADD PUSH1 0x0 KECCAK256 PUSH1 0x0 DUP5 DUP2 MSTORE PUSH1 0x20 ADD SWAP1 DUP2 MSTORE PUSH1 0x20 ADD PUSH1 0x0 KECCAK256 PUSH1 0x2 ADD SLOAD PUSH2 0xFA4 SWAP2 SWAP1 PUSH2 0x1DA0 JUMP JUMPDEST PUSH1 0x3 PUSH1 0x0 CALLER PUSH20 0xFFFFFFFFFFFFFFFFFFFFFFFFFFFFFFFFFFFFFFFF AND PUSH20 0xFFFFFFFFFFFFFFFFFFFFFFFFFFFFFFFFFFFFFFFF AND DUP2 MSTORE PUSH1 0x20 ADD SWAP1 DUP2 MSTORE PUSH1 0x20 ADD PUSH1 0x0 KECCAK256 PUSH1 0x0 DUP5 DUP2 MSTORE PUSH1 0x20 ADD SWAP1 DUP2 MSTORE PUSH1 0x20 ADD PUSH1 0x0 KECCAK256 PUSH1 0x2 ADD DUP2 SWAP1 SSTORE POP PUSH32 0x2C475B8285D302922E0B51CACE5489A97D98708A2A3A01EDF1E62F3B3900C487 CALLER DUP4 DUP4 TIMESTAMP PUSH1 0x40 MLOAD PUSH2 0x1030 SWAP5 SWAP4 SWAP3 SWAP2 SWAP1 PUSH2 0x1E19 JUMP JUMPDEST PUSH1 0x40 MLOAD DUP1 SWAP2 SUB SWAP1 LOG1 POP POP JUMP JUMPDEST PUSH1 0x4 DUP2 DUP2 SLOAD DUP2 LT PUSH2 0x104C JUMPI PUSH1 0x0 DUP1 REVERT JUMPDEST SWAP1 PUSH1 0x0 MSTORE PUSH1 0x20 PUSH1 0x0 KECCAK256 ADD PUSH1 0x0 SWAP2 POP SLOAD SWAP1 PUSH2 0x100 EXP SWAP1 DIV PUSH20 0xFFFFFFFFFFFFFFFFFFFFFFFFFFFFFFFFFFFFFFFF AND DUP2 JUMP JUMPDEST PUSH1 0x5 DUP2 DUP2 SLOAD DUP2 LT PUSH2 0x108B JUMPI PUSH1 0x0 DUP1 REVERT JUMPDEST SWAP1 PUSH1 0x0 MSTORE PUSH1 0x20 PUSH1 0x0 KECCAK256 ADD PUSH1 0x0 SWAP2 POP SWAP1 POP SLOAD DUP2 JUMP JUMPDEST PUSH1 0x60 PUSH1 0x0 PUSH1 0x5 DUP1 SLOAD SWAP1 POP PUSH8 0xFFFFFFFFFFFFFFFF DUP2 GT ISZERO PUSH2 0x10C2 JUMPI PUSH2 0x10C1 PUSH2 0x18E6 JUMP JUMPDEST JUMPDEST PUSH1 0x40 MLOAD SWAP1 DUP1 DUP3 MSTORE DUP1 PUSH1 0x20 MUL PUSH1 0x20 ADD DUP3 ADD PUSH1 0x40 MSTORE DUP1 ISZERO PUSH2 0x10FB JUMPI DUP2 PUSH1 0x20 ADD JUMPDEST PUSH2 0x10E8 PUSH2 0x1427 JUMP JUMPDEST DUP2 MSTORE PUSH1 0x20 ADD SWAP1 PUSH1 0x1 SWAP1 SUB SWAP1 DUP2 PUSH2 0x10E0 JUMPI SWAP1 POP JUMPDEST POP SWAP1 POP PUSH1 0x0 DUP1 PUSH1 0x0 SWAP1 POP JUMPDEST PUSH1 0x5 DUP1 SLOAD SWAP1 POP DUP2 LT ISZERO PUSH2 0x13FD JUMPI PUSH1 0x1 ISZERO ISZERO PUSH1 0x3 PUSH1 0x0 CALLER PUSH20 0xFFFFFFFFFFFFFFFFFFFFFFFFFFFFFFFFFFFFFFFF AND PUSH20 0xFFFFFFFFFFFFFFFFFFFFFFFFFFFFFFFFFFFFFFFF AND DUP2 MSTORE PUSH1 0x20 ADD SWAP1 DUP2 MSTORE PUSH1 0x20 ADD PUSH1 0x0 KECCAK256 PUSH1 0x0 PUSH1 0x5 DUP5 DUP2 SLOAD DUP2 LT PUSH2 0x116C JUMPI PUSH2 0x116B PUSH2 0x1ECA JUMP JUMPDEST JUMPDEST SWAP1 PUSH1 0x0 MSTORE PUSH1 0x20 PUSH1 0x0 KECCAK256 ADD SLOAD DUP2 MSTORE PUSH1 0x20 ADD SWAP1 DUP2 MSTORE PUSH1 0x20 ADD PUSH1 0x0 KECCAK256 PUSH1 0x3 ADD PUSH1 0x0 SWAP1 SLOAD SWAP1 PUSH2 0x100 EXP SWAP1 DIV PUSH1 0xFF AND ISZERO ISZERO SUB PUSH2 0x13EA JUMPI PUSH1 0x0 PUSH1 0x40 MLOAD DUP1 PUSH1 0x80 ADD PUSH1 0x40 MSTORE DUP1 PUSH1 0x5 DUP5 DUP2 SLOAD DUP2 LT PUSH2 0x11BE JUMPI PUSH2 0x11BD PUSH2 0x1ECA JUMP JUMPDEST JUMPDEST SWAP1 PUSH1 0x0 MSTORE PUSH1 0x20 PUSH1 0x0 KECCAK256 ADD SLOAD DUP2 MSTORE PUSH1 0x20 ADD PUSH1 0x3 PUSH1 0x0 CALLER PUSH20 0xFFFFFFFFFFFFFFFFFFFFFFFFFFFFFFFFFFFFFFFF AND PUSH20 0xFFFFFFFFFFFFFFFFFFFFFFFFFFFFFFFFFFFFFFFF AND DUP2 MSTORE PUSH1 0x20 ADD SWAP1 DUP2 MSTORE PUSH1 0x20 ADD PUSH1 0x0 KECCAK256 PUSH1 0x0 PUSH1 0x5 DUP7 DUP2 SLOAD DUP2 LT PUSH2 0x1223 JUMPI PUSH2 0x1222 PUSH2 0x1ECA JUMP JUMPDEST JUMPDEST SWAP1 PUSH1 0x0 MSTORE PUSH1 0x20 PUSH1 0x0 KECCAK256 ADD SLOAD DUP2 MSTORE PUSH1 0x20 ADD SWAP1 DUP2 MSTORE PUSH1 0x20 ADD PUSH1 0x0 KECCAK256 PUSH1 0x0 ADD SLOAD DUP2 MSTORE PUSH1 0x20 ADD PUSH1 0x3 PUSH1 0x0 CALLER PUSH20 0xFFFFFFFFFFFFFFFFFFFFFFFFFFFFFFFFFFFFFFFF AND PUSH20 0xFFFFFFFFFFFFFFFFFFFFFFFFFFFFFFFFFFFFFFFF AND DUP2 MSTORE PUSH1 0x20 ADD SWAP1 DUP2 MSTORE PUSH1 0x20 ADD PUSH1 0x0 KECCAK256 PUSH1 0x0 PUSH1 0x5 DUP7 DUP2 SLOAD DUP2 LT PUSH2 0x129A JUMPI PUSH2 0x1299 PUSH2 0x1ECA JUMP JUMPDEST JUMPDEST SWAP1 PUSH1 0x0 MSTORE PUSH1 0x20 PUSH1 0x0 KECCAK256 ADD SLOAD DUP2 MSTORE PUSH1 0x20 ADD SWAP1 DUP2 MSTORE PUSH1 0x20 ADD PUSH1 0x0 KECCAK256 PUSH1 0x1 ADD DUP1 SLOAD PUSH2 0x12C1 SWAP1 PUSH2 0x1C34 JUMP JUMPDEST DUP1 PUSH1 0x1F ADD PUSH1 0x20 DUP1 SWAP2 DIV MUL PUSH1 0x20 ADD PUSH1 0x40 MLOAD SWAP1 DUP2 ADD PUSH1 0x40 MSTORE DUP1 SWAP3 SWAP2 SWAP1 DUP2 DUP2 MSTORE PUSH1 0x20 ADD DUP3 DUP1 SLOAD PUSH2 0x12ED SWAP1 PUSH2 0x1C34 JUMP JUMPDEST DUP1 ISZERO PUSH2 0x133A JUMPI DUP1 PUSH1 0x1F LT PUSH2 0x130F JUMPI PUSH2 0x100 DUP1 DUP4 SLOAD DIV MUL DUP4 MSTORE SWAP2 PUSH1 0x20 ADD SWAP2 PUSH2 0x133A JUMP JUMPDEST DUP3 ADD SWAP2 SWAP1 PUSH1 0x0 MSTORE PUSH1 0x20 PUSH1 0x0 KECCAK256 SWAP1 JUMPDEST DUP2 SLOAD DUP2 MSTORE SWAP1 PUSH1 0x1 ADD SWAP1 PUSH1 0x20 ADD DUP1 DUP4 GT PUSH2 0x131D JUMPI DUP3 SWAP1 SUB PUSH1 0x1F AND DUP3 ADD SWAP2 JUMPDEST POP POP POP POP POP DUP2 MSTORE PUSH1 0x20 ADD PUSH1 0x3 PUSH1 0x0 CALLER PUSH20 0xFFFFFFFFFFFFFFFFFFFFFFFFFFFFFFFFFFFFFFFF AND PUSH20 0xFFFFFFFFFFFFFFFFFFFFFFFFFFFFFFFFFFFFFFFF AND DUP2 MSTORE PUSH1 0x20 ADD SWAP1 DUP2 MSTORE PUSH1 0x20 ADD PUSH1 0x0 KECCAK256 PUSH1 0x0 PUSH1 0x5 DUP7 DUP2 SLOAD DUP2 LT PUSH2 0x1399 JUMPI PUSH2 0x1398 PUSH2 0x1ECA JUMP JUMPDEST JUMPDEST SWAP1 PUSH1 0x0 MSTORE PUSH1 0x20 PUSH1 0x0 KECCAK256 ADD SLOAD DUP2 MSTORE PUSH1 0x20 ADD SWAP1 DUP2 MSTORE PUSH1 0x20 ADD PUSH1 0x0 KECCAK256 PUSH1 0x2 ADD SLOAD DUP2 MSTORE POP SWAP1 POP DUP1 DUP5 DUP5 DUP2 MLOAD DUP2 LT PUSH2 0x13CF JUMPI PUSH2 0x13CE PUSH2 0x1ECA JUMP JUMPDEST JUMPDEST PUSH1 0x20 MUL PUSH1 0x20 ADD ADD DUP2 SWAP1 MSTORE POP DUP3 DUP1 PUSH2 0x13E5 SWAP1 PUSH2 0x1EF9 JUMP JUMPDEST SWAP4 POP POP POP JUMPDEST DUP1 DUP1 PUSH2 0x13F5 SWAP1 PUSH2 0x1EF9 JUMP JUMPDEST SWAP2 POP POP PUSH2 0x1106 JUMP JUMPDEST POP DUP2 SWAP3 POP POP POP SWAP1 JUMP JUMPDEST PUSH1 0x40 MLOAD DUP1 PUSH1 0x60 ADD PUSH1 0x40 MSTORE DUP1 PUSH1 0x0 DUP2 MSTORE PUSH1 0x20 ADD PUSH1 0x60 DUP2 MSTORE PUSH1 0x20 ADD PUSH1 0x0 DUP2 MSTORE POP SWAP1 JUMP JUMPDEST PUSH1 0x40 MLOAD DUP1 PUSH1 0x80 ADD PUSH1 0x40 MSTORE DUP1 PUSH1 0x0 DUP2 MSTORE PUSH1 0x20 ADD PUSH1 0x0 DUP2 MSTORE PUSH1 0x20 ADD PUSH1 0x60 DUP2 MSTORE PUSH1 0x20 ADD PUSH1 0x0 DUP2 MSTORE POP SWAP1 JUMP JUMPDEST PUSH1 0x0 PUSH1 0x40 MLOAD SWAP1 POP SWAP1 JUMP JUMPDEST PUSH1 0x0 DUP1 REVERT JUMPDEST PUSH1 0x0 DUP1 REVERT JUMPDEST PUSH1 0x0 DUP2 SWAP1 POP SWAP2 SWAP1 POP JUMP JUMPDEST PUSH2 0x1476 DUP2 PUSH2 0x1463 JUMP JUMPDEST DUP2 EQ PUSH2 0x1481 JUMPI PUSH1 0x0 DUP1 REVERT JUMPDEST POP JUMP JUMPDEST PUSH1 0x0 DUP2 CALLDATALOAD SWAP1 POP PUSH2 0x1493 DUP2 PUSH2 0x146D JUMP JUMPDEST SWAP3 SWAP2 POP POP JUMP JUMPDEST PUSH1 0x0 PUSH1 0x20 DUP3 DUP5 SUB SLT ISZERO PUSH2 0x14AF JUMPI PUSH2 0x14AE PUSH2 0x1459 JUMP JUMPDEST JUMPDEST PUSH1 0x0 PUSH2 0x14BD DUP5 DUP3 DUP6 ADD PUSH2 0x1484 JUMP JUMPDEST SWAP2 POP POP SWAP3 SWAP2 POP POP JUMP JUMPDEST PUSH2 0x14CF DUP2 PUSH2 0x1463 JUMP JUMPDEST DUP3 MSTORE POP POP JUMP JUMPDEST PUSH1 0x0 DUP2 MLOAD SWAP1 POP SWAP2 SWAP1 POP JUMP JUMPDEST PUSH1 0x0 DUP3 DUP3 MSTORE PUSH1 0x20 DUP3 ADD SWAP1 POP SWAP3 SWAP2 POP POP JUMP JUMPDEST PUSH1 0x0 JUMPDEST DUP4 DUP2 LT ISZERO PUSH2 0x150F JUMPI DUP1 DUP3 ADD MLOAD DUP2 DUP5 ADD MSTORE PUSH1 0x20 DUP2 ADD SWAP1 POP PUSH2 0x14F4 JUMP JUMPDEST PUSH1 0x0 DUP5 DUP5 ADD MSTORE POP POP POP POP JUMP JUMPDEST PUSH1 0x0 PUSH1 0x1F NOT PUSH1 0x1F DUP4 ADD AND SWAP1 POP SWAP2 SWAP1 POP JUMP JUMPDEST PUSH1 0x0 PUSH2 0x1537 DUP3 PUSH2 0x14D5 JUMP JUMPDEST PUSH2 0x1541 DUP2 DUP6 PUSH2 0x14E0 JUMP JUMPDEST SWAP4 POP PUSH2 0x1551 DUP2 DUP6 PUSH1 0x20 DUP7 ADD PUSH2 0x14F1 JUMP JUMPDEST PUSH2 0x155A DUP2 PUSH2 0x151B JUMP JUMPDEST DUP5 ADD SWAP2 POP POP SWAP3 SWAP2 POP POP JUMP JUMPDEST PUSH1 0x0 PUSH1 0x80 DUP3 ADD SWAP1 POP PUSH2 0x157A PUSH1 0x0 DUP4 ADD DUP8 PUSH2 0x14C6 JUMP JUMPDEST PUSH2 0x1587 PUSH1 0x20 DUP4 ADD DUP7 PUSH2 0x14C6 JUMP JUMPDEST DUP2 DUP2 SUB PUSH1 0x40 DUP4 ADD MSTORE PUSH2 0x1599 DUP2 DUP6 PUSH2 0x152C JUMP JUMPDEST SWAP1 POP PUSH2 0x15A8 PUSH1 0x60 DUP4 ADD DUP5 PUSH2 0x14C6 JUMP JUMPDEST SWAP6 SWAP5 POP POP POP POP POP JUMP JUMPDEST PUSH1 0x0 PUSH20 0xFFFFFFFFFFFFFFFFFFFFFFFFFFFFFFFFFFFFFFFF DUP3 AND SWAP1 POP SWAP2 SWAP1 POP JUMP JUMPDEST PUSH1 0x0 PUSH2 0x15DC DUP3 PUSH2 0x15B1 JUMP JUMPDEST SWAP1 POP SWAP2 SWAP1 POP JUMP JUMPDEST PUSH2 0x15EC DUP2 PUSH2 0x15D1 JUMP JUMPDEST DUP2 EQ PUSH2 0x15F7 JUMPI PUSH1 0x0 DUP1 REVERT JUMPDEST POP JUMP JUMPDEST PUSH1 0x0 DUP2 CALLDATALOAD SWAP1 POP PUSH2 0x1609 DUP2 PUSH2 0x15E3 JUMP JUMPDEST SWAP3 SWAP2 POP POP JUMP JUMPDEST PUSH1 0x0 DUP1 PUSH1 0x0 DUP1 PUSH1 0x80 DUP6 DUP8 SUB SLT ISZERO PUSH2 0x1629 JUMPI PUSH2 0x1628 PUSH2 0x1459 JUMP JUMPDEST JUMPDEST PUSH1 0x0 PUSH2 0x1637 DUP8 DUP3 DUP9 ADD PUSH2 0x1484 JUMP JUMPDEST SWAP5 POP POP PUSH1 0x20 PUSH2 0x1648 DUP8 DUP3 DUP9 ADD PUSH2 0x1484 JUMP JUMPDEST SWAP4 POP POP PUSH1 0x40 PUSH2 0x1659 DUP8 DUP3 DUP9 ADD PUSH2 0x15FA JUMP JUMPDEST SWAP3 POP POP PUSH1 0x60 PUSH2 0x166A DUP8 DUP3 DUP9 ADD PUSH2 0x1484 JUMP JUMPDEST SWAP2 POP POP SWAP3 SWAP6 SWAP2 SWAP5 POP SWAP3 POP JUMP JUMPDEST PUSH1 0x0 DUP1 PUSH1 0x40 DUP4 DUP6 SUB SLT ISZERO PUSH2 0x168D JUMPI PUSH2 0x168C PUSH2 0x1459 JUMP JUMPDEST JUMPDEST PUSH1 0x0 PUSH2 0x169B DUP6 DUP3 DUP7 ADD PUSH2 0x15FA JUMP JUMPDEST SWAP3 POP POP PUSH1 0x20 PUSH2 0x16AC DUP6 DUP3 DUP7 ADD PUSH2 0x1484 JUMP JUMPDEST SWAP2 POP POP SWAP3 POP SWAP3 SWAP1 POP JUMP JUMPDEST PUSH1 0x0 PUSH1 0x20 DUP3 ADD SWAP1 POP PUSH2 0x16CB PUSH1 0x0 DUP4 ADD DUP5 PUSH2 0x14C6 JUMP JUMPDEST SWAP3 SWAP2 POP POP JUMP JUMPDEST PUSH1 0x0 DUP1 PUSH1 0x40 DUP4 DUP6 SUB SLT ISZERO PUSH2 0x16E8 JUMPI PUSH2 0x16E7 PUSH2 0x1459 JUMP JUMPDEST JUMPDEST PUSH1 0x0 PUSH2 0x16F6 DUP6 DUP3 DUP7 ADD PUSH2 0x1484 JUMP JUMPDEST SWAP3 POP POP PUSH1 0x20 PUSH2 0x1707 DUP6 DUP3 DUP7 ADD PUSH2 0x1484 JUMP JUMPDEST SWAP2 POP POP SWAP3 POP SWAP3 SWAP1 POP JUMP JUMPDEST PUSH1 0x0 PUSH1 0x60 DUP3 ADD SWAP1 POP PUSH2 0x1726 PUSH1 0x0 DUP4 ADD DUP7 PUSH2 0x14C6 JUMP JUMPDEST DUP2 DUP2 SUB PUSH1 0x20 DUP4 ADD MSTORE PUSH2 0x1738 DUP2 DUP6 PUSH2 0x152C JUMP JUMPDEST SWAP1 POP PUSH2 0x1747 PUSH1 0x40 DUP4 ADD DUP5 PUSH2 0x14C6 JUMP JUMPDEST SWAP5 SWAP4 POP POP POP POP JUMP JUMPDEST PUSH1 0x0 DUP2 MLOAD SWAP1 POP SWAP2 SWAP1 POP JUMP JUMPDEST PUSH1 0x0 DUP3 DUP3 MSTORE PUSH1 0x20 DUP3 ADD SWAP1 POP SWAP3 SWAP2 POP POP JUMP JUMPDEST PUSH1 0x0 DUP2 SWAP1 POP PUSH1 0x20 DUP3 ADD SWAP1 POP SWAP2 SWAP1 POP JUMP JUMPDEST PUSH2 0x1784 DUP2 PUSH2 0x1463 JUMP JUMPDEST DUP3 MSTORE POP POP JUMP JUMPDEST PUSH1 0x0 DUP3 DUP3 MSTORE PUSH1 0x20 DUP3 ADD SWAP1 POP SWAP3 SWAP2 POP POP JUMP JUMPDEST PUSH1 0x0 PUSH2 0x17A6 DUP3 PUSH2 0x14D5 JUMP JUMPDEST PUSH2 0x17B0 DUP2 DUP6 PUSH2 0x178A JUMP JUMPDEST SWAP4 POP PUSH2 0x17C0 DUP2 DUP6 PUSH1 0x20 DUP7 ADD PUSH2 0x14F1 JUMP JUMPDEST PUSH2 0x17C9 DUP2 PUSH2 0x151B JUMP JUMPDEST DUP5 ADD SWAP2 POP POP SWAP3 SWAP2 POP POP JUMP JUMPDEST PUSH1 0x0 PUSH1 0x60 DUP4 ADD PUSH1 0x0 DUP4 ADD MLOAD PUSH2 0x17EC PUSH1 0x0 DUP7 ADD DUP3 PUSH2 0x177B JUMP JUMPDEST POP PUSH1 0x20 DUP4 ADD MLOAD DUP5 DUP3 SUB PUSH1 0x20 DUP7 ADD MSTORE PUSH2 0x1804 DUP3 DUP3 PUSH2 0x179B JUMP JUMPDEST SWAP2 POP POP PUSH1 0x40 DUP4 ADD MLOAD PUSH2 0x1819 PUSH1 0x40 DUP7 ADD DUP3 PUSH2 0x177B JUMP JUMPDEST POP DUP1 SWAP2 POP POP SWAP3 SWAP2 POP POP JUMP JUMPDEST PUSH1 0x0 PUSH2 0x1830 DUP4 DUP4 PUSH2 0x17D4 JUMP JUMPDEST SWAP1 POP SWAP3 SWAP2 POP POP JUMP JUMPDEST PUSH1 0x0 PUSH1 0x20 DUP3 ADD SWAP1 POP SWAP2 SWAP1 POP JUMP JUMPDEST PUSH1 0x0 PUSH2 0x1850 DUP3 PUSH2 0x174F JUMP JUMPDEST PUSH2 0x185A DUP2 DUP6 PUSH2 0x175A JUMP JUMPDEST SWAP4 POP DUP4 PUSH1 0x20 DUP3 MUL DUP6 ADD PUSH2 0x186C DUP6 PUSH2 0x176B JUMP JUMPDEST DUP1 PUSH1 0x0 JUMPDEST DUP6 DUP2 LT ISZERO PUSH2 0x18A8 JUMPI DUP5 DUP5 SUB DUP10 MSTORE DUP2 MLOAD PUSH2 0x1889 DUP6 DUP3 PUSH2 0x1824 JUMP JUMPDEST SWAP5 POP PUSH2 0x1894 DUP4 PUSH2 0x1838 JUMP JUMPDEST SWAP3 POP PUSH1 0x20 DUP11 ADD SWAP10 POP POP PUSH1 0x1 DUP2 ADD SWAP1 POP PUSH2 0x1870 JUMP JUMPDEST POP DUP3 SWAP8 POP DUP8 SWAP6 POP POP POP POP POP POP SWAP3 SWAP2 POP POP JUMP JUMPDEST PUSH1 0x0 PUSH1 0x20 DUP3 ADD SWAP1 POP DUP2 DUP2 SUB PUSH1 0x0 DUP4 ADD MSTORE PUSH2 0x18D4 DUP2 DUP5 PUSH2 0x1845 JUMP JUMPDEST SWAP1 POP SWAP3 SWAP2 POP POP JUMP JUMPDEST PUSH1 0x0 DUP1 REVERT JUMPDEST PUSH1 0x0 DUP1 REVERT JUMPDEST PUSH32 0x4E487B7100000000000000000000000000000000000000000000000000000000 PUSH1 0x0 MSTORE PUSH1 0x41 PUSH1 0x4 MSTORE PUSH1 0x24 PUSH1 0x0 REVERT JUMPDEST PUSH2 0x191E DUP3 PUSH2 0x151B JUMP JUMPDEST DUP2 ADD DUP2 DUP2 LT PUSH8 0xFFFFFFFFFFFFFFFF DUP3 GT OR ISZERO PUSH2 0x193D JUMPI PUSH2 0x193C PUSH2 0x18E6 JUMP JUMPDEST JUMPDEST DUP1 PUSH1 0x40 MSTORE POP POP POP JUMP JUMPDEST PUSH1 0x0 PUSH2 0x1950 PUSH2 0x144F JUMP JUMPDEST SWAP1 POP PUSH2 0x195C DUP3 DUP3 PUSH2 0x1915 JUMP JUMPDEST SWAP2 SWAP1 POP JUMP JUMPDEST PUSH1 0x0 PUSH8 0xFFFFFFFFFFFFFFFF DUP3 GT ISZERO PUSH2 0x197C JUMPI PUSH2 0x197B PUSH2 0x18E6 JUMP JUMPDEST JUMPDEST PUSH2 0x1985 DUP3 PUSH2 0x151B JUMP JUMPDEST SWAP1 POP PUSH1 0x20 DUP2 ADD SWAP1 POP SWAP2 SWAP1 POP JUMP JUMPDEST DUP3 DUP2 DUP4 CALLDATACOPY PUSH1 0x0 DUP4 DUP4 ADD MSTORE POP POP POP JUMP JUMPDEST PUSH1 0x0 PUSH2 0x19B4 PUSH2 0x19AF DUP5 PUSH2 0x1961 JUMP JUMPDEST PUSH2 0x1946 JUMP JUMPDEST SWAP1 POP DUP3 DUP2 MSTORE PUSH1 0x20 DUP2 ADD DUP5 DUP5 DUP5 ADD GT ISZERO PUSH2 0x19D0 JUMPI PUSH2 0x19CF PUSH2 0x18E1 JUMP JUMPDEST JUMPDEST PUSH2 0x19DB DUP5 DUP3 DUP6 PUSH2 0x1992 JUMP JUMPDEST POP SWAP4 SWAP3 POP POP POP JUMP JUMPDEST PUSH1 0x0 DUP3 PUSH1 0x1F DUP4 ADD SLT PUSH2 0x19F8 JUMPI PUSH2 0x19F7 PUSH2 0x18DC JUMP JUMPDEST JUMPDEST DUP2 CALLDATALOAD PUSH2 0x1A08 DUP5 DUP3 PUSH1 0x20 DUP7 ADD PUSH2 0x19A1 JUMP JUMPDEST SWAP2 POP POP SWAP3 SWAP2 POP POP JUMP JUMPDEST PUSH1 0x0 DUP1 PUSH1 0x0 DUP1 PUSH1 0x80 DUP6 DUP8 SUB SLT ISZERO PUSH2 0x1A2B JUMPI PUSH2 0x1A2A PUSH2 0x1459 JUMP JUMPDEST JUMPDEST PUSH1 0x0 PUSH2 0x1A39 DUP8 DUP3 DUP9 ADD PUSH2 0x1484 JUMP JUMPDEST SWAP5 POP POP PUSH1 0x20 PUSH2 0x1A4A DUP8 DUP3 DUP9 ADD PUSH2 0x1484 JUMP JUMPDEST SWAP4 POP POP PUSH1 0x40 DUP6 ADD CALLDATALOAD PUSH8 0xFFFFFFFFFFFFFFFF DUP2 GT ISZERO PUSH2 0x1A6B JUMPI PUSH2 0x1A6A PUSH2 0x145E JUMP JUMPDEST JUMPDEST PUSH2 0x1A77 DUP8 DUP3 DUP9 ADD PUSH2 0x19E3 JUMP JUMPDEST SWAP3 POP POP PUSH1 0x60 PUSH2 0x1A88 DUP8 DUP3 DUP9 ADD PUSH2 0x1484 JUMP JUMPDEST SWAP2 POP POP SWAP3 SWAP6 SWAP2 SWAP5 POP SWAP3 POP JUMP JUMPDEST PUSH2 0x1A9D DUP2 PUSH2 0x15D1 JUMP JUMPDEST DUP3 MSTORE POP POP JUMP JUMPDEST PUSH1 0x0 PUSH1 0x20 DUP3 ADD SWAP1 POP PUSH2 0x1AB8 PUSH1 0x0 DUP4 ADD DUP5 PUSH2 0x1A94 JUMP JUMPDEST SWAP3 SWAP2 POP POP JUMP JUMPDEST PUSH1 0x0 DUP2 MLOAD SWAP1 POP SWAP2 SWAP1 POP JUMP JUMPDEST PUSH1 0x0 DUP3 DUP3 MSTORE PUSH1 0x20 DUP3 ADD SWAP1 POP SWAP3 SWAP2 POP POP JUMP JUMPDEST PUSH1 0x0 DUP2 SWAP1 POP PUSH1 0x20 DUP3 ADD SWAP1 POP SWAP2 SWAP1 POP JUMP JUMPDEST PUSH1 0x0 PUSH1 0x80 DUP4 ADD PUSH1 0x0 DUP4 ADD MLOAD PUSH2 0x1B02 PUSH1 0x0 DUP7 ADD DUP3 PUSH2 0x177B JUMP JUMPDEST POP PUSH1 0x20 DUP4 ADD MLOAD PUSH2 0x1B15 PUSH1 0x20 DUP7 ADD DUP3 PUSH2 0x177B JUMP JUMPDEST POP PUSH1 0x40 DUP4 ADD MLOAD DUP5 DUP3 SUB PUSH1 0x40 DUP7 ADD MSTORE PUSH2 0x1B2D DUP3 DUP3 PUSH2 0x179B JUMP JUMPDEST SWAP2 POP POP PUSH1 0x60 DUP4 ADD MLOAD PUSH2 0x1B42 PUSH1 0x60 DUP7 ADD DUP3 PUSH2 0x177B JUMP JUMPDEST POP DUP1 SWAP2 POP POP SWAP3 SWAP2 POP POP JUMP JUMPDEST PUSH1 0x0 PUSH2 0x1B59 DUP4 DUP4 PUSH2 0x1AEA JUMP JUMPDEST SWAP1 POP SWAP3 SWAP2 POP POP JUMP JUMPDEST PUSH1 0x0 PUSH1 0x20 DUP3 ADD SWAP1 POP SWAP2 SWAP1 POP JUMP JUMPDEST PUSH1 0x0 PUSH2 0x1B79 DUP3 PUSH2 0x1ABE JUMP JUMPDEST PUSH2 0x1B83 DUP2 DUP6 PUSH2 0x1AC9 JUMP JUMPDEST SWAP4 POP DUP4 PUSH1 0x20 DUP3 MUL DUP6 ADD PUSH2 0x1B95 DUP6 PUSH2 0x1ADA JUMP JUMPDEST DUP1 PUSH1 0x0 JUMPDEST DUP6 DUP2 LT ISZERO PUSH2 0x1BD1 JUMPI DUP5 DUP5 SUB DUP10 MSTORE DUP2 MLOAD PUSH2 0x1BB2 DUP6 DUP3 PUSH2 0x1B4D JUMP JUMPDEST SWAP5 POP PUSH2 0x1BBD DUP4 PUSH2 0x1B61 JUMP JUMPDEST SWAP3 POP PUSH1 0x20 DUP11 ADD SWAP10 POP POP PUSH1 0x1 DUP2 ADD SWAP1 POP PUSH2 0x1B99 JUMP JUMPDEST POP DUP3 SWAP8 POP DUP8 SWAP6 POP POP POP POP POP POP SWAP3 SWAP2 POP POP JUMP JUMPDEST PUSH1 0x0 PUSH1 0x20 DUP3 ADD SWAP1 POP DUP2 DUP2 SUB PUSH1 0x0 DUP4 ADD MSTORE PUSH2 0x1BFD DUP2 DUP5 PUSH2 0x1B6E JUMP JUMPDEST SWAP1 POP SWAP3 SWAP2 POP POP JUMP JUMPDEST PUSH32 0x4E487B7100000000000000000000000000000000000000000000000000000000 PUSH1 0x0 MSTORE PUSH1 0x22 PUSH1 0x4 MSTORE PUSH1 0x24 PUSH1 0x0 REVERT JUMPDEST PUSH1 0x0 PUSH1 0x2 DUP3 DIV SWAP1 POP PUSH1 0x1 DUP3 AND DUP1 PUSH2 0x1C4C JUMPI PUSH1 0x7F DUP3 AND SWAP2 POP JUMPDEST PUSH1 0x20 DUP3 LT DUP2 SUB PUSH2 0x1C5F JUMPI PUSH2 0x1C5E PUSH2 0x1C05 JUMP JUMPDEST JUMPDEST POP SWAP2 SWAP1 POP JUMP JUMPDEST PUSH32 0x496E73756666696369656E742042616C616E6365000000000000000000000000 PUSH1 0x0 DUP3 ADD MSTORE POP JUMP JUMPDEST PUSH1 0x0 PUSH2 0x1C9B PUSH1 0x14 DUP4 PUSH2 0x14E0 JUMP JUMPDEST SWAP2 POP PUSH2 0x1CA6 DUP3 PUSH2 0x1C65 JUMP JUMPDEST PUSH1 0x20 DUP3 ADD SWAP1 POP SWAP2 SWAP1 POP JUMP JUMPDEST PUSH1 0x0 PUSH1 0x20 DUP3 ADD SWAP1 POP DUP2 DUP2 SUB PUSH1 0x0 DUP4 ADD MSTORE PUSH2 0x1CCA DUP2 PUSH2 0x1C8E JUMP JUMPDEST SWAP1 POP SWAP2 SWAP1 POP JUMP JUMPDEST PUSH32 0x496E636F7272656374204163636F756E74204E756D6265720000000000000000 PUSH1 0x0 DUP3 ADD MSTORE POP JUMP JUMPDEST PUSH1 0x0 PUSH2 0x1D07 PUSH1 0x18 DUP4 PUSH2 0x14E0 JUMP JUMPDEST SWAP2 POP PUSH2 0x1D12 DUP3 PUSH2 0x1CD1 JUMP JUMPDEST PUSH1 0x20 DUP3 ADD SWAP1 POP SWAP2 SWAP1 POP JUMP JUMPDEST PUSH1 0x0 PUSH1 0x20 DUP3 ADD SWAP1 POP DUP2 DUP2 SUB PUSH1 0x0 DUP4 ADD MSTORE PUSH2 0x1D36 DUP2 PUSH2 0x1CFA JUMP JUMPDEST SWAP1 POP SWAP2 SWAP1 POP JUMP JUMPDEST PUSH32 0x4E487B7100000000000000000000000000000000000000000000000000000000 PUSH1 0x0 MSTORE PUSH1 0x11 PUSH1 0x4 MSTORE PUSH1 0x24 PUSH1 0x0 REVERT JUMPDEST PUSH1 0x0 PUSH2 0x1D77 DUP3 PUSH2 0x1463 JUMP JUMPDEST SWAP2 POP PUSH2 0x1D82 DUP4 PUSH2 0x1463 JUMP JUMPDEST SWAP3 POP DUP3 DUP3 SUB SWAP1 POP DUP2 DUP2 GT ISZERO PUSH2 0x1D9A JUMPI PUSH2 0x1D99 PUSH2 0x1D3D JUMP JUMPDEST JUMPDEST SWAP3 SWAP2 POP POP JUMP JUMPDEST PUSH1 0x0 PUSH2 0x1DAB DUP3 PUSH2 0x1463 JUMP JUMPDEST SWAP2 POP PUSH2 0x1DB6 DUP4 PUSH2 0x1463 JUMP JUMPDEST SWAP3 POP DUP3 DUP3 ADD SWAP1 POP DUP1 DUP3 GT ISZERO PUSH2 0x1DCE JUMPI PUSH2 0x1DCD PUSH2 0x1D3D JUMP JUMPDEST JUMPDEST SWAP3 SWAP2 POP POP JUMP JUMPDEST PUSH1 0x0 PUSH1 0x80 DUP3 ADD SWAP1 POP PUSH2 0x1DE9 PUSH1 0x0 DUP4 ADD DUP8 PUSH2 0x14C6 JUMP JUMPDEST PUSH2 0x1DF6 PUSH1 0x20 DUP4 ADD DUP7 PUSH2 0x14C6 JUMP JUMPDEST PUSH2 0x1E03 PUSH1 0x40 DUP4 ADD DUP6 PUSH2 0x14C6 JUMP JUMPDEST PUSH2 0x1E10 PUSH1 0x60 DUP4 ADD DUP5 PUSH2 0x14C6 JUMP JUMPDEST SWAP6 SWAP5 POP POP POP POP POP JUMP JUMPDEST PUSH1 0x0 PUSH1 0x80 DUP3 ADD SWAP1 POP PUSH2 0x1E2E PUSH1 0x0 DUP4 ADD DUP8 PUSH2 0x1A94 JUMP JUMPDEST PUSH2 0x1E3B PUSH1 0x20 DUP4 ADD DUP7 PUSH2 0x14C6 JUMP JUMPDEST PUSH2 0x1E48 PUSH1 0x40 DUP4 ADD DUP6 PUSH2 0x14C6 JUMP JUMPDEST PUSH2 0x1E55 PUSH1 0x60 DUP4 ADD DUP5 PUSH2 0x14C6 JUMP JUMPDEST SWAP6 SWAP5 POP POP POP POP POP JUMP JUMPDEST PUSH32 0x556E617574686F72697A6564207065726D697373696F6E000000000000000000 PUSH1 0x0 DUP3 ADD MSTORE POP JUMP JUMPDEST PUSH1 0x0 PUSH2 0x1E94 PUSH1 0x17 DUP4 PUSH2 0x14E0 JUMP JUMPDEST SWAP2 POP PUSH2 0x1E9F DUP3 PUSH2 0x1E5E JUMP JUMPDEST PUSH1 0x20 DUP3 ADD SWAP1 POP SWAP2 SWAP1 POP JUMP JUMPDEST PUSH1 0x0 PUSH1 0x20 DUP3 ADD SWAP1 POP DUP2 DUP2 SUB PUSH1 0x0 DUP4 ADD MSTORE PUSH2 0x1EC3 DUP2 PUSH2 0x1E87 JUMP JUMPDEST SWAP1 POP SWAP2 SWAP1 POP JUMP JUMPDEST PUSH32 0x4E487B7100000000000000000000000000000000000000000000000000000000 PUSH1 0x0 MSTORE PUSH1 0x32 PUSH1 0x4 MSTORE PUSH1 0x24 PUSH1 0x0 REVERT JUMPDEST PUSH1 0x0 PUSH2 0x1F04 DUP3 PUSH2 0x1463 JUMP JUMPDEST SWAP2 POP PUSH32 0xFFFFFFFFFFFFFFFFFFFFFFFFFFFFFFFFFFFFFFFFFFFFFFFFFFFFFFFFFFFFFFFF DUP3 SUB PUSH2 0x1F36 JUMPI PUSH2 0x1F35 PUSH2 0x1D3D JUMP JUMPDEST JUMPDEST PUSH1 0x1 DUP3 ADD SWAP1 POP SWAP2 SWAP1 POP JUMP JUMPDEST PUSH32 0x4163636F756E7420416C72656164792045786973740000000000000000000000 PUSH1 0x0 DUP3 ADD MSTORE POP JUMP JUMPDEST PUSH1 0x0 PUSH2 0x1F77 PUSH1 0x15 DUP4 PUSH2 0x14E0 JUMP JUMPDEST SWAP2 POP PUSH2 0x1F82 DUP3 PUSH2 0x1F41 JUMP JUMPDEST PUSH1 0x20 DUP3 ADD SWAP1 POP SWAP2 SWAP1 POP JUMP JUMPDEST PUSH1 0x0 PUSH1 0x20 DUP3 ADD SWAP1 POP DUP2 DUP2 SUB PUSH1 0x0 DUP4 ADD MSTORE PUSH2 0x1FA6 DUP2 PUSH2 0x1F6A JUMP JUMPDEST SWAP1 POP SWAP2 SWAP1 POP JUMP JUMPDEST PUSH1 0x0 DUP2 SWAP1 POP DUP2 PUSH1 0x0 MSTORE PUSH1 0x20 PUSH1 0x0 KECCAK256 SWAP1 POP SWAP2 SWAP1 POP JUMP JUMPDEST PUSH1 0x0 PUSH1 0x20 PUSH1 0x1F DUP4 ADD DIV SWAP1 POP SWAP2 SWAP1 POP JUMP JUMPDEST PUSH1 0x0 DUP3 DUP3 SHL SWAP1 POP SWAP3 SWAP2 POP POP JUMP JUMPDEST PUSH1 0x0 PUSH1 0x8 DUP4 MUL PUSH2 0x200F PUSH32 0xFFFFFFFFFFFFFFFFFFFFFFFFFFFFFFFFFFFFFFFFFFFFFFFFFFFFFFFFFFFFFFFF DUP3 PUSH2 0x1FD2 JUMP JUMPDEST PUSH2 0x2019 DUP7 DUP4 PUSH2 0x1FD2 JUMP JUMPDEST SWAP6 POP DUP1 NOT DUP5 AND SWAP4 POP DUP1 DUP7 AND DUP5 OR SWAP3 POP POP POP SWAP4 SWAP3 POP POP POP JUMP JUMPDEST PUSH1 0x0 DUP2 SWAP1 POP SWAP2 SWAP1 POP JUMP JUMPDEST PUSH1 0x0 PUSH2 0x2056 PUSH2 0x2051 PUSH2 0x204C DUP5 PUSH2 0x1463 JUMP JUMPDEST PUSH2 0x2031 JUMP JUMPDEST PUSH2 0x1463 JUMP JUMPDEST SWAP1 POP SWAP2 SWAP1 POP JUMP JUMPDEST PUSH1 0x0 DUP2 SWAP1 POP SWAP2 SWAP1 POP JUMP JUMPDEST PUSH2 0x2070 DUP4 PUSH2 0x203B JUMP JUMPDEST PUSH2 0x2084 PUSH2 0x207C DUP3 PUSH2 0x205D JUMP JUMPDEST DUP5 DUP5 SLOAD PUSH2 0x1FDF JUMP JUMPDEST DUP3 SSTORE POP POP POP POP JUMP JUMPDEST PUSH1 0x0 SWAP1 JUMP JUMPDEST PUSH2 0x2099 PUSH2 0x208C JUMP JUMPDEST PUSH2 0x20A4 DUP2 DUP5 DUP5 PUSH2 0x2067 JUMP JUMPDEST POP POP POP JUMP JUMPDEST JUMPDEST DUP2 DUP2 LT ISZERO PUSH2 0x20C8 JUMPI PUSH2 0x20BD PUSH1 0x0 DUP3 PUSH2 0x2091 JUMP JUMPDEST PUSH1 0x1 DUP2 ADD SWAP1 POP PUSH2 0x20AA JUMP JUMPDEST POP POP JUMP JUMPDEST PUSH1 0x1F DUP3 GT ISZERO PUSH2 0x210D JUMPI PUSH2 0x20DE DUP2 PUSH2 0x1FAD JUMP JUMPDEST PUSH2 0x20E7 DUP5 PUSH2 0x1FC2 JUMP JUMPDEST DUP2 ADD PUSH1 0x20 DUP6 LT ISZERO PUSH2 0x20F6 JUMPI DUP2 SWAP1 POP JUMPDEST PUSH2 0x210A PUSH2 0x2102 DUP6 PUSH2 0x1FC2 JUMP JUMPDEST DUP4 ADD DUP3 PUSH2 0x20A9 JUMP JUMPDEST POP POP JUMPDEST POP POP POP JUMP JUMPDEST PUSH1 0x0 DUP3 DUP3 SHR SWAP1 POP SWAP3 SWAP2 POP POP JUMP JUMPDEST PUSH1 0x0 PUSH2 0x2130 PUSH1 0x0 NOT DUP5 PUSH1 0x8 MUL PUSH2 0x2112 JUMP JUMPDEST NOT DUP1 DUP4 AND SWAP2 POP POP SWAP3 SWAP2 POP POP JUMP JUMPDEST PUSH1 0x0 PUSH2 0x2149 DUP4 DUP4 PUSH2 0x211F JUMP JUMPDEST SWAP2 POP DUP3 PUSH1 0x2 MUL DUP3 OR SWAP1 POP SWAP3 SWAP2 POP POP JUMP JUMPDEST PUSH2 0x2162 DUP3 PUSH2 0x14D5 JUMP JUMPDEST PUSH8 0xFFFFFFFFFFFFFFFF DUP2 GT ISZERO PUSH2 0x217B JUMPI PUSH2 0x217A PUSH2 0x18E6 JUMP JUMPDEST JUMPDEST PUSH2 0x2185 DUP3 SLOAD PUSH2 0x1C34 JUMP JUMPDEST PUSH2 0x2190 DUP3 DUP3 DUP6 PUSH2 0x20CC JUMP JUMPDEST PUSH1 0x0 PUSH1 0x20 SWAP1 POP PUSH1 0x1F DUP4 GT PUSH1 0x1 DUP2 EQ PUSH2 0x21C3 JUMPI PUSH1 0x0 DUP5 ISZERO PUSH2 0x21B1 JUMPI DUP3 DUP8 ADD MLOAD SWAP1 POP JUMPDEST PUSH2 0x21BB DUP6 DUP3 PUSH2 0x213D JUMP JUMPDEST DUP7 SSTORE POP PUSH2 0x2223 JUMP JUMPDEST PUSH1 0x1F NOT DUP5 AND PUSH2 0x21D1 DUP7 PUSH2 0x1FAD JUMP JUMPDEST PUSH1 0x0 JUMPDEST DUP3 DUP2 LT ISZERO PUSH2 0x21F9 JUMPI DUP5 DUP10 ADD MLOAD DUP3 SSTORE PUSH1 0x1 DUP3 ADD SWAP2 POP PUSH1 0x20 DUP6 ADD SWAP5 POP PUSH1 0x20 DUP2 ADD SWAP1 POP PUSH2 0x21D4 JUMP JUMPDEST DUP7 DUP4 LT ISZERO PUSH2 0x2216 JUMPI DUP5 DUP10 ADD MLOAD PUSH2 0x2212 PUSH1 0x1F DUP10 AND DUP3 PUSH2 0x211F JUMP JUMPDEST DUP4 SSTORE POP JUMPDEST PUSH1 0x1 PUSH1 0x2 DUP9 MUL ADD DUP9 SSTORE POP POP POP JUMPDEST POP POP POP POP POP POP JUMP JUMPDEST PUSH1 0x0 PUSH1 0x60 DUP3 ADD SWAP1 POP PUSH2 0x2240 PUSH1 0x0 DUP4 ADD DUP7 PUSH2 0x1A94 JUMP JUMPDEST PUSH2 0x224D PUSH1 0x20 DUP4 ADD DUP6 PUSH2 0x14C6 JUMP JUMPDEST PUSH2 0x225A PUSH1 0x40 DUP4 ADD DUP5 PUSH2 0x14C6 JUMP JUMPDEST SWAP5 SWAP4 POP POP POP POP JUMP INVALID LOG2 PUSH5 0x6970667358 0x22 SLT KECCAK256 CALL 0xB3 0x22 SWAP15 0xE5 0x5F CREATE2 0xED PUSH32 0xB7B56E83DDE01DF784D49BA7BCEF75ACC714C5C7AF374D64736F6C6343000810 STOP CALLER "
        },
        "methodIdentifiers": {
          "accounts(uint256)": "f2a40db8",
          "addresses(uint256)": "edf26d9b",
          "balanceTransfer(uint256,uint256,address,uint256)": "15f1d66d",
          "createAccount(uint256,uint256,string,uint256)": "c8cb55ae",
          "deposit(uint256,uint256)": "e2bbb158",
          "getBalance(address,uint256)": "2b04e840",
          "getBankData(uint256)": "b26ea798",
          "personalInfo()": "f2dbf12e",
          "returnBankDataArray(uint256)": "b0fb25cc",
          "returnDataArray(uint256)": "078c9ed3",
          "withdraw(uint256,uint256)": "441a3e70"
        }
      }
    }
  }
}