{
  "contracts/functions.sol": {
    "functions": {
      "abi": [
        {
          "inputs": [],
          "stateMutability": "nonpayable",
          "type": "constructor"
        },
        {
          "anonymous": false,
          "inputs": [
            {
              "indexed": false,
              "internalType": "address",
              "name": "accountAddress",
              "type": "address"
            },
            {
              "indexed": false,
              "internalType": "uint256",
              "name": "accountNumber",
              "type": "uint256"
            },
            {
              "indexed": false,
              "internalType": "uint256",
              "name": "time",
              "type": "uint256"
            }
          ],
          "name": "eventAccountCreation",
          "type": "event"
        },
        {
          "anonymous": false,
          "inputs": [
            {
              "indexed": false,
              "internalType": "address",
              "name": "accountAddress",
              "type": "address"
            },
            {
              "indexed": false,
              "internalType": "uint256",
              "name": "accountNumber",
              "type": "uint256"
            },
            {
              "indexed": false,
              "internalType": "uint256",
              "name": "depositedBalance",
              "type": "uint256"
            },
            {
              "indexed": false,
              "internalType": "uint256",
              "name": "time",
              "type": "uint256"
            }
          ],
          "name": "eventBalanceDeposit",
          "type": "event"
        },
        {
          "anonymous": false,
          "inputs": [
            {
              "indexed": false,
              "internalType": "uint256",
              "name": "accountFrom",
              "type": "uint256"
            },
            {
              "indexed": false,
              "internalType": "uint256",
              "name": "accountTo",
              "type": "uint256"
            },
            {
              "indexed": false,
              "internalType": "uint256",
              "name": "transferedBalance",
              "type": "uint256"
            },
            {
              "indexed": false,
              "internalType": "uint256",
              "name": "time",
              "type": "uint256"
            }
          ],
          "name": "eventBalanceTransfer",
          "type": "event"
        },
        {
          "anonymous": false,
          "inputs": [
            {
              "indexed": false,
              "internalType": "address",
              "name": "accountAddress",
              "type": "address"
            },
            {
              "indexed": false,
              "internalType": "uint256",
              "name": "accountNumber",
              "type": "uint256"
            },
            {
              "indexed": false,
              "internalType": "uint256",
              "name": "withdrawlBalance",
              "type": "uint256"
            },
            {
              "indexed": false,
              "internalType": "uint256",
              "name": "time",
              "type": "uint256"
            }
          ],
          "name": "eventBalanceWithdraw",
          "type": "event"
        },
        {
          "inputs": [
            {
              "internalType": "uint256",
              "name": "",
              "type": "uint256"
            }
          ],
          "name": "accounts",
          "outputs": [
            {
              "internalType": "uint256",
              "name": "",
              "type": "uint256"
            }
          ],
          "stateMutability": "view",
          "type": "function"
        },
        {
          "inputs": [
            {
              "internalType": "uint256",
              "name": "",
              "type": "uint256"
            }
          ],
          "name": "addresses",
          "outputs": [
            {
              "internalType": "address",
              "name": "",
              "type": "address"
            }
          ],
          "stateMutability": "view",
          "type": "function"
        },
        {
          "inputs": [
            {
              "internalType": "uint256",
              "name": "_fromAccount",
              "type": "uint256"
            },
            {
              "internalType": "uint256",
              "name": "_toAccount",
              "type": "uint256"
            },
            {
              "internalType": "address",
              "name": "_toAddress",
              "type": "address"
            },
            {
              "internalType": "uint256",
              "name": "_balance",
              "type": "uint256"
            }
          ],
          "name": "balanceTransfer",
          "outputs": [],
          "stateMutability": "nonpayable",
          "type": "function"
        },
        {
          "inputs": [
            {
              "internalType": "address",
              "name": "_newAdmin",
              "type": "address"
            }
          ],
          "name": "changeAdmin",
          "outputs": [],
          "stateMutability": "nonpayable",
          "type": "function"
        },
        {
          "inputs": [
            {
              "internalType": "uint256",
              "name": "_accountNumber",
              "type": "uint256"
            },
            {
              "internalType": "uint256",
              "name": "_bankName",
              "type": "uint256"
            },
            {
              "internalType": "string",
              "name": "_branch",
              "type": "string"
            },
            {
              "internalType": "uint256",
              "name": "_balance",
              "type": "uint256"
            }
          ],
          "name": "createAccount",
          "outputs": [],
          "stateMutability": "nonpayable",
          "type": "function"
        },
        {
          "inputs": [
            {
              "internalType": "uint256",
              "name": "_accountNumber",
              "type": "uint256"
            },
            {
              "internalType": "uint256",
              "name": "_depositbalance",
              "type": "uint256"
            }
          ],
          "name": "deposit",
          "outputs": [],
          "stateMutability": "nonpayable",
          "type": "function"
        },
        {
          "inputs": [
            {
              "internalType": "address",
              "name": "_addressCheckBalance",
              "type": "address"
            },
            {
              "internalType": "uint256",
              "name": "_accountCheckBalance",
              "type": "uint256"
            }
          ],
          "name": "getBalance",
          "outputs": [
            {
              "internalType": "uint256",
              "name": "",
              "type": "uint256"
            }
          ],
          "stateMutability": "view",
          "type": "function"
        },
        {
          "inputs": [
            {
              "internalType": "uint256",
              "name": "_bankName",
              "type": "uint256"
            }
          ],
          "name": "getBankData",
          "outputs": [
            {
              "components": [
                {
                  "internalType": "uint256",
                  "name": "accountNumber",
                  "type": "uint256"
                },
                {
                  "internalType": "string",
                  "name": "branch",
                  "type": "string"
                },
                {
                  "internalType": "uint256",
                  "name": "balance",
                  "type": "uint256"
                }
              ],
              "internalType": "struct data.returnBankData[]",
              "name": "",
              "type": "tuple[]"
            }
          ],
          "stateMutability": "view",
          "type": "function"
        },
        {
          "inputs": [],
          "name": "personalInfo",
          "outputs": [
            {
              "components": [
                {
                  "internalType": "uint256",
                  "name": "accountNumber",
                  "type": "uint256"
                },
                {
                  "internalType": "uint256",
                  "name": "bankName",
                  "type": "uint256"
                },
                {
                  "internalType": "string",
                  "name": "branch",
                  "type": "string"
                },
                {
                  "internalType": "uint256",
                  "name": "balance",
                  "type": "uint256"
                }
              ],
              "internalType": "struct data.returnData[]",
              "name": "",
              "type": "tuple[]"
            }
          ],
          "stateMutability": "view",
          "type": "function"
        },
        {
          "inputs": [
            {
              "internalType": "uint256",
              "name": "",
              "type": "uint256"
            }
          ],
          "name": "returnBankDataArray",
          "outputs": [
            {
              "internalType": "uint256",
              "name": "accountNumber",
              "type": "uint256"
            },
            {
              "internalType": "string",
              "name": "branch",
              "type": "string"
            },
            {
              "internalType": "uint256",
              "name": "balance",
              "type": "uint256"
            }
          ],
          "stateMutability": "view",
          "type": "function"
        },
        {
          "inputs": [
            {
              "internalType": "uint256",
              "name": "",
              "type": "uint256"
            }
          ],
          "name": "returnDataArray",
          "outputs": [
            {
              "internalType": "uint256",
              "name": "accountNumber",
              "type": "uint256"
            },
            {
              "internalType": "uint256",
              "name": "bankName",
              "type": "uint256"
            },
            {
              "internalType": "string",
              "name": "branch",
              "type": "string"
            },
            {
              "internalType": "uint256",
              "name": "balance",
              "type": "uint256"
            }
          ],
          "stateMutability": "view",
          "type": "function"
        },
        {
          "inputs": [
            {
              "internalType": "uint256",
              "name": "_accountNumber",
              "type": "uint256"
            },
            {
              "internalType": "uint256",
              "name": "_withdrawbalance",
              "type": "uint256"
            }
          ],
          "name": "withdraw",
          "outputs": [],
          "stateMutability": "nonpayable",
          "type": "function"
        }
      ],
      "evm": {
        "bytecode": {
          "linkReferences": {},
          "object": "608060405234801561001057600080fd5b50336000806101000a81548173ffffffffffffffffffffffffffffffffffffffff021916908373ffffffffffffffffffffffffffffffffffffffff1602179055506124f8806100606000396000f3fe608060405234801561001057600080fd5b50600436106100b45760003560e01c8063b26ea79811610071578063b26ea798146101a2578063c8cb55ae146101d2578063e2bbb158146101ee578063edf26d9b1461020a578063f2a40db81461023a578063f2dbf12e1461026a576100b4565b8063078c9ed3146100b957806315f1d66d146100ec5780632b04e84014610108578063441a3e70146101385780638f28397014610154578063b0fb25cc14610170575b600080fd5b6100d360048036038101906100ce919061163a565b610288565b6040516100e39493929190611706565b60405180910390f35b610106600480360381019061010191906117b0565b610350565b005b610122600480360381019061011d9190611817565b610644565b60405161012f9190611857565b60405180910390f35b610152600480360381019061014d9190611872565b6106a2565b005b61016e600480360381019061016991906118b2565b6108dc565b005b61018a6004803603810190610185919061163a565b6109ad565b604051610199939291906118df565b60405180910390f35b6101bc60048036038101906101b7919061163a565b610a6f565b6040516101c99190611a88565b60405180910390f35b6101ec60048036038101906101e79190611bdf565b610eb7565b005b61020860048036038101906102039190611872565b6110e6565b005b610224600480360381019061021f919061163a565b6111dd565b6040516102319190611c71565b60405180910390f35b610254600480360381019061024f919061163a565b61121c565b6040516102619190611857565b60405180910390f35b610272611240565b60405161027f9190611db1565b60405180910390f35b6001818154811061029857600080fd5b90600052602060002090600402016000915090508060000154908060010154908060020180546102c790611e02565b80601f01602080910402602001604051908101604052809291908181526020018280546102f390611e02565b80156103405780601f1061031557610100808354040283529160200191610340565b820191906000526020600020905b81548152906001019060200180831161032357829003601f168201915b5050505050908060030154905084565b838180600360003373ffffffffffffffffffffffffffffffffffffffff1673ffffffffffffffffffffffffffffffffffffffff16815260200190815260200160002060008481526020019081526020016000206002015410156103e8576040517f08c379a00000000000000000000000000000000000000000000000000000000081526004016103df90611e7f565b60405180910390fd5b838560011515600360008473ffffffffffffffffffffffffffffffffffffffff1673ffffffffffffffffffffffffffffffffffffffff168152602001908152602001600020600083815260200190815260200160002060030160009054906101000a900460ff16151514610491576040517f08c379a000000000000000000000000000000000000000000000000000000000815260040161048890611eeb565b60405180910390fd5b84600360003373ffffffffffffffffffffffffffffffffffffffff1673ffffffffffffffffffffffffffffffffffffffff16815260200190815260200160002060008a8152602001908152602001600020600201546104f09190611f3a565b600360003373ffffffffffffffffffffffffffffffffffffffff1673ffffffffffffffffffffffffffffffffffffffff16815260200190815260200160002060008a81526020019081526020016000206002018190555084600360008873ffffffffffffffffffffffffffffffffffffffff1673ffffffffffffffffffffffffffffffffffffffff1681526020019081526020016000206000898152602001908152602001600020600201546105a69190611f6e565b600360008873ffffffffffffffffffffffffffffffffffffffff1673ffffffffffffffffffffffffffffffffffffffff1681526020019081526020016000206000898152602001908152602001600020600201819055507f8f0bcad820b3433bf6ffda6be49871f18b8c267ac1c7db8f94432ae3224adb5d888887426040516106329493929190611fa2565b60405180910390a15050505050505050565b6000600360008473ffffffffffffffffffffffffffffffffffffffff1673ffffffffffffffffffffffffffffffffffffffff168152602001908152602001600020600083815260200190815260200160002060020154905092915050565b818180600360003373ffffffffffffffffffffffffffffffffffffffff1673ffffffffffffffffffffffffffffffffffffffff168152602001908152602001600020600084815260200190815260200160002060020154101561073a576040517f08c379a000000000000000000000000000000000000000000000000000000000815260040161073190611e7f565b60405180910390fd5b8360011515600360003373ffffffffffffffffffffffffffffffffffffffff1673ffffffffffffffffffffffffffffffffffffffff168152602001908152602001600020600083815260200190815260200160002060030160009054906101000a900460ff161515146107e2576040517f08c379a00000000000000000000000000000000000000000000000000000000081526004016107d990612059565b60405180910390fd5b83600360003373ffffffffffffffffffffffffffffffffffffffff1673ffffffffffffffffffffffffffffffffffffffff1681526020019081526020016000206000878152602001908152602001600020600201546108419190611f3a565b600360003373ffffffffffffffffffffffffffffffffffffffff1673ffffffffffffffffffffffffffffffffffffffff1681526020019081526020016000206000878152602001908152602001600020600201819055507f2c475b8285d302922e0b51cace5489a97d98708a2a3a01edf1e62f3b3900c487338686426040516108cd9493929190612079565b60405180910390a15050505050565b60008054906101000a900473ffffffffffffffffffffffffffffffffffffffff1673ffffffffffffffffffffffffffffffffffffffff163373ffffffffffffffffffffffffffffffffffffffff161461096a576040517f08c379a00000000000000000000000000000000000000000000000000000000081526004016109619061210a565b60405180910390fd5b806000806101000a81548173ffffffffffffffffffffffffffffffffffffffff021916908373ffffffffffffffffffffffffffffffffffffffff16021790555050565b600281815481106109bd57600080fd5b90600052602060002090600302016000915090508060000154908060010180546109e690611e02565b80601f0160208091040260200160405190810160405280929190818152602001828054610a1290611e02565b8015610a5f5780601f10610a3457610100808354040283529160200191610a5f565b820191906000526020600020905b815481529060010190602001808311610a4257829003601f168201915b5050505050908060020154905083565b606060008054906101000a900473ffffffffffffffffffffffffffffffffffffffff1673ffffffffffffffffffffffffffffffffffffffff163373ffffffffffffffffffffffffffffffffffffffff1614610aff576040517f08c379a0000000000000000000000000000000000000000000000000000000008152600401610af69061210a565b60405180910390fd5b60008060058054905067ffffffffffffffff811115610b2157610b20611ab4565b5b604051908082528060200260200182016040528015610b5a57816020015b610b476115a7565b815260200190600190039081610b3f5790505b50905060005b600480549050811015610eac5760005b600580549050811015610e9857856003600060048581548110610b9657610b9561212a565b5b9060005260206000200160009054906101000a900473ffffffffffffffffffffffffffffffffffffffff1673ffffffffffffffffffffffffffffffffffffffff1673ffffffffffffffffffffffffffffffffffffffff168152602001908152602001600020600060058481548110610c1157610c1061212a565b5b906000526020600020015481526020019081526020016000206000015403610e85576000604051806060016040528060058481548110610c5457610c5361212a565b5b906000526020600020015481526020016003600060048781548110610c7c57610c7b61212a565b5b9060005260206000200160009054906101000a900473ffffffffffffffffffffffffffffffffffffffff1673ffffffffffffffffffffffffffffffffffffffff1673ffffffffffffffffffffffffffffffffffffffff168152602001908152602001600020600060058681548110610cf757610cf661212a565b5b906000526020600020015481526020019081526020016000206001018054610d1e90611e02565b80601f0160208091040260200160405190810160405280929190818152602001828054610d4a90611e02565b8015610d975780601f10610d6c57610100808354040283529160200191610d97565b820191906000526020600020905b815481529060010190602001808311610d7a57829003601f168201915b505050505081526020016003600060048781548110610db957610db861212a565b5b9060005260206000200160009054906101000a900473ffffffffffffffffffffffffffffffffffffffff1673ffffffffffffffffffffffffffffffffffffffff1673ffffffffffffffffffffffffffffffffffffffff168152602001908152602001600020600060058681548110610e3457610e3361212a565b5b9060005260206000200154815260200190815260200160002060020154815250905080848681518110610e6a57610e6961212a565b5b60200260200101819052508480610e8090612159565b955050505b8080610e9090612159565b915050610b70565b508080610ea490612159565b915050610b60565b508092505050919050565b83600080600090505b600580549050811015610f0e578260058281548110610ee257610ee161212a565b5b906000526020600020015403610efb5760019150610f0e565b8080610f0690612159565b915050610ec0565b506000151581151514610f56576040517f08c379a0000000000000000000000000000000000000000000000000000000008152600401610f4d906121ed565b60405180910390fd5b6004339080600181540180825580915050600190039060005260206000200160009091909190916101000a81548173ffffffffffffffffffffffffffffffffffffffff021916908373ffffffffffffffffffffffffffffffffffffffff1602179055506005869080600181540180825580915050600190039060005260206000200160009091909190915055604051806080016040528086815260200185815260200184815260200160011515815250600360003373ffffffffffffffffffffffffffffffffffffffff1673ffffffffffffffffffffffffffffffffffffffff168152602001908152602001600020600088815260200190815260200160002060008201518160000155602082015181600101908161107591906123b9565b506040820151816002015560608201518160030160006101000a81548160ff0219169083151502179055509050507f86dc9b84d24d91976389928021d50a70822f4a52230234823092b04c828fb7a63387426040516110d69392919061248b565b60405180910390a1505050505050565b80600360003373ffffffffffffffffffffffffffffffffffffffff1673ffffffffffffffffffffffffffffffffffffffff1681526020019081526020016000206000848152602001908152602001600020600201546111459190611f6e565b600360003373ffffffffffffffffffffffffffffffffffffffff1673ffffffffffffffffffffffffffffffffffffffff1681526020019081526020016000206000848152602001908152602001600020600201819055507f2c475b8285d302922e0b51cace5489a97d98708a2a3a01edf1e62f3b3900c487338383426040516111d19493929190612079565b60405180910390a15050565b600481815481106111ed57600080fd5b906000526020600020016000915054906101000a900473ffffffffffffffffffffffffffffffffffffffff1681565b6005818154811061122c57600080fd5b906000526020600020016000915090505481565b6060600060058054905067ffffffffffffffff81111561126357611262611ab4565b5b60405190808252806020026020018201604052801561129c57816020015b6112896115c8565b8152602001906001900390816112815790505b509050600080600090505b60058054905081101561159e5760011515600360003373ffffffffffffffffffffffffffffffffffffffff1673ffffffffffffffffffffffffffffffffffffffff16815260200190815260200160002060006005848154811061130d5761130c61212a565b5b9060005260206000200154815260200190815260200160002060030160009054906101000a900460ff1615150361158b57600060405180608001604052806005848154811061135f5761135e61212a565b5b90600052602060002001548152602001600360003373ffffffffffffffffffffffffffffffffffffffff1673ffffffffffffffffffffffffffffffffffffffff1681526020019081526020016000206000600586815481106113c4576113c361212a565b5b90600052602060002001548152602001908152602001600020600001548152602001600360003373ffffffffffffffffffffffffffffffffffffffff1673ffffffffffffffffffffffffffffffffffffffff16815260200190815260200160002060006005868154811061143b5761143a61212a565b5b90600052602060002001548152602001908152602001600020600101805461146290611e02565b80601f016020809104026020016040519081016040528092919081815260200182805461148e90611e02565b80156114db5780601f106114b0576101008083540402835291602001916114db565b820191906000526020600020905b8154815290600101906020018083116114be57829003601f168201915b50505050508152602001600360003373ffffffffffffffffffffffffffffffffffffffff1673ffffffffffffffffffffffffffffffffffffffff16815260200190815260200160002060006005868154811061153a5761153961212a565b5b90600052602060002001548152602001908152602001600020600201548152509050808484815181106115705761156f61212a565b5b6020026020010181905250828061158690612159565b935050505b808061159690612159565b9150506112a7565b50819250505090565b60405180606001604052806000815260200160608152602001600081525090565b6040518060800160405280600081526020016000815260200160608152602001600081525090565b6000604051905090565b600080fd5b600080fd5b6000819050919050565b61161781611604565b811461162257600080fd5b50565b6000813590506116348161160e565b92915050565b6000602082840312156116505761164f6115fa565b5b600061165e84828501611625565b91505092915050565b61167081611604565b82525050565b600081519050919050565b600082825260208201905092915050565b60005b838110156116b0578082015181840152602081019050611695565b60008484015250505050565b6000601f19601f8301169050919050565b60006116d882611676565b6116e28185611681565b93506116f2818560208601611692565b6116fb816116bc565b840191505092915050565b600060808201905061171b6000830187611667565b6117286020830186611667565b818103604083015261173a81856116cd565b90506117496060830184611667565b95945050505050565b600073ffffffffffffffffffffffffffffffffffffffff82169050919050565b600061177d82611752565b9050919050565b61178d81611772565b811461179857600080fd5b50565b6000813590506117aa81611784565b92915050565b600080600080608085870312156117ca576117c96115fa565b5b60006117d887828801611625565b94505060206117e987828801611625565b93505060406117fa8782880161179b565b925050606061180b87828801611625565b91505092959194509250565b6000806040838503121561182e5761182d6115fa565b5b600061183c8582860161179b565b925050602061184d85828601611625565b9150509250929050565b600060208201905061186c6000830184611667565b92915050565b60008060408385031215611889576118886115fa565b5b600061189785828601611625565b92505060206118a885828601611625565b9150509250929050565b6000602082840312156118c8576118c76115fa565b5b60006118d68482850161179b565b91505092915050565b60006060820190506118f46000830186611667565b818103602083015261190681856116cd565b90506119156040830184611667565b949350505050565b600081519050919050565b600082825260208201905092915050565b6000819050602082019050919050565b61195281611604565b82525050565b600082825260208201905092915050565b600061197482611676565b61197e8185611958565b935061198e818560208601611692565b611997816116bc565b840191505092915050565b60006060830160008301516119ba6000860182611949565b50602083015184820360208601526119d28282611969565b91505060408301516119e76040860182611949565b508091505092915050565b60006119fe83836119a2565b905092915050565b6000602082019050919050565b6000611a1e8261191d565b611a288185611928565b935083602082028501611a3a85611939565b8060005b85811015611a765784840389528151611a5785826119f2565b9450611a6283611a06565b925060208a01995050600181019050611a3e565b50829750879550505050505092915050565b60006020820190508181036000830152611aa28184611a13565b905092915050565b600080fd5b600080fd5b7f4e487b7100000000000000000000000000000000000000000000000000000000600052604160045260246000fd5b611aec826116bc565b810181811067ffffffffffffffff82111715611b0b57611b0a611ab4565b5b80604052505050565b6000611b1e6115f0565b9050611b2a8282611ae3565b919050565b600067ffffffffffffffff821115611b4a57611b49611ab4565b5b611b53826116bc565b9050602081019050919050565b82818337600083830152505050565b6000611b82611b7d84611b2f565b611b14565b905082815260208101848484011115611b9e57611b9d611aaf565b5b611ba9848285611b60565b509392505050565b600082601f830112611bc657611bc5611aaa565b5b8135611bd6848260208601611b6f565b91505092915050565b60008060008060808587031215611bf957611bf86115fa565b5b6000611c0787828801611625565b9450506020611c1887828801611625565b935050604085013567ffffffffffffffff811115611c3957611c386115ff565b5b611c4587828801611bb1565b9250506060611c5687828801611625565b91505092959194509250565b611c6b81611772565b82525050565b6000602082019050611c866000830184611c62565b92915050565b600081519050919050565b600082825260208201905092915050565b6000819050602082019050919050565b6000608083016000830151611cd06000860182611949565b506020830151611ce36020860182611949565b5060408301518482036040860152611cfb8282611969565b9150506060830151611d106060860182611949565b508091505092915050565b6000611d278383611cb8565b905092915050565b6000602082019050919050565b6000611d4782611c8c565b611d518185611c97565b935083602082028501611d6385611ca8565b8060005b85811015611d9f5784840389528151611d808582611d1b565b9450611d8b83611d2f565b925060208a01995050600181019050611d67565b50829750879550505050505092915050565b60006020820190508181036000830152611dcb8184611d3c565b905092915050565b7f4e487b7100000000000000000000000000000000000000000000000000000000600052602260045260246000fd5b60006002820490506001821680611e1a57607f821691505b602082108103611e2d57611e2c611dd3565b5b50919050565b7f496e73756666696369656e742042616c616e6365000000000000000000000000600082015250565b6000611e69601483611681565b9150611e7482611e33565b602082019050919050565b60006020820190508181036000830152611e9881611e5c565b9050919050565b7f496e636f7272656374204163636f756e74204e756d6265720000000000000000600082015250565b6000611ed5601883611681565b9150611ee082611e9f565b602082019050919050565b60006020820190508181036000830152611f0481611ec8565b9050919050565b7f4e487b7100000000000000000000000000000000000000000000000000000000600052601160045260246000fd5b6000611f4582611604565b9150611f5083611604565b9250828203905081811115611f6857611f67611f0b565b5b92915050565b6000611f7982611604565b9150611f8483611604565b9250828201905080821115611f9c57611f9b611f0b565b5b92915050565b6000608082019050611fb76000830187611667565b611fc46020830186611667565b611fd16040830185611667565b611fde6060830184611667565b95945050505050565b7f4163636f756e7420646f6573206e6f742062656c6f6e677320746f207468697360008201527f2041646472657373000000000000000000000000000000000000000000000000602082015250565b6000612043602883611681565b915061204e82611fe7565b604082019050919050565b6000602082019050818103600083015261207281612036565b9050919050565b600060808201905061208e6000830187611c62565b61209b6020830186611667565b6120a86040830185611667565b6120b56060830184611667565b95945050505050565b7f556e617574686f72697a6564207065726d697373696f6e000000000000000000600082015250565b60006120f4601783611681565b91506120ff826120be565b602082019050919050565b60006020820190508181036000830152612123816120e7565b9050919050565b7f4e487b7100000000000000000000000000000000000000000000000000000000600052603260045260246000fd5b600061216482611604565b91507fffffffffffffffffffffffffffffffffffffffffffffffffffffffffffffffff820361219657612195611f0b565b5b600182019050919050565b7f4163636f756e7420416c72656164792045786973740000000000000000000000600082015250565b60006121d7601583611681565b91506121e2826121a1565b602082019050919050565b60006020820190508181036000830152612206816121ca565b9050919050565b60008190508160005260206000209050919050565b60006020601f8301049050919050565b600082821b905092915050565b60006008830261226f7fffffffffffffffffffffffffffffffffffffffffffffffffffffffffffffffff82612232565b6122798683612232565b95508019841693508086168417925050509392505050565b6000819050919050565b60006122b66122b16122ac84611604565b612291565b611604565b9050919050565b6000819050919050565b6122d08361229b565b6122e46122dc826122bd565b84845461223f565b825550505050565b600090565b6122f96122ec565b6123048184846122c7565b505050565b5b818110156123285761231d6000826122f1565b60018101905061230a565b5050565b601f82111561236d5761233e8161220d565b61234784612222565b81016020851015612356578190505b61236a61236285612222565b830182612309565b50505b505050565b600082821c905092915050565b600061239060001984600802612372565b1980831691505092915050565b60006123a9838361237f565b9150826002028217905092915050565b6123c282611676565b67ffffffffffffffff8111156123db576123da611ab4565b5b6123e58254611e02565b6123f082828561232c565b600060209050601f8311600181146124235760008415612411578287015190505b61241b858261239d565b865550612483565b601f1984166124318661220d565b60005b8281101561245957848901518255600182019150602085019450602081019050612434565b868310156124765784890151612472601f89168261237f565b8355505b6001600288020188555050505b505050505050565b60006060820190506124a06000830186611c62565b6124ad6020830185611667565b6124ba6040830184611667565b94935050505056fea264697066735822122056cd6d0ddf01fc6a8e2c2e54239d65c01bbe321755d63e77decb6ae7e26d179464736f6c63430008100033",
          "opcodes": "PUSH1 0x80 PUSH1 0x40 MSTORE CALLVALUE DUP1 ISZERO PUSH2 0x10 JUMPI PUSH1 0x0 DUP1 REVERT JUMPDEST POP CALLER PUSH1 0x0 DUP1 PUSH2 0x100 EXP DUP2 SLOAD DUP2 PUSH20 0xFFFFFFFFFFFFFFFFFFFFFFFFFFFFFFFFFFFFFFFF MUL NOT AND SWAP1 DUP4 PUSH20 0xFFFFFFFFFFFFFFFFFFFFFFFFFFFFFFFFFFFFFFFF AND MUL OR SWAP1 SSTORE POP PUSH2 0x24F8 DUP1 PUSH2 0x60 PUSH1 0x0 CODECOPY PUSH1 0x0 RETURN INVALID PUSH1 0x80 PUSH1 0x40 MSTORE CALLVALUE DUP1 ISZERO PUSH2 0x10 JUMPI PUSH1 0x0 DUP1 REVERT JUMPDEST POP PUSH1 0x4 CALLDATASIZE LT PUSH2 0xB4 JUMPI PUSH1 0x0 CALLDATALOAD PUSH1 0xE0 SHR DUP1 PUSH4 0xB26EA798 GT PUSH2 0x71 JUMPI DUP1 PUSH4 0xB26EA798 EQ PUSH2 0x1A2 JUMPI DUP1 PUSH4 0xC8CB55AE EQ PUSH2 0x1D2 JUMPI DUP1 PUSH4 0xE2BBB158 EQ PUSH2 0x1EE JUMPI DUP1 PUSH4 0xEDF26D9B EQ PUSH2 0x20A JUMPI DUP1 PUSH4 0xF2A40DB8 EQ PUSH2 0x23A JUMPI DUP1 PUSH4 0xF2DBF12E EQ PUSH2 0x26A JUMPI PUSH2 0xB4 JUMP JUMPDEST DUP1 PUSH4 0x78C9ED3 EQ PUSH2 0xB9 JUMPI DUP1 PUSH4 0x15F1D66D EQ PUSH2 0xEC JUMPI DUP1 PUSH4 0x2B04E840 EQ PUSH2 0x108 JUMPI DUP1 PUSH4 0x441A3E70 EQ PUSH2 0x138 JUMPI DUP1 PUSH4 0x8F283970 EQ PUSH2 0x154 JUMPI DUP1 PUSH4 0xB0FB25CC EQ PUSH2 0x170 JUMPI JUMPDEST PUSH1 0x0 DUP1 REVERT JUMPDEST PUSH2 0xD3 PUSH1 0x4 DUP1 CALLDATASIZE SUB DUP2 ADD SWAP1 PUSH2 0xCE SWAP2 SWAP1 PUSH2 0x163A JUMP JUMPDEST PUSH2 0x288 JUMP JUMPDEST PUSH1 0x40 MLOAD PUSH2 0xE3 SWAP5 SWAP4 SWAP3 SWAP2 SWAP1 PUSH2 0x1706 JUMP JUMPDEST PUSH1 0x40 MLOAD DUP1 SWAP2 SUB SWAP1 RETURN JUMPDEST PUSH2 0x106 PUSH1 0x4 DUP1 CALLDATASIZE SUB DUP2 ADD SWAP1 PUSH2 0x101 SWAP2 SWAP1 PUSH2 0x17B0 JUMP JUMPDEST PUSH2 0x350 JUMP JUMPDEST STOP JUMPDEST PUSH2 0x122 PUSH1 0x4 DUP1 CALLDATASIZE SUB DUP2 ADD SWAP1 PUSH2 0x11D SWAP2 SWAP1 PUSH2 0x1817 JUMP JUMPDEST PUSH2 0x644 JUMP JUMPDEST PUSH1 0x40 MLOAD PUSH2 0x12F SWAP2 SWAP1 PUSH2 0x1857 JUMP JUMPDEST PUSH1 0x40 MLOAD DUP1 SWAP2 SUB SWAP1 RETURN JUMPDEST PUSH2 0x152 PUSH1 0x4 DUP1 CALLDATASIZE SUB DUP2 ADD SWAP1 PUSH2 0x14D SWAP2 SWAP1 PUSH2 0x1872 JUMP JUMPDEST PUSH2 0x6A2 JUMP JUMPDEST STOP JUMPDEST PUSH2 0x16E PUSH1 0x4 DUP1 CALLDATASIZE SUB DUP2 ADD SWAP1 PUSH2 0x169 SWAP2 SWAP1 PUSH2 0x18B2 JUMP JUMPDEST PUSH2 0x8DC JUMP JUMPDEST STOP JUMPDEST PUSH2 0x18A PUSH1 0x4 DUP1 CALLDATASIZE SUB DUP2 ADD SWAP1 PUSH2 0x185 SWAP2 SWAP1 PUSH2 0x163A JUMP JUMPDEST PUSH2 0x9AD JUMP JUMPDEST PUSH1 0x40 MLOAD PUSH2 0x199 SWAP4 SWAP3 SWAP2 SWAP1 PUSH2 0x18DF JUMP JUMPDEST PUSH1 0x40 MLOAD DUP1 SWAP2 SUB SWAP1 RETURN JUMPDEST PUSH2 0x1BC PUSH1 0x4 DUP1 CALLDATASIZE SUB DUP2 ADD SWAP1 PUSH2 0x1B7 SWAP2 SWAP1 PUSH2 0x163A JUMP JUMPDEST PUSH2 0xA6F JUMP JUMPDEST PUSH1 0x40 MLOAD PUSH2 0x1C9 SWAP2 SWAP1 PUSH2 0x1A88 JUMP JUMPDEST PUSH1 0x40 MLOAD DUP1 SWAP2 SUB SWAP1 RETURN JUMPDEST PUSH2 0x1EC PUSH1 0x4 DUP1 CALLDATASIZE SUB DUP2 ADD SWAP1 PUSH2 0x1E7 SWAP2 SWAP1 PUSH2 0x1BDF JUMP JUMPDEST PUSH2 0xEB7 JUMP JUMPDEST STOP JUMPDEST PUSH2 0x208 PUSH1 0x4 DUP1 CALLDATASIZE SUB DUP2 ADD SWAP1 PUSH2 0x203 SWAP2 SWAP1 PUSH2 0x1872 JUMP JUMPDEST PUSH2 0x10E6 JUMP JUMPDEST STOP JUMPDEST PUSH2 0x224 PUSH1 0x4 DUP1 CALLDATASIZE SUB DUP2 ADD SWAP1 PUSH2 0x21F SWAP2 SWAP1 PUSH2 0x163A JUMP JUMPDEST PUSH2 0x11DD JUMP JUMPDEST PUSH1 0x40 MLOAD PUSH2 0x231 SWAP2 SWAP1 PUSH2 0x1C71 JUMP JUMPDEST PUSH1 0x40 MLOAD DUP1 SWAP2 SUB SWAP1 RETURN JUMPDEST PUSH2 0x254 PUSH1 0x4 DUP1 CALLDATASIZE SUB DUP2 ADD SWAP1 PUSH2 0x24F SWAP2 SWAP1 PUSH2 0x163A JUMP JUMPDEST PUSH2 0x121C JUMP JUMPDEST PUSH1 0x40 MLOAD PUSH2 0x261 SWAP2 SWAP1 PUSH2 0x1857 JUMP JUMPDEST PUSH1 0x40 MLOAD DUP1 SWAP2 SUB SWAP1 RETURN JUMPDEST PUSH2 0x272 PUSH2 0x1240 JUMP JUMPDEST PUSH1 0x40 MLOAD PUSH2 0x27F SWAP2 SWAP1 PUSH2 0x1DB1 JUMP JUMPDEST PUSH1 0x40 MLOAD DUP1 SWAP2 SUB SWAP1 RETURN JUMPDEST PUSH1 0x1 DUP2 DUP2 SLOAD DUP2 LT PUSH2 0x298 JUMPI PUSH1 0x0 DUP1 REVERT JUMPDEST SWAP1 PUSH1 0x0 MSTORE PUSH1 0x20 PUSH1 0x0 KECCAK256 SWAP1 PUSH1 0x4 MUL ADD PUSH1 0x0 SWAP2 POP SWAP1 POP DUP1 PUSH1 0x0 ADD SLOAD SWAP1 DUP1 PUSH1 0x1 ADD SLOAD SWAP1 DUP1 PUSH1 0x2 ADD DUP1 SLOAD PUSH2 0x2C7 SWAP1 PUSH2 0x1E02 JUMP JUMPDEST DUP1 PUSH1 0x1F ADD PUSH1 0x20 DUP1 SWAP2 DIV MUL PUSH1 0x20 ADD PUSH1 0x40 MLOAD SWAP1 DUP2 ADD PUSH1 0x40 MSTORE DUP1 SWAP3 SWAP2 SWAP1 DUP2 DUP2 MSTORE PUSH1 0x20 ADD DUP3 DUP1 SLOAD PUSH2 0x2F3 SWAP1 PUSH2 0x1E02 JUMP JUMPDEST DUP1 ISZERO PUSH2 0x340 JUMPI DUP1 PUSH1 0x1F LT PUSH2 0x315 JUMPI PUSH2 0x100 DUP1 DUP4 SLOAD DIV MUL DUP4 MSTORE SWAP2 PUSH1 0x20 ADD SWAP2 PUSH2 0x340 JUMP JUMPDEST DUP3 ADD SWAP2 SWAP1 PUSH1 0x0 MSTORE PUSH1 0x20 PUSH1 0x0 KECCAK256 SWAP1 JUMPDEST DUP2 SLOAD DUP2 MSTORE SWAP1 PUSH1 0x1 ADD SWAP1 PUSH1 0x20 ADD DUP1 DUP4 GT PUSH2 0x323 JUMPI DUP3 SWAP1 SUB PUSH1 0x1F AND DUP3 ADD SWAP2 JUMPDEST POP POP POP POP POP SWAP1 DUP1 PUSH1 0x3 ADD SLOAD SWAP1 POP DUP5 JUMP JUMPDEST DUP4 DUP2 DUP1 PUSH1 0x3 PUSH1 0x0 CALLER PUSH20 0xFFFFFFFFFFFFFFFFFFFFFFFFFFFFFFFFFFFFFFFF AND PUSH20 0xFFFFFFFFFFFFFFFFFFFFFFFFFFFFFFFFFFFFFFFF AND DUP2 MSTORE PUSH1 0x20 ADD SWAP1 DUP2 MSTORE PUSH1 0x20 ADD PUSH1 0x0 KECCAK256 PUSH1 0x0 DUP5 DUP2 MSTORE PUSH1 0x20 ADD SWAP1 DUP2 MSTORE PUSH1 0x20 ADD PUSH1 0x0 KECCAK256 PUSH1 0x2 ADD SLOAD LT ISZERO PUSH2 0x3E8 JUMPI PUSH1 0x40 MLOAD PUSH32 0x8C379A000000000000000000000000000000000000000000000000000000000 DUP2 MSTORE PUSH1 0x4 ADD PUSH2 0x3DF SWAP1 PUSH2 0x1E7F JUMP JUMPDEST PUSH1 0x40 MLOAD DUP1 SWAP2 SUB SWAP1 REVERT JUMPDEST DUP4 DUP6 PUSH1 0x1 ISZERO ISZERO PUSH1 0x3 PUSH1 0x0 DUP5 PUSH20 0xFFFFFFFFFFFFFFFFFFFFFFFFFFFFFFFFFFFFFFFF AND PUSH20 0xFFFFFFFFFFFFFFFFFFFFFFFFFFFFFFFFFFFFFFFF AND DUP2 MSTORE PUSH1 0x20 ADD SWAP1 DUP2 MSTORE PUSH1 0x20 ADD PUSH1 0x0 KECCAK256 PUSH1 0x0 DUP4 DUP2 MSTORE PUSH1 0x20 ADD SWAP1 DUP2 MSTORE PUSH1 0x20 ADD PUSH1 0x0 KECCAK256 PUSH1 0x3 ADD PUSH1 0x0 SWAP1 SLOAD SWAP1 PUSH2 0x100 EXP SWAP1 DIV PUSH1 0xFF AND ISZERO ISZERO EQ PUSH2 0x491 JUMPI PUSH1 0x40 MLOAD PUSH32 0x8C379A000000000000000000000000000000000000000000000000000000000 DUP2 MSTORE PUSH1 0x4 ADD PUSH2 0x488 SWAP1 PUSH2 0x1EEB JUMP JUMPDEST PUSH1 0x40 MLOAD DUP1 SWAP2 SUB SWAP1 REVERT JUMPDEST DUP5 PUSH1 0x3 PUSH1 0x0 CALLER PUSH20 0xFFFFFFFFFFFFFFFFFFFFFFFFFFFFFFFFFFFFFFFF AND PUSH20 0xFFFFFFFFFFFFFFFFFFFFFFFFFFFFFFFFFFFFFFFF AND DUP2 MSTORE PUSH1 0x20 ADD SWAP1 DUP2 MSTORE PUSH1 0x20 ADD PUSH1 0x0 KECCAK256 PUSH1 0x0 DUP11 DUP2 MSTORE PUSH1 0x20 ADD SWAP1 DUP2 MSTORE PUSH1 0x20 ADD PUSH1 0x0 KECCAK256 PUSH1 0x2 ADD SLOAD PUSH2 0x4F0 SWAP2 SWAP1 PUSH2 0x1F3A JUMP JUMPDEST PUSH1 0x3 PUSH1 0x0 CALLER PUSH20 0xFFFFFFFFFFFFFFFFFFFFFFFFFFFFFFFFFFFFFFFF AND PUSH20 0xFFFFFFFFFFFFFFFFFFFFFFFFFFFFFFFFFFFFFFFF AND DUP2 MSTORE PUSH1 0x20 ADD SWAP1 DUP2 MSTORE PUSH1 0x20 ADD PUSH1 0x0 KECCAK256 PUSH1 0x0 DUP11 DUP2 MSTORE PUSH1 0x20 ADD SWAP1 DUP2 MSTORE PUSH1 0x20 ADD PUSH1 0x0 KECCAK256 PUSH1 0x2 ADD DUP2 SWAP1 SSTORE POP DUP5 PUSH1 0x3 PUSH1 0x0 DUP9 PUSH20 0xFFFFFFFFFFFFFFFFFFFFFFFFFFFFFFFFFFFFFFFF AND PUSH20 0xFFFFFFFFFFFFFFFFFFFFFFFFFFFFFFFFFFFFFFFF AND DUP2 MSTORE PUSH1 0x20 ADD SWAP1 DUP2 MSTORE PUSH1 0x20 ADD PUSH1 0x0 KECCAK256 PUSH1 0x0 DUP10 DUP2 MSTORE PUSH1 0x20 ADD SWAP1 DUP2 MSTORE PUSH1 0x20 ADD PUSH1 0x0 KECCAK256 PUSH1 0x2 ADD SLOAD PUSH2 0x5A6 SWAP2 SWAP1 PUSH2 0x1F6E JUMP JUMPDEST PUSH1 0x3 PUSH1 0x0 DUP9 PUSH20 0xFFFFFFFFFFFFFFFFFFFFFFFFFFFFFFFFFFFFFFFF AND PUSH20 0xFFFFFFFFFFFFFFFFFFFFFFFFFFFFFFFFFFFFFFFF AND DUP2 MSTORE PUSH1 0x20 ADD SWAP1 DUP2 MSTORE PUSH1 0x20 ADD PUSH1 0x0 KECCAK256 PUSH1 0x0 DUP10 DUP2 MSTORE PUSH1 0x20 ADD SWAP1 DUP2 MSTORE PUSH1 0x20 ADD PUSH1 0x0 KECCAK256 PUSH1 0x2 ADD DUP2 SWAP1 SSTORE POP PUSH32 0x8F0BCAD820B3433BF6FFDA6BE49871F18B8C267AC1C7DB8F94432AE3224ADB5D DUP9 DUP9 DUP8 TIMESTAMP PUSH1 0x40 MLOAD PUSH2 0x632 SWAP5 SWAP4 SWAP3 SWAP2 SWAP1 PUSH2 0x1FA2 JUMP JUMPDEST PUSH1 0x40 MLOAD DUP1 SWAP2 SUB SWAP1 LOG1 POP POP POP POP POP POP POP POP JUMP JUMPDEST PUSH1 0x0 PUSH1 0x3 PUSH1 0x0 DUP5 PUSH20 0xFFFFFFFFFFFFFFFFFFFFFFFFFFFFFFFFFFFFFFFF AND PUSH20 0xFFFFFFFFFFFFFFFFFFFFFFFFFFFFFFFFFFFFFFFF AND DUP2 MSTORE PUSH1 0x20 ADD SWAP1 DUP2 MSTORE PUSH1 0x20 ADD PUSH1 0x0 KECCAK256 PUSH1 0x0 DUP4 DUP2 MSTORE PUSH1 0x20 ADD SWAP1 DUP2 MSTORE PUSH1 0x20 ADD PUSH1 0x0 KECCAK256 PUSH1 0x2 ADD SLOAD SWAP1 POP SWAP3 SWAP2 POP POP JUMP JUMPDEST DUP2 DUP2 DUP1 PUSH1 0x3 PUSH1 0x0 CALLER PUSH20 0xFFFFFFFFFFFFFFFFFFFFFFFFFFFFFFFFFFFFFFFF AND PUSH20 0xFFFFFFFFFFFFFFFFFFFFFFFFFFFFFFFFFFFFFFFF AND DUP2 MSTORE PUSH1 0x20 ADD SWAP1 DUP2 MSTORE PUSH1 0x20 ADD PUSH1 0x0 KECCAK256 PUSH1 0x0 DUP5 DUP2 MSTORE PUSH1 0x20 ADD SWAP1 DUP2 MSTORE PUSH1 0x20 ADD PUSH1 0x0 KECCAK256 PUSH1 0x2 ADD SLOAD LT ISZERO PUSH2 0x73A JUMPI PUSH1 0x40 MLOAD PUSH32 0x8C379A000000000000000000000000000000000000000000000000000000000 DUP2 MSTORE PUSH1 0x4 ADD PUSH2 0x731 SWAP1 PUSH2 0x1E7F JUMP JUMPDEST PUSH1 0x40 MLOAD DUP1 SWAP2 SUB SWAP1 REVERT JUMPDEST DUP4 PUSH1 0x1 ISZERO ISZERO PUSH1 0x3 PUSH1 0x0 CALLER PUSH20 0xFFFFFFFFFFFFFFFFFFFFFFFFFFFFFFFFFFFFFFFF AND PUSH20 0xFFFFFFFFFFFFFFFFFFFFFFFFFFFFFFFFFFFFFFFF AND DUP2 MSTORE PUSH1 0x20 ADD SWAP1 DUP2 MSTORE PUSH1 0x20 ADD PUSH1 0x0 KECCAK256 PUSH1 0x0 DUP4 DUP2 MSTORE PUSH1 0x20 ADD SWAP1 DUP2 MSTORE PUSH1 0x20 ADD PUSH1 0x0 KECCAK256 PUSH1 0x3 ADD PUSH1 0x0 SWAP1 SLOAD SWAP1 PUSH2 0x100 EXP SWAP1 DIV PUSH1 0xFF AND ISZERO ISZERO EQ PUSH2 0x7E2 JUMPI PUSH1 0x40 MLOAD PUSH32 0x8C379A000000000000000000000000000000000000000000000000000000000 DUP2 MSTORE PUSH1 0x4 ADD PUSH2 0x7D9 SWAP1 PUSH2 0x2059 JUMP JUMPDEST PUSH1 0x40 MLOAD DUP1 SWAP2 SUB SWAP1 REVERT JUMPDEST DUP4 PUSH1 0x3 PUSH1 0x0 CALLER PUSH20 0xFFFFFFFFFFFFFFFFFFFFFFFFFFFFFFFFFFFFFFFF AND PUSH20 0xFFFFFFFFFFFFFFFFFFFFFFFFFFFFFFFFFFFFFFFF AND DUP2 MSTORE PUSH1 0x20 ADD SWAP1 DUP2 MSTORE PUSH1 0x20 ADD PUSH1 0x0 KECCAK256 PUSH1 0x0 DUP8 DUP2 MSTORE PUSH1 0x20 ADD SWAP1 DUP2 MSTORE PUSH1 0x20 ADD PUSH1 0x0 KECCAK256 PUSH1 0x2 ADD SLOAD PUSH2 0x841 SWAP2 SWAP1 PUSH2 0x1F3A JUMP JUMPDEST PUSH1 0x3 PUSH1 0x0 CALLER PUSH20 0xFFFFFFFFFFFFFFFFFFFFFFFFFFFFFFFFFFFFFFFF AND PUSH20 0xFFFFFFFFFFFFFFFFFFFFFFFFFFFFFFFFFFFFFFFF AND DUP2 MSTORE PUSH1 0x20 ADD SWAP1 DUP2 MSTORE PUSH1 0x20 ADD PUSH1 0x0 KECCAK256 PUSH1 0x0 DUP8 DUP2 MSTORE PUSH1 0x20 ADD SWAP1 DUP2 MSTORE PUSH1 0x20 ADD PUSH1 0x0 KECCAK256 PUSH1 0x2 ADD DUP2 SWAP1 SSTORE POP PUSH32 0x2C475B8285D302922E0B51CACE5489A97D98708A2A3A01EDF1E62F3B3900C487 CALLER DUP7 DUP7 TIMESTAMP PUSH1 0x40 MLOAD PUSH2 0x8CD SWAP5 SWAP4 SWAP3 SWAP2 SWAP1 PUSH2 0x2079 JUMP JUMPDEST PUSH1 0x40 MLOAD DUP1 SWAP2 SUB SWAP1 LOG1 POP POP POP POP POP JUMP JUMPDEST PUSH1 0x0 DUP1 SLOAD SWAP1 PUSH2 0x100 EXP SWAP1 DIV PUSH20 0xFFFFFFFFFFFFFFFFFFFFFFFFFFFFFFFFFFFFFFFF AND PUSH20 0xFFFFFFFFFFFFFFFFFFFFFFFFFFFFFFFFFFFFFFFF AND CALLER PUSH20 0xFFFFFFFFFFFFFFFFFFFFFFFFFFFFFFFFFFFFFFFF AND EQ PUSH2 0x96A JUMPI PUSH1 0x40 MLOAD PUSH32 0x8C379A000000000000000000000000000000000000000000000000000000000 DUP2 MSTORE PUSH1 0x4 ADD PUSH2 0x961 SWAP1 PUSH2 0x210A JUMP JUMPDEST PUSH1 0x40 MLOAD DUP1 SWAP2 SUB SWAP1 REVERT JUMPDEST DUP1 PUSH1 0x0 DUP1 PUSH2 0x100 EXP DUP2 SLOAD DUP2 PUSH20 0xFFFFFFFFFFFFFFFFFFFFFFFFFFFFFFFFFFFFFFFF MUL NOT AND SWAP1 DUP4 PUSH20 0xFFFFFFFFFFFFFFFFFFFFFFFFFFFFFFFFFFFFFFFF AND MUL OR SWAP1 SSTORE POP POP JUMP JUMPDEST PUSH1 0x2 DUP2 DUP2 SLOAD DUP2 LT PUSH2 0x9BD JUMPI PUSH1 0x0 DUP1 REVERT JUMPDEST SWAP1 PUSH1 0x0 MSTORE PUSH1 0x20 PUSH1 0x0 KECCAK256 SWAP1 PUSH1 0x3 MUL ADD PUSH1 0x0 SWAP2 POP SWAP1 POP DUP1 PUSH1 0x0 ADD SLOAD SWAP1 DUP1 PUSH1 0x1 ADD DUP1 SLOAD PUSH2 0x9E6 SWAP1 PUSH2 0x1E02 JUMP JUMPDEST DUP1 PUSH1 0x1F ADD PUSH1 0x20 DUP1 SWAP2 DIV MUL PUSH1 0x20 ADD PUSH1 0x40 MLOAD SWAP1 DUP2 ADD PUSH1 0x40 MSTORE DUP1 SWAP3 SWAP2 SWAP1 DUP2 DUP2 MSTORE PUSH1 0x20 ADD DUP3 DUP1 SLOAD PUSH2 0xA12 SWAP1 PUSH2 0x1E02 JUMP JUMPDEST DUP1 ISZERO PUSH2 0xA5F JUMPI DUP1 PUSH1 0x1F LT PUSH2 0xA34 JUMPI PUSH2 0x100 DUP1 DUP4 SLOAD DIV MUL DUP4 MSTORE SWAP2 PUSH1 0x20 ADD SWAP2 PUSH2 0xA5F JUMP JUMPDEST DUP3 ADD SWAP2 SWAP1 PUSH1 0x0 MSTORE PUSH1 0x20 PUSH1 0x0 KECCAK256 SWAP1 JUMPDEST DUP2 SLOAD DUP2 MSTORE SWAP1 PUSH1 0x1 ADD SWAP1 PUSH1 0x20 ADD DUP1 DUP4 GT PUSH2 0xA42 JUMPI DUP3 SWAP1 SUB PUSH1 0x1F AND DUP3 ADD SWAP2 JUMPDEST POP POP POP POP POP SWAP1 DUP1 PUSH1 0x2 ADD SLOAD SWAP1 POP DUP4 JUMP JUMPDEST PUSH1 0x60 PUSH1 0x0 DUP1 SLOAD SWAP1 PUSH2 0x100 EXP SWAP1 DIV PUSH20 0xFFFFFFFFFFFFFFFFFFFFFFFFFFFFFFFFFFFFFFFF AND PUSH20 0xFFFFFFFFFFFFFFFFFFFFFFFFFFFFFFFFFFFFFFFF AND CALLER PUSH20 0xFFFFFFFFFFFFFFFFFFFFFFFFFFFFFFFFFFFFFFFF AND EQ PUSH2 0xAFF JUMPI PUSH1 0x40 MLOAD PUSH32 0x8C379A000000000000000000000000000000000000000000000000000000000 DUP2 MSTORE PUSH1 0x4 ADD PUSH2 0xAF6 SWAP1 PUSH2 0x210A JUMP JUMPDEST PUSH1 0x40 MLOAD DUP1 SWAP2 SUB SWAP1 REVERT JUMPDEST PUSH1 0x0 DUP1 PUSH1 0x5 DUP1 SLOAD SWAP1 POP PUSH8 0xFFFFFFFFFFFFFFFF DUP2 GT ISZERO PUSH2 0xB21 JUMPI PUSH2 0xB20 PUSH2 0x1AB4 JUMP JUMPDEST JUMPDEST PUSH1 0x40 MLOAD SWAP1 DUP1 DUP3 MSTORE DUP1 PUSH1 0x20 MUL PUSH1 0x20 ADD DUP3 ADD PUSH1 0x40 MSTORE DUP1 ISZERO PUSH2 0xB5A JUMPI DUP2 PUSH1 0x20 ADD JUMPDEST PUSH2 0xB47 PUSH2 0x15A7 JUMP JUMPDEST DUP2 MSTORE PUSH1 0x20 ADD SWAP1 PUSH1 0x1 SWAP1 SUB SWAP1 DUP2 PUSH2 0xB3F JUMPI SWAP1 POP JUMPDEST POP SWAP1 POP PUSH1 0x0 JUMPDEST PUSH1 0x4 DUP1 SLOAD SWAP1 POP DUP2 LT ISZERO PUSH2 0xEAC JUMPI PUSH1 0x0 JUMPDEST PUSH1 0x5 DUP1 SLOAD SWAP1 POP DUP2 LT ISZERO PUSH2 0xE98 JUMPI DUP6 PUSH1 0x3 PUSH1 0x0 PUSH1 0x4 DUP6 DUP2 SLOAD DUP2 LT PUSH2 0xB96 JUMPI PUSH2 0xB95 PUSH2 0x212A JUMP JUMPDEST JUMPDEST SWAP1 PUSH1 0x0 MSTORE PUSH1 0x20 PUSH1 0x0 KECCAK256 ADD PUSH1 0x0 SWAP1 SLOAD SWAP1 PUSH2 0x100 EXP SWAP1 DIV PUSH20 0xFFFFFFFFFFFFFFFFFFFFFFFFFFFFFFFFFFFFFFFF AND PUSH20 0xFFFFFFFFFFFFFFFFFFFFFFFFFFFFFFFFFFFFFFFF AND PUSH20 0xFFFFFFFFFFFFFFFFFFFFFFFFFFFFFFFFFFFFFFFF AND DUP2 MSTORE PUSH1 0x20 ADD SWAP1 DUP2 MSTORE PUSH1 0x20 ADD PUSH1 0x0 KECCAK256 PUSH1 0x0 PUSH1 0x5 DUP5 DUP2 SLOAD DUP2 LT PUSH2 0xC11 JUMPI PUSH2 0xC10 PUSH2 0x212A JUMP JUMPDEST JUMPDEST SWAP1 PUSH1 0x0 MSTORE PUSH1 0x20 PUSH1 0x0 KECCAK256 ADD SLOAD DUP2 MSTORE PUSH1 0x20 ADD SWAP1 DUP2 MSTORE PUSH1 0x20 ADD PUSH1 0x0 KECCAK256 PUSH1 0x0 ADD SLOAD SUB PUSH2 0xE85 JUMPI PUSH1 0x0 PUSH1 0x40 MLOAD DUP1 PUSH1 0x60 ADD PUSH1 0x40 MSTORE DUP1 PUSH1 0x5 DUP5 DUP2 SLOAD DUP2 LT PUSH2 0xC54 JUMPI PUSH2 0xC53 PUSH2 0x212A JUMP JUMPDEST JUMPDEST SWAP1 PUSH1 0x0 MSTORE PUSH1 0x20 PUSH1 0x0 KECCAK256 ADD SLOAD DUP2 MSTORE PUSH1 0x20 ADD PUSH1 0x3 PUSH1 0x0 PUSH1 0x4 DUP8 DUP2 SLOAD DUP2 LT PUSH2 0xC7C JUMPI PUSH2 0xC7B PUSH2 0x212A JUMP JUMPDEST JUMPDEST SWAP1 PUSH1 0x0 MSTORE PUSH1 0x20 PUSH1 0x0 KECCAK256 ADD PUSH1 0x0 SWAP1 SLOAD SWAP1 PUSH2 0x100 EXP SWAP1 DIV PUSH20 0xFFFFFFFFFFFFFFFFFFFFFFFFFFFFFFFFFFFFFFFF AND PUSH20 0xFFFFFFFFFFFFFFFFFFFFFFFFFFFFFFFFFFFFFFFF AND PUSH20 0xFFFFFFFFFFFFFFFFFFFFFFFFFFFFFFFFFFFFFFFF AND DUP2 MSTORE PUSH1 0x20 ADD SWAP1 DUP2 MSTORE PUSH1 0x20 ADD PUSH1 0x0 KECCAK256 PUSH1 0x0 PUSH1 0x5 DUP7 DUP2 SLOAD DUP2 LT PUSH2 0xCF7 JUMPI PUSH2 0xCF6 PUSH2 0x212A JUMP JUMPDEST JUMPDEST SWAP1 PUSH1 0x0 MSTORE PUSH1 0x20 PUSH1 0x0 KECCAK256 ADD SLOAD DUP2 MSTORE PUSH1 0x20 ADD SWAP1 DUP2 MSTORE PUSH1 0x20 ADD PUSH1 0x0 KECCAK256 PUSH1 0x1 ADD DUP1 SLOAD PUSH2 0xD1E SWAP1 PUSH2 0x1E02 JUMP JUMPDEST DUP1 PUSH1 0x1F ADD PUSH1 0x20 DUP1 SWAP2 DIV MUL PUSH1 0x20 ADD PUSH1 0x40 MLOAD SWAP1 DUP2 ADD PUSH1 0x40 MSTORE DUP1 SWAP3 SWAP2 SWAP1 DUP2 DUP2 MSTORE PUSH1 0x20 ADD DUP3 DUP1 SLOAD PUSH2 0xD4A SWAP1 PUSH2 0x1E02 JUMP JUMPDEST DUP1 ISZERO PUSH2 0xD97 JUMPI DUP1 PUSH1 0x1F LT PUSH2 0xD6C JUMPI PUSH2 0x100 DUP1 DUP4 SLOAD DIV MUL DUP4 MSTORE SWAP2 PUSH1 0x20 ADD SWAP2 PUSH2 0xD97 JUMP JUMPDEST DUP3 ADD SWAP2 SWAP1 PUSH1 0x0 MSTORE PUSH1 0x20 PUSH1 0x0 KECCAK256 SWAP1 JUMPDEST DUP2 SLOAD DUP2 MSTORE SWAP1 PUSH1 0x1 ADD SWAP1 PUSH1 0x20 ADD DUP1 DUP4 GT PUSH2 0xD7A JUMPI DUP3 SWAP1 SUB PUSH1 0x1F AND DUP3 ADD SWAP2 JUMPDEST POP POP POP POP POP DUP2 MSTORE PUSH1 0x20 ADD PUSH1 0x3 PUSH1 0x0 PUSH1 0x4 DUP8 DUP2 SLOAD DUP2 LT PUSH2 0xDB9 JUMPI PUSH2 0xDB8 PUSH2 0x212A JUMP JUMPDEST JUMPDEST SWAP1 PUSH1 0x0 MSTORE PUSH1 0x20 PUSH1 0x0 KECCAK256 ADD PUSH1 0x0 SWAP1 SLOAD SWAP1 PUSH2 0x100 EXP SWAP1 DIV PUSH20 0xFFFFFFFFFFFFFFFFFFFFFFFFFFFFFFFFFFFFFFFF AND PUSH20 0xFFFFFFFFFFFFFFFFFFFFFFFFFFFFFFFFFFFFFFFF AND PUSH20 0xFFFFFFFFFFFFFFFFFFFFFFFFFFFFFFFFFFFFFFFF AND DUP2 MSTORE PUSH1 0x20 ADD SWAP1 DUP2 MSTORE PUSH1 0x20 ADD PUSH1 0x0 KECCAK256 PUSH1 0x0 PUSH1 0x5 DUP7 DUP2 SLOAD DUP2 LT PUSH2 0xE34 JUMPI PUSH2 0xE33 PUSH2 0x212A JUMP JUMPDEST JUMPDEST SWAP1 PUSH1 0x0 MSTORE PUSH1 0x20 PUSH1 0x0 KECCAK256 ADD SLOAD DUP2 MSTORE PUSH1 0x20 ADD SWAP1 DUP2 MSTORE PUSH1 0x20 ADD PUSH1 0x0 KECCAK256 PUSH1 0x2 ADD SLOAD DUP2 MSTORE POP SWAP1 POP DUP1 DUP5 DUP7 DUP2 MLOAD DUP2 LT PUSH2 0xE6A JUMPI PUSH2 0xE69 PUSH2 0x212A JUMP JUMPDEST JUMPDEST PUSH1 0x20 MUL PUSH1 0x20 ADD ADD DUP2 SWAP1 MSTORE POP DUP5 DUP1 PUSH2 0xE80 SWAP1 PUSH2 0x2159 JUMP JUMPDEST SWAP6 POP POP POP JUMPDEST DUP1 DUP1 PUSH2 0xE90 SWAP1 PUSH2 0x2159 JUMP JUMPDEST SWAP2 POP POP PUSH2 0xB70 JUMP JUMPDEST POP DUP1 DUP1 PUSH2 0xEA4 SWAP1 PUSH2 0x2159 JUMP JUMPDEST SWAP2 POP POP PUSH2 0xB60 JUMP JUMPDEST POP DUP1 SWAP3 POP POP POP SWAP2 SWAP1 POP JUMP JUMPDEST DUP4 PUSH1 0x0 DUP1 PUSH1 0x0 SWAP1 POP JUMPDEST PUSH1 0x5 DUP1 SLOAD SWAP1 POP DUP2 LT ISZERO PUSH2 0xF0E JUMPI DUP3 PUSH1 0x5 DUP3 DUP2 SLOAD DUP2 LT PUSH2 0xEE2 JUMPI PUSH2 0xEE1 PUSH2 0x212A JUMP JUMPDEST JUMPDEST SWAP1 PUSH1 0x0 MSTORE PUSH1 0x20 PUSH1 0x0 KECCAK256 ADD SLOAD SUB PUSH2 0xEFB JUMPI PUSH1 0x1 SWAP2 POP PUSH2 0xF0E JUMP JUMPDEST DUP1 DUP1 PUSH2 0xF06 SWAP1 PUSH2 0x2159 JUMP JUMPDEST SWAP2 POP POP PUSH2 0xEC0 JUMP JUMPDEST POP PUSH1 0x0 ISZERO ISZERO DUP2 ISZERO ISZERO EQ PUSH2 0xF56 JUMPI PUSH1 0x40 MLOAD PUSH32 0x8C379A000000000000000000000000000000000000000000000000000000000 DUP2 MSTORE PUSH1 0x4 ADD PUSH2 0xF4D SWAP1 PUSH2 0x21ED JUMP JUMPDEST PUSH1 0x40 MLOAD DUP1 SWAP2 SUB SWAP1 REVERT JUMPDEST PUSH1 0x4 CALLER SWAP1 DUP1 PUSH1 0x1 DUP2 SLOAD ADD DUP1 DUP3 SSTORE DUP1 SWAP2 POP POP PUSH1 0x1 SWAP1 SUB SWAP1 PUSH1 0x0 MSTORE PUSH1 0x20 PUSH1 0x0 KECCAK256 ADD PUSH1 0x0 SWAP1 SWAP2 SWAP1 SWAP2 SWAP1 SWAP2 PUSH2 0x100 EXP DUP2 SLOAD DUP2 PUSH20 0xFFFFFFFFFFFFFFFFFFFFFFFFFFFFFFFFFFFFFFFF MUL NOT AND SWAP1 DUP4 PUSH20 0xFFFFFFFFFFFFFFFFFFFFFFFFFFFFFFFFFFFFFFFF AND MUL OR SWAP1 SSTORE POP PUSH1 0x5 DUP7 SWAP1 DUP1 PUSH1 0x1 DUP2 SLOAD ADD DUP1 DUP3 SSTORE DUP1 SWAP2 POP POP PUSH1 0x1 SWAP1 SUB SWAP1 PUSH1 0x0 MSTORE PUSH1 0x20 PUSH1 0x0 KECCAK256 ADD PUSH1 0x0 SWAP1 SWAP2 SWAP1 SWAP2 SWAP1 SWAP2 POP SSTORE PUSH1 0x40 MLOAD DUP1 PUSH1 0x80 ADD PUSH1 0x40 MSTORE DUP1 DUP7 DUP2 MSTORE PUSH1 0x20 ADD DUP6 DUP2 MSTORE PUSH1 0x20 ADD DUP5 DUP2 MSTORE PUSH1 0x20 ADD PUSH1 0x1 ISZERO ISZERO DUP2 MSTORE POP PUSH1 0x3 PUSH1 0x0 CALLER PUSH20 0xFFFFFFFFFFFFFFFFFFFFFFFFFFFFFFFFFFFFFFFF AND PUSH20 0xFFFFFFFFFFFFFFFFFFFFFFFFFFFFFFFFFFFFFFFF AND DUP2 MSTORE PUSH1 0x20 ADD SWAP1 DUP2 MSTORE PUSH1 0x20 ADD PUSH1 0x0 KECCAK256 PUSH1 0x0 DUP9 DUP2 MSTORE PUSH1 0x20 ADD SWAP1 DUP2 MSTORE PUSH1 0x20 ADD PUSH1 0x0 KECCAK256 PUSH1 0x0 DUP3 ADD MLOAD DUP2 PUSH1 0x0 ADD SSTORE PUSH1 0x20 DUP3 ADD MLOAD DUP2 PUSH1 0x1 ADD SWAP1 DUP2 PUSH2 0x1075 SWAP2 SWAP1 PUSH2 0x23B9 JUMP JUMPDEST POP PUSH1 0x40 DUP3 ADD MLOAD DUP2 PUSH1 0x2 ADD SSTORE PUSH1 0x60 DUP3 ADD MLOAD DUP2 PUSH1 0x3 ADD PUSH1 0x0 PUSH2 0x100 EXP DUP2 SLOAD DUP2 PUSH1 0xFF MUL NOT AND SWAP1 DUP4 ISZERO ISZERO MUL OR SWAP1 SSTORE POP SWAP1 POP POP PUSH32 0x86DC9B84D24D91976389928021D50A70822F4A52230234823092B04C828FB7A6 CALLER DUP8 TIMESTAMP PUSH1 0x40 MLOAD PUSH2 0x10D6 SWAP4 SWAP3 SWAP2 SWAP1 PUSH2 0x248B JUMP JUMPDEST PUSH1 0x40 MLOAD DUP1 SWAP2 SUB SWAP1 LOG1 POP POP POP POP POP POP JUMP JUMPDEST DUP1 PUSH1 0x3 PUSH1 0x0 CALLER PUSH20 0xFFFFFFFFFFFFFFFFFFFFFFFFFFFFFFFFFFFFFFFF AND PUSH20 0xFFFFFFFFFFFFFFFFFFFFFFFFFFFFFFFFFFFFFFFF AND DUP2 MSTORE PUSH1 0x20 ADD SWAP1 DUP2 MSTORE PUSH1 0x20 ADD PUSH1 0x0 KECCAK256 PUSH1 0x0 DUP5 DUP2 MSTORE PUSH1 0x20 ADD SWAP1 DUP2 MSTORE PUSH1 0x20 ADD PUSH1 0x0 KECCAK256 PUSH1 0x2 ADD SLOAD PUSH2 0x1145 SWAP2 SWAP1 PUSH2 0x1F6E JUMP JUMPDEST PUSH1 0x3 PUSH1 0x0 CALLER PUSH20 0xFFFFFFFFFFFFFFFFFFFFFFFFFFFFFFFFFFFFFFFF AND PUSH20 0xFFFFFFFFFFFFFFFFFFFFFFFFFFFFFFFFFFFFFFFF AND DUP2 MSTORE PUSH1 0x20 ADD SWAP1 DUP2 MSTORE PUSH1 0x20 ADD PUSH1 0x0 KECCAK256 PUSH1 0x0 DUP5 DUP2 MSTORE PUSH1 0x20 ADD SWAP1 DUP2 MSTORE PUSH1 0x20 ADD PUSH1 0x0 KECCAK256 PUSH1 0x2 ADD DUP2 SWAP1 SSTORE POP PUSH32 0x2C475B8285D302922E0B51CACE5489A97D98708A2A3A01EDF1E62F3B3900C487 CALLER DUP4 DUP4 TIMESTAMP PUSH1 0x40 MLOAD PUSH2 0x11D1 SWAP5 SWAP4 SWAP3 SWAP2 SWAP1 PUSH2 0x2079 JUMP JUMPDEST PUSH1 0x40 MLOAD DUP1 SWAP2 SUB SWAP1 LOG1 POP POP JUMP JUMPDEST PUSH1 0x4 DUP2 DUP2 SLOAD DUP2 LT PUSH2 0x11ED JUMPI PUSH1 0x0 DUP1 REVERT JUMPDEST SWAP1 PUSH1 0x0 MSTORE PUSH1 0x20 PUSH1 0x0 KECCAK256 ADD PUSH1 0x0 SWAP2 POP SLOAD SWAP1 PUSH2 0x100 EXP SWAP1 DIV PUSH20 0xFFFFFFFFFFFFFFFFFFFFFFFFFFFFFFFFFFFFFFFF AND DUP2 JUMP JUMPDEST PUSH1 0x5 DUP2 DUP2 SLOAD DUP2 LT PUSH2 0x122C JUMPI PUSH1 0x0 DUP1 REVERT JUMPDEST SWAP1 PUSH1 0x0 MSTORE PUSH1 0x20 PUSH1 0x0 KECCAK256 ADD PUSH1 0x0 SWAP2 POP SWAP1 POP SLOAD DUP2 JUMP JUMPDEST PUSH1 0x60 PUSH1 0x0 PUSH1 0x5 DUP1 SLOAD SWAP1 POP PUSH8 0xFFFFFFFFFFFFFFFF DUP2 GT ISZERO PUSH2 0x1263 JUMPI PUSH2 0x1262 PUSH2 0x1AB4 JUMP JUMPDEST JUMPDEST PUSH1 0x40 MLOAD SWAP1 DUP1 DUP3 MSTORE DUP1 PUSH1 0x20 MUL PUSH1 0x20 ADD DUP3 ADD PUSH1 0x40 MSTORE DUP1 ISZERO PUSH2 0x129C JUMPI DUP2 PUSH1 0x20 ADD JUMPDEST PUSH2 0x1289 PUSH2 0x15C8 JUMP JUMPDEST DUP2 MSTORE PUSH1 0x20 ADD SWAP1 PUSH1 0x1 SWAP1 SUB SWAP1 DUP2 PUSH2 0x1281 JUMPI SWAP1 POP JUMPDEST POP SWAP1 POP PUSH1 0x0 DUP1 PUSH1 0x0 SWAP1 POP JUMPDEST PUSH1 0x5 DUP1 SLOAD SWAP1 POP DUP2 LT ISZERO PUSH2 0x159E JUMPI PUSH1 0x1 ISZERO ISZERO PUSH1 0x3 PUSH1 0x0 CALLER PUSH20 0xFFFFFFFFFFFFFFFFFFFFFFFFFFFFFFFFFFFFFFFF AND PUSH20 0xFFFFFFFFFFFFFFFFFFFFFFFFFFFFFFFFFFFFFFFF AND DUP2 MSTORE PUSH1 0x20 ADD SWAP1 DUP2 MSTORE PUSH1 0x20 ADD PUSH1 0x0 KECCAK256 PUSH1 0x0 PUSH1 0x5 DUP5 DUP2 SLOAD DUP2 LT PUSH2 0x130D JUMPI PUSH2 0x130C PUSH2 0x212A JUMP JUMPDEST JUMPDEST SWAP1 PUSH1 0x0 MSTORE PUSH1 0x20 PUSH1 0x0 KECCAK256 ADD SLOAD DUP2 MSTORE PUSH1 0x20 ADD SWAP1 DUP2 MSTORE PUSH1 0x20 ADD PUSH1 0x0 KECCAK256 PUSH1 0x3 ADD PUSH1 0x0 SWAP1 SLOAD SWAP1 PUSH2 0x100 EXP SWAP1 DIV PUSH1 0xFF AND ISZERO ISZERO SUB PUSH2 0x158B JUMPI PUSH1 0x0 PUSH1 0x40 MLOAD DUP1 PUSH1 0x80 ADD PUSH1 0x40 MSTORE DUP1 PUSH1 0x5 DUP5 DUP2 SLOAD DUP2 LT PUSH2 0x135F JUMPI PUSH2 0x135E PUSH2 0x212A JUMP JUMPDEST JUMPDEST SWAP1 PUSH1 0x0 MSTORE PUSH1 0x20 PUSH1 0x0 KECCAK256 ADD SLOAD DUP2 MSTORE PUSH1 0x20 ADD PUSH1 0x3 PUSH1 0x0 CALLER PUSH20 0xFFFFFFFFFFFFFFFFFFFFFFFFFFFFFFFFFFFFFFFF AND PUSH20 0xFFFFFFFFFFFFFFFFFFFFFFFFFFFFFFFFFFFFFFFF AND DUP2 MSTORE PUSH1 0x20 ADD SWAP1 DUP2 MSTORE PUSH1 0x20 ADD PUSH1 0x0 KECCAK256 PUSH1 0x0 PUSH1 0x5 DUP7 DUP2 SLOAD DUP2 LT PUSH2 0x13C4 JUMPI PUSH2 0x13C3 PUSH2 0x212A JUMP JUMPDEST JUMPDEST SWAP1 PUSH1 0x0 MSTORE PUSH1 0x20 PUSH1 0x0 KECCAK256 ADD SLOAD DUP2 MSTORE PUSH1 0x20 ADD SWAP1 DUP2 MSTORE PUSH1 0x20 ADD PUSH1 0x0 KECCAK256 PUSH1 0x0 ADD SLOAD DUP2 MSTORE PUSH1 0x20 ADD PUSH1 0x3 PUSH1 0x0 CALLER PUSH20 0xFFFFFFFFFFFFFFFFFFFFFFFFFFFFFFFFFFFFFFFF AND PUSH20 0xFFFFFFFFFFFFFFFFFFFFFFFFFFFFFFFFFFFFFFFF AND DUP2 MSTORE PUSH1 0x20 ADD SWAP1 DUP2 MSTORE PUSH1 0x20 ADD PUSH1 0x0 KECCAK256 PUSH1 0x0 PUSH1 0x5 DUP7 DUP2 SLOAD DUP2 LT PUSH2 0x143B JUMPI PUSH2 0x143A PUSH2 0x212A JUMP JUMPDEST JUMPDEST SWAP1 PUSH1 0x0 MSTORE PUSH1 0x20 PUSH1 0x0 KECCAK256 ADD SLOAD DUP2 MSTORE PUSH1 0x20 ADD SWAP1 DUP2 MSTORE PUSH1 0x20 ADD PUSH1 0x0 KECCAK256 PUSH1 0x1 ADD DUP1 SLOAD PUSH2 0x1462 SWAP1 PUSH2 0x1E02 JUMP JUMPDEST DUP1 PUSH1 0x1F ADD PUSH1 0x20 DUP1 SWAP2 DIV MUL PUSH1 0x20 ADD PUSH1 0x40 MLOAD SWAP1 DUP2 ADD PUSH1 0x40 MSTORE DUP1 SWAP3 SWAP2 SWAP1 DUP2 DUP2 MSTORE PUSH1 0x20 ADD DUP3 DUP1 SLOAD PUSH2 0x148E SWAP1 PUSH2 0x1E02 JUMP JUMPDEST DUP1 ISZERO PUSH2 0x14DB JUMPI DUP1 PUSH1 0x1F LT PUSH2 0x14B0 JUMPI PUSH2 0x100 DUP1 DUP4 SLOAD DIV MUL DUP4 MSTORE SWAP2 PUSH1 0x20 ADD SWAP2 PUSH2 0x14DB JUMP JUMPDEST DUP3 ADD SWAP2 SWAP1 PUSH1 0x0 MSTORE PUSH1 0x20 PUSH1 0x0 KECCAK256 SWAP1 JUMPDEST DUP2 SLOAD DUP2 MSTORE SWAP1 PUSH1 0x1 ADD SWAP1 PUSH1 0x20 ADD DUP1 DUP4 GT PUSH2 0x14BE JUMPI DUP3 SWAP1 SUB PUSH1 0x1F AND DUP3 ADD SWAP2 JUMPDEST POP POP POP POP POP DUP2 MSTORE PUSH1 0x20 ADD PUSH1 0x3 PUSH1 0x0 CALLER PUSH20 0xFFFFFFFFFFFFFFFFFFFFFFFFFFFFFFFFFFFFFFFF AND PUSH20 0xFFFFFFFFFFFFFFFFFFFFFFFFFFFFFFFFFFFFFFFF AND DUP2 MSTORE PUSH1 0x20 ADD SWAP1 DUP2 MSTORE PUSH1 0x20 ADD PUSH1 0x0 KECCAK256 PUSH1 0x0 PUSH1 0x5 DUP7 DUP2 SLOAD DUP2 LT PUSH2 0x153A JUMPI PUSH2 0x1539 PUSH2 0x212A JUMP JUMPDEST JUMPDEST SWAP1 PUSH1 0x0 MSTORE PUSH1 0x20 PUSH1 0x0 KECCAK256 ADD SLOAD DUP2 MSTORE PUSH1 0x20 ADD SWAP1 DUP2 MSTORE PUSH1 0x20 ADD PUSH1 0x0 KECCAK256 PUSH1 0x2 ADD SLOAD DUP2 MSTORE POP SWAP1 POP DUP1 DUP5 DUP5 DUP2 MLOAD DUP2 LT PUSH2 0x1570 JUMPI PUSH2 0x156F PUSH2 0x212A JUMP JUMPDEST JUMPDEST PUSH1 0x20 MUL PUSH1 0x20 ADD ADD DUP2 SWAP1 MSTORE POP DUP3 DUP1 PUSH2 0x1586 SWAP1 PUSH2 0x2159 JUMP JUMPDEST SWAP4 POP POP POP JUMPDEST DUP1 DUP1 PUSH2 0x1596 SWAP1 PUSH2 0x2159 JUMP JUMPDEST SWAP2 POP POP PUSH2 0x12A7 JUMP JUMPDEST POP DUP2 SWAP3 POP POP POP SWAP1 JUMP JUMPDEST PUSH1 0x40 MLOAD DUP1 PUSH1 0x60 ADD PUSH1 0x40 MSTORE DUP1 PUSH1 0x0 DUP2 MSTORE PUSH1 0x20 ADD PUSH1 0x60 DUP2 MSTORE PUSH1 0x20 ADD PUSH1 0x0 DUP2 MSTORE POP SWAP1 JUMP JUMPDEST PUSH1 0x40 MLOAD DUP1 PUSH1 0x80 ADD PUSH1 0x40 MSTORE DUP1 PUSH1 0x0 DUP2 MSTORE PUSH1 0x20 ADD PUSH1 0x0 DUP2 MSTORE PUSH1 0x20 ADD PUSH1 0x60 DUP2 MSTORE PUSH1 0x20 ADD PUSH1 0x0 DUP2 MSTORE POP SWAP1 JUMP JUMPDEST PUSH1 0x0 PUSH1 0x40 MLOAD SWAP1 POP SWAP1 JUMP JUMPDEST PUSH1 0x0 DUP1 REVERT JUMPDEST PUSH1 0x0 DUP1 REVERT JUMPDEST PUSH1 0x0 DUP2 SWAP1 POP SWAP2 SWAP1 POP JUMP JUMPDEST PUSH2 0x1617 DUP2 PUSH2 0x1604 JUMP JUMPDEST DUP2 EQ PUSH2 0x1622 JUMPI PUSH1 0x0 DUP1 REVERT JUMPDEST POP JUMP JUMPDEST PUSH1 0x0 DUP2 CALLDATALOAD SWAP1 POP PUSH2 0x1634 DUP2 PUSH2 0x160E JUMP JUMPDEST SWAP3 SWAP2 POP POP JUMP JUMPDEST PUSH1 0x0 PUSH1 0x20 DUP3 DUP5 SUB SLT ISZERO PUSH2 0x1650 JUMPI PUSH2 0x164F PUSH2 0x15FA JUMP JUMPDEST JUMPDEST PUSH1 0x0 PUSH2 0x165E DUP5 DUP3 DUP6 ADD PUSH2 0x1625 JUMP JUMPDEST SWAP2 POP POP SWAP3 SWAP2 POP POP JUMP JUMPDEST PUSH2 0x1670 DUP2 PUSH2 0x1604 JUMP JUMPDEST DUP3 MSTORE POP POP JUMP JUMPDEST PUSH1 0x0 DUP2 MLOAD SWAP1 POP SWAP2 SWAP1 POP JUMP JUMPDEST PUSH1 0x0 DUP3 DUP3 MSTORE PUSH1 0x20 DUP3 ADD SWAP1 POP SWAP3 SWAP2 POP POP JUMP JUMPDEST PUSH1 0x0 JUMPDEST DUP4 DUP2 LT ISZERO PUSH2 0x16B0 JUMPI DUP1 DUP3 ADD MLOAD DUP2 DUP5 ADD MSTORE PUSH1 0x20 DUP2 ADD SWAP1 POP PUSH2 0x1695 JUMP JUMPDEST PUSH1 0x0 DUP5 DUP5 ADD MSTORE POP POP POP POP JUMP JUMPDEST PUSH1 0x0 PUSH1 0x1F NOT PUSH1 0x1F DUP4 ADD AND SWAP1 POP SWAP2 SWAP1 POP JUMP JUMPDEST PUSH1 0x0 PUSH2 0x16D8 DUP3 PUSH2 0x1676 JUMP JUMPDEST PUSH2 0x16E2 DUP2 DUP6 PUSH2 0x1681 JUMP JUMPDEST SWAP4 POP PUSH2 0x16F2 DUP2 DUP6 PUSH1 0x20 DUP7 ADD PUSH2 0x1692 JUMP JUMPDEST PUSH2 0x16FB DUP2 PUSH2 0x16BC JUMP JUMPDEST DUP5 ADD SWAP2 POP POP SWAP3 SWAP2 POP POP JUMP JUMPDEST PUSH1 0x0 PUSH1 0x80 DUP3 ADD SWAP1 POP PUSH2 0x171B PUSH1 0x0 DUP4 ADD DUP8 PUSH2 0x1667 JUMP JUMPDEST PUSH2 0x1728 PUSH1 0x20 DUP4 ADD DUP7 PUSH2 0x1667 JUMP JUMPDEST DUP2 DUP2 SUB PUSH1 0x40 DUP4 ADD MSTORE PUSH2 0x173A DUP2 DUP6 PUSH2 0x16CD JUMP JUMPDEST SWAP1 POP PUSH2 0x1749 PUSH1 0x60 DUP4 ADD DUP5 PUSH2 0x1667 JUMP JUMPDEST SWAP6 SWAP5 POP POP POP POP POP JUMP JUMPDEST PUSH1 0x0 PUSH20 0xFFFFFFFFFFFFFFFFFFFFFFFFFFFFFFFFFFFFFFFF DUP3 AND SWAP1 POP SWAP2 SWAP1 POP JUMP JUMPDEST PUSH1 0x0 PUSH2 0x177D DUP3 PUSH2 0x1752 JUMP JUMPDEST SWAP1 POP SWAP2 SWAP1 POP JUMP JUMPDEST PUSH2 0x178D DUP2 PUSH2 0x1772 JUMP JUMPDEST DUP2 EQ PUSH2 0x1798 JUMPI PUSH1 0x0 DUP1 REVERT JUMPDEST POP JUMP JUMPDEST PUSH1 0x0 DUP2 CALLDATALOAD SWAP1 POP PUSH2 0x17AA DUP2 PUSH2 0x1784 JUMP JUMPDEST SWAP3 SWAP2 POP POP JUMP JUMPDEST PUSH1 0x0 DUP1 PUSH1 0x0 DUP1 PUSH1 0x80 DUP6 DUP8 SUB SLT ISZERO PUSH2 0x17CA JUMPI PUSH2 0x17C9 PUSH2 0x15FA JUMP JUMPDEST JUMPDEST PUSH1 0x0 PUSH2 0x17D8 DUP8 DUP3 DUP9 ADD PUSH2 0x1625 JUMP JUMPDEST SWAP5 POP POP PUSH1 0x20 PUSH2 0x17E9 DUP8 DUP3 DUP9 ADD PUSH2 0x1625 JUMP JUMPDEST SWAP4 POP POP PUSH1 0x40 PUSH2 0x17FA DUP8 DUP3 DUP9 ADD PUSH2 0x179B JUMP JUMPDEST SWAP3 POP POP PUSH1 0x60 PUSH2 0x180B DUP8 DUP3 DUP9 ADD PUSH2 0x1625 JUMP JUMPDEST SWAP2 POP POP SWAP3 SWAP6 SWAP2 SWAP5 POP SWAP3 POP JUMP JUMPDEST PUSH1 0x0 DUP1 PUSH1 0x40 DUP4 DUP6 SUB SLT ISZERO PUSH2 0x182E JUMPI PUSH2 0x182D PUSH2 0x15FA JUMP JUMPDEST JUMPDEST PUSH1 0x0 PUSH2 0x183C DUP6 DUP3 DUP7 ADD PUSH2 0x179B JUMP JUMPDEST SWAP3 POP POP PUSH1 0x20 PUSH2 0x184D DUP6 DUP3 DUP7 ADD PUSH2 0x1625 JUMP JUMPDEST SWAP2 POP POP SWAP3 POP SWAP3 SWAP1 POP JUMP JUMPDEST PUSH1 0x0 PUSH1 0x20 DUP3 ADD SWAP1 POP PUSH2 0x186C PUSH1 0x0 DUP4 ADD DUP5 PUSH2 0x1667 JUMP JUMPDEST SWAP3 SWAP2 POP POP JUMP JUMPDEST PUSH1 0x0 DUP1 PUSH1 0x40 DUP4 DUP6 SUB SLT ISZERO PUSH2 0x1889 JUMPI PUSH2 0x1888 PUSH2 0x15FA JUMP JUMPDEST JUMPDEST PUSH1 0x0 PUSH2 0x1897 DUP6 DUP3 DUP7 ADD PUSH2 0x1625 JUMP JUMPDEST SWAP3 POP POP PUSH1 0x20 PUSH2 0x18A8 DUP6 DUP3 DUP7 ADD PUSH2 0x1625 JUMP JUMPDEST SWAP2 POP POP SWAP3 POP SWAP3 SWAP1 POP JUMP JUMPDEST PUSH1 0x0 PUSH1 0x20 DUP3 DUP5 SUB SLT ISZERO PUSH2 0x18C8 JUMPI PUSH2 0x18C7 PUSH2 0x15FA JUMP JUMPDEST JUMPDEST PUSH1 0x0 PUSH2 0x18D6 DUP5 DUP3 DUP6 ADD PUSH2 0x179B JUMP JUMPDEST SWAP2 POP POP SWAP3 SWAP2 POP POP JUMP JUMPDEST PUSH1 0x0 PUSH1 0x60 DUP3 ADD SWAP1 POP PUSH2 0x18F4 PUSH1 0x0 DUP4 ADD DUP7 PUSH2 0x1667 JUMP JUMPDEST DUP2 DUP2 SUB PUSH1 0x20 DUP4 ADD MSTORE PUSH2 0x1906 DUP2 DUP6 PUSH2 0x16CD JUMP JUMPDEST SWAP1 POP PUSH2 0x1915 PUSH1 0x40 DUP4 ADD DUP5 PUSH2 0x1667 JUMP JUMPDEST SWAP5 SWAP4 POP POP POP POP JUMP JUMPDEST PUSH1 0x0 DUP2 MLOAD SWAP1 POP SWAP2 SWAP1 POP JUMP JUMPDEST PUSH1 0x0 DUP3 DUP3 MSTORE PUSH1 0x20 DUP3 ADD SWAP1 POP SWAP3 SWAP2 POP POP JUMP JUMPDEST PUSH1 0x0 DUP2 SWAP1 POP PUSH1 0x20 DUP3 ADD SWAP1 POP SWAP2 SWAP1 POP JUMP JUMPDEST PUSH2 0x1952 DUP2 PUSH2 0x1604 JUMP JUMPDEST DUP3 MSTORE POP POP JUMP JUMPDEST PUSH1 0x0 DUP3 DUP3 MSTORE PUSH1 0x20 DUP3 ADD SWAP1 POP SWAP3 SWAP2 POP POP JUMP JUMPDEST PUSH1 0x0 PUSH2 0x1974 DUP3 PUSH2 0x1676 JUMP JUMPDEST PUSH2 0x197E DUP2 DUP6 PUSH2 0x1958 JUMP JUMPDEST SWAP4 POP PUSH2 0x198E DUP2 DUP6 PUSH1 0x20 DUP7 ADD PUSH2 0x1692 JUMP JUMPDEST PUSH2 0x1997 DUP2 PUSH2 0x16BC JUMP JUMPDEST DUP5 ADD SWAP2 POP POP SWAP3 SWAP2 POP POP JUMP JUMPDEST PUSH1 0x0 PUSH1 0x60 DUP4 ADD PUSH1 0x0 DUP4 ADD MLOAD PUSH2 0x19BA PUSH1 0x0 DUP7 ADD DUP3 PUSH2 0x1949 JUMP JUMPDEST POP PUSH1 0x20 DUP4 ADD MLOAD DUP5 DUP3 SUB PUSH1 0x20 DUP7 ADD MSTORE PUSH2 0x19D2 DUP3 DUP3 PUSH2 0x1969 JUMP JUMPDEST SWAP2 POP POP PUSH1 0x40 DUP4 ADD MLOAD PUSH2 0x19E7 PUSH1 0x40 DUP7 ADD DUP3 PUSH2 0x1949 JUMP JUMPDEST POP DUP1 SWAP2 POP POP SWAP3 SWAP2 POP POP JUMP JUMPDEST PUSH1 0x0 PUSH2 0x19FE DUP4 DUP4 PUSH2 0x19A2 JUMP JUMPDEST SWAP1 POP SWAP3 SWAP2 POP POP JUMP JUMPDEST PUSH1 0x0 PUSH1 0x20 DUP3 ADD SWAP1 POP SWAP2 SWAP1 POP JUMP JUMPDEST PUSH1 0x0 PUSH2 0x1A1E DUP3 PUSH2 0x191D JUMP JUMPDEST PUSH2 0x1A28 DUP2 DUP6 PUSH2 0x1928 JUMP JUMPDEST SWAP4 POP DUP4 PUSH1 0x20 DUP3 MUL DUP6 ADD PUSH2 0x1A3A DUP6 PUSH2 0x1939 JUMP JUMPDEST DUP1 PUSH1 0x0 JUMPDEST DUP6 DUP2 LT ISZERO PUSH2 0x1A76 JUMPI DUP5 DUP5 SUB DUP10 MSTORE DUP2 MLOAD PUSH2 0x1A57 DUP6 DUP3 PUSH2 0x19F2 JUMP JUMPDEST SWAP5 POP PUSH2 0x1A62 DUP4 PUSH2 0x1A06 JUMP JUMPDEST SWAP3 POP PUSH1 0x20 DUP11 ADD SWAP10 POP POP PUSH1 0x1 DUP2 ADD SWAP1 POP PUSH2 0x1A3E JUMP JUMPDEST POP DUP3 SWAP8 POP DUP8 SWAP6 POP POP POP POP POP POP SWAP3 SWAP2 POP POP JUMP JUMPDEST PUSH1 0x0 PUSH1 0x20 DUP3 ADD SWAP1 POP DUP2 DUP2 SUB PUSH1 0x0 DUP4 ADD MSTORE PUSH2 0x1AA2 DUP2 DUP5 PUSH2 0x1A13 JUMP JUMPDEST SWAP1 POP SWAP3 SWAP2 POP POP JUMP JUMPDEST PUSH1 0x0 DUP1 REVERT JUMPDEST PUSH1 0x0 DUP1 REVERT JUMPDEST PUSH32 0x4E487B7100000000000000000000000000000000000000000000000000000000 PUSH1 0x0 MSTORE PUSH1 0x41 PUSH1 0x4 MSTORE PUSH1 0x24 PUSH1 0x0 REVERT JUMPDEST PUSH2 0x1AEC DUP3 PUSH2 0x16BC JUMP JUMPDEST DUP2 ADD DUP2 DUP2 LT PUSH8 0xFFFFFFFFFFFFFFFF DUP3 GT OR ISZERO PUSH2 0x1B0B JUMPI PUSH2 0x1B0A PUSH2 0x1AB4 JUMP JUMPDEST JUMPDEST DUP1 PUSH1 0x40 MSTORE POP POP POP JUMP JUMPDEST PUSH1 0x0 PUSH2 0x1B1E PUSH2 0x15F0 JUMP JUMPDEST SWAP1 POP PUSH2 0x1B2A DUP3 DUP3 PUSH2 0x1AE3 JUMP JUMPDEST SWAP2 SWAP1 POP JUMP JUMPDEST PUSH1 0x0 PUSH8 0xFFFFFFFFFFFFFFFF DUP3 GT ISZERO PUSH2 0x1B4A JUMPI PUSH2 0x1B49 PUSH2 0x1AB4 JUMP JUMPDEST JUMPDEST PUSH2 0x1B53 DUP3 PUSH2 0x16BC JUMP JUMPDEST SWAP1 POP PUSH1 0x20 DUP2 ADD SWAP1 POP SWAP2 SWAP1 POP JUMP JUMPDEST DUP3 DUP2 DUP4 CALLDATACOPY PUSH1 0x0 DUP4 DUP4 ADD MSTORE POP POP POP JUMP JUMPDEST PUSH1 0x0 PUSH2 0x1B82 PUSH2 0x1B7D DUP5 PUSH2 0x1B2F JUMP JUMPDEST PUSH2 0x1B14 JUMP JUMPDEST SWAP1 POP DUP3 DUP2 MSTORE PUSH1 0x20 DUP2 ADD DUP5 DUP5 DUP5 ADD GT ISZERO PUSH2 0x1B9E JUMPI PUSH2 0x1B9D PUSH2 0x1AAF JUMP JUMPDEST JUMPDEST PUSH2 0x1BA9 DUP5 DUP3 DUP6 PUSH2 0x1B60 JUMP JUMPDEST POP SWAP4 SWAP3 POP POP POP JUMP JUMPDEST PUSH1 0x0 DUP3 PUSH1 0x1F DUP4 ADD SLT PUSH2 0x1BC6 JUMPI PUSH2 0x1BC5 PUSH2 0x1AAA JUMP JUMPDEST JUMPDEST DUP2 CALLDATALOAD PUSH2 0x1BD6 DUP5 DUP3 PUSH1 0x20 DUP7 ADD PUSH2 0x1B6F JUMP JUMPDEST SWAP2 POP POP SWAP3 SWAP2 POP POP JUMP JUMPDEST PUSH1 0x0 DUP1 PUSH1 0x0 DUP1 PUSH1 0x80 DUP6 DUP8 SUB SLT ISZERO PUSH2 0x1BF9 JUMPI PUSH2 0x1BF8 PUSH2 0x15FA JUMP JUMPDEST JUMPDEST PUSH1 0x0 PUSH2 0x1C07 DUP8 DUP3 DUP9 ADD PUSH2 0x1625 JUMP JUMPDEST SWAP5 POP POP PUSH1 0x20 PUSH2 0x1C18 DUP8 DUP3 DUP9 ADD PUSH2 0x1625 JUMP JUMPDEST SWAP4 POP POP PUSH1 0x40 DUP6 ADD CALLDATALOAD PUSH8 0xFFFFFFFFFFFFFFFF DUP2 GT ISZERO PUSH2 0x1C39 JUMPI PUSH2 0x1C38 PUSH2 0x15FF JUMP JUMPDEST JUMPDEST PUSH2 0x1C45 DUP8 DUP3 DUP9 ADD PUSH2 0x1BB1 JUMP JUMPDEST SWAP3 POP POP PUSH1 0x60 PUSH2 0x1C56 DUP8 DUP3 DUP9 ADD PUSH2 0x1625 JUMP JUMPDEST SWAP2 POP POP SWAP3 SWAP6 SWAP2 SWAP5 POP SWAP3 POP JUMP JUMPDEST PUSH2 0x1C6B DUP2 PUSH2 0x1772 JUMP JUMPDEST DUP3 MSTORE POP POP JUMP JUMPDEST PUSH1 0x0 PUSH1 0x20 DUP3 ADD SWAP1 POP PUSH2 0x1C86 PUSH1 0x0 DUP4 ADD DUP5 PUSH2 0x1C62 JUMP JUMPDEST SWAP3 SWAP2 POP POP JUMP JUMPDEST PUSH1 0x0 DUP2 MLOAD SWAP1 POP SWAP2 SWAP1 POP JUMP JUMPDEST PUSH1 0x0 DUP3 DUP3 MSTORE PUSH1 0x20 DUP3 ADD SWAP1 POP SWAP3 SWAP2 POP POP JUMP JUMPDEST PUSH1 0x0 DUP2 SWAP1 POP PUSH1 0x20 DUP3 ADD SWAP1 POP SWAP2 SWAP1 POP JUMP JUMPDEST PUSH1 0x0 PUSH1 0x80 DUP4 ADD PUSH1 0x0 DUP4 ADD MLOAD PUSH2 0x1CD0 PUSH1 0x0 DUP7 ADD DUP3 PUSH2 0x1949 JUMP JUMPDEST POP PUSH1 0x20 DUP4 ADD MLOAD PUSH2 0x1CE3 PUSH1 0x20 DUP7 ADD DUP3 PUSH2 0x1949 JUMP JUMPDEST POP PUSH1 0x40 DUP4 ADD MLOAD DUP5 DUP3 SUB PUSH1 0x40 DUP7 ADD MSTORE PUSH2 0x1CFB DUP3 DUP3 PUSH2 0x1969 JUMP JUMPDEST SWAP2 POP POP PUSH1 0x60 DUP4 ADD MLOAD PUSH2 0x1D10 PUSH1 0x60 DUP7 ADD DUP3 PUSH2 0x1949 JUMP JUMPDEST POP DUP1 SWAP2 POP POP SWAP3 SWAP2 POP POP JUMP JUMPDEST PUSH1 0x0 PUSH2 0x1D27 DUP4 DUP4 PUSH2 0x1CB8 JUMP JUMPDEST SWAP1 POP SWAP3 SWAP2 POP POP JUMP JUMPDEST PUSH1 0x0 PUSH1 0x20 DUP3 ADD SWAP1 POP SWAP2 SWAP1 POP JUMP JUMPDEST PUSH1 0x0 PUSH2 0x1D47 DUP3 PUSH2 0x1C8C JUMP JUMPDEST PUSH2 0x1D51 DUP2 DUP6 PUSH2 0x1C97 JUMP JUMPDEST SWAP4 POP DUP4 PUSH1 0x20 DUP3 MUL DUP6 ADD PUSH2 0x1D63 DUP6 PUSH2 0x1CA8 JUMP JUMPDEST DUP1 PUSH1 0x0 JUMPDEST DUP6 DUP2 LT ISZERO PUSH2 0x1D9F JUMPI DUP5 DUP5 SUB DUP10 MSTORE DUP2 MLOAD PUSH2 0x1D80 DUP6 DUP3 PUSH2 0x1D1B JUMP JUMPDEST SWAP5 POP PUSH2 0x1D8B DUP4 PUSH2 0x1D2F JUMP JUMPDEST SWAP3 POP PUSH1 0x20 DUP11 ADD SWAP10 POP POP PUSH1 0x1 DUP2 ADD SWAP1 POP PUSH2 0x1D67 JUMP JUMPDEST POP DUP3 SWAP8 POP DUP8 SWAP6 POP POP POP POP POP POP SWAP3 SWAP2 POP POP JUMP JUMPDEST PUSH1 0x0 PUSH1 0x20 DUP3 ADD SWAP1 POP DUP2 DUP2 SUB PUSH1 0x0 DUP4 ADD MSTORE PUSH2 0x1DCB DUP2 DUP5 PUSH2 0x1D3C JUMP JUMPDEST SWAP1 POP SWAP3 SWAP2 POP POP JUMP JUMPDEST PUSH32 0x4E487B7100000000000000000000000000000000000000000000000000000000 PUSH1 0x0 MSTORE PUSH1 0x22 PUSH1 0x4 MSTORE PUSH1 0x24 PUSH1 0x0 REVERT JUMPDEST PUSH1 0x0 PUSH1 0x2 DUP3 DIV SWAP1 POP PUSH1 0x1 DUP3 AND DUP1 PUSH2 0x1E1A JUMPI PUSH1 0x7F DUP3 AND SWAP2 POP JUMPDEST PUSH1 0x20 DUP3 LT DUP2 SUB PUSH2 0x1E2D JUMPI PUSH2 0x1E2C PUSH2 0x1DD3 JUMP JUMPDEST JUMPDEST POP SWAP2 SWAP1 POP JUMP JUMPDEST PUSH32 0x496E73756666696369656E742042616C616E6365000000000000000000000000 PUSH1 0x0 DUP3 ADD MSTORE POP JUMP JUMPDEST PUSH1 0x0 PUSH2 0x1E69 PUSH1 0x14 DUP4 PUSH2 0x1681 JUMP JUMPDEST SWAP2 POP PUSH2 0x1E74 DUP3 PUSH2 0x1E33 JUMP JUMPDEST PUSH1 0x20 DUP3 ADD SWAP1 POP SWAP2 SWAP1 POP JUMP JUMPDEST PUSH1 0x0 PUSH1 0x20 DUP3 ADD SWAP1 POP DUP2 DUP2 SUB PUSH1 0x0 DUP4 ADD MSTORE PUSH2 0x1E98 DUP2 PUSH2 0x1E5C JUMP JUMPDEST SWAP1 POP SWAP2 SWAP1 POP JUMP JUMPDEST PUSH32 0x496E636F7272656374204163636F756E74204E756D6265720000000000000000 PUSH1 0x0 DUP3 ADD MSTORE POP JUMP JUMPDEST PUSH1 0x0 PUSH2 0x1ED5 PUSH1 0x18 DUP4 PUSH2 0x1681 JUMP JUMPDEST SWAP2 POP PUSH2 0x1EE0 DUP3 PUSH2 0x1E9F JUMP JUMPDEST PUSH1 0x20 DUP3 ADD SWAP1 POP SWAP2 SWAP1 POP JUMP JUMPDEST PUSH1 0x0 PUSH1 0x20 DUP3 ADD SWAP1 POP DUP2 DUP2 SUB PUSH1 0x0 DUP4 ADD MSTORE PUSH2 0x1F04 DUP2 PUSH2 0x1EC8 JUMP JUMPDEST SWAP1 POP SWAP2 SWAP1 POP JUMP JUMPDEST PUSH32 0x4E487B7100000000000000000000000000000000000000000000000000000000 PUSH1 0x0 MSTORE PUSH1 0x11 PUSH1 0x4 MSTORE PUSH1 0x24 PUSH1 0x0 REVERT JUMPDEST PUSH1 0x0 PUSH2 0x1F45 DUP3 PUSH2 0x1604 JUMP JUMPDEST SWAP2 POP PUSH2 0x1F50 DUP4 PUSH2 0x1604 JUMP JUMPDEST SWAP3 POP DUP3 DUP3 SUB SWAP1 POP DUP2 DUP2 GT ISZERO PUSH2 0x1F68 JUMPI PUSH2 0x1F67 PUSH2 0x1F0B JUMP JUMPDEST JUMPDEST SWAP3 SWAP2 POP POP JUMP JUMPDEST PUSH1 0x0 PUSH2 0x1F79 DUP3 PUSH2 0x1604 JUMP JUMPDEST SWAP2 POP PUSH2 0x1F84 DUP4 PUSH2 0x1604 JUMP JUMPDEST SWAP3 POP DUP3 DUP3 ADD SWAP1 POP DUP1 DUP3 GT ISZERO PUSH2 0x1F9C JUMPI PUSH2 0x1F9B PUSH2 0x1F0B JUMP JUMPDEST JUMPDEST SWAP3 SWAP2 POP POP JUMP JUMPDEST PUSH1 0x0 PUSH1 0x80 DUP3 ADD SWAP1 POP PUSH2 0x1FB7 PUSH1 0x0 DUP4 ADD DUP8 PUSH2 0x1667 JUMP JUMPDEST PUSH2 0x1FC4 PUSH1 0x20 DUP4 ADD DUP7 PUSH2 0x1667 JUMP JUMPDEST PUSH2 0x1FD1 PUSH1 0x40 DUP4 ADD DUP6 PUSH2 0x1667 JUMP JUMPDEST PUSH2 0x1FDE PUSH1 0x60 DUP4 ADD DUP5 PUSH2 0x1667 JUMP JUMPDEST SWAP6 SWAP5 POP POP POP POP POP JUMP JUMPDEST PUSH32 0x4163636F756E7420646F6573206E6F742062656C6F6E677320746F2074686973 PUSH1 0x0 DUP3 ADD MSTORE PUSH32 0x2041646472657373000000000000000000000000000000000000000000000000 PUSH1 0x20 DUP3 ADD MSTORE POP JUMP JUMPDEST PUSH1 0x0 PUSH2 0x2043 PUSH1 0x28 DUP4 PUSH2 0x1681 JUMP JUMPDEST SWAP2 POP PUSH2 0x204E DUP3 PUSH2 0x1FE7 JUMP JUMPDEST PUSH1 0x40 DUP3 ADD SWAP1 POP SWAP2 SWAP1 POP JUMP JUMPDEST PUSH1 0x0 PUSH1 0x20 DUP3 ADD SWAP1 POP DUP2 DUP2 SUB PUSH1 0x0 DUP4 ADD MSTORE PUSH2 0x2072 DUP2 PUSH2 0x2036 JUMP JUMPDEST SWAP1 POP SWAP2 SWAP1 POP JUMP JUMPDEST PUSH1 0x0 PUSH1 0x80 DUP3 ADD SWAP1 POP PUSH2 0x208E PUSH1 0x0 DUP4 ADD DUP8 PUSH2 0x1C62 JUMP JUMPDEST PUSH2 0x209B PUSH1 0x20 DUP4 ADD DUP7 PUSH2 0x1667 JUMP JUMPDEST PUSH2 0x20A8 PUSH1 0x40 DUP4 ADD DUP6 PUSH2 0x1667 JUMP JUMPDEST PUSH2 0x20B5 PUSH1 0x60 DUP4 ADD DUP5 PUSH2 0x1667 JUMP JUMPDEST SWAP6 SWAP5 POP POP POP POP POP JUMP JUMPDEST PUSH32 0x556E617574686F72697A6564207065726D697373696F6E000000000000000000 PUSH1 0x0 DUP3 ADD MSTORE POP JUMP JUMPDEST PUSH1 0x0 PUSH2 0x20F4 PUSH1 0x17 DUP4 PUSH2 0x1681 JUMP JUMPDEST SWAP2 POP PUSH2 0x20FF DUP3 PUSH2 0x20BE JUMP JUMPDEST PUSH1 0x20 DUP3 ADD SWAP1 POP SWAP2 SWAP1 POP JUMP JUMPDEST PUSH1 0x0 PUSH1 0x20 DUP3 ADD SWAP1 POP DUP2 DUP2 SUB PUSH1 0x0 DUP4 ADD MSTORE PUSH2 0x2123 DUP2 PUSH2 0x20E7 JUMP JUMPDEST SWAP1 POP SWAP2 SWAP1 POP JUMP JUMPDEST PUSH32 0x4E487B7100000000000000000000000000000000000000000000000000000000 PUSH1 0x0 MSTORE PUSH1 0x32 PUSH1 0x4 MSTORE PUSH1 0x24 PUSH1 0x0 REVERT JUMPDEST PUSH1 0x0 PUSH2 0x2164 DUP3 PUSH2 0x1604 JUMP JUMPDEST SWAP2 POP PUSH32 0xFFFFFFFFFFFFFFFFFFFFFFFFFFFFFFFFFFFFFFFFFFFFFFFFFFFFFFFFFFFFFFFF DUP3 SUB PUSH2 0x2196 JUMPI PUSH2 0x2195 PUSH2 0x1F0B JUMP JUMPDEST JUMPDEST PUSH1 0x1 DUP3 ADD SWAP1 POP SWAP2 SWAP1 POP JUMP JUMPDEST PUSH32 0x4163636F756E7420416C72656164792045786973740000000000000000000000 PUSH1 0x0 DUP3 ADD MSTORE POP JUMP JUMPDEST PUSH1 0x0 PUSH2 0x21D7 PUSH1 0x15 DUP4 PUSH2 0x1681 JUMP JUMPDEST SWAP2 POP PUSH2 0x21E2 DUP3 PUSH2 0x21A1 JUMP JUMPDEST PUSH1 0x20 DUP3 ADD SWAP1 POP SWAP2 SWAP1 POP JUMP JUMPDEST PUSH1 0x0 PUSH1 0x20 DUP3 ADD SWAP1 POP DUP2 DUP2 SUB PUSH1 0x0 DUP4 ADD MSTORE PUSH2 0x2206 DUP2 PUSH2 0x21CA JUMP JUMPDEST SWAP1 POP SWAP2 SWAP1 POP JUMP JUMPDEST PUSH1 0x0 DUP2 SWAP1 POP DUP2 PUSH1 0x0 MSTORE PUSH1 0x20 PUSH1 0x0 KECCAK256 SWAP1 POP SWAP2 SWAP1 POP JUMP JUMPDEST PUSH1 0x0 PUSH1 0x20 PUSH1 0x1F DUP4 ADD DIV SWAP1 POP SWAP2 SWAP1 POP JUMP JUMPDEST PUSH1 0x0 DUP3 DUP3 SHL SWAP1 POP SWAP3 SWAP2 POP POP JUMP JUMPDEST PUSH1 0x0 PUSH1 0x8 DUP4 MUL PUSH2 0x226F PUSH32 0xFFFFFFFFFFFFFFFFFFFFFFFFFFFFFFFFFFFFFFFFFFFFFFFFFFFFFFFFFFFFFFFF DUP3 PUSH2 0x2232 JUMP JUMPDEST PUSH2 0x2279 DUP7 DUP4 PUSH2 0x2232 JUMP JUMPDEST SWAP6 POP DUP1 NOT DUP5 AND SWAP4 POP DUP1 DUP7 AND DUP5 OR SWAP3 POP POP POP SWAP4 SWAP3 POP POP POP JUMP JUMPDEST PUSH1 0x0 DUP2 SWAP1 POP SWAP2 SWAP1 POP JUMP JUMPDEST PUSH1 0x0 PUSH2 0x22B6 PUSH2 0x22B1 PUSH2 0x22AC DUP5 PUSH2 0x1604 JUMP JUMPDEST PUSH2 0x2291 JUMP JUMPDEST PUSH2 0x1604 JUMP JUMPDEST SWAP1 POP SWAP2 SWAP1 POP JUMP JUMPDEST PUSH1 0x0 DUP2 SWAP1 POP SWAP2 SWAP1 POP JUMP JUMPDEST PUSH2 0x22D0 DUP4 PUSH2 0x229B JUMP JUMPDEST PUSH2 0x22E4 PUSH2 0x22DC DUP3 PUSH2 0x22BD JUMP JUMPDEST DUP5 DUP5 SLOAD PUSH2 0x223F JUMP JUMPDEST DUP3 SSTORE POP POP POP POP JUMP JUMPDEST PUSH1 0x0 SWAP1 JUMP JUMPDEST PUSH2 0x22F9 PUSH2 0x22EC JUMP JUMPDEST PUSH2 0x2304 DUP2 DUP5 DUP5 PUSH2 0x22C7 JUMP JUMPDEST POP POP POP JUMP JUMPDEST JUMPDEST DUP2 DUP2 LT ISZERO PUSH2 0x2328 JUMPI PUSH2 0x231D PUSH1 0x0 DUP3 PUSH2 0x22F1 JUMP JUMPDEST PUSH1 0x1 DUP2 ADD SWAP1 POP PUSH2 0x230A JUMP JUMPDEST POP POP JUMP JUMPDEST PUSH1 0x1F DUP3 GT ISZERO PUSH2 0x236D JUMPI PUSH2 0x233E DUP2 PUSH2 0x220D JUMP JUMPDEST PUSH2 0x2347 DUP5 PUSH2 0x2222 JUMP JUMPDEST DUP2 ADD PUSH1 0x20 DUP6 LT ISZERO PUSH2 0x2356 JUMPI DUP2 SWAP1 POP JUMPDEST PUSH2 0x236A PUSH2 0x2362 DUP6 PUSH2 0x2222 JUMP JUMPDEST DUP4 ADD DUP3 PUSH2 0x2309 JUMP JUMPDEST POP POP JUMPDEST POP POP POP JUMP JUMPDEST PUSH1 0x0 DUP3 DUP3 SHR SWAP1 POP SWAP3 SWAP2 POP POP JUMP JUMPDEST PUSH1 0x0 PUSH2 0x2390 PUSH1 0x0 NOT DUP5 PUSH1 0x8 MUL PUSH2 0x2372 JUMP JUMPDEST NOT DUP1 DUP4 AND SWAP2 POP POP SWAP3 SWAP2 POP POP JUMP JUMPDEST PUSH1 0x0 PUSH2 0x23A9 DUP4 DUP4 PUSH2 0x237F JUMP JUMPDEST SWAP2 POP DUP3 PUSH1 0x2 MUL DUP3 OR SWAP1 POP SWAP3 SWAP2 POP POP JUMP JUMPDEST PUSH2 0x23C2 DUP3 PUSH2 0x1676 JUMP JUMPDEST PUSH8 0xFFFFFFFFFFFFFFFF DUP2 GT ISZERO PUSH2 0x23DB JUMPI PUSH2 0x23DA PUSH2 0x1AB4 JUMP JUMPDEST JUMPDEST PUSH2 0x23E5 DUP3 SLOAD PUSH2 0x1E02 JUMP JUMPDEST PUSH2 0x23F0 DUP3 DUP3 DUP6 PUSH2 0x232C JUMP JUMPDEST PUSH1 0x0 PUSH1 0x20 SWAP1 POP PUSH1 0x1F DUP4 GT PUSH1 0x1 DUP2 EQ PUSH2 0x2423 JUMPI PUSH1 0x0 DUP5 ISZERO PUSH2 0x2411 JUMPI DUP3 DUP8 ADD MLOAD SWAP1 POP JUMPDEST PUSH2 0x241B DUP6 DUP3 PUSH2 0x239D JUMP JUMPDEST DUP7 SSTORE POP PUSH2 0x2483 JUMP JUMPDEST PUSH1 0x1F NOT DUP5 AND PUSH2 0x2431 DUP7 PUSH2 0x220D JUMP JUMPDEST PUSH1 0x0 JUMPDEST DUP3 DUP2 LT ISZERO PUSH2 0x2459 JUMPI DUP5 DUP10 ADD MLOAD DUP3 SSTORE PUSH1 0x1 DUP3 ADD SWAP2 POP PUSH1 0x20 DUP6 ADD SWAP5 POP PUSH1 0x20 DUP2 ADD SWAP1 POP PUSH2 0x2434 JUMP JUMPDEST DUP7 DUP4 LT ISZERO PUSH2 0x2476 JUMPI DUP5 DUP10 ADD MLOAD PUSH2 0x2472 PUSH1 0x1F DUP10 AND DUP3 PUSH2 0x237F JUMP JUMPDEST DUP4 SSTORE POP JUMPDEST PUSH1 0x1 PUSH1 0x2 DUP9 MUL ADD DUP9 SSTORE POP POP POP JUMPDEST POP POP POP POP POP POP JUMP JUMPDEST PUSH1 0x0 PUSH1 0x60 DUP3 ADD SWAP1 POP PUSH2 0x24A0 PUSH1 0x0 DUP4 ADD DUP7 PUSH2 0x1C62 JUMP JUMPDEST PUSH2 0x24AD PUSH1 0x20 DUP4 ADD DUP6 PUSH2 0x1667 JUMP JUMPDEST PUSH2 0x24BA PUSH1 0x40 DUP4 ADD DUP5 PUSH2 0x1667 JUMP JUMPDEST SWAP5 SWAP4 POP POP POP POP JUMP INVALID LOG2 PUSH5 0x6970667358 0x22 SLT KECCAK256 JUMP 0xCD PUSH14 0xDDF01FC6A8E2C2E54239D65C01B 0xBE ORIGIN OR SSTORE 0xD6 RETURNDATACOPY PUSH24 0xDECB6AE7E26D179464736F6C634300081000330000000000 "
        },
        "methodIdentifiers": {
          "accounts(uint256)": "f2a40db8",
          "addresses(uint256)": "edf26d9b",
          "balanceTransfer(uint256,uint256,address,uint256)": "15f1d66d",
          "changeAdmin(address)": "8f283970",
          "createAccount(uint256,uint256,string,uint256)": "c8cb55ae",
          "deposit(uint256,uint256)": "e2bbb158",
          "getBalance(address,uint256)": "2b04e840",
          "getBankData(uint256)": "b26ea798",
          "personalInfo()": "f2dbf12e",
          "returnBankDataArray(uint256)": "b0fb25cc",
          "returnDataArray(uint256)": "078c9ed3",
          "withdraw(uint256,uint256)": "441a3e70"
        }
      }
    }
  }
}