{
  "contracts/functions.sol": {
    "Functions": {
      "abi": [
        {
          "inputs": [
            {
              "internalType": "uint256",
              "name": "",
              "type": "uint256"
            }
          ],
          "name": "accounts",
          "outputs": [
            {
              "internalType": "uint256",
              "name": "",
              "type": "uint256"
            }
          ],
          "stateMutability": "view",
          "type": "function"
        },
        {
          "inputs": [
            {
              "internalType": "uint256",
              "name": "",
              "type": "uint256"
            }
          ],
          "name": "addresses",
          "outputs": [
            {
              "internalType": "address",
              "name": "",
              "type": "address"
            }
          ],
          "stateMutability": "view",
          "type": "function"
        },
        {
          "inputs": [
            {
              "internalType": "uint256",
              "name": "_fromAccount",
              "type": "uint256"
            },
            {
              "internalType": "uint256",
              "name": "_toAccount",
              "type": "uint256"
            },
            {
              "internalType": "address",
              "name": "_toAddress",
              "type": "address"
            },
            {
              "internalType": "uint256",
              "name": "_balance",
              "type": "uint256"
            }
          ],
          "name": "balanceTransfer",
          "outputs": [],
          "stateMutability": "nonpayable",
          "type": "function"
        },
        {
          "inputs": [
            {
              "internalType": "uint256",
              "name": "_accountNumber",
              "type": "uint256"
            },
            {
              "internalType": "uint256",
              "name": "_bankName",
              "type": "uint256"
            },
            {
              "internalType": "string",
              "name": "_branch",
              "type": "string"
            },
            {
              "internalType": "uint256",
              "name": "_balance",
              "type": "uint256"
            }
          ],
          "name": "createAccount",
          "outputs": [],
          "stateMutability": "nonpayable",
          "type": "function"
        },
        {
          "inputs": [
            {
              "internalType": "uint256",
              "name": "_accountNumber",
              "type": "uint256"
            },
            {
              "internalType": "uint256",
              "name": "_balance",
              "type": "uint256"
            }
          ],
          "name": "deposit",
          "outputs": [],
          "stateMutability": "nonpayable",
          "type": "function"
        },
        {
          "inputs": [
            {
              "internalType": "address",
              "name": "_addressCheckBalance",
              "type": "address"
            },
            {
              "internalType": "uint256",
              "name": "_accountCheckBalance",
              "type": "uint256"
            }
          ],
          "name": "getBalance",
          "outputs": [
            {
              "internalType": "uint256",
              "name": "",
              "type": "uint256"
            }
          ],
          "stateMutability": "view",
          "type": "function"
        },
        {
          "inputs": [
            {
              "internalType": "uint256",
              "name": "_bankName",
              "type": "uint256"
            }
          ],
          "name": "getBankData",
          "outputs": [
            {
              "components": [
                {
                  "internalType": "uint256",
                  "name": "accountNumber",
                  "type": "uint256"
                },
                {
                  "internalType": "string",
                  "name": "branch",
                  "type": "string"
                },
                {
                  "internalType": "uint256",
                  "name": "balance",
                  "type": "uint256"
                }
              ],
              "internalType": "struct Data.returnBankData[]",
              "name": "",
              "type": "tuple[]"
            }
          ],
          "stateMutability": "view",
          "type": "function"
        },
        {
          "inputs": [],
          "name": "getSpecificAddressData",
          "outputs": [
            {
              "components": [
                {
                  "internalType": "uint256",
                  "name": "accountNumber",
                  "type": "uint256"
                },
                {
                  "internalType": "uint256",
                  "name": "bankName",
                  "type": "uint256"
                },
                {
                  "internalType": "string",
                  "name": "branch",
                  "type": "string"
                },
                {
                  "internalType": "uint256",
                  "name": "balance",
                  "type": "uint256"
                }
              ],
              "internalType": "struct Data.returnData[]",
              "name": "",
              "type": "tuple[]"
            }
          ],
          "stateMutability": "view",
          "type": "function"
        },
        {
          "inputs": [
            {
              "internalType": "uint256",
              "name": "",
              "type": "uint256"
            }
          ],
          "name": "returnBankDataArray",
          "outputs": [
            {
              "internalType": "uint256",
              "name": "accountNumber",
              "type": "uint256"
            },
            {
              "internalType": "string",
              "name": "branch",
              "type": "string"
            },
            {
              "internalType": "uint256",
              "name": "balance",
              "type": "uint256"
            }
          ],
          "stateMutability": "view",
          "type": "function"
        },
        {
          "inputs": [
            {
              "internalType": "uint256",
              "name": "",
              "type": "uint256"
            }
          ],
          "name": "returnDataArray",
          "outputs": [
            {
              "internalType": "uint256",
              "name": "accountNumber",
              "type": "uint256"
            },
            {
              "internalType": "uint256",
              "name": "bankName",
              "type": "uint256"
            },
            {
              "internalType": "string",
              "name": "branch",
              "type": "string"
            },
            {
              "internalType": "uint256",
              "name": "balance",
              "type": "uint256"
            }
          ],
          "stateMutability": "view",
          "type": "function"
        },
        {
          "inputs": [
            {
              "internalType": "uint256",
              "name": "_accountNumber",
              "type": "uint256"
            },
            {
              "internalType": "uint256",
              "name": "_balance",
              "type": "uint256"
            }
          ],
          "name": "withdraw",
          "outputs": [],
          "stateMutability": "nonpayable",
          "type": "function"
        }
      ],
      "evm": {
        "bytecode": {
          "linkReferences": {},
          "object": "608060405234801561001057600080fd5b50611ede806100206000396000f3fe608060405234801561001057600080fd5b50600436106100a95760003560e01c8063b0fb25cc11610071578063b0fb25cc14610167578063b26ea79814610199578063c8cb55ae146101c9578063e2bbb158146101e5578063edf26d9b14610201578063f2a40db814610231576100a9565b8063078c9ed3146100ae57806315f1d66d146100e15780632b04e840146100fd578063441a3e701461012d5780634c7a4ed014610149575b600080fd5b6100c860048036038101906100c39190611278565b610261565b6040516100d89493929190611344565b60405180910390f35b6100fb60048036038101906100f691906113ee565b610329565b005b61011760048036038101906101129190611455565b6105e0565b6040516101249190611495565b60405180910390f35b610147600480360381019061014291906114b0565b61063e565b005b610151610792565b60405161015e919061166e565b60405180910390f35b610181600480360381019061017c9190611278565b610af9565b60405161019093929190611690565b60405180910390f35b6101b360048036038101906101ae9190611278565b610bbb565b6040516101c091906117e0565b60405180910390f35b6101e360048036038101906101de9190611937565b610f75565b005b6101ff60048036038101906101fa91906114b0565b6110c8565b005b61021b60048036038101906102169190611278565b611182565b60405161022891906119c9565b60405180910390f35b61024b60048036038101906102469190611278565b6111c1565b6040516102589190611495565b60405180910390f35b6000818154811061027157600080fd5b90600052602060002090600402016000915090508060000154908060010154908060020180546102a090611a13565b80601f01602080910402602001604051908101604052809291908181526020018280546102cc90611a13565b80156103195780601f106102ee57610100808354040283529160200191610319565b820191906000526020600020905b8154815290600101906020018083116102fc57829003601f168201915b5050505050908060030154905084565b838180600260003373ffffffffffffffffffffffffffffffffffffffff1673ffffffffffffffffffffffffffffffffffffffff16815260200190815260200160002060008481526020019081526020016000206002015410156103c1576040517f08c379a00000000000000000000000000000000000000000000000000000000081526004016103b890611a90565b60405180910390fd5b838560011515600260008473ffffffffffffffffffffffffffffffffffffffff1673ffffffffffffffffffffffffffffffffffffffff168152602001908152602001600020600083815260200190815260200160002060030160009054906101000a900460ff1615151461046a576040517f08c379a000000000000000000000000000000000000000000000000000000000815260040161046190611afc565b60405180910390fd5b84600260003373ffffffffffffffffffffffffffffffffffffffff1673ffffffffffffffffffffffffffffffffffffffff16815260200190815260200160002060008a8152602001908152602001600020600201546104c99190611b4b565b600260003373ffffffffffffffffffffffffffffffffffffffff1673ffffffffffffffffffffffffffffffffffffffff16815260200190815260200160002060008a81526020019081526020016000206002018190555084600260008873ffffffffffffffffffffffffffffffffffffffff1673ffffffffffffffffffffffffffffffffffffffff16815260200190815260200160002060008981526020019081526020016000206002015461057f9190611b7f565b600260008873ffffffffffffffffffffffffffffffffffffffff1673ffffffffffffffffffffffffffffffffffffffff1681526020019081526020016000206000898152602001908152602001600020600201819055505050505050505050565b6000600260008473ffffffffffffffffffffffffffffffffffffffff1673ffffffffffffffffffffffffffffffffffffffff168152602001908152602001600020600083815260200190815260200160002060020154905092915050565b818180600260003373ffffffffffffffffffffffffffffffffffffffff1673ffffffffffffffffffffffffffffffffffffffff16815260200190815260200160002060008481526020019081526020016000206002015410156106d6576040517f08c379a00000000000000000000000000000000000000000000000000000000081526004016106cd90611a90565b60405180910390fd5b82600260003373ffffffffffffffffffffffffffffffffffffffff1673ffffffffffffffffffffffffffffffffffffffff1681526020019081526020016000206000868152602001908152602001600020600201546107359190611b4b565b600260003373ffffffffffffffffffffffffffffffffffffffff1673ffffffffffffffffffffffffffffffffffffffff16815260200190815260200160002060008681526020019081526020016000206002018190555050505050565b6060600060048054905067ffffffffffffffff8111156107b5576107b461180c565b5b6040519080825280602002602001820160405280156107ee57816020015b6107db6111e5565b8152602001906001900390816107d35790505b509050600080600090505b600480549050811015610af05760011515600260003373ffffffffffffffffffffffffffffffffffffffff1673ffffffffffffffffffffffffffffffffffffffff16815260200190815260200160002060006004848154811061085f5761085e611bb3565b5b9060005260206000200154815260200190815260200160002060030160009054906101000a900460ff16151503610add5760006040518060800160405280600484815481106108b1576108b0611bb3565b5b90600052602060002001548152602001600260003373ffffffffffffffffffffffffffffffffffffffff1673ffffffffffffffffffffffffffffffffffffffff16815260200190815260200160002060006004868154811061091657610915611bb3565b5b90600052602060002001548152602001908152602001600020600001548152602001600260003373ffffffffffffffffffffffffffffffffffffffff1673ffffffffffffffffffffffffffffffffffffffff16815260200190815260200160002060006004868154811061098d5761098c611bb3565b5b9060005260206000200154815260200190815260200160002060010180546109b490611a13565b80601f01602080910402602001604051908101604052809291908181526020018280546109e090611a13565b8015610a2d5780601f10610a0257610100808354040283529160200191610a2d565b820191906000526020600020905b815481529060010190602001808311610a1057829003601f168201915b50505050508152602001600260003373ffffffffffffffffffffffffffffffffffffffff1673ffffffffffffffffffffffffffffffffffffffff168152602001908152602001600020600060048681548110610a8c57610a8b611bb3565b5b9060005260206000200154815260200190815260200160002060020154815250905080848481518110610ac257610ac1611bb3565b5b60200260200101819052508280610ad890611be2565b935050505b8080610ae890611be2565b9150506107f9565b50819250505090565b60018181548110610b0957600080fd5b9060005260206000209060030201600091509050806000015490806001018054610b3290611a13565b80601f0160208091040260200160405190810160405280929190818152602001828054610b5e90611a13565b8015610bab5780601f10610b8057610100808354040283529160200191610bab565b820191906000526020600020905b815481529060010190602001808311610b8e57829003601f168201915b5050505050908060020154905083565b606060008060048054905067ffffffffffffffff811115610bdf57610bde61180c565b5b604051908082528060200260200182016040528015610c1857816020015b610c0561120d565b815260200190600190039081610bfd5790505b50905060005b600380549050811015610f6a5760005b600480549050811015610f5657856002600060038581548110610c5457610c53611bb3565b5b9060005260206000200160009054906101000a900473ffffffffffffffffffffffffffffffffffffffff1673ffffffffffffffffffffffffffffffffffffffff1673ffffffffffffffffffffffffffffffffffffffff168152602001908152602001600020600060048481548110610ccf57610cce611bb3565b5b906000526020600020015481526020019081526020016000206000015403610f43576000604051806060016040528060048481548110610d1257610d11611bb3565b5b906000526020600020015481526020016002600060038781548110610d3a57610d39611bb3565b5b9060005260206000200160009054906101000a900473ffffffffffffffffffffffffffffffffffffffff1673ffffffffffffffffffffffffffffffffffffffff1673ffffffffffffffffffffffffffffffffffffffff168152602001908152602001600020600060048681548110610db557610db4611bb3565b5b906000526020600020015481526020019081526020016000206001018054610ddc90611a13565b80601f0160208091040260200160405190810160405280929190818152602001828054610e0890611a13565b8015610e555780601f10610e2a57610100808354040283529160200191610e55565b820191906000526020600020905b815481529060010190602001808311610e3857829003601f168201915b505050505081526020016002600060038781548110610e7757610e76611bb3565b5b9060005260206000200160009054906101000a900473ffffffffffffffffffffffffffffffffffffffff1673ffffffffffffffffffffffffffffffffffffffff1673ffffffffffffffffffffffffffffffffffffffff168152602001908152602001600020600060048681548110610ef257610ef1611bb3565b5b9060005260206000200154815260200190815260200160002060020154815250905080848681518110610f2857610f27611bb3565b5b60200260200101819052508480610f3e90611be2565b955050505b8080610f4e90611be2565b915050610c2e565b508080610f6290611be2565b915050610c1e565b508092505050919050565b6003339080600181540180825580915050600190039060005260206000200160009091909190916101000a81548173ffffffffffffffffffffffffffffffffffffffff021916908373ffffffffffffffffffffffffffffffffffffffff1602179055506004849080600181540180825580915050600190039060005260206000200160009091909190915055604051806080016040528084815260200183815260200182815260200160011515815250600260003373ffffffffffffffffffffffffffffffffffffffff1673ffffffffffffffffffffffffffffffffffffffff16815260200190815260200160002060008681526020019081526020016000206000820151816000015560208201518160010190816110949190611dd6565b506040820151816002015560608201518160030160006101000a81548160ff02191690831515021790555090505050505050565b80600260003373ffffffffffffffffffffffffffffffffffffffff1673ffffffffffffffffffffffffffffffffffffffff1681526020019081526020016000206000848152602001908152602001600020600201546111279190611b7f565b600260003373ffffffffffffffffffffffffffffffffffffffff1673ffffffffffffffffffffffffffffffffffffffff1681526020019081526020016000206000848152602001908152602001600020600201819055505050565b6003818154811061119257600080fd5b906000526020600020016000915054906101000a900473ffffffffffffffffffffffffffffffffffffffff1681565b600481815481106111d157600080fd5b906000526020600020016000915090505481565b6040518060800160405280600081526020016000815260200160608152602001600081525090565b60405180606001604052806000815260200160608152602001600081525090565b6000604051905090565b600080fd5b600080fd5b6000819050919050565b61125581611242565b811461126057600080fd5b50565b6000813590506112728161124c565b92915050565b60006020828403121561128e5761128d611238565b5b600061129c84828501611263565b91505092915050565b6112ae81611242565b82525050565b600081519050919050565b600082825260208201905092915050565b60005b838110156112ee5780820151818401526020810190506112d3565b60008484015250505050565b6000601f19601f8301169050919050565b6000611316826112b4565b61132081856112bf565b93506113308185602086016112d0565b611339816112fa565b840191505092915050565b600060808201905061135960008301876112a5565b61136660208301866112a5565b8181036040830152611378818561130b565b905061138760608301846112a5565b95945050505050565b600073ffffffffffffffffffffffffffffffffffffffff82169050919050565b60006113bb82611390565b9050919050565b6113cb816113b0565b81146113d657600080fd5b50565b6000813590506113e8816113c2565b92915050565b6000806000806080858703121561140857611407611238565b5b600061141687828801611263565b945050602061142787828801611263565b9350506040611438878288016113d9565b925050606061144987828801611263565b91505092959194509250565b6000806040838503121561146c5761146b611238565b5b600061147a858286016113d9565b925050602061148b85828601611263565b9150509250929050565b60006020820190506114aa60008301846112a5565b92915050565b600080604083850312156114c7576114c6611238565b5b60006114d585828601611263565b92505060206114e685828601611263565b9150509250929050565b600081519050919050565b600082825260208201905092915050565b6000819050602082019050919050565b61152581611242565b82525050565b600082825260208201905092915050565b6000611547826112b4565b611551818561152b565b93506115618185602086016112d0565b61156a816112fa565b840191505092915050565b600060808301600083015161158d600086018261151c565b5060208301516115a0602086018261151c565b50604083015184820360408601526115b8828261153c565b91505060608301516115cd606086018261151c565b508091505092915050565b60006115e48383611575565b905092915050565b6000602082019050919050565b6000611604826114f0565b61160e81856114fb565b9350836020820285016116208561150c565b8060005b8581101561165c578484038952815161163d85826115d8565b9450611648836115ec565b925060208a01995050600181019050611624565b50829750879550505050505092915050565b6000602082019050818103600083015261168881846115f9565b905092915050565b60006060820190506116a560008301866112a5565b81810360208301526116b7818561130b565b90506116c660408301846112a5565b949350505050565b600081519050919050565b600082825260208201905092915050565b6000819050602082019050919050565b6000606083016000830151611712600086018261151c565b506020830151848203602086015261172a828261153c565b915050604083015161173f604086018261151c565b508091505092915050565b600061175683836116fa565b905092915050565b6000602082019050919050565b6000611776826116ce565b61178081856116d9565b935083602082028501611792856116ea565b8060005b858110156117ce57848403895281516117af858261174a565b94506117ba8361175e565b925060208a01995050600181019050611796565b50829750879550505050505092915050565b600060208201905081810360008301526117fa818461176b565b905092915050565b600080fd5b600080fd5b7f4e487b7100000000000000000000000000000000000000000000000000000000600052604160045260246000fd5b611844826112fa565b810181811067ffffffffffffffff821117156118635761186261180c565b5b80604052505050565b600061187661122e565b9050611882828261183b565b919050565b600067ffffffffffffffff8211156118a2576118a161180c565b5b6118ab826112fa565b9050602081019050919050565b82818337600083830152505050565b60006118da6118d584611887565b61186c565b9050828152602081018484840111156118f6576118f5611807565b5b6119018482856118b8565b509392505050565b600082601f83011261191e5761191d611802565b5b813561192e8482602086016118c7565b91505092915050565b6000806000806080858703121561195157611950611238565b5b600061195f87828801611263565b945050602061197087828801611263565b935050604085013567ffffffffffffffff8111156119915761199061123d565b5b61199d87828801611909565b92505060606119ae87828801611263565b91505092959194509250565b6119c3816113b0565b82525050565b60006020820190506119de60008301846119ba565b92915050565b7f4e487b7100000000000000000000000000000000000000000000000000000000600052602260045260246000fd5b60006002820490506001821680611a2b57607f821691505b602082108103611a3e57611a3d6119e4565b5b50919050565b7f496e73756666696369656e742042616c616e6365000000000000000000000000600082015250565b6000611a7a6014836112bf565b9150611a8582611a44565b602082019050919050565b60006020820190508181036000830152611aa981611a6d565b9050919050565b7f496e636f7272656374204163636f756e74204e756d6265720000000000000000600082015250565b6000611ae66018836112bf565b9150611af182611ab0565b602082019050919050565b60006020820190508181036000830152611b1581611ad9565b9050919050565b7f4e487b7100000000000000000000000000000000000000000000000000000000600052601160045260246000fd5b6000611b5682611242565b9150611b6183611242565b9250828203905081811115611b7957611b78611b1c565b5b92915050565b6000611b8a82611242565b9150611b9583611242565b9250828201905080821115611bad57611bac611b1c565b5b92915050565b7f4e487b7100000000000000000000000000000000000000000000000000000000600052603260045260246000fd5b6000611bed82611242565b91507fffffffffffffffffffffffffffffffffffffffffffffffffffffffffffffffff8203611c1f57611c1e611b1c565b5b600182019050919050565b60008190508160005260206000209050919050565b60006020601f8301049050919050565b600082821b905092915050565b600060088302611c8c7fffffffffffffffffffffffffffffffffffffffffffffffffffffffffffffffff82611c4f565b611c968683611c4f565b95508019841693508086168417925050509392505050565b6000819050919050565b6000611cd3611cce611cc984611242565b611cae565b611242565b9050919050565b6000819050919050565b611ced83611cb8565b611d01611cf982611cda565b848454611c5c565b825550505050565b600090565b611d16611d09565b611d21818484611ce4565b505050565b5b81811015611d4557611d3a600082611d0e565b600181019050611d27565b5050565b601f821115611d8a57611d5b81611c2a565b611d6484611c3f565b81016020851015611d73578190505b611d87611d7f85611c3f565b830182611d26565b50505b505050565b600082821c905092915050565b6000611dad60001984600802611d8f565b1980831691505092915050565b6000611dc68383611d9c565b9150826002028217905092915050565b611ddf826112b4565b67ffffffffffffffff811115611df857611df761180c565b5b611e028254611a13565b611e0d828285611d49565b600060209050601f831160018114611e405760008415611e2e578287015190505b611e388582611dba565b865550611ea0565b601f198416611e4e86611c2a565b60005b82811015611e7657848901518255600182019150602085019450602081019050611e51565b86831015611e935784890151611e8f601f891682611d9c565b8355505b6001600288020188555050505b50505050505056fea26469706673582212203c06b50f8327ab66363236d0289796e10a82fdb6e6103cb8773affc60a8b88ce64736f6c63430008100033",
          "opcodes": "PUSH1 0x80 PUSH1 0x40 MSTORE CALLVALUE DUP1 ISZERO PUSH2 0x10 JUMPI PUSH1 0x0 DUP1 REVERT JUMPDEST POP PUSH2 0x1EDE DUP1 PUSH2 0x20 PUSH1 0x0 CODECOPY PUSH1 0x0 RETURN INVALID PUSH1 0x80 PUSH1 0x40 MSTORE CALLVALUE DUP1 ISZERO PUSH2 0x10 JUMPI PUSH1 0x0 DUP1 REVERT JUMPDEST POP PUSH1 0x4 CALLDATASIZE LT PUSH2 0xA9 JUMPI PUSH1 0x0 CALLDATALOAD PUSH1 0xE0 SHR DUP1 PUSH4 0xB0FB25CC GT PUSH2 0x71 JUMPI DUP1 PUSH4 0xB0FB25CC EQ PUSH2 0x167 JUMPI DUP1 PUSH4 0xB26EA798 EQ PUSH2 0x199 JUMPI DUP1 PUSH4 0xC8CB55AE EQ PUSH2 0x1C9 JUMPI DUP1 PUSH4 0xE2BBB158 EQ PUSH2 0x1E5 JUMPI DUP1 PUSH4 0xEDF26D9B EQ PUSH2 0x201 JUMPI DUP1 PUSH4 0xF2A40DB8 EQ PUSH2 0x231 JUMPI PUSH2 0xA9 JUMP JUMPDEST DUP1 PUSH4 0x78C9ED3 EQ PUSH2 0xAE JUMPI DUP1 PUSH4 0x15F1D66D EQ PUSH2 0xE1 JUMPI DUP1 PUSH4 0x2B04E840 EQ PUSH2 0xFD JUMPI DUP1 PUSH4 0x441A3E70 EQ PUSH2 0x12D JUMPI DUP1 PUSH4 0x4C7A4ED0 EQ PUSH2 0x149 JUMPI JUMPDEST PUSH1 0x0 DUP1 REVERT JUMPDEST PUSH2 0xC8 PUSH1 0x4 DUP1 CALLDATASIZE SUB DUP2 ADD SWAP1 PUSH2 0xC3 SWAP2 SWAP1 PUSH2 0x1278 JUMP JUMPDEST PUSH2 0x261 JUMP JUMPDEST PUSH1 0x40 MLOAD PUSH2 0xD8 SWAP5 SWAP4 SWAP3 SWAP2 SWAP1 PUSH2 0x1344 JUMP JUMPDEST PUSH1 0x40 MLOAD DUP1 SWAP2 SUB SWAP1 RETURN JUMPDEST PUSH2 0xFB PUSH1 0x4 DUP1 CALLDATASIZE SUB DUP2 ADD SWAP1 PUSH2 0xF6 SWAP2 SWAP1 PUSH2 0x13EE JUMP JUMPDEST PUSH2 0x329 JUMP JUMPDEST STOP JUMPDEST PUSH2 0x117 PUSH1 0x4 DUP1 CALLDATASIZE SUB DUP2 ADD SWAP1 PUSH2 0x112 SWAP2 SWAP1 PUSH2 0x1455 JUMP JUMPDEST PUSH2 0x5E0 JUMP JUMPDEST PUSH1 0x40 MLOAD PUSH2 0x124 SWAP2 SWAP1 PUSH2 0x1495 JUMP JUMPDEST PUSH1 0x40 MLOAD DUP1 SWAP2 SUB SWAP1 RETURN JUMPDEST PUSH2 0x147 PUSH1 0x4 DUP1 CALLDATASIZE SUB DUP2 ADD SWAP1 PUSH2 0x142 SWAP2 SWAP1 PUSH2 0x14B0 JUMP JUMPDEST PUSH2 0x63E JUMP JUMPDEST STOP JUMPDEST PUSH2 0x151 PUSH2 0x792 JUMP JUMPDEST PUSH1 0x40 MLOAD PUSH2 0x15E SWAP2 SWAP1 PUSH2 0x166E JUMP JUMPDEST PUSH1 0x40 MLOAD DUP1 SWAP2 SUB SWAP1 RETURN JUMPDEST PUSH2 0x181 PUSH1 0x4 DUP1 CALLDATASIZE SUB DUP2 ADD SWAP1 PUSH2 0x17C SWAP2 SWAP1 PUSH2 0x1278 JUMP JUMPDEST PUSH2 0xAF9 JUMP JUMPDEST PUSH1 0x40 MLOAD PUSH2 0x190 SWAP4 SWAP3 SWAP2 SWAP1 PUSH2 0x1690 JUMP JUMPDEST PUSH1 0x40 MLOAD DUP1 SWAP2 SUB SWAP1 RETURN JUMPDEST PUSH2 0x1B3 PUSH1 0x4 DUP1 CALLDATASIZE SUB DUP2 ADD SWAP1 PUSH2 0x1AE SWAP2 SWAP1 PUSH2 0x1278 JUMP JUMPDEST PUSH2 0xBBB JUMP JUMPDEST PUSH1 0x40 MLOAD PUSH2 0x1C0 SWAP2 SWAP1 PUSH2 0x17E0 JUMP JUMPDEST PUSH1 0x40 MLOAD DUP1 SWAP2 SUB SWAP1 RETURN JUMPDEST PUSH2 0x1E3 PUSH1 0x4 DUP1 CALLDATASIZE SUB DUP2 ADD SWAP1 PUSH2 0x1DE SWAP2 SWAP1 PUSH2 0x1937 JUMP JUMPDEST PUSH2 0xF75 JUMP JUMPDEST STOP JUMPDEST PUSH2 0x1FF PUSH1 0x4 DUP1 CALLDATASIZE SUB DUP2 ADD SWAP1 PUSH2 0x1FA SWAP2 SWAP1 PUSH2 0x14B0 JUMP JUMPDEST PUSH2 0x10C8 JUMP JUMPDEST STOP JUMPDEST PUSH2 0x21B PUSH1 0x4 DUP1 CALLDATASIZE SUB DUP2 ADD SWAP1 PUSH2 0x216 SWAP2 SWAP1 PUSH2 0x1278 JUMP JUMPDEST PUSH2 0x1182 JUMP JUMPDEST PUSH1 0x40 MLOAD PUSH2 0x228 SWAP2 SWAP1 PUSH2 0x19C9 JUMP JUMPDEST PUSH1 0x40 MLOAD DUP1 SWAP2 SUB SWAP1 RETURN JUMPDEST PUSH2 0x24B PUSH1 0x4 DUP1 CALLDATASIZE SUB DUP2 ADD SWAP1 PUSH2 0x246 SWAP2 SWAP1 PUSH2 0x1278 JUMP JUMPDEST PUSH2 0x11C1 JUMP JUMPDEST PUSH1 0x40 MLOAD PUSH2 0x258 SWAP2 SWAP1 PUSH2 0x1495 JUMP JUMPDEST PUSH1 0x40 MLOAD DUP1 SWAP2 SUB SWAP1 RETURN JUMPDEST PUSH1 0x0 DUP2 DUP2 SLOAD DUP2 LT PUSH2 0x271 JUMPI PUSH1 0x0 DUP1 REVERT JUMPDEST SWAP1 PUSH1 0x0 MSTORE PUSH1 0x20 PUSH1 0x0 KECCAK256 SWAP1 PUSH1 0x4 MUL ADD PUSH1 0x0 SWAP2 POP SWAP1 POP DUP1 PUSH1 0x0 ADD SLOAD SWAP1 DUP1 PUSH1 0x1 ADD SLOAD SWAP1 DUP1 PUSH1 0x2 ADD DUP1 SLOAD PUSH2 0x2A0 SWAP1 PUSH2 0x1A13 JUMP JUMPDEST DUP1 PUSH1 0x1F ADD PUSH1 0x20 DUP1 SWAP2 DIV MUL PUSH1 0x20 ADD PUSH1 0x40 MLOAD SWAP1 DUP2 ADD PUSH1 0x40 MSTORE DUP1 SWAP3 SWAP2 SWAP1 DUP2 DUP2 MSTORE PUSH1 0x20 ADD DUP3 DUP1 SLOAD PUSH2 0x2CC SWAP1 PUSH2 0x1A13 JUMP JUMPDEST DUP1 ISZERO PUSH2 0x319 JUMPI DUP1 PUSH1 0x1F LT PUSH2 0x2EE JUMPI PUSH2 0x100 DUP1 DUP4 SLOAD DIV MUL DUP4 MSTORE SWAP2 PUSH1 0x20 ADD SWAP2 PUSH2 0x319 JUMP JUMPDEST DUP3 ADD SWAP2 SWAP1 PUSH1 0x0 MSTORE PUSH1 0x20 PUSH1 0x0 KECCAK256 SWAP1 JUMPDEST DUP2 SLOAD DUP2 MSTORE SWAP1 PUSH1 0x1 ADD SWAP1 PUSH1 0x20 ADD DUP1 DUP4 GT PUSH2 0x2FC JUMPI DUP3 SWAP1 SUB PUSH1 0x1F AND DUP3 ADD SWAP2 JUMPDEST POP POP POP POP POP SWAP1 DUP1 PUSH1 0x3 ADD SLOAD SWAP1 POP DUP5 JUMP JUMPDEST DUP4 DUP2 DUP1 PUSH1 0x2 PUSH1 0x0 CALLER PUSH20 0xFFFFFFFFFFFFFFFFFFFFFFFFFFFFFFFFFFFFFFFF AND PUSH20 0xFFFFFFFFFFFFFFFFFFFFFFFFFFFFFFFFFFFFFFFF AND DUP2 MSTORE PUSH1 0x20 ADD SWAP1 DUP2 MSTORE PUSH1 0x20 ADD PUSH1 0x0 KECCAK256 PUSH1 0x0 DUP5 DUP2 MSTORE PUSH1 0x20 ADD SWAP1 DUP2 MSTORE PUSH1 0x20 ADD PUSH1 0x0 KECCAK256 PUSH1 0x2 ADD SLOAD LT ISZERO PUSH2 0x3C1 JUMPI PUSH1 0x40 MLOAD PUSH32 0x8C379A000000000000000000000000000000000000000000000000000000000 DUP2 MSTORE PUSH1 0x4 ADD PUSH2 0x3B8 SWAP1 PUSH2 0x1A90 JUMP JUMPDEST PUSH1 0x40 MLOAD DUP1 SWAP2 SUB SWAP1 REVERT JUMPDEST DUP4 DUP6 PUSH1 0x1 ISZERO ISZERO PUSH1 0x2 PUSH1 0x0 DUP5 PUSH20 0xFFFFFFFFFFFFFFFFFFFFFFFFFFFFFFFFFFFFFFFF AND PUSH20 0xFFFFFFFFFFFFFFFFFFFFFFFFFFFFFFFFFFFFFFFF AND DUP2 MSTORE PUSH1 0x20 ADD SWAP1 DUP2 MSTORE PUSH1 0x20 ADD PUSH1 0x0 KECCAK256 PUSH1 0x0 DUP4 DUP2 MSTORE PUSH1 0x20 ADD SWAP1 DUP2 MSTORE PUSH1 0x20 ADD PUSH1 0x0 KECCAK256 PUSH1 0x3 ADD PUSH1 0x0 SWAP1 SLOAD SWAP1 PUSH2 0x100 EXP SWAP1 DIV PUSH1 0xFF AND ISZERO ISZERO EQ PUSH2 0x46A JUMPI PUSH1 0x40 MLOAD PUSH32 0x8C379A000000000000000000000000000000000000000000000000000000000 DUP2 MSTORE PUSH1 0x4 ADD PUSH2 0x461 SWAP1 PUSH2 0x1AFC JUMP JUMPDEST PUSH1 0x40 MLOAD DUP1 SWAP2 SUB SWAP1 REVERT JUMPDEST DUP5 PUSH1 0x2 PUSH1 0x0 CALLER PUSH20 0xFFFFFFFFFFFFFFFFFFFFFFFFFFFFFFFFFFFFFFFF AND PUSH20 0xFFFFFFFFFFFFFFFFFFFFFFFFFFFFFFFFFFFFFFFF AND DUP2 MSTORE PUSH1 0x20 ADD SWAP1 DUP2 MSTORE PUSH1 0x20 ADD PUSH1 0x0 KECCAK256 PUSH1 0x0 DUP11 DUP2 MSTORE PUSH1 0x20 ADD SWAP1 DUP2 MSTORE PUSH1 0x20 ADD PUSH1 0x0 KECCAK256 PUSH1 0x2 ADD SLOAD PUSH2 0x4C9 SWAP2 SWAP1 PUSH2 0x1B4B JUMP JUMPDEST PUSH1 0x2 PUSH1 0x0 CALLER PUSH20 0xFFFFFFFFFFFFFFFFFFFFFFFFFFFFFFFFFFFFFFFF AND PUSH20 0xFFFFFFFFFFFFFFFFFFFFFFFFFFFFFFFFFFFFFFFF AND DUP2 MSTORE PUSH1 0x20 ADD SWAP1 DUP2 MSTORE PUSH1 0x20 ADD PUSH1 0x0 KECCAK256 PUSH1 0x0 DUP11 DUP2 MSTORE PUSH1 0x20 ADD SWAP1 DUP2 MSTORE PUSH1 0x20 ADD PUSH1 0x0 KECCAK256 PUSH1 0x2 ADD DUP2 SWAP1 SSTORE POP DUP5 PUSH1 0x2 PUSH1 0x0 DUP9 PUSH20 0xFFFFFFFFFFFFFFFFFFFFFFFFFFFFFFFFFFFFFFFF AND PUSH20 0xFFFFFFFFFFFFFFFFFFFFFFFFFFFFFFFFFFFFFFFF AND DUP2 MSTORE PUSH1 0x20 ADD SWAP1 DUP2 MSTORE PUSH1 0x20 ADD PUSH1 0x0 KECCAK256 PUSH1 0x0 DUP10 DUP2 MSTORE PUSH1 0x20 ADD SWAP1 DUP2 MSTORE PUSH1 0x20 ADD PUSH1 0x0 KECCAK256 PUSH1 0x2 ADD SLOAD PUSH2 0x57F SWAP2 SWAP1 PUSH2 0x1B7F JUMP JUMPDEST PUSH1 0x2 PUSH1 0x0 DUP9 PUSH20 0xFFFFFFFFFFFFFFFFFFFFFFFFFFFFFFFFFFFFFFFF AND PUSH20 0xFFFFFFFFFFFFFFFFFFFFFFFFFFFFFFFFFFFFFFFF AND DUP2 MSTORE PUSH1 0x20 ADD SWAP1 DUP2 MSTORE PUSH1 0x20 ADD PUSH1 0x0 KECCAK256 PUSH1 0x0 DUP10 DUP2 MSTORE PUSH1 0x20 ADD SWAP1 DUP2 MSTORE PUSH1 0x20 ADD PUSH1 0x0 KECCAK256 PUSH1 0x2 ADD DUP2 SWAP1 SSTORE POP POP POP POP POP POP POP POP POP JUMP JUMPDEST PUSH1 0x0 PUSH1 0x2 PUSH1 0x0 DUP5 PUSH20 0xFFFFFFFFFFFFFFFFFFFFFFFFFFFFFFFFFFFFFFFF AND PUSH20 0xFFFFFFFFFFFFFFFFFFFFFFFFFFFFFFFFFFFFFFFF AND DUP2 MSTORE PUSH1 0x20 ADD SWAP1 DUP2 MSTORE PUSH1 0x20 ADD PUSH1 0x0 KECCAK256 PUSH1 0x0 DUP4 DUP2 MSTORE PUSH1 0x20 ADD SWAP1 DUP2 MSTORE PUSH1 0x20 ADD PUSH1 0x0 KECCAK256 PUSH1 0x2 ADD SLOAD SWAP1 POP SWAP3 SWAP2 POP POP JUMP JUMPDEST DUP2 DUP2 DUP1 PUSH1 0x2 PUSH1 0x0 CALLER PUSH20 0xFFFFFFFFFFFFFFFFFFFFFFFFFFFFFFFFFFFFFFFF AND PUSH20 0xFFFFFFFFFFFFFFFFFFFFFFFFFFFFFFFFFFFFFFFF AND DUP2 MSTORE PUSH1 0x20 ADD SWAP1 DUP2 MSTORE PUSH1 0x20 ADD PUSH1 0x0 KECCAK256 PUSH1 0x0 DUP5 DUP2 MSTORE PUSH1 0x20 ADD SWAP1 DUP2 MSTORE PUSH1 0x20 ADD PUSH1 0x0 KECCAK256 PUSH1 0x2 ADD SLOAD LT ISZERO PUSH2 0x6D6 JUMPI PUSH1 0x40 MLOAD PUSH32 0x8C379A000000000000000000000000000000000000000000000000000000000 DUP2 MSTORE PUSH1 0x4 ADD PUSH2 0x6CD SWAP1 PUSH2 0x1A90 JUMP JUMPDEST PUSH1 0x40 MLOAD DUP1 SWAP2 SUB SWAP1 REVERT JUMPDEST DUP3 PUSH1 0x2 PUSH1 0x0 CALLER PUSH20 0xFFFFFFFFFFFFFFFFFFFFFFFFFFFFFFFFFFFFFFFF AND PUSH20 0xFFFFFFFFFFFFFFFFFFFFFFFFFFFFFFFFFFFFFFFF AND DUP2 MSTORE PUSH1 0x20 ADD SWAP1 DUP2 MSTORE PUSH1 0x20 ADD PUSH1 0x0 KECCAK256 PUSH1 0x0 DUP7 DUP2 MSTORE PUSH1 0x20 ADD SWAP1 DUP2 MSTORE PUSH1 0x20 ADD PUSH1 0x0 KECCAK256 PUSH1 0x2 ADD SLOAD PUSH2 0x735 SWAP2 SWAP1 PUSH2 0x1B4B JUMP JUMPDEST PUSH1 0x2 PUSH1 0x0 CALLER PUSH20 0xFFFFFFFFFFFFFFFFFFFFFFFFFFFFFFFFFFFFFFFF AND PUSH20 0xFFFFFFFFFFFFFFFFFFFFFFFFFFFFFFFFFFFFFFFF AND DUP2 MSTORE PUSH1 0x20 ADD SWAP1 DUP2 MSTORE PUSH1 0x20 ADD PUSH1 0x0 KECCAK256 PUSH1 0x0 DUP7 DUP2 MSTORE PUSH1 0x20 ADD SWAP1 DUP2 MSTORE PUSH1 0x20 ADD PUSH1 0x0 KECCAK256 PUSH1 0x2 ADD DUP2 SWAP1 SSTORE POP POP POP POP POP JUMP JUMPDEST PUSH1 0x60 PUSH1 0x0 PUSH1 0x4 DUP1 SLOAD SWAP1 POP PUSH8 0xFFFFFFFFFFFFFFFF DUP2 GT ISZERO PUSH2 0x7B5 JUMPI PUSH2 0x7B4 PUSH2 0x180C JUMP JUMPDEST JUMPDEST PUSH1 0x40 MLOAD SWAP1 DUP1 DUP3 MSTORE DUP1 PUSH1 0x20 MUL PUSH1 0x20 ADD DUP3 ADD PUSH1 0x40 MSTORE DUP1 ISZERO PUSH2 0x7EE JUMPI DUP2 PUSH1 0x20 ADD JUMPDEST PUSH2 0x7DB PUSH2 0x11E5 JUMP JUMPDEST DUP2 MSTORE PUSH1 0x20 ADD SWAP1 PUSH1 0x1 SWAP1 SUB SWAP1 DUP2 PUSH2 0x7D3 JUMPI SWAP1 POP JUMPDEST POP SWAP1 POP PUSH1 0x0 DUP1 PUSH1 0x0 SWAP1 POP JUMPDEST PUSH1 0x4 DUP1 SLOAD SWAP1 POP DUP2 LT ISZERO PUSH2 0xAF0 JUMPI PUSH1 0x1 ISZERO ISZERO PUSH1 0x2 PUSH1 0x0 CALLER PUSH20 0xFFFFFFFFFFFFFFFFFFFFFFFFFFFFFFFFFFFFFFFF AND PUSH20 0xFFFFFFFFFFFFFFFFFFFFFFFFFFFFFFFFFFFFFFFF AND DUP2 MSTORE PUSH1 0x20 ADD SWAP1 DUP2 MSTORE PUSH1 0x20 ADD PUSH1 0x0 KECCAK256 PUSH1 0x0 PUSH1 0x4 DUP5 DUP2 SLOAD DUP2 LT PUSH2 0x85F JUMPI PUSH2 0x85E PUSH2 0x1BB3 JUMP JUMPDEST JUMPDEST SWAP1 PUSH1 0x0 MSTORE PUSH1 0x20 PUSH1 0x0 KECCAK256 ADD SLOAD DUP2 MSTORE PUSH1 0x20 ADD SWAP1 DUP2 MSTORE PUSH1 0x20 ADD PUSH1 0x0 KECCAK256 PUSH1 0x3 ADD PUSH1 0x0 SWAP1 SLOAD SWAP1 PUSH2 0x100 EXP SWAP1 DIV PUSH1 0xFF AND ISZERO ISZERO SUB PUSH2 0xADD JUMPI PUSH1 0x0 PUSH1 0x40 MLOAD DUP1 PUSH1 0x80 ADD PUSH1 0x40 MSTORE DUP1 PUSH1 0x4 DUP5 DUP2 SLOAD DUP2 LT PUSH2 0x8B1 JUMPI PUSH2 0x8B0 PUSH2 0x1BB3 JUMP JUMPDEST JUMPDEST SWAP1 PUSH1 0x0 MSTORE PUSH1 0x20 PUSH1 0x0 KECCAK256 ADD SLOAD DUP2 MSTORE PUSH1 0x20 ADD PUSH1 0x2 PUSH1 0x0 CALLER PUSH20 0xFFFFFFFFFFFFFFFFFFFFFFFFFFFFFFFFFFFFFFFF AND PUSH20 0xFFFFFFFFFFFFFFFFFFFFFFFFFFFFFFFFFFFFFFFF AND DUP2 MSTORE PUSH1 0x20 ADD SWAP1 DUP2 MSTORE PUSH1 0x20 ADD PUSH1 0x0 KECCAK256 PUSH1 0x0 PUSH1 0x4 DUP7 DUP2 SLOAD DUP2 LT PUSH2 0x916 JUMPI PUSH2 0x915 PUSH2 0x1BB3 JUMP JUMPDEST JUMPDEST SWAP1 PUSH1 0x0 MSTORE PUSH1 0x20 PUSH1 0x0 KECCAK256 ADD SLOAD DUP2 MSTORE PUSH1 0x20 ADD SWAP1 DUP2 MSTORE PUSH1 0x20 ADD PUSH1 0x0 KECCAK256 PUSH1 0x0 ADD SLOAD DUP2 MSTORE PUSH1 0x20 ADD PUSH1 0x2 PUSH1 0x0 CALLER PUSH20 0xFFFFFFFFFFFFFFFFFFFFFFFFFFFFFFFFFFFFFFFF AND PUSH20 0xFFFFFFFFFFFFFFFFFFFFFFFFFFFFFFFFFFFFFFFF AND DUP2 MSTORE PUSH1 0x20 ADD SWAP1 DUP2 MSTORE PUSH1 0x20 ADD PUSH1 0x0 KECCAK256 PUSH1 0x0 PUSH1 0x4 DUP7 DUP2 SLOAD DUP2 LT PUSH2 0x98D JUMPI PUSH2 0x98C PUSH2 0x1BB3 JUMP JUMPDEST JUMPDEST SWAP1 PUSH1 0x0 MSTORE PUSH1 0x20 PUSH1 0x0 KECCAK256 ADD SLOAD DUP2 MSTORE PUSH1 0x20 ADD SWAP1 DUP2 MSTORE PUSH1 0x20 ADD PUSH1 0x0 KECCAK256 PUSH1 0x1 ADD DUP1 SLOAD PUSH2 0x9B4 SWAP1 PUSH2 0x1A13 JUMP JUMPDEST DUP1 PUSH1 0x1F ADD PUSH1 0x20 DUP1 SWAP2 DIV MUL PUSH1 0x20 ADD PUSH1 0x40 MLOAD SWAP1 DUP2 ADD PUSH1 0x40 MSTORE DUP1 SWAP3 SWAP2 SWAP1 DUP2 DUP2 MSTORE PUSH1 0x20 ADD DUP3 DUP1 SLOAD PUSH2 0x9E0 SWAP1 PUSH2 0x1A13 JUMP JUMPDEST DUP1 ISZERO PUSH2 0xA2D JUMPI DUP1 PUSH1 0x1F LT PUSH2 0xA02 JUMPI PUSH2 0x100 DUP1 DUP4 SLOAD DIV MUL DUP4 MSTORE SWAP2 PUSH1 0x20 ADD SWAP2 PUSH2 0xA2D JUMP JUMPDEST DUP3 ADD SWAP2 SWAP1 PUSH1 0x0 MSTORE PUSH1 0x20 PUSH1 0x0 KECCAK256 SWAP1 JUMPDEST DUP2 SLOAD DUP2 MSTORE SWAP1 PUSH1 0x1 ADD SWAP1 PUSH1 0x20 ADD DUP1 DUP4 GT PUSH2 0xA10 JUMPI DUP3 SWAP1 SUB PUSH1 0x1F AND DUP3 ADD SWAP2 JUMPDEST POP POP POP POP POP DUP2 MSTORE PUSH1 0x20 ADD PUSH1 0x2 PUSH1 0x0 CALLER PUSH20 0xFFFFFFFFFFFFFFFFFFFFFFFFFFFFFFFFFFFFFFFF AND PUSH20 0xFFFFFFFFFFFFFFFFFFFFFFFFFFFFFFFFFFFFFFFF AND DUP2 MSTORE PUSH1 0x20 ADD SWAP1 DUP2 MSTORE PUSH1 0x20 ADD PUSH1 0x0 KECCAK256 PUSH1 0x0 PUSH1 0x4 DUP7 DUP2 SLOAD DUP2 LT PUSH2 0xA8C JUMPI PUSH2 0xA8B PUSH2 0x1BB3 JUMP JUMPDEST JUMPDEST SWAP1 PUSH1 0x0 MSTORE PUSH1 0x20 PUSH1 0x0 KECCAK256 ADD SLOAD DUP2 MSTORE PUSH1 0x20 ADD SWAP1 DUP2 MSTORE PUSH1 0x20 ADD PUSH1 0x0 KECCAK256 PUSH1 0x2 ADD SLOAD DUP2 MSTORE POP SWAP1 POP DUP1 DUP5 DUP5 DUP2 MLOAD DUP2 LT PUSH2 0xAC2 JUMPI PUSH2 0xAC1 PUSH2 0x1BB3 JUMP JUMPDEST JUMPDEST PUSH1 0x20 MUL PUSH1 0x20 ADD ADD DUP2 SWAP1 MSTORE POP DUP3 DUP1 PUSH2 0xAD8 SWAP1 PUSH2 0x1BE2 JUMP JUMPDEST SWAP4 POP POP POP JUMPDEST DUP1 DUP1 PUSH2 0xAE8 SWAP1 PUSH2 0x1BE2 JUMP JUMPDEST SWAP2 POP POP PUSH2 0x7F9 JUMP JUMPDEST POP DUP2 SWAP3 POP POP POP SWAP1 JUMP JUMPDEST PUSH1 0x1 DUP2 DUP2 SLOAD DUP2 LT PUSH2 0xB09 JUMPI PUSH1 0x0 DUP1 REVERT JUMPDEST SWAP1 PUSH1 0x0 MSTORE PUSH1 0x20 PUSH1 0x0 KECCAK256 SWAP1 PUSH1 0x3 MUL ADD PUSH1 0x0 SWAP2 POP SWAP1 POP DUP1 PUSH1 0x0 ADD SLOAD SWAP1 DUP1 PUSH1 0x1 ADD DUP1 SLOAD PUSH2 0xB32 SWAP1 PUSH2 0x1A13 JUMP JUMPDEST DUP1 PUSH1 0x1F ADD PUSH1 0x20 DUP1 SWAP2 DIV MUL PUSH1 0x20 ADD PUSH1 0x40 MLOAD SWAP1 DUP2 ADD PUSH1 0x40 MSTORE DUP1 SWAP3 SWAP2 SWAP1 DUP2 DUP2 MSTORE PUSH1 0x20 ADD DUP3 DUP1 SLOAD PUSH2 0xB5E SWAP1 PUSH2 0x1A13 JUMP JUMPDEST DUP1 ISZERO PUSH2 0xBAB JUMPI DUP1 PUSH1 0x1F LT PUSH2 0xB80 JUMPI PUSH2 0x100 DUP1 DUP4 SLOAD DIV MUL DUP4 MSTORE SWAP2 PUSH1 0x20 ADD SWAP2 PUSH2 0xBAB JUMP JUMPDEST DUP3 ADD SWAP2 SWAP1 PUSH1 0x0 MSTORE PUSH1 0x20 PUSH1 0x0 KECCAK256 SWAP1 JUMPDEST DUP2 SLOAD DUP2 MSTORE SWAP1 PUSH1 0x1 ADD SWAP1 PUSH1 0x20 ADD DUP1 DUP4 GT PUSH2 0xB8E JUMPI DUP3 SWAP1 SUB PUSH1 0x1F AND DUP3 ADD SWAP2 JUMPDEST POP POP POP POP POP SWAP1 DUP1 PUSH1 0x2 ADD SLOAD SWAP1 POP DUP4 JUMP JUMPDEST PUSH1 0x60 PUSH1 0x0 DUP1 PUSH1 0x4 DUP1 SLOAD SWAP1 POP PUSH8 0xFFFFFFFFFFFFFFFF DUP2 GT ISZERO PUSH2 0xBDF JUMPI PUSH2 0xBDE PUSH2 0x180C JUMP JUMPDEST JUMPDEST PUSH1 0x40 MLOAD SWAP1 DUP1 DUP3 MSTORE DUP1 PUSH1 0x20 MUL PUSH1 0x20 ADD DUP3 ADD PUSH1 0x40 MSTORE DUP1 ISZERO PUSH2 0xC18 JUMPI DUP2 PUSH1 0x20 ADD JUMPDEST PUSH2 0xC05 PUSH2 0x120D JUMP JUMPDEST DUP2 MSTORE PUSH1 0x20 ADD SWAP1 PUSH1 0x1 SWAP1 SUB SWAP1 DUP2 PUSH2 0xBFD JUMPI SWAP1 POP JUMPDEST POP SWAP1 POP PUSH1 0x0 JUMPDEST PUSH1 0x3 DUP1 SLOAD SWAP1 POP DUP2 LT ISZERO PUSH2 0xF6A JUMPI PUSH1 0x0 JUMPDEST PUSH1 0x4 DUP1 SLOAD SWAP1 POP DUP2 LT ISZERO PUSH2 0xF56 JUMPI DUP6 PUSH1 0x2 PUSH1 0x0 PUSH1 0x3 DUP6 DUP2 SLOAD DUP2 LT PUSH2 0xC54 JUMPI PUSH2 0xC53 PUSH2 0x1BB3 JUMP JUMPDEST JUMPDEST SWAP1 PUSH1 0x0 MSTORE PUSH1 0x20 PUSH1 0x0 KECCAK256 ADD PUSH1 0x0 SWAP1 SLOAD SWAP1 PUSH2 0x100 EXP SWAP1 DIV PUSH20 0xFFFFFFFFFFFFFFFFFFFFFFFFFFFFFFFFFFFFFFFF AND PUSH20 0xFFFFFFFFFFFFFFFFFFFFFFFFFFFFFFFFFFFFFFFF AND PUSH20 0xFFFFFFFFFFFFFFFFFFFFFFFFFFFFFFFFFFFFFFFF AND DUP2 MSTORE PUSH1 0x20 ADD SWAP1 DUP2 MSTORE PUSH1 0x20 ADD PUSH1 0x0 KECCAK256 PUSH1 0x0 PUSH1 0x4 DUP5 DUP2 SLOAD DUP2 LT PUSH2 0xCCF JUMPI PUSH2 0xCCE PUSH2 0x1BB3 JUMP JUMPDEST JUMPDEST SWAP1 PUSH1 0x0 MSTORE PUSH1 0x20 PUSH1 0x0 KECCAK256 ADD SLOAD DUP2 MSTORE PUSH1 0x20 ADD SWAP1 DUP2 MSTORE PUSH1 0x20 ADD PUSH1 0x0 KECCAK256 PUSH1 0x0 ADD SLOAD SUB PUSH2 0xF43 JUMPI PUSH1 0x0 PUSH1 0x40 MLOAD DUP1 PUSH1 0x60 ADD PUSH1 0x40 MSTORE DUP1 PUSH1 0x4 DUP5 DUP2 SLOAD DUP2 LT PUSH2 0xD12 JUMPI PUSH2 0xD11 PUSH2 0x1BB3 JUMP JUMPDEST JUMPDEST SWAP1 PUSH1 0x0 MSTORE PUSH1 0x20 PUSH1 0x0 KECCAK256 ADD SLOAD DUP2 MSTORE PUSH1 0x20 ADD PUSH1 0x2 PUSH1 0x0 PUSH1 0x3 DUP8 DUP2 SLOAD DUP2 LT PUSH2 0xD3A JUMPI PUSH2 0xD39 PUSH2 0x1BB3 JUMP JUMPDEST JUMPDEST SWAP1 PUSH1 0x0 MSTORE PUSH1 0x20 PUSH1 0x0 KECCAK256 ADD PUSH1 0x0 SWAP1 SLOAD SWAP1 PUSH2 0x100 EXP SWAP1 DIV PUSH20 0xFFFFFFFFFFFFFFFFFFFFFFFFFFFFFFFFFFFFFFFF AND PUSH20 0xFFFFFFFFFFFFFFFFFFFFFFFFFFFFFFFFFFFFFFFF AND PUSH20 0xFFFFFFFFFFFFFFFFFFFFFFFFFFFFFFFFFFFFFFFF AND DUP2 MSTORE PUSH1 0x20 ADD SWAP1 DUP2 MSTORE PUSH1 0x20 ADD PUSH1 0x0 KECCAK256 PUSH1 0x0 PUSH1 0x4 DUP7 DUP2 SLOAD DUP2 LT PUSH2 0xDB5 JUMPI PUSH2 0xDB4 PUSH2 0x1BB3 JUMP JUMPDEST JUMPDEST SWAP1 PUSH1 0x0 MSTORE PUSH1 0x20 PUSH1 0x0 KECCAK256 ADD SLOAD DUP2 MSTORE PUSH1 0x20 ADD SWAP1 DUP2 MSTORE PUSH1 0x20 ADD PUSH1 0x0 KECCAK256 PUSH1 0x1 ADD DUP1 SLOAD PUSH2 0xDDC SWAP1 PUSH2 0x1A13 JUMP JUMPDEST DUP1 PUSH1 0x1F ADD PUSH1 0x20 DUP1 SWAP2 DIV MUL PUSH1 0x20 ADD PUSH1 0x40 MLOAD SWAP1 DUP2 ADD PUSH1 0x40 MSTORE DUP1 SWAP3 SWAP2 SWAP1 DUP2 DUP2 MSTORE PUSH1 0x20 ADD DUP3 DUP1 SLOAD PUSH2 0xE08 SWAP1 PUSH2 0x1A13 JUMP JUMPDEST DUP1 ISZERO PUSH2 0xE55 JUMPI DUP1 PUSH1 0x1F LT PUSH2 0xE2A JUMPI PUSH2 0x100 DUP1 DUP4 SLOAD DIV MUL DUP4 MSTORE SWAP2 PUSH1 0x20 ADD SWAP2 PUSH2 0xE55 JUMP JUMPDEST DUP3 ADD SWAP2 SWAP1 PUSH1 0x0 MSTORE PUSH1 0x20 PUSH1 0x0 KECCAK256 SWAP1 JUMPDEST DUP2 SLOAD DUP2 MSTORE SWAP1 PUSH1 0x1 ADD SWAP1 PUSH1 0x20 ADD DUP1 DUP4 GT PUSH2 0xE38 JUMPI DUP3 SWAP1 SUB PUSH1 0x1F AND DUP3 ADD SWAP2 JUMPDEST POP POP POP POP POP DUP2 MSTORE PUSH1 0x20 ADD PUSH1 0x2 PUSH1 0x0 PUSH1 0x3 DUP8 DUP2 SLOAD DUP2 LT PUSH2 0xE77 JUMPI PUSH2 0xE76 PUSH2 0x1BB3 JUMP JUMPDEST JUMPDEST SWAP1 PUSH1 0x0 MSTORE PUSH1 0x20 PUSH1 0x0 KECCAK256 ADD PUSH1 0x0 SWAP1 SLOAD SWAP1 PUSH2 0x100 EXP SWAP1 DIV PUSH20 0xFFFFFFFFFFFFFFFFFFFFFFFFFFFFFFFFFFFFFFFF AND PUSH20 0xFFFFFFFFFFFFFFFFFFFFFFFFFFFFFFFFFFFFFFFF AND PUSH20 0xFFFFFFFFFFFFFFFFFFFFFFFFFFFFFFFFFFFFFFFF AND DUP2 MSTORE PUSH1 0x20 ADD SWAP1 DUP2 MSTORE PUSH1 0x20 ADD PUSH1 0x0 KECCAK256 PUSH1 0x0 PUSH1 0x4 DUP7 DUP2 SLOAD DUP2 LT PUSH2 0xEF2 JUMPI PUSH2 0xEF1 PUSH2 0x1BB3 JUMP JUMPDEST JUMPDEST SWAP1 PUSH1 0x0 MSTORE PUSH1 0x20 PUSH1 0x0 KECCAK256 ADD SLOAD DUP2 MSTORE PUSH1 0x20 ADD SWAP1 DUP2 MSTORE PUSH1 0x20 ADD PUSH1 0x0 KECCAK256 PUSH1 0x2 ADD SLOAD DUP2 MSTORE POP SWAP1 POP DUP1 DUP5 DUP7 DUP2 MLOAD DUP2 LT PUSH2 0xF28 JUMPI PUSH2 0xF27 PUSH2 0x1BB3 JUMP JUMPDEST JUMPDEST PUSH1 0x20 MUL PUSH1 0x20 ADD ADD DUP2 SWAP1 MSTORE POP DUP5 DUP1 PUSH2 0xF3E SWAP1 PUSH2 0x1BE2 JUMP JUMPDEST SWAP6 POP POP POP JUMPDEST DUP1 DUP1 PUSH2 0xF4E SWAP1 PUSH2 0x1BE2 JUMP JUMPDEST SWAP2 POP POP PUSH2 0xC2E JUMP JUMPDEST POP DUP1 DUP1 PUSH2 0xF62 SWAP1 PUSH2 0x1BE2 JUMP JUMPDEST SWAP2 POP POP PUSH2 0xC1E JUMP JUMPDEST POP DUP1 SWAP3 POP POP POP SWAP2 SWAP1 POP JUMP JUMPDEST PUSH1 0x3 CALLER SWAP1 DUP1 PUSH1 0x1 DUP2 SLOAD ADD DUP1 DUP3 SSTORE DUP1 SWAP2 POP POP PUSH1 0x1 SWAP1 SUB SWAP1 PUSH1 0x0 MSTORE PUSH1 0x20 PUSH1 0x0 KECCAK256 ADD PUSH1 0x0 SWAP1 SWAP2 SWAP1 SWAP2 SWAP1 SWAP2 PUSH2 0x100 EXP DUP2 SLOAD DUP2 PUSH20 0xFFFFFFFFFFFFFFFFFFFFFFFFFFFFFFFFFFFFFFFF MUL NOT AND SWAP1 DUP4 PUSH20 0xFFFFFFFFFFFFFFFFFFFFFFFFFFFFFFFFFFFFFFFF AND MUL OR SWAP1 SSTORE POP PUSH1 0x4 DUP5 SWAP1 DUP1 PUSH1 0x1 DUP2 SLOAD ADD DUP1 DUP3 SSTORE DUP1 SWAP2 POP POP PUSH1 0x1 SWAP1 SUB SWAP1 PUSH1 0x0 MSTORE PUSH1 0x20 PUSH1 0x0 KECCAK256 ADD PUSH1 0x0 SWAP1 SWAP2 SWAP1 SWAP2 SWAP1 SWAP2 POP SSTORE PUSH1 0x40 MLOAD DUP1 PUSH1 0x80 ADD PUSH1 0x40 MSTORE DUP1 DUP5 DUP2 MSTORE PUSH1 0x20 ADD DUP4 DUP2 MSTORE PUSH1 0x20 ADD DUP3 DUP2 MSTORE PUSH1 0x20 ADD PUSH1 0x1 ISZERO ISZERO DUP2 MSTORE POP PUSH1 0x2 PUSH1 0x0 CALLER PUSH20 0xFFFFFFFFFFFFFFFFFFFFFFFFFFFFFFFFFFFFFFFF AND PUSH20 0xFFFFFFFFFFFFFFFFFFFFFFFFFFFFFFFFFFFFFFFF AND DUP2 MSTORE PUSH1 0x20 ADD SWAP1 DUP2 MSTORE PUSH1 0x20 ADD PUSH1 0x0 KECCAK256 PUSH1 0x0 DUP7 DUP2 MSTORE PUSH1 0x20 ADD SWAP1 DUP2 MSTORE PUSH1 0x20 ADD PUSH1 0x0 KECCAK256 PUSH1 0x0 DUP3 ADD MLOAD DUP2 PUSH1 0x0 ADD SSTORE PUSH1 0x20 DUP3 ADD MLOAD DUP2 PUSH1 0x1 ADD SWAP1 DUP2 PUSH2 0x1094 SWAP2 SWAP1 PUSH2 0x1DD6 JUMP JUMPDEST POP PUSH1 0x40 DUP3 ADD MLOAD DUP2 PUSH1 0x2 ADD SSTORE PUSH1 0x60 DUP3 ADD MLOAD DUP2 PUSH1 0x3 ADD PUSH1 0x0 PUSH2 0x100 EXP DUP2 SLOAD DUP2 PUSH1 0xFF MUL NOT AND SWAP1 DUP4 ISZERO ISZERO MUL OR SWAP1 SSTORE POP SWAP1 POP POP POP POP POP POP JUMP JUMPDEST DUP1 PUSH1 0x2 PUSH1 0x0 CALLER PUSH20 0xFFFFFFFFFFFFFFFFFFFFFFFFFFFFFFFFFFFFFFFF AND PUSH20 0xFFFFFFFFFFFFFFFFFFFFFFFFFFFFFFFFFFFFFFFF AND DUP2 MSTORE PUSH1 0x20 ADD SWAP1 DUP2 MSTORE PUSH1 0x20 ADD PUSH1 0x0 KECCAK256 PUSH1 0x0 DUP5 DUP2 MSTORE PUSH1 0x20 ADD SWAP1 DUP2 MSTORE PUSH1 0x20 ADD PUSH1 0x0 KECCAK256 PUSH1 0x2 ADD SLOAD PUSH2 0x1127 SWAP2 SWAP1 PUSH2 0x1B7F JUMP JUMPDEST PUSH1 0x2 PUSH1 0x0 CALLER PUSH20 0xFFFFFFFFFFFFFFFFFFFFFFFFFFFFFFFFFFFFFFFF AND PUSH20 0xFFFFFFFFFFFFFFFFFFFFFFFFFFFFFFFFFFFFFFFF AND DUP2 MSTORE PUSH1 0x20 ADD SWAP1 DUP2 MSTORE PUSH1 0x20 ADD PUSH1 0x0 KECCAK256 PUSH1 0x0 DUP5 DUP2 MSTORE PUSH1 0x20 ADD SWAP1 DUP2 MSTORE PUSH1 0x20 ADD PUSH1 0x0 KECCAK256 PUSH1 0x2 ADD DUP2 SWAP1 SSTORE POP POP POP JUMP JUMPDEST PUSH1 0x3 DUP2 DUP2 SLOAD DUP2 LT PUSH2 0x1192 JUMPI PUSH1 0x0 DUP1 REVERT JUMPDEST SWAP1 PUSH1 0x0 MSTORE PUSH1 0x20 PUSH1 0x0 KECCAK256 ADD PUSH1 0x0 SWAP2 POP SLOAD SWAP1 PUSH2 0x100 EXP SWAP1 DIV PUSH20 0xFFFFFFFFFFFFFFFFFFFFFFFFFFFFFFFFFFFFFFFF AND DUP2 JUMP JUMPDEST PUSH1 0x4 DUP2 DUP2 SLOAD DUP2 LT PUSH2 0x11D1 JUMPI PUSH1 0x0 DUP1 REVERT JUMPDEST SWAP1 PUSH1 0x0 MSTORE PUSH1 0x20 PUSH1 0x0 KECCAK256 ADD PUSH1 0x0 SWAP2 POP SWAP1 POP SLOAD DUP2 JUMP JUMPDEST PUSH1 0x40 MLOAD DUP1 PUSH1 0x80 ADD PUSH1 0x40 MSTORE DUP1 PUSH1 0x0 DUP2 MSTORE PUSH1 0x20 ADD PUSH1 0x0 DUP2 MSTORE PUSH1 0x20 ADD PUSH1 0x60 DUP2 MSTORE PUSH1 0x20 ADD PUSH1 0x0 DUP2 MSTORE POP SWAP1 JUMP JUMPDEST PUSH1 0x40 MLOAD DUP1 PUSH1 0x60 ADD PUSH1 0x40 MSTORE DUP1 PUSH1 0x0 DUP2 MSTORE PUSH1 0x20 ADD PUSH1 0x60 DUP2 MSTORE PUSH1 0x20 ADD PUSH1 0x0 DUP2 MSTORE POP SWAP1 JUMP JUMPDEST PUSH1 0x0 PUSH1 0x40 MLOAD SWAP1 POP SWAP1 JUMP JUMPDEST PUSH1 0x0 DUP1 REVERT JUMPDEST PUSH1 0x0 DUP1 REVERT JUMPDEST PUSH1 0x0 DUP2 SWAP1 POP SWAP2 SWAP1 POP JUMP JUMPDEST PUSH2 0x1255 DUP2 PUSH2 0x1242 JUMP JUMPDEST DUP2 EQ PUSH2 0x1260 JUMPI PUSH1 0x0 DUP1 REVERT JUMPDEST POP JUMP JUMPDEST PUSH1 0x0 DUP2 CALLDATALOAD SWAP1 POP PUSH2 0x1272 DUP2 PUSH2 0x124C JUMP JUMPDEST SWAP3 SWAP2 POP POP JUMP JUMPDEST PUSH1 0x0 PUSH1 0x20 DUP3 DUP5 SUB SLT ISZERO PUSH2 0x128E JUMPI PUSH2 0x128D PUSH2 0x1238 JUMP JUMPDEST JUMPDEST PUSH1 0x0 PUSH2 0x129C DUP5 DUP3 DUP6 ADD PUSH2 0x1263 JUMP JUMPDEST SWAP2 POP POP SWAP3 SWAP2 POP POP JUMP JUMPDEST PUSH2 0x12AE DUP2 PUSH2 0x1242 JUMP JUMPDEST DUP3 MSTORE POP POP JUMP JUMPDEST PUSH1 0x0 DUP2 MLOAD SWAP1 POP SWAP2 SWAP1 POP JUMP JUMPDEST PUSH1 0x0 DUP3 DUP3 MSTORE PUSH1 0x20 DUP3 ADD SWAP1 POP SWAP3 SWAP2 POP POP JUMP JUMPDEST PUSH1 0x0 JUMPDEST DUP4 DUP2 LT ISZERO PUSH2 0x12EE JUMPI DUP1 DUP3 ADD MLOAD DUP2 DUP5 ADD MSTORE PUSH1 0x20 DUP2 ADD SWAP1 POP PUSH2 0x12D3 JUMP JUMPDEST PUSH1 0x0 DUP5 DUP5 ADD MSTORE POP POP POP POP JUMP JUMPDEST PUSH1 0x0 PUSH1 0x1F NOT PUSH1 0x1F DUP4 ADD AND SWAP1 POP SWAP2 SWAP1 POP JUMP JUMPDEST PUSH1 0x0 PUSH2 0x1316 DUP3 PUSH2 0x12B4 JUMP JUMPDEST PUSH2 0x1320 DUP2 DUP6 PUSH2 0x12BF JUMP JUMPDEST SWAP4 POP PUSH2 0x1330 DUP2 DUP6 PUSH1 0x20 DUP7 ADD PUSH2 0x12D0 JUMP JUMPDEST PUSH2 0x1339 DUP2 PUSH2 0x12FA JUMP JUMPDEST DUP5 ADD SWAP2 POP POP SWAP3 SWAP2 POP POP JUMP JUMPDEST PUSH1 0x0 PUSH1 0x80 DUP3 ADD SWAP1 POP PUSH2 0x1359 PUSH1 0x0 DUP4 ADD DUP8 PUSH2 0x12A5 JUMP JUMPDEST PUSH2 0x1366 PUSH1 0x20 DUP4 ADD DUP7 PUSH2 0x12A5 JUMP JUMPDEST DUP2 DUP2 SUB PUSH1 0x40 DUP4 ADD MSTORE PUSH2 0x1378 DUP2 DUP6 PUSH2 0x130B JUMP JUMPDEST SWAP1 POP PUSH2 0x1387 PUSH1 0x60 DUP4 ADD DUP5 PUSH2 0x12A5 JUMP JUMPDEST SWAP6 SWAP5 POP POP POP POP POP JUMP JUMPDEST PUSH1 0x0 PUSH20 0xFFFFFFFFFFFFFFFFFFFFFFFFFFFFFFFFFFFFFFFF DUP3 AND SWAP1 POP SWAP2 SWAP1 POP JUMP JUMPDEST PUSH1 0x0 PUSH2 0x13BB DUP3 PUSH2 0x1390 JUMP JUMPDEST SWAP1 POP SWAP2 SWAP1 POP JUMP JUMPDEST PUSH2 0x13CB DUP2 PUSH2 0x13B0 JUMP JUMPDEST DUP2 EQ PUSH2 0x13D6 JUMPI PUSH1 0x0 DUP1 REVERT JUMPDEST POP JUMP JUMPDEST PUSH1 0x0 DUP2 CALLDATALOAD SWAP1 POP PUSH2 0x13E8 DUP2 PUSH2 0x13C2 JUMP JUMPDEST SWAP3 SWAP2 POP POP JUMP JUMPDEST PUSH1 0x0 DUP1 PUSH1 0x0 DUP1 PUSH1 0x80 DUP6 DUP8 SUB SLT ISZERO PUSH2 0x1408 JUMPI PUSH2 0x1407 PUSH2 0x1238 JUMP JUMPDEST JUMPDEST PUSH1 0x0 PUSH2 0x1416 DUP8 DUP3 DUP9 ADD PUSH2 0x1263 JUMP JUMPDEST SWAP5 POP POP PUSH1 0x20 PUSH2 0x1427 DUP8 DUP3 DUP9 ADD PUSH2 0x1263 JUMP JUMPDEST SWAP4 POP POP PUSH1 0x40 PUSH2 0x1438 DUP8 DUP3 DUP9 ADD PUSH2 0x13D9 JUMP JUMPDEST SWAP3 POP POP PUSH1 0x60 PUSH2 0x1449 DUP8 DUP3 DUP9 ADD PUSH2 0x1263 JUMP JUMPDEST SWAP2 POP POP SWAP3 SWAP6 SWAP2 SWAP5 POP SWAP3 POP JUMP JUMPDEST PUSH1 0x0 DUP1 PUSH1 0x40 DUP4 DUP6 SUB SLT ISZERO PUSH2 0x146C JUMPI PUSH2 0x146B PUSH2 0x1238 JUMP JUMPDEST JUMPDEST PUSH1 0x0 PUSH2 0x147A DUP6 DUP3 DUP7 ADD PUSH2 0x13D9 JUMP JUMPDEST SWAP3 POP POP PUSH1 0x20 PUSH2 0x148B DUP6 DUP3 DUP7 ADD PUSH2 0x1263 JUMP JUMPDEST SWAP2 POP POP SWAP3 POP SWAP3 SWAP1 POP JUMP JUMPDEST PUSH1 0x0 PUSH1 0x20 DUP3 ADD SWAP1 POP PUSH2 0x14AA PUSH1 0x0 DUP4 ADD DUP5 PUSH2 0x12A5 JUMP JUMPDEST SWAP3 SWAP2 POP POP JUMP JUMPDEST PUSH1 0x0 DUP1 PUSH1 0x40 DUP4 DUP6 SUB SLT ISZERO PUSH2 0x14C7 JUMPI PUSH2 0x14C6 PUSH2 0x1238 JUMP JUMPDEST JUMPDEST PUSH1 0x0 PUSH2 0x14D5 DUP6 DUP3 DUP7 ADD PUSH2 0x1263 JUMP JUMPDEST SWAP3 POP POP PUSH1 0x20 PUSH2 0x14E6 DUP6 DUP3 DUP7 ADD PUSH2 0x1263 JUMP JUMPDEST SWAP2 POP POP SWAP3 POP SWAP3 SWAP1 POP JUMP JUMPDEST PUSH1 0x0 DUP2 MLOAD SWAP1 POP SWAP2 SWAP1 POP JUMP JUMPDEST PUSH1 0x0 DUP3 DUP3 MSTORE PUSH1 0x20 DUP3 ADD SWAP1 POP SWAP3 SWAP2 POP POP JUMP JUMPDEST PUSH1 0x0 DUP2 SWAP1 POP PUSH1 0x20 DUP3 ADD SWAP1 POP SWAP2 SWAP1 POP JUMP JUMPDEST PUSH2 0x1525 DUP2 PUSH2 0x1242 JUMP JUMPDEST DUP3 MSTORE POP POP JUMP JUMPDEST PUSH1 0x0 DUP3 DUP3 MSTORE PUSH1 0x20 DUP3 ADD SWAP1 POP SWAP3 SWAP2 POP POP JUMP JUMPDEST PUSH1 0x0 PUSH2 0x1547 DUP3 PUSH2 0x12B4 JUMP JUMPDEST PUSH2 0x1551 DUP2 DUP6 PUSH2 0x152B JUMP JUMPDEST SWAP4 POP PUSH2 0x1561 DUP2 DUP6 PUSH1 0x20 DUP7 ADD PUSH2 0x12D0 JUMP JUMPDEST PUSH2 0x156A DUP2 PUSH2 0x12FA JUMP JUMPDEST DUP5 ADD SWAP2 POP POP SWAP3 SWAP2 POP POP JUMP JUMPDEST PUSH1 0x0 PUSH1 0x80 DUP4 ADD PUSH1 0x0 DUP4 ADD MLOAD PUSH2 0x158D PUSH1 0x0 DUP7 ADD DUP3 PUSH2 0x151C JUMP JUMPDEST POP PUSH1 0x20 DUP4 ADD MLOAD PUSH2 0x15A0 PUSH1 0x20 DUP7 ADD DUP3 PUSH2 0x151C JUMP JUMPDEST POP PUSH1 0x40 DUP4 ADD MLOAD DUP5 DUP3 SUB PUSH1 0x40 DUP7 ADD MSTORE PUSH2 0x15B8 DUP3 DUP3 PUSH2 0x153C JUMP JUMPDEST SWAP2 POP POP PUSH1 0x60 DUP4 ADD MLOAD PUSH2 0x15CD PUSH1 0x60 DUP7 ADD DUP3 PUSH2 0x151C JUMP JUMPDEST POP DUP1 SWAP2 POP POP SWAP3 SWAP2 POP POP JUMP JUMPDEST PUSH1 0x0 PUSH2 0x15E4 DUP4 DUP4 PUSH2 0x1575 JUMP JUMPDEST SWAP1 POP SWAP3 SWAP2 POP POP JUMP JUMPDEST PUSH1 0x0 PUSH1 0x20 DUP3 ADD SWAP1 POP SWAP2 SWAP1 POP JUMP JUMPDEST PUSH1 0x0 PUSH2 0x1604 DUP3 PUSH2 0x14F0 JUMP JUMPDEST PUSH2 0x160E DUP2 DUP6 PUSH2 0x14FB JUMP JUMPDEST SWAP4 POP DUP4 PUSH1 0x20 DUP3 MUL DUP6 ADD PUSH2 0x1620 DUP6 PUSH2 0x150C JUMP JUMPDEST DUP1 PUSH1 0x0 JUMPDEST DUP6 DUP2 LT ISZERO PUSH2 0x165C JUMPI DUP5 DUP5 SUB DUP10 MSTORE DUP2 MLOAD PUSH2 0x163D DUP6 DUP3 PUSH2 0x15D8 JUMP JUMPDEST SWAP5 POP PUSH2 0x1648 DUP4 PUSH2 0x15EC JUMP JUMPDEST SWAP3 POP PUSH1 0x20 DUP11 ADD SWAP10 POP POP PUSH1 0x1 DUP2 ADD SWAP1 POP PUSH2 0x1624 JUMP JUMPDEST POP DUP3 SWAP8 POP DUP8 SWAP6 POP POP POP POP POP POP SWAP3 SWAP2 POP POP JUMP JUMPDEST PUSH1 0x0 PUSH1 0x20 DUP3 ADD SWAP1 POP DUP2 DUP2 SUB PUSH1 0x0 DUP4 ADD MSTORE PUSH2 0x1688 DUP2 DUP5 PUSH2 0x15F9 JUMP JUMPDEST SWAP1 POP SWAP3 SWAP2 POP POP JUMP JUMPDEST PUSH1 0x0 PUSH1 0x60 DUP3 ADD SWAP1 POP PUSH2 0x16A5 PUSH1 0x0 DUP4 ADD DUP7 PUSH2 0x12A5 JUMP JUMPDEST DUP2 DUP2 SUB PUSH1 0x20 DUP4 ADD MSTORE PUSH2 0x16B7 DUP2 DUP6 PUSH2 0x130B JUMP JUMPDEST SWAP1 POP PUSH2 0x16C6 PUSH1 0x40 DUP4 ADD DUP5 PUSH2 0x12A5 JUMP JUMPDEST SWAP5 SWAP4 POP POP POP POP JUMP JUMPDEST PUSH1 0x0 DUP2 MLOAD SWAP1 POP SWAP2 SWAP1 POP JUMP JUMPDEST PUSH1 0x0 DUP3 DUP3 MSTORE PUSH1 0x20 DUP3 ADD SWAP1 POP SWAP3 SWAP2 POP POP JUMP JUMPDEST PUSH1 0x0 DUP2 SWAP1 POP PUSH1 0x20 DUP3 ADD SWAP1 POP SWAP2 SWAP1 POP JUMP JUMPDEST PUSH1 0x0 PUSH1 0x60 DUP4 ADD PUSH1 0x0 DUP4 ADD MLOAD PUSH2 0x1712 PUSH1 0x0 DUP7 ADD DUP3 PUSH2 0x151C JUMP JUMPDEST POP PUSH1 0x20 DUP4 ADD MLOAD DUP5 DUP3 SUB PUSH1 0x20 DUP7 ADD MSTORE PUSH2 0x172A DUP3 DUP3 PUSH2 0x153C JUMP JUMPDEST SWAP2 POP POP PUSH1 0x40 DUP4 ADD MLOAD PUSH2 0x173F PUSH1 0x40 DUP7 ADD DUP3 PUSH2 0x151C JUMP JUMPDEST POP DUP1 SWAP2 POP POP SWAP3 SWAP2 POP POP JUMP JUMPDEST PUSH1 0x0 PUSH2 0x1756 DUP4 DUP4 PUSH2 0x16FA JUMP JUMPDEST SWAP1 POP SWAP3 SWAP2 POP POP JUMP JUMPDEST PUSH1 0x0 PUSH1 0x20 DUP3 ADD SWAP1 POP SWAP2 SWAP1 POP JUMP JUMPDEST PUSH1 0x0 PUSH2 0x1776 DUP3 PUSH2 0x16CE JUMP JUMPDEST PUSH2 0x1780 DUP2 DUP6 PUSH2 0x16D9 JUMP JUMPDEST SWAP4 POP DUP4 PUSH1 0x20 DUP3 MUL DUP6 ADD PUSH2 0x1792 DUP6 PUSH2 0x16EA JUMP JUMPDEST DUP1 PUSH1 0x0 JUMPDEST DUP6 DUP2 LT ISZERO PUSH2 0x17CE JUMPI DUP5 DUP5 SUB DUP10 MSTORE DUP2 MLOAD PUSH2 0x17AF DUP6 DUP3 PUSH2 0x174A JUMP JUMPDEST SWAP5 POP PUSH2 0x17BA DUP4 PUSH2 0x175E JUMP JUMPDEST SWAP3 POP PUSH1 0x20 DUP11 ADD SWAP10 POP POP PUSH1 0x1 DUP2 ADD SWAP1 POP PUSH2 0x1796 JUMP JUMPDEST POP DUP3 SWAP8 POP DUP8 SWAP6 POP POP POP POP POP POP SWAP3 SWAP2 POP POP JUMP JUMPDEST PUSH1 0x0 PUSH1 0x20 DUP3 ADD SWAP1 POP DUP2 DUP2 SUB PUSH1 0x0 DUP4 ADD MSTORE PUSH2 0x17FA DUP2 DUP5 PUSH2 0x176B JUMP JUMPDEST SWAP1 POP SWAP3 SWAP2 POP POP JUMP JUMPDEST PUSH1 0x0 DUP1 REVERT JUMPDEST PUSH1 0x0 DUP1 REVERT JUMPDEST PUSH32 0x4E487B7100000000000000000000000000000000000000000000000000000000 PUSH1 0x0 MSTORE PUSH1 0x41 PUSH1 0x4 MSTORE PUSH1 0x24 PUSH1 0x0 REVERT JUMPDEST PUSH2 0x1844 DUP3 PUSH2 0x12FA JUMP JUMPDEST DUP2 ADD DUP2 DUP2 LT PUSH8 0xFFFFFFFFFFFFFFFF DUP3 GT OR ISZERO PUSH2 0x1863 JUMPI PUSH2 0x1862 PUSH2 0x180C JUMP JUMPDEST JUMPDEST DUP1 PUSH1 0x40 MSTORE POP POP POP JUMP JUMPDEST PUSH1 0x0 PUSH2 0x1876 PUSH2 0x122E JUMP JUMPDEST SWAP1 POP PUSH2 0x1882 DUP3 DUP3 PUSH2 0x183B JUMP JUMPDEST SWAP2 SWAP1 POP JUMP JUMPDEST PUSH1 0x0 PUSH8 0xFFFFFFFFFFFFFFFF DUP3 GT ISZERO PUSH2 0x18A2 JUMPI PUSH2 0x18A1 PUSH2 0x180C JUMP JUMPDEST JUMPDEST PUSH2 0x18AB DUP3 PUSH2 0x12FA JUMP JUMPDEST SWAP1 POP PUSH1 0x20 DUP2 ADD SWAP1 POP SWAP2 SWAP1 POP JUMP JUMPDEST DUP3 DUP2 DUP4 CALLDATACOPY PUSH1 0x0 DUP4 DUP4 ADD MSTORE POP POP POP JUMP JUMPDEST PUSH1 0x0 PUSH2 0x18DA PUSH2 0x18D5 DUP5 PUSH2 0x1887 JUMP JUMPDEST PUSH2 0x186C JUMP JUMPDEST SWAP1 POP DUP3 DUP2 MSTORE PUSH1 0x20 DUP2 ADD DUP5 DUP5 DUP5 ADD GT ISZERO PUSH2 0x18F6 JUMPI PUSH2 0x18F5 PUSH2 0x1807 JUMP JUMPDEST JUMPDEST PUSH2 0x1901 DUP5 DUP3 DUP6 PUSH2 0x18B8 JUMP JUMPDEST POP SWAP4 SWAP3 POP POP POP JUMP JUMPDEST PUSH1 0x0 DUP3 PUSH1 0x1F DUP4 ADD SLT PUSH2 0x191E JUMPI PUSH2 0x191D PUSH2 0x1802 JUMP JUMPDEST JUMPDEST DUP2 CALLDATALOAD PUSH2 0x192E DUP5 DUP3 PUSH1 0x20 DUP7 ADD PUSH2 0x18C7 JUMP JUMPDEST SWAP2 POP POP SWAP3 SWAP2 POP POP JUMP JUMPDEST PUSH1 0x0 DUP1 PUSH1 0x0 DUP1 PUSH1 0x80 DUP6 DUP8 SUB SLT ISZERO PUSH2 0x1951 JUMPI PUSH2 0x1950 PUSH2 0x1238 JUMP JUMPDEST JUMPDEST PUSH1 0x0 PUSH2 0x195F DUP8 DUP3 DUP9 ADD PUSH2 0x1263 JUMP JUMPDEST SWAP5 POP POP PUSH1 0x20 PUSH2 0x1970 DUP8 DUP3 DUP9 ADD PUSH2 0x1263 JUMP JUMPDEST SWAP4 POP POP PUSH1 0x40 DUP6 ADD CALLDATALOAD PUSH8 0xFFFFFFFFFFFFFFFF DUP2 GT ISZERO PUSH2 0x1991 JUMPI PUSH2 0x1990 PUSH2 0x123D JUMP JUMPDEST JUMPDEST PUSH2 0x199D DUP8 DUP3 DUP9 ADD PUSH2 0x1909 JUMP JUMPDEST SWAP3 POP POP PUSH1 0x60 PUSH2 0x19AE DUP8 DUP3 DUP9 ADD PUSH2 0x1263 JUMP JUMPDEST SWAP2 POP POP SWAP3 SWAP6 SWAP2 SWAP5 POP SWAP3 POP JUMP JUMPDEST PUSH2 0x19C3 DUP2 PUSH2 0x13B0 JUMP JUMPDEST DUP3 MSTORE POP POP JUMP JUMPDEST PUSH1 0x0 PUSH1 0x20 DUP3 ADD SWAP1 POP PUSH2 0x19DE PUSH1 0x0 DUP4 ADD DUP5 PUSH2 0x19BA JUMP JUMPDEST SWAP3 SWAP2 POP POP JUMP JUMPDEST PUSH32 0x4E487B7100000000000000000000000000000000000000000000000000000000 PUSH1 0x0 MSTORE PUSH1 0x22 PUSH1 0x4 MSTORE PUSH1 0x24 PUSH1 0x0 REVERT JUMPDEST PUSH1 0x0 PUSH1 0x2 DUP3 DIV SWAP1 POP PUSH1 0x1 DUP3 AND DUP1 PUSH2 0x1A2B JUMPI PUSH1 0x7F DUP3 AND SWAP2 POP JUMPDEST PUSH1 0x20 DUP3 LT DUP2 SUB PUSH2 0x1A3E JUMPI PUSH2 0x1A3D PUSH2 0x19E4 JUMP JUMPDEST JUMPDEST POP SWAP2 SWAP1 POP JUMP JUMPDEST PUSH32 0x496E73756666696369656E742042616C616E6365000000000000000000000000 PUSH1 0x0 DUP3 ADD MSTORE POP JUMP JUMPDEST PUSH1 0x0 PUSH2 0x1A7A PUSH1 0x14 DUP4 PUSH2 0x12BF JUMP JUMPDEST SWAP2 POP PUSH2 0x1A85 DUP3 PUSH2 0x1A44 JUMP JUMPDEST PUSH1 0x20 DUP3 ADD SWAP1 POP SWAP2 SWAP1 POP JUMP JUMPDEST PUSH1 0x0 PUSH1 0x20 DUP3 ADD SWAP1 POP DUP2 DUP2 SUB PUSH1 0x0 DUP4 ADD MSTORE PUSH2 0x1AA9 DUP2 PUSH2 0x1A6D JUMP JUMPDEST SWAP1 POP SWAP2 SWAP1 POP JUMP JUMPDEST PUSH32 0x496E636F7272656374204163636F756E74204E756D6265720000000000000000 PUSH1 0x0 DUP3 ADD MSTORE POP JUMP JUMPDEST PUSH1 0x0 PUSH2 0x1AE6 PUSH1 0x18 DUP4 PUSH2 0x12BF JUMP JUMPDEST SWAP2 POP PUSH2 0x1AF1 DUP3 PUSH2 0x1AB0 JUMP JUMPDEST PUSH1 0x20 DUP3 ADD SWAP1 POP SWAP2 SWAP1 POP JUMP JUMPDEST PUSH1 0x0 PUSH1 0x20 DUP3 ADD SWAP1 POP DUP2 DUP2 SUB PUSH1 0x0 DUP4 ADD MSTORE PUSH2 0x1B15 DUP2 PUSH2 0x1AD9 JUMP JUMPDEST SWAP1 POP SWAP2 SWAP1 POP JUMP JUMPDEST PUSH32 0x4E487B7100000000000000000000000000000000000000000000000000000000 PUSH1 0x0 MSTORE PUSH1 0x11 PUSH1 0x4 MSTORE PUSH1 0x24 PUSH1 0x0 REVERT JUMPDEST PUSH1 0x0 PUSH2 0x1B56 DUP3 PUSH2 0x1242 JUMP JUMPDEST SWAP2 POP PUSH2 0x1B61 DUP4 PUSH2 0x1242 JUMP JUMPDEST SWAP3 POP DUP3 DUP3 SUB SWAP1 POP DUP2 DUP2 GT ISZERO PUSH2 0x1B79 JUMPI PUSH2 0x1B78 PUSH2 0x1B1C JUMP JUMPDEST JUMPDEST SWAP3 SWAP2 POP POP JUMP JUMPDEST PUSH1 0x0 PUSH2 0x1B8A DUP3 PUSH2 0x1242 JUMP JUMPDEST SWAP2 POP PUSH2 0x1B95 DUP4 PUSH2 0x1242 JUMP JUMPDEST SWAP3 POP DUP3 DUP3 ADD SWAP1 POP DUP1 DUP3 GT ISZERO PUSH2 0x1BAD JUMPI PUSH2 0x1BAC PUSH2 0x1B1C JUMP JUMPDEST JUMPDEST SWAP3 SWAP2 POP POP JUMP JUMPDEST PUSH32 0x4E487B7100000000000000000000000000000000000000000000000000000000 PUSH1 0x0 MSTORE PUSH1 0x32 PUSH1 0x4 MSTORE PUSH1 0x24 PUSH1 0x0 REVERT JUMPDEST PUSH1 0x0 PUSH2 0x1BED DUP3 PUSH2 0x1242 JUMP JUMPDEST SWAP2 POP PUSH32 0xFFFFFFFFFFFFFFFFFFFFFFFFFFFFFFFFFFFFFFFFFFFFFFFFFFFFFFFFFFFFFFFF DUP3 SUB PUSH2 0x1C1F JUMPI PUSH2 0x1C1E PUSH2 0x1B1C JUMP JUMPDEST JUMPDEST PUSH1 0x1 DUP3 ADD SWAP1 POP SWAP2 SWAP1 POP JUMP JUMPDEST PUSH1 0x0 DUP2 SWAP1 POP DUP2 PUSH1 0x0 MSTORE PUSH1 0x20 PUSH1 0x0 KECCAK256 SWAP1 POP SWAP2 SWAP1 POP JUMP JUMPDEST PUSH1 0x0 PUSH1 0x20 PUSH1 0x1F DUP4 ADD DIV SWAP1 POP SWAP2 SWAP1 POP JUMP JUMPDEST PUSH1 0x0 DUP3 DUP3 SHL SWAP1 POP SWAP3 SWAP2 POP POP JUMP JUMPDEST PUSH1 0x0 PUSH1 0x8 DUP4 MUL PUSH2 0x1C8C PUSH32 0xFFFFFFFFFFFFFFFFFFFFFFFFFFFFFFFFFFFFFFFFFFFFFFFFFFFFFFFFFFFFFFFF DUP3 PUSH2 0x1C4F JUMP JUMPDEST PUSH2 0x1C96 DUP7 DUP4 PUSH2 0x1C4F JUMP JUMPDEST SWAP6 POP DUP1 NOT DUP5 AND SWAP4 POP DUP1 DUP7 AND DUP5 OR SWAP3 POP POP POP SWAP4 SWAP3 POP POP POP JUMP JUMPDEST PUSH1 0x0 DUP2 SWAP1 POP SWAP2 SWAP1 POP JUMP JUMPDEST PUSH1 0x0 PUSH2 0x1CD3 PUSH2 0x1CCE PUSH2 0x1CC9 DUP5 PUSH2 0x1242 JUMP JUMPDEST PUSH2 0x1CAE JUMP JUMPDEST PUSH2 0x1242 JUMP JUMPDEST SWAP1 POP SWAP2 SWAP1 POP JUMP JUMPDEST PUSH1 0x0 DUP2 SWAP1 POP SWAP2 SWAP1 POP JUMP JUMPDEST PUSH2 0x1CED DUP4 PUSH2 0x1CB8 JUMP JUMPDEST PUSH2 0x1D01 PUSH2 0x1CF9 DUP3 PUSH2 0x1CDA JUMP JUMPDEST DUP5 DUP5 SLOAD PUSH2 0x1C5C JUMP JUMPDEST DUP3 SSTORE POP POP POP POP JUMP JUMPDEST PUSH1 0x0 SWAP1 JUMP JUMPDEST PUSH2 0x1D16 PUSH2 0x1D09 JUMP JUMPDEST PUSH2 0x1D21 DUP2 DUP5 DUP5 PUSH2 0x1CE4 JUMP JUMPDEST POP POP POP JUMP JUMPDEST JUMPDEST DUP2 DUP2 LT ISZERO PUSH2 0x1D45 JUMPI PUSH2 0x1D3A PUSH1 0x0 DUP3 PUSH2 0x1D0E JUMP JUMPDEST PUSH1 0x1 DUP2 ADD SWAP1 POP PUSH2 0x1D27 JUMP JUMPDEST POP POP JUMP JUMPDEST PUSH1 0x1F DUP3 GT ISZERO PUSH2 0x1D8A JUMPI PUSH2 0x1D5B DUP2 PUSH2 0x1C2A JUMP JUMPDEST PUSH2 0x1D64 DUP5 PUSH2 0x1C3F JUMP JUMPDEST DUP2 ADD PUSH1 0x20 DUP6 LT ISZERO PUSH2 0x1D73 JUMPI DUP2 SWAP1 POP JUMPDEST PUSH2 0x1D87 PUSH2 0x1D7F DUP6 PUSH2 0x1C3F JUMP JUMPDEST DUP4 ADD DUP3 PUSH2 0x1D26 JUMP JUMPDEST POP POP JUMPDEST POP POP POP JUMP JUMPDEST PUSH1 0x0 DUP3 DUP3 SHR SWAP1 POP SWAP3 SWAP2 POP POP JUMP JUMPDEST PUSH1 0x0 PUSH2 0x1DAD PUSH1 0x0 NOT DUP5 PUSH1 0x8 MUL PUSH2 0x1D8F JUMP JUMPDEST NOT DUP1 DUP4 AND SWAP2 POP POP SWAP3 SWAP2 POP POP JUMP JUMPDEST PUSH1 0x0 PUSH2 0x1DC6 DUP4 DUP4 PUSH2 0x1D9C JUMP JUMPDEST SWAP2 POP DUP3 PUSH1 0x2 MUL DUP3 OR SWAP1 POP SWAP3 SWAP2 POP POP JUMP JUMPDEST PUSH2 0x1DDF DUP3 PUSH2 0x12B4 JUMP JUMPDEST PUSH8 0xFFFFFFFFFFFFFFFF DUP2 GT ISZERO PUSH2 0x1DF8 JUMPI PUSH2 0x1DF7 PUSH2 0x180C JUMP JUMPDEST JUMPDEST PUSH2 0x1E02 DUP3 SLOAD PUSH2 0x1A13 JUMP JUMPDEST PUSH2 0x1E0D DUP3 DUP3 DUP6 PUSH2 0x1D49 JUMP JUMPDEST PUSH1 0x0 PUSH1 0x20 SWAP1 POP PUSH1 0x1F DUP4 GT PUSH1 0x1 DUP2 EQ PUSH2 0x1E40 JUMPI PUSH1 0x0 DUP5 ISZERO PUSH2 0x1E2E JUMPI DUP3 DUP8 ADD MLOAD SWAP1 POP JUMPDEST PUSH2 0x1E38 DUP6 DUP3 PUSH2 0x1DBA JUMP JUMPDEST DUP7 SSTORE POP PUSH2 0x1EA0 JUMP JUMPDEST PUSH1 0x1F NOT DUP5 AND PUSH2 0x1E4E DUP7 PUSH2 0x1C2A JUMP JUMPDEST PUSH1 0x0 JUMPDEST DUP3 DUP2 LT ISZERO PUSH2 0x1E76 JUMPI DUP5 DUP10 ADD MLOAD DUP3 SSTORE PUSH1 0x1 DUP3 ADD SWAP2 POP PUSH1 0x20 DUP6 ADD SWAP5 POP PUSH1 0x20 DUP2 ADD SWAP1 POP PUSH2 0x1E51 JUMP JUMPDEST DUP7 DUP4 LT ISZERO PUSH2 0x1E93 JUMPI DUP5 DUP10 ADD MLOAD PUSH2 0x1E8F PUSH1 0x1F DUP10 AND DUP3 PUSH2 0x1D9C JUMP JUMPDEST DUP4 SSTORE POP JUMPDEST PUSH1 0x1 PUSH1 0x2 DUP9 MUL ADD DUP9 SSTORE POP POP POP JUMPDEST POP POP POP POP POP POP JUMP INVALID LOG2 PUSH5 0x6970667358 0x22 SLT KECCAK256 EXTCODECOPY MOD 0xB5 0xF DUP4 0x27 0xAB PUSH7 0x363236D0289796 0xE1 EXP DUP3 REVERT 0xB6 0xE6 LT EXTCODECOPY 0xB8 PUSH24 0x3AFFC60A8B88CE64736F6C63430008100033000000000000 "
        },
        "methodIdentifiers": {
          "accounts(uint256)": "f2a40db8",
          "addresses(uint256)": "edf26d9b",
          "balanceTransfer(uint256,uint256,address,uint256)": "15f1d66d",
          "createAccount(uint256,uint256,string,uint256)": "c8cb55ae",
          "deposit(uint256,uint256)": "e2bbb158",
          "getBalance(address,uint256)": "2b04e840",
          "getBankData(uint256)": "b26ea798",
          "getSpecificAddressData()": "4c7a4ed0",
          "returnBankDataArray(uint256)": "b0fb25cc",
          "returnDataArray(uint256)": "078c9ed3",
          "withdraw(uint256,uint256)": "441a3e70"
        }
      }
    }
  }
}