{
  "contracts/functions.sol": {
    "Functions": {
      "abi": [
        {
          "inputs": [
            {
              "internalType": "uint256",
              "name": "",
              "type": "uint256"
            }
          ],
          "name": "accounts",
          "outputs": [
            {
              "internalType": "uint256",
              "name": "",
              "type": "uint256"
            }
          ],
          "stateMutability": "view",
          "type": "function"
        },
        {
          "inputs": [
            {
              "internalType": "uint256",
              "name": "",
              "type": "uint256"
            }
          ],
          "name": "addresses",
          "outputs": [
            {
              "internalType": "address",
              "name": "",
              "type": "address"
            }
          ],
          "stateMutability": "view",
          "type": "function"
        },
        {
          "inputs": [
            {
              "internalType": "uint256",
              "name": "_fromAccount",
              "type": "uint256"
            },
            {
              "internalType": "uint256",
              "name": "_toAccount",
              "type": "uint256"
            },
            {
              "internalType": "address",
              "name": "_toAddress",
              "type": "address"
            },
            {
              "internalType": "uint256",
              "name": "_balance",
              "type": "uint256"
            }
          ],
          "name": "balanceTransfer",
          "outputs": [],
          "stateMutability": "nonpayable",
          "type": "function"
        },
        {
          "inputs": [
            {
              "internalType": "uint256",
              "name": "_accountNumber",
              "type": "uint256"
            },
            {
              "internalType": "uint256",
              "name": "_bankName",
              "type": "uint256"
            },
            {
              "internalType": "string",
              "name": "_branch",
              "type": "string"
            },
            {
              "internalType": "uint256",
              "name": "_balance",
              "type": "uint256"
            }
          ],
          "name": "createAccount",
          "outputs": [],
          "stateMutability": "nonpayable",
          "type": "function"
        },
        {
          "inputs": [
            {
              "internalType": "uint256",
              "name": "_accountNumber",
              "type": "uint256"
            },
            {
              "internalType": "uint256",
              "name": "_balance",
              "type": "uint256"
            }
          ],
          "name": "deposit",
          "outputs": [],
          "stateMutability": "nonpayable",
          "type": "function"
        },
        {
          "inputs": [
            {
              "internalType": "uint256",
              "name": "_bankName",
              "type": "uint256"
            }
          ],
          "name": "getBankData",
          "outputs": [
            {
              "components": [
                {
                  "internalType": "uint256",
                  "name": "accountNumber",
                  "type": "uint256"
                },
                {
                  "internalType": "string",
                  "name": "branch",
                  "type": "string"
                },
                {
                  "internalType": "uint256",
                  "name": "balance",
                  "type": "uint256"
                }
              ],
              "internalType": "struct Data.returnBankData[]",
              "name": "",
              "type": "tuple[]"
            }
          ],
          "stateMutability": "view",
          "type": "function"
        },
        {
          "inputs": [],
          "name": "getSpecificAddressData",
          "outputs": [
            {
              "components": [
                {
                  "internalType": "uint256",
                  "name": "accountNumber",
                  "type": "uint256"
                },
                {
                  "internalType": "uint256",
                  "name": "bankName",
                  "type": "uint256"
                },
                {
                  "internalType": "string",
                  "name": "branch",
                  "type": "string"
                },
                {
                  "internalType": "uint256",
                  "name": "balance",
                  "type": "uint256"
                }
              ],
              "internalType": "struct Data.returnData[]",
              "name": "",
              "type": "tuple[]"
            }
          ],
          "stateMutability": "view",
          "type": "function"
        },
        {
          "inputs": [
            {
              "internalType": "uint256",
              "name": "",
              "type": "uint256"
            }
          ],
          "name": "returnBankDataArray",
          "outputs": [
            {
              "internalType": "uint256",
              "name": "accountNumber",
              "type": "uint256"
            },
            {
              "internalType": "string",
              "name": "branch",
              "type": "string"
            },
            {
              "internalType": "uint256",
              "name": "balance",
              "type": "uint256"
            }
          ],
          "stateMutability": "view",
          "type": "function"
        },
        {
          "inputs": [
            {
              "internalType": "uint256",
              "name": "",
              "type": "uint256"
            }
          ],
          "name": "returnDataArray",
          "outputs": [
            {
              "internalType": "uint256",
              "name": "accountNumber",
              "type": "uint256"
            },
            {
              "internalType": "uint256",
              "name": "bankName",
              "type": "uint256"
            },
            {
              "internalType": "string",
              "name": "branch",
              "type": "string"
            },
            {
              "internalType": "uint256",
              "name": "balance",
              "type": "uint256"
            }
          ],
          "stateMutability": "view",
          "type": "function"
        },
        {
          "inputs": [
            {
              "internalType": "uint256",
              "name": "_accountNumber",
              "type": "uint256"
            },
            {
              "internalType": "uint256",
              "name": "_balance",
              "type": "uint256"
            }
          ],
          "name": "withdraw",
          "outputs": [],
          "stateMutability": "nonpayable",
          "type": "function"
        }
      ],
      "evm": {
        "bytecode": {
          "linkReferences": {},
          "object": "608060405234801561001057600080fd5b50611e05806100206000396000f3fe608060405234801561001057600080fd5b506004361061009e5760003560e01c8063b26ea79811610066578063b26ea7981461015e578063c8cb55ae1461018e578063e2bbb158146101aa578063edf26d9b146101c6578063f2a40db8146101f65761009e565b8063078c9ed3146100a357806315f1d66d146100d6578063441a3e70146100f25780634c7a4ed01461010e578063b0fb25cc1461012c575b600080fd5b6100bd60048036038101906100b891906111df565b610226565b6040516100cd94939291906112ab565b60405180910390f35b6100f060048036038101906100eb9190611355565b6102ee565b005b61010c600480360381019061010791906113bc565b6105a5565b005b6101166106f9565b604051610123919061157a565b60405180910390f35b610146600480360381019061014191906111df565b610a60565b6040516101559392919061159c565b60405180910390f35b610178600480360381019061017391906111df565b610b22565b60405161018591906116ec565b60405180910390f35b6101a860048036038101906101a39190611843565b610edc565b005b6101c460048036038101906101bf91906113bc565b61102f565b005b6101e060048036038101906101db91906111df565b6110e9565b6040516101ed91906118d5565b60405180910390f35b610210600480360381019061020b91906111df565b611128565b60405161021d91906118f0565b60405180910390f35b6000818154811061023657600080fd5b90600052602060002090600402016000915090508060000154908060010154908060020180546102659061193a565b80601f01602080910402602001604051908101604052809291908181526020018280546102919061193a565b80156102de5780601f106102b3576101008083540402835291602001916102de565b820191906000526020600020905b8154815290600101906020018083116102c157829003601f168201915b5050505050908060030154905084565b838180600260003373ffffffffffffffffffffffffffffffffffffffff1673ffffffffffffffffffffffffffffffffffffffff1681526020019081526020016000206000848152602001908152602001600020600201541015610386576040517f08c379a000000000000000000000000000000000000000000000000000000000815260040161037d906119b7565b60405180910390fd5b838560011515600260008473ffffffffffffffffffffffffffffffffffffffff1673ffffffffffffffffffffffffffffffffffffffff168152602001908152602001600020600083815260200190815260200160002060030160009054906101000a900460ff1615151461042f576040517f08c379a000000000000000000000000000000000000000000000000000000000815260040161042690611a23565b60405180910390fd5b84600260003373ffffffffffffffffffffffffffffffffffffffff1673ffffffffffffffffffffffffffffffffffffffff16815260200190815260200160002060008a81526020019081526020016000206002015461048e9190611a72565b600260003373ffffffffffffffffffffffffffffffffffffffff1673ffffffffffffffffffffffffffffffffffffffff16815260200190815260200160002060008a81526020019081526020016000206002018190555084600260008873ffffffffffffffffffffffffffffffffffffffff1673ffffffffffffffffffffffffffffffffffffffff1681526020019081526020016000206000898152602001908152602001600020600201546105449190611aa6565b600260008873ffffffffffffffffffffffffffffffffffffffff1673ffffffffffffffffffffffffffffffffffffffff1681526020019081526020016000206000898152602001908152602001600020600201819055505050505050505050565b818180600260003373ffffffffffffffffffffffffffffffffffffffff1673ffffffffffffffffffffffffffffffffffffffff168152602001908152602001600020600084815260200190815260200160002060020154101561063d576040517f08c379a0000000000000000000000000000000000000000000000000000000008152600401610634906119b7565b60405180910390fd5b82600260003373ffffffffffffffffffffffffffffffffffffffff1673ffffffffffffffffffffffffffffffffffffffff16815260200190815260200160002060008681526020019081526020016000206002015461069c9190611a72565b600260003373ffffffffffffffffffffffffffffffffffffffff1673ffffffffffffffffffffffffffffffffffffffff16815260200190815260200160002060008681526020019081526020016000206002018190555050505050565b6060600060048054905067ffffffffffffffff81111561071c5761071b611718565b5b60405190808252806020026020018201604052801561075557816020015b61074261114c565b81526020019060019003908161073a5790505b509050600080600090505b600480549050811015610a575760011515600260003373ffffffffffffffffffffffffffffffffffffffff1673ffffffffffffffffffffffffffffffffffffffff1681526020019081526020016000206000600484815481106107c6576107c5611ada565b5b9060005260206000200154815260200190815260200160002060030160009054906101000a900460ff16151503610a4457600060405180608001604052806004848154811061081857610817611ada565b5b90600052602060002001548152602001600260003373ffffffffffffffffffffffffffffffffffffffff1673ffffffffffffffffffffffffffffffffffffffff16815260200190815260200160002060006004868154811061087d5761087c611ada565b5b90600052602060002001548152602001908152602001600020600001548152602001600260003373ffffffffffffffffffffffffffffffffffffffff1673ffffffffffffffffffffffffffffffffffffffff1681526020019081526020016000206000600486815481106108f4576108f3611ada565b5b90600052602060002001548152602001908152602001600020600101805461091b9061193a565b80601f01602080910402602001604051908101604052809291908181526020018280546109479061193a565b80156109945780601f1061096957610100808354040283529160200191610994565b820191906000526020600020905b81548152906001019060200180831161097757829003601f168201915b50505050508152602001600260003373ffffffffffffffffffffffffffffffffffffffff1673ffffffffffffffffffffffffffffffffffffffff1681526020019081526020016000206000600486815481106109f3576109f2611ada565b5b9060005260206000200154815260200190815260200160002060020154815250905080848481518110610a2957610a28611ada565b5b60200260200101819052508280610a3f90611b09565b935050505b8080610a4f90611b09565b915050610760565b50819250505090565b60018181548110610a7057600080fd5b9060005260206000209060030201600091509050806000015490806001018054610a999061193a565b80601f0160208091040260200160405190810160405280929190818152602001828054610ac59061193a565b8015610b125780601f10610ae757610100808354040283529160200191610b12565b820191906000526020600020905b815481529060010190602001808311610af557829003601f168201915b5050505050908060020154905083565b606060008060048054905067ffffffffffffffff811115610b4657610b45611718565b5b604051908082528060200260200182016040528015610b7f57816020015b610b6c611174565b815260200190600190039081610b645790505b50905060005b600380549050811015610ed15760005b600480549050811015610ebd57856002600060038581548110610bbb57610bba611ada565b5b9060005260206000200160009054906101000a900473ffffffffffffffffffffffffffffffffffffffff1673ffffffffffffffffffffffffffffffffffffffff1673ffffffffffffffffffffffffffffffffffffffff168152602001908152602001600020600060048481548110610c3657610c35611ada565b5b906000526020600020015481526020019081526020016000206000015403610eaa576000604051806060016040528060048481548110610c7957610c78611ada565b5b906000526020600020015481526020016002600060038781548110610ca157610ca0611ada565b5b9060005260206000200160009054906101000a900473ffffffffffffffffffffffffffffffffffffffff1673ffffffffffffffffffffffffffffffffffffffff1673ffffffffffffffffffffffffffffffffffffffff168152602001908152602001600020600060048681548110610d1c57610d1b611ada565b5b906000526020600020015481526020019081526020016000206001018054610d439061193a565b80601f0160208091040260200160405190810160405280929190818152602001828054610d6f9061193a565b8015610dbc5780601f10610d9157610100808354040283529160200191610dbc565b820191906000526020600020905b815481529060010190602001808311610d9f57829003601f168201915b505050505081526020016002600060038781548110610dde57610ddd611ada565b5b9060005260206000200160009054906101000a900473ffffffffffffffffffffffffffffffffffffffff1673ffffffffffffffffffffffffffffffffffffffff1673ffffffffffffffffffffffffffffffffffffffff168152602001908152602001600020600060048681548110610e5957610e58611ada565b5b9060005260206000200154815260200190815260200160002060020154815250905080848681518110610e8f57610e8e611ada565b5b60200260200101819052508480610ea590611b09565b955050505b8080610eb590611b09565b915050610b95565b508080610ec990611b09565b915050610b85565b508092505050919050565b6003339080600181540180825580915050600190039060005260206000200160009091909190916101000a81548173ffffffffffffffffffffffffffffffffffffffff021916908373ffffffffffffffffffffffffffffffffffffffff1602179055506004849080600181540180825580915050600190039060005260206000200160009091909190915055604051806080016040528084815260200183815260200182815260200160011515815250600260003373ffffffffffffffffffffffffffffffffffffffff1673ffffffffffffffffffffffffffffffffffffffff1681526020019081526020016000206000868152602001908152602001600020600082015181600001556020820151816001019081610ffb9190611cfd565b506040820151816002015560608201518160030160006101000a81548160ff02191690831515021790555090505050505050565b80600260003373ffffffffffffffffffffffffffffffffffffffff1673ffffffffffffffffffffffffffffffffffffffff16815260200190815260200160002060008481526020019081526020016000206002015461108e9190611aa6565b600260003373ffffffffffffffffffffffffffffffffffffffff1673ffffffffffffffffffffffffffffffffffffffff1681526020019081526020016000206000848152602001908152602001600020600201819055505050565b600381815481106110f957600080fd5b906000526020600020016000915054906101000a900473ffffffffffffffffffffffffffffffffffffffff1681565b6004818154811061113857600080fd5b906000526020600020016000915090505481565b6040518060800160405280600081526020016000815260200160608152602001600081525090565b60405180606001604052806000815260200160608152602001600081525090565b6000604051905090565b600080fd5b600080fd5b6000819050919050565b6111bc816111a9565b81146111c757600080fd5b50565b6000813590506111d9816111b3565b92915050565b6000602082840312156111f5576111f461119f565b5b6000611203848285016111ca565b91505092915050565b611215816111a9565b82525050565b600081519050919050565b600082825260208201905092915050565b60005b8381101561125557808201518184015260208101905061123a565b60008484015250505050565b6000601f19601f8301169050919050565b600061127d8261121b565b6112878185611226565b9350611297818560208601611237565b6112a081611261565b840191505092915050565b60006080820190506112c0600083018761120c565b6112cd602083018661120c565b81810360408301526112df8185611272565b90506112ee606083018461120c565b95945050505050565b600073ffffffffffffffffffffffffffffffffffffffff82169050919050565b6000611322826112f7565b9050919050565b61133281611317565b811461133d57600080fd5b50565b60008135905061134f81611329565b92915050565b6000806000806080858703121561136f5761136e61119f565b5b600061137d878288016111ca565b945050602061138e878288016111ca565b935050604061139f87828801611340565b92505060606113b0878288016111ca565b91505092959194509250565b600080604083850312156113d3576113d261119f565b5b60006113e1858286016111ca565b92505060206113f2858286016111ca565b9150509250929050565b600081519050919050565b600082825260208201905092915050565b6000819050602082019050919050565b611431816111a9565b82525050565b600082825260208201905092915050565b60006114538261121b565b61145d8185611437565b935061146d818560208601611237565b61147681611261565b840191505092915050565b60006080830160008301516114996000860182611428565b5060208301516114ac6020860182611428565b50604083015184820360408601526114c48282611448565b91505060608301516114d96060860182611428565b508091505092915050565b60006114f08383611481565b905092915050565b6000602082019050919050565b6000611510826113fc565b61151a8185611407565b93508360208202850161152c85611418565b8060005b85811015611568578484038952815161154985826114e4565b9450611554836114f8565b925060208a01995050600181019050611530565b50829750879550505050505092915050565b600060208201905081810360008301526115948184611505565b905092915050565b60006060820190506115b1600083018661120c565b81810360208301526115c38185611272565b90506115d2604083018461120c565b949350505050565b600081519050919050565b600082825260208201905092915050565b6000819050602082019050919050565b600060608301600083015161161e6000860182611428565b50602083015184820360208601526116368282611448565b915050604083015161164b6040860182611428565b508091505092915050565b60006116628383611606565b905092915050565b6000602082019050919050565b6000611682826115da565b61168c81856115e5565b93508360208202850161169e856115f6565b8060005b858110156116da57848403895281516116bb8582611656565b94506116c68361166a565b925060208a019950506001810190506116a2565b50829750879550505050505092915050565b600060208201905081810360008301526117068184611677565b905092915050565b600080fd5b600080fd5b7f4e487b7100000000000000000000000000000000000000000000000000000000600052604160045260246000fd5b61175082611261565b810181811067ffffffffffffffff8211171561176f5761176e611718565b5b80604052505050565b6000611782611195565b905061178e8282611747565b919050565b600067ffffffffffffffff8211156117ae576117ad611718565b5b6117b782611261565b9050602081019050919050565b82818337600083830152505050565b60006117e66117e184611793565b611778565b90508281526020810184848401111561180257611801611713565b5b61180d8482856117c4565b509392505050565b600082601f83011261182a5761182961170e565b5b813561183a8482602086016117d3565b91505092915050565b6000806000806080858703121561185d5761185c61119f565b5b600061186b878288016111ca565b945050602061187c878288016111ca565b935050604085013567ffffffffffffffff81111561189d5761189c6111a4565b5b6118a987828801611815565b92505060606118ba878288016111ca565b91505092959194509250565b6118cf81611317565b82525050565b60006020820190506118ea60008301846118c6565b92915050565b6000602082019050611905600083018461120c565b92915050565b7f4e487b7100000000000000000000000000000000000000000000000000000000600052602260045260246000fd5b6000600282049050600182168061195257607f821691505b6020821081036119655761196461190b565b5b50919050565b7f496e73756666696369656e742042616c616e6365000000000000000000000000600082015250565b60006119a1601483611226565b91506119ac8261196b565b602082019050919050565b600060208201905081810360008301526119d081611994565b9050919050565b7f496e636f7272656374204163636f756e74204e756d6265720000000000000000600082015250565b6000611a0d601883611226565b9150611a18826119d7565b602082019050919050565b60006020820190508181036000830152611a3c81611a00565b9050919050565b7f4e487b7100000000000000000000000000000000000000000000000000000000600052601160045260246000fd5b6000611a7d826111a9565b9150611a88836111a9565b9250828203905081811115611aa057611a9f611a43565b5b92915050565b6000611ab1826111a9565b9150611abc836111a9565b9250828201905080821115611ad457611ad3611a43565b5b92915050565b7f4e487b7100000000000000000000000000000000000000000000000000000000600052603260045260246000fd5b6000611b14826111a9565b91507fffffffffffffffffffffffffffffffffffffffffffffffffffffffffffffffff8203611b4657611b45611a43565b5b600182019050919050565b60008190508160005260206000209050919050565b60006020601f8301049050919050565b600082821b905092915050565b600060088302611bb37fffffffffffffffffffffffffffffffffffffffffffffffffffffffffffffffff82611b76565b611bbd8683611b76565b95508019841693508086168417925050509392505050565b6000819050919050565b6000611bfa611bf5611bf0846111a9565b611bd5565b6111a9565b9050919050565b6000819050919050565b611c1483611bdf565b611c28611c2082611c01565b848454611b83565b825550505050565b600090565b611c3d611c30565b611c48818484611c0b565b505050565b5b81811015611c6c57611c61600082611c35565b600181019050611c4e565b5050565b601f821115611cb157611c8281611b51565b611c8b84611b66565b81016020851015611c9a578190505b611cae611ca685611b66565b830182611c4d565b50505b505050565b600082821c905092915050565b6000611cd460001984600802611cb6565b1980831691505092915050565b6000611ced8383611cc3565b9150826002028217905092915050565b611d068261121b565b67ffffffffffffffff811115611d1f57611d1e611718565b5b611d29825461193a565b611d34828285611c70565b600060209050601f831160018114611d675760008415611d55578287015190505b611d5f8582611ce1565b865550611dc7565b601f198416611d7586611b51565b60005b82811015611d9d57848901518255600182019150602085019450602081019050611d78565b86831015611dba5784890151611db6601f891682611cc3565b8355505b6001600288020188555050505b50505050505056fea2646970667358221220ce94b030f01b2355c5d14fba740f345363bfbe3bcdbd850788ef529b188d595a64736f6c63430008100033",
          "opcodes": "PUSH1 0x80 PUSH1 0x40 MSTORE CALLVALUE DUP1 ISZERO PUSH2 0x10 JUMPI PUSH1 0x0 DUP1 REVERT JUMPDEST POP PUSH2 0x1E05 DUP1 PUSH2 0x20 PUSH1 0x0 CODECOPY PUSH1 0x0 RETURN INVALID PUSH1 0x80 PUSH1 0x40 MSTORE CALLVALUE DUP1 ISZERO PUSH2 0x10 JUMPI PUSH1 0x0 DUP1 REVERT JUMPDEST POP PUSH1 0x4 CALLDATASIZE LT PUSH2 0x9E JUMPI PUSH1 0x0 CALLDATALOAD PUSH1 0xE0 SHR DUP1 PUSH4 0xB26EA798 GT PUSH2 0x66 JUMPI DUP1 PUSH4 0xB26EA798 EQ PUSH2 0x15E JUMPI DUP1 PUSH4 0xC8CB55AE EQ PUSH2 0x18E JUMPI DUP1 PUSH4 0xE2BBB158 EQ PUSH2 0x1AA JUMPI DUP1 PUSH4 0xEDF26D9B EQ PUSH2 0x1C6 JUMPI DUP1 PUSH4 0xF2A40DB8 EQ PUSH2 0x1F6 JUMPI PUSH2 0x9E JUMP JUMPDEST DUP1 PUSH4 0x78C9ED3 EQ PUSH2 0xA3 JUMPI DUP1 PUSH4 0x15F1D66D EQ PUSH2 0xD6 JUMPI DUP1 PUSH4 0x441A3E70 EQ PUSH2 0xF2 JUMPI DUP1 PUSH4 0x4C7A4ED0 EQ PUSH2 0x10E JUMPI DUP1 PUSH4 0xB0FB25CC EQ PUSH2 0x12C JUMPI JUMPDEST PUSH1 0x0 DUP1 REVERT JUMPDEST PUSH2 0xBD PUSH1 0x4 DUP1 CALLDATASIZE SUB DUP2 ADD SWAP1 PUSH2 0xB8 SWAP2 SWAP1 PUSH2 0x11DF JUMP JUMPDEST PUSH2 0x226 JUMP JUMPDEST PUSH1 0x40 MLOAD PUSH2 0xCD SWAP5 SWAP4 SWAP3 SWAP2 SWAP1 PUSH2 0x12AB JUMP JUMPDEST PUSH1 0x40 MLOAD DUP1 SWAP2 SUB SWAP1 RETURN JUMPDEST PUSH2 0xF0 PUSH1 0x4 DUP1 CALLDATASIZE SUB DUP2 ADD SWAP1 PUSH2 0xEB SWAP2 SWAP1 PUSH2 0x1355 JUMP JUMPDEST PUSH2 0x2EE JUMP JUMPDEST STOP JUMPDEST PUSH2 0x10C PUSH1 0x4 DUP1 CALLDATASIZE SUB DUP2 ADD SWAP1 PUSH2 0x107 SWAP2 SWAP1 PUSH2 0x13BC JUMP JUMPDEST PUSH2 0x5A5 JUMP JUMPDEST STOP JUMPDEST PUSH2 0x116 PUSH2 0x6F9 JUMP JUMPDEST PUSH1 0x40 MLOAD PUSH2 0x123 SWAP2 SWAP1 PUSH2 0x157A JUMP JUMPDEST PUSH1 0x40 MLOAD DUP1 SWAP2 SUB SWAP1 RETURN JUMPDEST PUSH2 0x146 PUSH1 0x4 DUP1 CALLDATASIZE SUB DUP2 ADD SWAP1 PUSH2 0x141 SWAP2 SWAP1 PUSH2 0x11DF JUMP JUMPDEST PUSH2 0xA60 JUMP JUMPDEST PUSH1 0x40 MLOAD PUSH2 0x155 SWAP4 SWAP3 SWAP2 SWAP1 PUSH2 0x159C JUMP JUMPDEST PUSH1 0x40 MLOAD DUP1 SWAP2 SUB SWAP1 RETURN JUMPDEST PUSH2 0x178 PUSH1 0x4 DUP1 CALLDATASIZE SUB DUP2 ADD SWAP1 PUSH2 0x173 SWAP2 SWAP1 PUSH2 0x11DF JUMP JUMPDEST PUSH2 0xB22 JUMP JUMPDEST PUSH1 0x40 MLOAD PUSH2 0x185 SWAP2 SWAP1 PUSH2 0x16EC JUMP JUMPDEST PUSH1 0x40 MLOAD DUP1 SWAP2 SUB SWAP1 RETURN JUMPDEST PUSH2 0x1A8 PUSH1 0x4 DUP1 CALLDATASIZE SUB DUP2 ADD SWAP1 PUSH2 0x1A3 SWAP2 SWAP1 PUSH2 0x1843 JUMP JUMPDEST PUSH2 0xEDC JUMP JUMPDEST STOP JUMPDEST PUSH2 0x1C4 PUSH1 0x4 DUP1 CALLDATASIZE SUB DUP2 ADD SWAP1 PUSH2 0x1BF SWAP2 SWAP1 PUSH2 0x13BC JUMP JUMPDEST PUSH2 0x102F JUMP JUMPDEST STOP JUMPDEST PUSH2 0x1E0 PUSH1 0x4 DUP1 CALLDATASIZE SUB DUP2 ADD SWAP1 PUSH2 0x1DB SWAP2 SWAP1 PUSH2 0x11DF JUMP JUMPDEST PUSH2 0x10E9 JUMP JUMPDEST PUSH1 0x40 MLOAD PUSH2 0x1ED SWAP2 SWAP1 PUSH2 0x18D5 JUMP JUMPDEST PUSH1 0x40 MLOAD DUP1 SWAP2 SUB SWAP1 RETURN JUMPDEST PUSH2 0x210 PUSH1 0x4 DUP1 CALLDATASIZE SUB DUP2 ADD SWAP1 PUSH2 0x20B SWAP2 SWAP1 PUSH2 0x11DF JUMP JUMPDEST PUSH2 0x1128 JUMP JUMPDEST PUSH1 0x40 MLOAD PUSH2 0x21D SWAP2 SWAP1 PUSH2 0x18F0 JUMP JUMPDEST PUSH1 0x40 MLOAD DUP1 SWAP2 SUB SWAP1 RETURN JUMPDEST PUSH1 0x0 DUP2 DUP2 SLOAD DUP2 LT PUSH2 0x236 JUMPI PUSH1 0x0 DUP1 REVERT JUMPDEST SWAP1 PUSH1 0x0 MSTORE PUSH1 0x20 PUSH1 0x0 KECCAK256 SWAP1 PUSH1 0x4 MUL ADD PUSH1 0x0 SWAP2 POP SWAP1 POP DUP1 PUSH1 0x0 ADD SLOAD SWAP1 DUP1 PUSH1 0x1 ADD SLOAD SWAP1 DUP1 PUSH1 0x2 ADD DUP1 SLOAD PUSH2 0x265 SWAP1 PUSH2 0x193A JUMP JUMPDEST DUP1 PUSH1 0x1F ADD PUSH1 0x20 DUP1 SWAP2 DIV MUL PUSH1 0x20 ADD PUSH1 0x40 MLOAD SWAP1 DUP2 ADD PUSH1 0x40 MSTORE DUP1 SWAP3 SWAP2 SWAP1 DUP2 DUP2 MSTORE PUSH1 0x20 ADD DUP3 DUP1 SLOAD PUSH2 0x291 SWAP1 PUSH2 0x193A JUMP JUMPDEST DUP1 ISZERO PUSH2 0x2DE JUMPI DUP1 PUSH1 0x1F LT PUSH2 0x2B3 JUMPI PUSH2 0x100 DUP1 DUP4 SLOAD DIV MUL DUP4 MSTORE SWAP2 PUSH1 0x20 ADD SWAP2 PUSH2 0x2DE JUMP JUMPDEST DUP3 ADD SWAP2 SWAP1 PUSH1 0x0 MSTORE PUSH1 0x20 PUSH1 0x0 KECCAK256 SWAP1 JUMPDEST DUP2 SLOAD DUP2 MSTORE SWAP1 PUSH1 0x1 ADD SWAP1 PUSH1 0x20 ADD DUP1 DUP4 GT PUSH2 0x2C1 JUMPI DUP3 SWAP1 SUB PUSH1 0x1F AND DUP3 ADD SWAP2 JUMPDEST POP POP POP POP POP SWAP1 DUP1 PUSH1 0x3 ADD SLOAD SWAP1 POP DUP5 JUMP JUMPDEST DUP4 DUP2 DUP1 PUSH1 0x2 PUSH1 0x0 CALLER PUSH20 0xFFFFFFFFFFFFFFFFFFFFFFFFFFFFFFFFFFFFFFFF AND PUSH20 0xFFFFFFFFFFFFFFFFFFFFFFFFFFFFFFFFFFFFFFFF AND DUP2 MSTORE PUSH1 0x20 ADD SWAP1 DUP2 MSTORE PUSH1 0x20 ADD PUSH1 0x0 KECCAK256 PUSH1 0x0 DUP5 DUP2 MSTORE PUSH1 0x20 ADD SWAP1 DUP2 MSTORE PUSH1 0x20 ADD PUSH1 0x0 KECCAK256 PUSH1 0x2 ADD SLOAD LT ISZERO PUSH2 0x386 JUMPI PUSH1 0x40 MLOAD PUSH32 0x8C379A000000000000000000000000000000000000000000000000000000000 DUP2 MSTORE PUSH1 0x4 ADD PUSH2 0x37D SWAP1 PUSH2 0x19B7 JUMP JUMPDEST PUSH1 0x40 MLOAD DUP1 SWAP2 SUB SWAP1 REVERT JUMPDEST DUP4 DUP6 PUSH1 0x1 ISZERO ISZERO PUSH1 0x2 PUSH1 0x0 DUP5 PUSH20 0xFFFFFFFFFFFFFFFFFFFFFFFFFFFFFFFFFFFFFFFF AND PUSH20 0xFFFFFFFFFFFFFFFFFFFFFFFFFFFFFFFFFFFFFFFF AND DUP2 MSTORE PUSH1 0x20 ADD SWAP1 DUP2 MSTORE PUSH1 0x20 ADD PUSH1 0x0 KECCAK256 PUSH1 0x0 DUP4 DUP2 MSTORE PUSH1 0x20 ADD SWAP1 DUP2 MSTORE PUSH1 0x20 ADD PUSH1 0x0 KECCAK256 PUSH1 0x3 ADD PUSH1 0x0 SWAP1 SLOAD SWAP1 PUSH2 0x100 EXP SWAP1 DIV PUSH1 0xFF AND ISZERO ISZERO EQ PUSH2 0x42F JUMPI PUSH1 0x40 MLOAD PUSH32 0x8C379A000000000000000000000000000000000000000000000000000000000 DUP2 MSTORE PUSH1 0x4 ADD PUSH2 0x426 SWAP1 PUSH2 0x1A23 JUMP JUMPDEST PUSH1 0x40 MLOAD DUP1 SWAP2 SUB SWAP1 REVERT JUMPDEST DUP5 PUSH1 0x2 PUSH1 0x0 CALLER PUSH20 0xFFFFFFFFFFFFFFFFFFFFFFFFFFFFFFFFFFFFFFFF AND PUSH20 0xFFFFFFFFFFFFFFFFFFFFFFFFFFFFFFFFFFFFFFFF AND DUP2 MSTORE PUSH1 0x20 ADD SWAP1 DUP2 MSTORE PUSH1 0x20 ADD PUSH1 0x0 KECCAK256 PUSH1 0x0 DUP11 DUP2 MSTORE PUSH1 0x20 ADD SWAP1 DUP2 MSTORE PUSH1 0x20 ADD PUSH1 0x0 KECCAK256 PUSH1 0x2 ADD SLOAD PUSH2 0x48E SWAP2 SWAP1 PUSH2 0x1A72 JUMP JUMPDEST PUSH1 0x2 PUSH1 0x0 CALLER PUSH20 0xFFFFFFFFFFFFFFFFFFFFFFFFFFFFFFFFFFFFFFFF AND PUSH20 0xFFFFFFFFFFFFFFFFFFFFFFFFFFFFFFFFFFFFFFFF AND DUP2 MSTORE PUSH1 0x20 ADD SWAP1 DUP2 MSTORE PUSH1 0x20 ADD PUSH1 0x0 KECCAK256 PUSH1 0x0 DUP11 DUP2 MSTORE PUSH1 0x20 ADD SWAP1 DUP2 MSTORE PUSH1 0x20 ADD PUSH1 0x0 KECCAK256 PUSH1 0x2 ADD DUP2 SWAP1 SSTORE POP DUP5 PUSH1 0x2 PUSH1 0x0 DUP9 PUSH20 0xFFFFFFFFFFFFFFFFFFFFFFFFFFFFFFFFFFFFFFFF AND PUSH20 0xFFFFFFFFFFFFFFFFFFFFFFFFFFFFFFFFFFFFFFFF AND DUP2 MSTORE PUSH1 0x20 ADD SWAP1 DUP2 MSTORE PUSH1 0x20 ADD PUSH1 0x0 KECCAK256 PUSH1 0x0 DUP10 DUP2 MSTORE PUSH1 0x20 ADD SWAP1 DUP2 MSTORE PUSH1 0x20 ADD PUSH1 0x0 KECCAK256 PUSH1 0x2 ADD SLOAD PUSH2 0x544 SWAP2 SWAP1 PUSH2 0x1AA6 JUMP JUMPDEST PUSH1 0x2 PUSH1 0x0 DUP9 PUSH20 0xFFFFFFFFFFFFFFFFFFFFFFFFFFFFFFFFFFFFFFFF AND PUSH20 0xFFFFFFFFFFFFFFFFFFFFFFFFFFFFFFFFFFFFFFFF AND DUP2 MSTORE PUSH1 0x20 ADD SWAP1 DUP2 MSTORE PUSH1 0x20 ADD PUSH1 0x0 KECCAK256 PUSH1 0x0 DUP10 DUP2 MSTORE PUSH1 0x20 ADD SWAP1 DUP2 MSTORE PUSH1 0x20 ADD PUSH1 0x0 KECCAK256 PUSH1 0x2 ADD DUP2 SWAP1 SSTORE POP POP POP POP POP POP POP POP POP JUMP JUMPDEST DUP2 DUP2 DUP1 PUSH1 0x2 PUSH1 0x0 CALLER PUSH20 0xFFFFFFFFFFFFFFFFFFFFFFFFFFFFFFFFFFFFFFFF AND PUSH20 0xFFFFFFFFFFFFFFFFFFFFFFFFFFFFFFFFFFFFFFFF AND DUP2 MSTORE PUSH1 0x20 ADD SWAP1 DUP2 MSTORE PUSH1 0x20 ADD PUSH1 0x0 KECCAK256 PUSH1 0x0 DUP5 DUP2 MSTORE PUSH1 0x20 ADD SWAP1 DUP2 MSTORE PUSH1 0x20 ADD PUSH1 0x0 KECCAK256 PUSH1 0x2 ADD SLOAD LT ISZERO PUSH2 0x63D JUMPI PUSH1 0x40 MLOAD PUSH32 0x8C379A000000000000000000000000000000000000000000000000000000000 DUP2 MSTORE PUSH1 0x4 ADD PUSH2 0x634 SWAP1 PUSH2 0x19B7 JUMP JUMPDEST PUSH1 0x40 MLOAD DUP1 SWAP2 SUB SWAP1 REVERT JUMPDEST DUP3 PUSH1 0x2 PUSH1 0x0 CALLER PUSH20 0xFFFFFFFFFFFFFFFFFFFFFFFFFFFFFFFFFFFFFFFF AND PUSH20 0xFFFFFFFFFFFFFFFFFFFFFFFFFFFFFFFFFFFFFFFF AND DUP2 MSTORE PUSH1 0x20 ADD SWAP1 DUP2 MSTORE PUSH1 0x20 ADD PUSH1 0x0 KECCAK256 PUSH1 0x0 DUP7 DUP2 MSTORE PUSH1 0x20 ADD SWAP1 DUP2 MSTORE PUSH1 0x20 ADD PUSH1 0x0 KECCAK256 PUSH1 0x2 ADD SLOAD PUSH2 0x69C SWAP2 SWAP1 PUSH2 0x1A72 JUMP JUMPDEST PUSH1 0x2 PUSH1 0x0 CALLER PUSH20 0xFFFFFFFFFFFFFFFFFFFFFFFFFFFFFFFFFFFFFFFF AND PUSH20 0xFFFFFFFFFFFFFFFFFFFFFFFFFFFFFFFFFFFFFFFF AND DUP2 MSTORE PUSH1 0x20 ADD SWAP1 DUP2 MSTORE PUSH1 0x20 ADD PUSH1 0x0 KECCAK256 PUSH1 0x0 DUP7 DUP2 MSTORE PUSH1 0x20 ADD SWAP1 DUP2 MSTORE PUSH1 0x20 ADD PUSH1 0x0 KECCAK256 PUSH1 0x2 ADD DUP2 SWAP1 SSTORE POP POP POP POP POP JUMP JUMPDEST PUSH1 0x60 PUSH1 0x0 PUSH1 0x4 DUP1 SLOAD SWAP1 POP PUSH8 0xFFFFFFFFFFFFFFFF DUP2 GT ISZERO PUSH2 0x71C JUMPI PUSH2 0x71B PUSH2 0x1718 JUMP JUMPDEST JUMPDEST PUSH1 0x40 MLOAD SWAP1 DUP1 DUP3 MSTORE DUP1 PUSH1 0x20 MUL PUSH1 0x20 ADD DUP3 ADD PUSH1 0x40 MSTORE DUP1 ISZERO PUSH2 0x755 JUMPI DUP2 PUSH1 0x20 ADD JUMPDEST PUSH2 0x742 PUSH2 0x114C JUMP JUMPDEST DUP2 MSTORE PUSH1 0x20 ADD SWAP1 PUSH1 0x1 SWAP1 SUB SWAP1 DUP2 PUSH2 0x73A JUMPI SWAP1 POP JUMPDEST POP SWAP1 POP PUSH1 0x0 DUP1 PUSH1 0x0 SWAP1 POP JUMPDEST PUSH1 0x4 DUP1 SLOAD SWAP1 POP DUP2 LT ISZERO PUSH2 0xA57 JUMPI PUSH1 0x1 ISZERO ISZERO PUSH1 0x2 PUSH1 0x0 CALLER PUSH20 0xFFFFFFFFFFFFFFFFFFFFFFFFFFFFFFFFFFFFFFFF AND PUSH20 0xFFFFFFFFFFFFFFFFFFFFFFFFFFFFFFFFFFFFFFFF AND DUP2 MSTORE PUSH1 0x20 ADD SWAP1 DUP2 MSTORE PUSH1 0x20 ADD PUSH1 0x0 KECCAK256 PUSH1 0x0 PUSH1 0x4 DUP5 DUP2 SLOAD DUP2 LT PUSH2 0x7C6 JUMPI PUSH2 0x7C5 PUSH2 0x1ADA JUMP JUMPDEST JUMPDEST SWAP1 PUSH1 0x0 MSTORE PUSH1 0x20 PUSH1 0x0 KECCAK256 ADD SLOAD DUP2 MSTORE PUSH1 0x20 ADD SWAP1 DUP2 MSTORE PUSH1 0x20 ADD PUSH1 0x0 KECCAK256 PUSH1 0x3 ADD PUSH1 0x0 SWAP1 SLOAD SWAP1 PUSH2 0x100 EXP SWAP1 DIV PUSH1 0xFF AND ISZERO ISZERO SUB PUSH2 0xA44 JUMPI PUSH1 0x0 PUSH1 0x40 MLOAD DUP1 PUSH1 0x80 ADD PUSH1 0x40 MSTORE DUP1 PUSH1 0x4 DUP5 DUP2 SLOAD DUP2 LT PUSH2 0x818 JUMPI PUSH2 0x817 PUSH2 0x1ADA JUMP JUMPDEST JUMPDEST SWAP1 PUSH1 0x0 MSTORE PUSH1 0x20 PUSH1 0x0 KECCAK256 ADD SLOAD DUP2 MSTORE PUSH1 0x20 ADD PUSH1 0x2 PUSH1 0x0 CALLER PUSH20 0xFFFFFFFFFFFFFFFFFFFFFFFFFFFFFFFFFFFFFFFF AND PUSH20 0xFFFFFFFFFFFFFFFFFFFFFFFFFFFFFFFFFFFFFFFF AND DUP2 MSTORE PUSH1 0x20 ADD SWAP1 DUP2 MSTORE PUSH1 0x20 ADD PUSH1 0x0 KECCAK256 PUSH1 0x0 PUSH1 0x4 DUP7 DUP2 SLOAD DUP2 LT PUSH2 0x87D JUMPI PUSH2 0x87C PUSH2 0x1ADA JUMP JUMPDEST JUMPDEST SWAP1 PUSH1 0x0 MSTORE PUSH1 0x20 PUSH1 0x0 KECCAK256 ADD SLOAD DUP2 MSTORE PUSH1 0x20 ADD SWAP1 DUP2 MSTORE PUSH1 0x20 ADD PUSH1 0x0 KECCAK256 PUSH1 0x0 ADD SLOAD DUP2 MSTORE PUSH1 0x20 ADD PUSH1 0x2 PUSH1 0x0 CALLER PUSH20 0xFFFFFFFFFFFFFFFFFFFFFFFFFFFFFFFFFFFFFFFF AND PUSH20 0xFFFFFFFFFFFFFFFFFFFFFFFFFFFFFFFFFFFFFFFF AND DUP2 MSTORE PUSH1 0x20 ADD SWAP1 DUP2 MSTORE PUSH1 0x20 ADD PUSH1 0x0 KECCAK256 PUSH1 0x0 PUSH1 0x4 DUP7 DUP2 SLOAD DUP2 LT PUSH2 0x8F4 JUMPI PUSH2 0x8F3 PUSH2 0x1ADA JUMP JUMPDEST JUMPDEST SWAP1 PUSH1 0x0 MSTORE PUSH1 0x20 PUSH1 0x0 KECCAK256 ADD SLOAD DUP2 MSTORE PUSH1 0x20 ADD SWAP1 DUP2 MSTORE PUSH1 0x20 ADD PUSH1 0x0 KECCAK256 PUSH1 0x1 ADD DUP1 SLOAD PUSH2 0x91B SWAP1 PUSH2 0x193A JUMP JUMPDEST DUP1 PUSH1 0x1F ADD PUSH1 0x20 DUP1 SWAP2 DIV MUL PUSH1 0x20 ADD PUSH1 0x40 MLOAD SWAP1 DUP2 ADD PUSH1 0x40 MSTORE DUP1 SWAP3 SWAP2 SWAP1 DUP2 DUP2 MSTORE PUSH1 0x20 ADD DUP3 DUP1 SLOAD PUSH2 0x947 SWAP1 PUSH2 0x193A JUMP JUMPDEST DUP1 ISZERO PUSH2 0x994 JUMPI DUP1 PUSH1 0x1F LT PUSH2 0x969 JUMPI PUSH2 0x100 DUP1 DUP4 SLOAD DIV MUL DUP4 MSTORE SWAP2 PUSH1 0x20 ADD SWAP2 PUSH2 0x994 JUMP JUMPDEST DUP3 ADD SWAP2 SWAP1 PUSH1 0x0 MSTORE PUSH1 0x20 PUSH1 0x0 KECCAK256 SWAP1 JUMPDEST DUP2 SLOAD DUP2 MSTORE SWAP1 PUSH1 0x1 ADD SWAP1 PUSH1 0x20 ADD DUP1 DUP4 GT PUSH2 0x977 JUMPI DUP3 SWAP1 SUB PUSH1 0x1F AND DUP3 ADD SWAP2 JUMPDEST POP POP POP POP POP DUP2 MSTORE PUSH1 0x20 ADD PUSH1 0x2 PUSH1 0x0 CALLER PUSH20 0xFFFFFFFFFFFFFFFFFFFFFFFFFFFFFFFFFFFFFFFF AND PUSH20 0xFFFFFFFFFFFFFFFFFFFFFFFFFFFFFFFFFFFFFFFF AND DUP2 MSTORE PUSH1 0x20 ADD SWAP1 DUP2 MSTORE PUSH1 0x20 ADD PUSH1 0x0 KECCAK256 PUSH1 0x0 PUSH1 0x4 DUP7 DUP2 SLOAD DUP2 LT PUSH2 0x9F3 JUMPI PUSH2 0x9F2 PUSH2 0x1ADA JUMP JUMPDEST JUMPDEST SWAP1 PUSH1 0x0 MSTORE PUSH1 0x20 PUSH1 0x0 KECCAK256 ADD SLOAD DUP2 MSTORE PUSH1 0x20 ADD SWAP1 DUP2 MSTORE PUSH1 0x20 ADD PUSH1 0x0 KECCAK256 PUSH1 0x2 ADD SLOAD DUP2 MSTORE POP SWAP1 POP DUP1 DUP5 DUP5 DUP2 MLOAD DUP2 LT PUSH2 0xA29 JUMPI PUSH2 0xA28 PUSH2 0x1ADA JUMP JUMPDEST JUMPDEST PUSH1 0x20 MUL PUSH1 0x20 ADD ADD DUP2 SWAP1 MSTORE POP DUP3 DUP1 PUSH2 0xA3F SWAP1 PUSH2 0x1B09 JUMP JUMPDEST SWAP4 POP POP POP JUMPDEST DUP1 DUP1 PUSH2 0xA4F SWAP1 PUSH2 0x1B09 JUMP JUMPDEST SWAP2 POP POP PUSH2 0x760 JUMP JUMPDEST POP DUP2 SWAP3 POP POP POP SWAP1 JUMP JUMPDEST PUSH1 0x1 DUP2 DUP2 SLOAD DUP2 LT PUSH2 0xA70 JUMPI PUSH1 0x0 DUP1 REVERT JUMPDEST SWAP1 PUSH1 0x0 MSTORE PUSH1 0x20 PUSH1 0x0 KECCAK256 SWAP1 PUSH1 0x3 MUL ADD PUSH1 0x0 SWAP2 POP SWAP1 POP DUP1 PUSH1 0x0 ADD SLOAD SWAP1 DUP1 PUSH1 0x1 ADD DUP1 SLOAD PUSH2 0xA99 SWAP1 PUSH2 0x193A JUMP JUMPDEST DUP1 PUSH1 0x1F ADD PUSH1 0x20 DUP1 SWAP2 DIV MUL PUSH1 0x20 ADD PUSH1 0x40 MLOAD SWAP1 DUP2 ADD PUSH1 0x40 MSTORE DUP1 SWAP3 SWAP2 SWAP1 DUP2 DUP2 MSTORE PUSH1 0x20 ADD DUP3 DUP1 SLOAD PUSH2 0xAC5 SWAP1 PUSH2 0x193A JUMP JUMPDEST DUP1 ISZERO PUSH2 0xB12 JUMPI DUP1 PUSH1 0x1F LT PUSH2 0xAE7 JUMPI PUSH2 0x100 DUP1 DUP4 SLOAD DIV MUL DUP4 MSTORE SWAP2 PUSH1 0x20 ADD SWAP2 PUSH2 0xB12 JUMP JUMPDEST DUP3 ADD SWAP2 SWAP1 PUSH1 0x0 MSTORE PUSH1 0x20 PUSH1 0x0 KECCAK256 SWAP1 JUMPDEST DUP2 SLOAD DUP2 MSTORE SWAP1 PUSH1 0x1 ADD SWAP1 PUSH1 0x20 ADD DUP1 DUP4 GT PUSH2 0xAF5 JUMPI DUP3 SWAP1 SUB PUSH1 0x1F AND DUP3 ADD SWAP2 JUMPDEST POP POP POP POP POP SWAP1 DUP1 PUSH1 0x2 ADD SLOAD SWAP1 POP DUP4 JUMP JUMPDEST PUSH1 0x60 PUSH1 0x0 DUP1 PUSH1 0x4 DUP1 SLOAD SWAP1 POP PUSH8 0xFFFFFFFFFFFFFFFF DUP2 GT ISZERO PUSH2 0xB46 JUMPI PUSH2 0xB45 PUSH2 0x1718 JUMP JUMPDEST JUMPDEST PUSH1 0x40 MLOAD SWAP1 DUP1 DUP3 MSTORE DUP1 PUSH1 0x20 MUL PUSH1 0x20 ADD DUP3 ADD PUSH1 0x40 MSTORE DUP1 ISZERO PUSH2 0xB7F JUMPI DUP2 PUSH1 0x20 ADD JUMPDEST PUSH2 0xB6C PUSH2 0x1174 JUMP JUMPDEST DUP2 MSTORE PUSH1 0x20 ADD SWAP1 PUSH1 0x1 SWAP1 SUB SWAP1 DUP2 PUSH2 0xB64 JUMPI SWAP1 POP JUMPDEST POP SWAP1 POP PUSH1 0x0 JUMPDEST PUSH1 0x3 DUP1 SLOAD SWAP1 POP DUP2 LT ISZERO PUSH2 0xED1 JUMPI PUSH1 0x0 JUMPDEST PUSH1 0x4 DUP1 SLOAD SWAP1 POP DUP2 LT ISZERO PUSH2 0xEBD JUMPI DUP6 PUSH1 0x2 PUSH1 0x0 PUSH1 0x3 DUP6 DUP2 SLOAD DUP2 LT PUSH2 0xBBB JUMPI PUSH2 0xBBA PUSH2 0x1ADA JUMP JUMPDEST JUMPDEST SWAP1 PUSH1 0x0 MSTORE PUSH1 0x20 PUSH1 0x0 KECCAK256 ADD PUSH1 0x0 SWAP1 SLOAD SWAP1 PUSH2 0x100 EXP SWAP1 DIV PUSH20 0xFFFFFFFFFFFFFFFFFFFFFFFFFFFFFFFFFFFFFFFF AND PUSH20 0xFFFFFFFFFFFFFFFFFFFFFFFFFFFFFFFFFFFFFFFF AND PUSH20 0xFFFFFFFFFFFFFFFFFFFFFFFFFFFFFFFFFFFFFFFF AND DUP2 MSTORE PUSH1 0x20 ADD SWAP1 DUP2 MSTORE PUSH1 0x20 ADD PUSH1 0x0 KECCAK256 PUSH1 0x0 PUSH1 0x4 DUP5 DUP2 SLOAD DUP2 LT PUSH2 0xC36 JUMPI PUSH2 0xC35 PUSH2 0x1ADA JUMP JUMPDEST JUMPDEST SWAP1 PUSH1 0x0 MSTORE PUSH1 0x20 PUSH1 0x0 KECCAK256 ADD SLOAD DUP2 MSTORE PUSH1 0x20 ADD SWAP1 DUP2 MSTORE PUSH1 0x20 ADD PUSH1 0x0 KECCAK256 PUSH1 0x0 ADD SLOAD SUB PUSH2 0xEAA JUMPI PUSH1 0x0 PUSH1 0x40 MLOAD DUP1 PUSH1 0x60 ADD PUSH1 0x40 MSTORE DUP1 PUSH1 0x4 DUP5 DUP2 SLOAD DUP2 LT PUSH2 0xC79 JUMPI PUSH2 0xC78 PUSH2 0x1ADA JUMP JUMPDEST JUMPDEST SWAP1 PUSH1 0x0 MSTORE PUSH1 0x20 PUSH1 0x0 KECCAK256 ADD SLOAD DUP2 MSTORE PUSH1 0x20 ADD PUSH1 0x2 PUSH1 0x0 PUSH1 0x3 DUP8 DUP2 SLOAD DUP2 LT PUSH2 0xCA1 JUMPI PUSH2 0xCA0 PUSH2 0x1ADA JUMP JUMPDEST JUMPDEST SWAP1 PUSH1 0x0 MSTORE PUSH1 0x20 PUSH1 0x0 KECCAK256 ADD PUSH1 0x0 SWAP1 SLOAD SWAP1 PUSH2 0x100 EXP SWAP1 DIV PUSH20 0xFFFFFFFFFFFFFFFFFFFFFFFFFFFFFFFFFFFFFFFF AND PUSH20 0xFFFFFFFFFFFFFFFFFFFFFFFFFFFFFFFFFFFFFFFF AND PUSH20 0xFFFFFFFFFFFFFFFFFFFFFFFFFFFFFFFFFFFFFFFF AND DUP2 MSTORE PUSH1 0x20 ADD SWAP1 DUP2 MSTORE PUSH1 0x20 ADD PUSH1 0x0 KECCAK256 PUSH1 0x0 PUSH1 0x4 DUP7 DUP2 SLOAD DUP2 LT PUSH2 0xD1C JUMPI PUSH2 0xD1B PUSH2 0x1ADA JUMP JUMPDEST JUMPDEST SWAP1 PUSH1 0x0 MSTORE PUSH1 0x20 PUSH1 0x0 KECCAK256 ADD SLOAD DUP2 MSTORE PUSH1 0x20 ADD SWAP1 DUP2 MSTORE PUSH1 0x20 ADD PUSH1 0x0 KECCAK256 PUSH1 0x1 ADD DUP1 SLOAD PUSH2 0xD43 SWAP1 PUSH2 0x193A JUMP JUMPDEST DUP1 PUSH1 0x1F ADD PUSH1 0x20 DUP1 SWAP2 DIV MUL PUSH1 0x20 ADD PUSH1 0x40 MLOAD SWAP1 DUP2 ADD PUSH1 0x40 MSTORE DUP1 SWAP3 SWAP2 SWAP1 DUP2 DUP2 MSTORE PUSH1 0x20 ADD DUP3 DUP1 SLOAD PUSH2 0xD6F SWAP1 PUSH2 0x193A JUMP JUMPDEST DUP1 ISZERO PUSH2 0xDBC JUMPI DUP1 PUSH1 0x1F LT PUSH2 0xD91 JUMPI PUSH2 0x100 DUP1 DUP4 SLOAD DIV MUL DUP4 MSTORE SWAP2 PUSH1 0x20 ADD SWAP2 PUSH2 0xDBC JUMP JUMPDEST DUP3 ADD SWAP2 SWAP1 PUSH1 0x0 MSTORE PUSH1 0x20 PUSH1 0x0 KECCAK256 SWAP1 JUMPDEST DUP2 SLOAD DUP2 MSTORE SWAP1 PUSH1 0x1 ADD SWAP1 PUSH1 0x20 ADD DUP1 DUP4 GT PUSH2 0xD9F JUMPI DUP3 SWAP1 SUB PUSH1 0x1F AND DUP3 ADD SWAP2 JUMPDEST POP POP POP POP POP DUP2 MSTORE PUSH1 0x20 ADD PUSH1 0x2 PUSH1 0x0 PUSH1 0x3 DUP8 DUP2 SLOAD DUP2 LT PUSH2 0xDDE JUMPI PUSH2 0xDDD PUSH2 0x1ADA JUMP JUMPDEST JUMPDEST SWAP1 PUSH1 0x0 MSTORE PUSH1 0x20 PUSH1 0x0 KECCAK256 ADD PUSH1 0x0 SWAP1 SLOAD SWAP1 PUSH2 0x100 EXP SWAP1 DIV PUSH20 0xFFFFFFFFFFFFFFFFFFFFFFFFFFFFFFFFFFFFFFFF AND PUSH20 0xFFFFFFFFFFFFFFFFFFFFFFFFFFFFFFFFFFFFFFFF AND PUSH20 0xFFFFFFFFFFFFFFFFFFFFFFFFFFFFFFFFFFFFFFFF AND DUP2 MSTORE PUSH1 0x20 ADD SWAP1 DUP2 MSTORE PUSH1 0x20 ADD PUSH1 0x0 KECCAK256 PUSH1 0x0 PUSH1 0x4 DUP7 DUP2 SLOAD DUP2 LT PUSH2 0xE59 JUMPI PUSH2 0xE58 PUSH2 0x1ADA JUMP JUMPDEST JUMPDEST SWAP1 PUSH1 0x0 MSTORE PUSH1 0x20 PUSH1 0x0 KECCAK256 ADD SLOAD DUP2 MSTORE PUSH1 0x20 ADD SWAP1 DUP2 MSTORE PUSH1 0x20 ADD PUSH1 0x0 KECCAK256 PUSH1 0x2 ADD SLOAD DUP2 MSTORE POP SWAP1 POP DUP1 DUP5 DUP7 DUP2 MLOAD DUP2 LT PUSH2 0xE8F JUMPI PUSH2 0xE8E PUSH2 0x1ADA JUMP JUMPDEST JUMPDEST PUSH1 0x20 MUL PUSH1 0x20 ADD ADD DUP2 SWAP1 MSTORE POP DUP5 DUP1 PUSH2 0xEA5 SWAP1 PUSH2 0x1B09 JUMP JUMPDEST SWAP6 POP POP POP JUMPDEST DUP1 DUP1 PUSH2 0xEB5 SWAP1 PUSH2 0x1B09 JUMP JUMPDEST SWAP2 POP POP PUSH2 0xB95 JUMP JUMPDEST POP DUP1 DUP1 PUSH2 0xEC9 SWAP1 PUSH2 0x1B09 JUMP JUMPDEST SWAP2 POP POP PUSH2 0xB85 JUMP JUMPDEST POP DUP1 SWAP3 POP POP POP SWAP2 SWAP1 POP JUMP JUMPDEST PUSH1 0x3 CALLER SWAP1 DUP1 PUSH1 0x1 DUP2 SLOAD ADD DUP1 DUP3 SSTORE DUP1 SWAP2 POP POP PUSH1 0x1 SWAP1 SUB SWAP1 PUSH1 0x0 MSTORE PUSH1 0x20 PUSH1 0x0 KECCAK256 ADD PUSH1 0x0 SWAP1 SWAP2 SWAP1 SWAP2 SWAP1 SWAP2 PUSH2 0x100 EXP DUP2 SLOAD DUP2 PUSH20 0xFFFFFFFFFFFFFFFFFFFFFFFFFFFFFFFFFFFFFFFF MUL NOT AND SWAP1 DUP4 PUSH20 0xFFFFFFFFFFFFFFFFFFFFFFFFFFFFFFFFFFFFFFFF AND MUL OR SWAP1 SSTORE POP PUSH1 0x4 DUP5 SWAP1 DUP1 PUSH1 0x1 DUP2 SLOAD ADD DUP1 DUP3 SSTORE DUP1 SWAP2 POP POP PUSH1 0x1 SWAP1 SUB SWAP1 PUSH1 0x0 MSTORE PUSH1 0x20 PUSH1 0x0 KECCAK256 ADD PUSH1 0x0 SWAP1 SWAP2 SWAP1 SWAP2 SWAP1 SWAP2 POP SSTORE PUSH1 0x40 MLOAD DUP1 PUSH1 0x80 ADD PUSH1 0x40 MSTORE DUP1 DUP5 DUP2 MSTORE PUSH1 0x20 ADD DUP4 DUP2 MSTORE PUSH1 0x20 ADD DUP3 DUP2 MSTORE PUSH1 0x20 ADD PUSH1 0x1 ISZERO ISZERO DUP2 MSTORE POP PUSH1 0x2 PUSH1 0x0 CALLER PUSH20 0xFFFFFFFFFFFFFFFFFFFFFFFFFFFFFFFFFFFFFFFF AND PUSH20 0xFFFFFFFFFFFFFFFFFFFFFFFFFFFFFFFFFFFFFFFF AND DUP2 MSTORE PUSH1 0x20 ADD SWAP1 DUP2 MSTORE PUSH1 0x20 ADD PUSH1 0x0 KECCAK256 PUSH1 0x0 DUP7 DUP2 MSTORE PUSH1 0x20 ADD SWAP1 DUP2 MSTORE PUSH1 0x20 ADD PUSH1 0x0 KECCAK256 PUSH1 0x0 DUP3 ADD MLOAD DUP2 PUSH1 0x0 ADD SSTORE PUSH1 0x20 DUP3 ADD MLOAD DUP2 PUSH1 0x1 ADD SWAP1 DUP2 PUSH2 0xFFB SWAP2 SWAP1 PUSH2 0x1CFD JUMP JUMPDEST POP PUSH1 0x40 DUP3 ADD MLOAD DUP2 PUSH1 0x2 ADD SSTORE PUSH1 0x60 DUP3 ADD MLOAD DUP2 PUSH1 0x3 ADD PUSH1 0x0 PUSH2 0x100 EXP DUP2 SLOAD DUP2 PUSH1 0xFF MUL NOT AND SWAP1 DUP4 ISZERO ISZERO MUL OR SWAP1 SSTORE POP SWAP1 POP POP POP POP POP POP JUMP JUMPDEST DUP1 PUSH1 0x2 PUSH1 0x0 CALLER PUSH20 0xFFFFFFFFFFFFFFFFFFFFFFFFFFFFFFFFFFFFFFFF AND PUSH20 0xFFFFFFFFFFFFFFFFFFFFFFFFFFFFFFFFFFFFFFFF AND DUP2 MSTORE PUSH1 0x20 ADD SWAP1 DUP2 MSTORE PUSH1 0x20 ADD PUSH1 0x0 KECCAK256 PUSH1 0x0 DUP5 DUP2 MSTORE PUSH1 0x20 ADD SWAP1 DUP2 MSTORE PUSH1 0x20 ADD PUSH1 0x0 KECCAK256 PUSH1 0x2 ADD SLOAD PUSH2 0x108E SWAP2 SWAP1 PUSH2 0x1AA6 JUMP JUMPDEST PUSH1 0x2 PUSH1 0x0 CALLER PUSH20 0xFFFFFFFFFFFFFFFFFFFFFFFFFFFFFFFFFFFFFFFF AND PUSH20 0xFFFFFFFFFFFFFFFFFFFFFFFFFFFFFFFFFFFFFFFF AND DUP2 MSTORE PUSH1 0x20 ADD SWAP1 DUP2 MSTORE PUSH1 0x20 ADD PUSH1 0x0 KECCAK256 PUSH1 0x0 DUP5 DUP2 MSTORE PUSH1 0x20 ADD SWAP1 DUP2 MSTORE PUSH1 0x20 ADD PUSH1 0x0 KECCAK256 PUSH1 0x2 ADD DUP2 SWAP1 SSTORE POP POP POP JUMP JUMPDEST PUSH1 0x3 DUP2 DUP2 SLOAD DUP2 LT PUSH2 0x10F9 JUMPI PUSH1 0x0 DUP1 REVERT JUMPDEST SWAP1 PUSH1 0x0 MSTORE PUSH1 0x20 PUSH1 0x0 KECCAK256 ADD PUSH1 0x0 SWAP2 POP SLOAD SWAP1 PUSH2 0x100 EXP SWAP1 DIV PUSH20 0xFFFFFFFFFFFFFFFFFFFFFFFFFFFFFFFFFFFFFFFF AND DUP2 JUMP JUMPDEST PUSH1 0x4 DUP2 DUP2 SLOAD DUP2 LT PUSH2 0x1138 JUMPI PUSH1 0x0 DUP1 REVERT JUMPDEST SWAP1 PUSH1 0x0 MSTORE PUSH1 0x20 PUSH1 0x0 KECCAK256 ADD PUSH1 0x0 SWAP2 POP SWAP1 POP SLOAD DUP2 JUMP JUMPDEST PUSH1 0x40 MLOAD DUP1 PUSH1 0x80 ADD PUSH1 0x40 MSTORE DUP1 PUSH1 0x0 DUP2 MSTORE PUSH1 0x20 ADD PUSH1 0x0 DUP2 MSTORE PUSH1 0x20 ADD PUSH1 0x60 DUP2 MSTORE PUSH1 0x20 ADD PUSH1 0x0 DUP2 MSTORE POP SWAP1 JUMP JUMPDEST PUSH1 0x40 MLOAD DUP1 PUSH1 0x60 ADD PUSH1 0x40 MSTORE DUP1 PUSH1 0x0 DUP2 MSTORE PUSH1 0x20 ADD PUSH1 0x60 DUP2 MSTORE PUSH1 0x20 ADD PUSH1 0x0 DUP2 MSTORE POP SWAP1 JUMP JUMPDEST PUSH1 0x0 PUSH1 0x40 MLOAD SWAP1 POP SWAP1 JUMP JUMPDEST PUSH1 0x0 DUP1 REVERT JUMPDEST PUSH1 0x0 DUP1 REVERT JUMPDEST PUSH1 0x0 DUP2 SWAP1 POP SWAP2 SWAP1 POP JUMP JUMPDEST PUSH2 0x11BC DUP2 PUSH2 0x11A9 JUMP JUMPDEST DUP2 EQ PUSH2 0x11C7 JUMPI PUSH1 0x0 DUP1 REVERT JUMPDEST POP JUMP JUMPDEST PUSH1 0x0 DUP2 CALLDATALOAD SWAP1 POP PUSH2 0x11D9 DUP2 PUSH2 0x11B3 JUMP JUMPDEST SWAP3 SWAP2 POP POP JUMP JUMPDEST PUSH1 0x0 PUSH1 0x20 DUP3 DUP5 SUB SLT ISZERO PUSH2 0x11F5 JUMPI PUSH2 0x11F4 PUSH2 0x119F JUMP JUMPDEST JUMPDEST PUSH1 0x0 PUSH2 0x1203 DUP5 DUP3 DUP6 ADD PUSH2 0x11CA JUMP JUMPDEST SWAP2 POP POP SWAP3 SWAP2 POP POP JUMP JUMPDEST PUSH2 0x1215 DUP2 PUSH2 0x11A9 JUMP JUMPDEST DUP3 MSTORE POP POP JUMP JUMPDEST PUSH1 0x0 DUP2 MLOAD SWAP1 POP SWAP2 SWAP1 POP JUMP JUMPDEST PUSH1 0x0 DUP3 DUP3 MSTORE PUSH1 0x20 DUP3 ADD SWAP1 POP SWAP3 SWAP2 POP POP JUMP JUMPDEST PUSH1 0x0 JUMPDEST DUP4 DUP2 LT ISZERO PUSH2 0x1255 JUMPI DUP1 DUP3 ADD MLOAD DUP2 DUP5 ADD MSTORE PUSH1 0x20 DUP2 ADD SWAP1 POP PUSH2 0x123A JUMP JUMPDEST PUSH1 0x0 DUP5 DUP5 ADD MSTORE POP POP POP POP JUMP JUMPDEST PUSH1 0x0 PUSH1 0x1F NOT PUSH1 0x1F DUP4 ADD AND SWAP1 POP SWAP2 SWAP1 POP JUMP JUMPDEST PUSH1 0x0 PUSH2 0x127D DUP3 PUSH2 0x121B JUMP JUMPDEST PUSH2 0x1287 DUP2 DUP6 PUSH2 0x1226 JUMP JUMPDEST SWAP4 POP PUSH2 0x1297 DUP2 DUP6 PUSH1 0x20 DUP7 ADD PUSH2 0x1237 JUMP JUMPDEST PUSH2 0x12A0 DUP2 PUSH2 0x1261 JUMP JUMPDEST DUP5 ADD SWAP2 POP POP SWAP3 SWAP2 POP POP JUMP JUMPDEST PUSH1 0x0 PUSH1 0x80 DUP3 ADD SWAP1 POP PUSH2 0x12C0 PUSH1 0x0 DUP4 ADD DUP8 PUSH2 0x120C JUMP JUMPDEST PUSH2 0x12CD PUSH1 0x20 DUP4 ADD DUP7 PUSH2 0x120C JUMP JUMPDEST DUP2 DUP2 SUB PUSH1 0x40 DUP4 ADD MSTORE PUSH2 0x12DF DUP2 DUP6 PUSH2 0x1272 JUMP JUMPDEST SWAP1 POP PUSH2 0x12EE PUSH1 0x60 DUP4 ADD DUP5 PUSH2 0x120C JUMP JUMPDEST SWAP6 SWAP5 POP POP POP POP POP JUMP JUMPDEST PUSH1 0x0 PUSH20 0xFFFFFFFFFFFFFFFFFFFFFFFFFFFFFFFFFFFFFFFF DUP3 AND SWAP1 POP SWAP2 SWAP1 POP JUMP JUMPDEST PUSH1 0x0 PUSH2 0x1322 DUP3 PUSH2 0x12F7 JUMP JUMPDEST SWAP1 POP SWAP2 SWAP1 POP JUMP JUMPDEST PUSH2 0x1332 DUP2 PUSH2 0x1317 JUMP JUMPDEST DUP2 EQ PUSH2 0x133D JUMPI PUSH1 0x0 DUP1 REVERT JUMPDEST POP JUMP JUMPDEST PUSH1 0x0 DUP2 CALLDATALOAD SWAP1 POP PUSH2 0x134F DUP2 PUSH2 0x1329 JUMP JUMPDEST SWAP3 SWAP2 POP POP JUMP JUMPDEST PUSH1 0x0 DUP1 PUSH1 0x0 DUP1 PUSH1 0x80 DUP6 DUP8 SUB SLT ISZERO PUSH2 0x136F JUMPI PUSH2 0x136E PUSH2 0x119F JUMP JUMPDEST JUMPDEST PUSH1 0x0 PUSH2 0x137D DUP8 DUP3 DUP9 ADD PUSH2 0x11CA JUMP JUMPDEST SWAP5 POP POP PUSH1 0x20 PUSH2 0x138E DUP8 DUP3 DUP9 ADD PUSH2 0x11CA JUMP JUMPDEST SWAP4 POP POP PUSH1 0x40 PUSH2 0x139F DUP8 DUP3 DUP9 ADD PUSH2 0x1340 JUMP JUMPDEST SWAP3 POP POP PUSH1 0x60 PUSH2 0x13B0 DUP8 DUP3 DUP9 ADD PUSH2 0x11CA JUMP JUMPDEST SWAP2 POP POP SWAP3 SWAP6 SWAP2 SWAP5 POP SWAP3 POP JUMP JUMPDEST PUSH1 0x0 DUP1 PUSH1 0x40 DUP4 DUP6 SUB SLT ISZERO PUSH2 0x13D3 JUMPI PUSH2 0x13D2 PUSH2 0x119F JUMP JUMPDEST JUMPDEST PUSH1 0x0 PUSH2 0x13E1 DUP6 DUP3 DUP7 ADD PUSH2 0x11CA JUMP JUMPDEST SWAP3 POP POP PUSH1 0x20 PUSH2 0x13F2 DUP6 DUP3 DUP7 ADD PUSH2 0x11CA JUMP JUMPDEST SWAP2 POP POP SWAP3 POP SWAP3 SWAP1 POP JUMP JUMPDEST PUSH1 0x0 DUP2 MLOAD SWAP1 POP SWAP2 SWAP1 POP JUMP JUMPDEST PUSH1 0x0 DUP3 DUP3 MSTORE PUSH1 0x20 DUP3 ADD SWAP1 POP SWAP3 SWAP2 POP POP JUMP JUMPDEST PUSH1 0x0 DUP2 SWAP1 POP PUSH1 0x20 DUP3 ADD SWAP1 POP SWAP2 SWAP1 POP JUMP JUMPDEST PUSH2 0x1431 DUP2 PUSH2 0x11A9 JUMP JUMPDEST DUP3 MSTORE POP POP JUMP JUMPDEST PUSH1 0x0 DUP3 DUP3 MSTORE PUSH1 0x20 DUP3 ADD SWAP1 POP SWAP3 SWAP2 POP POP JUMP JUMPDEST PUSH1 0x0 PUSH2 0x1453 DUP3 PUSH2 0x121B JUMP JUMPDEST PUSH2 0x145D DUP2 DUP6 PUSH2 0x1437 JUMP JUMPDEST SWAP4 POP PUSH2 0x146D DUP2 DUP6 PUSH1 0x20 DUP7 ADD PUSH2 0x1237 JUMP JUMPDEST PUSH2 0x1476 DUP2 PUSH2 0x1261 JUMP JUMPDEST DUP5 ADD SWAP2 POP POP SWAP3 SWAP2 POP POP JUMP JUMPDEST PUSH1 0x0 PUSH1 0x80 DUP4 ADD PUSH1 0x0 DUP4 ADD MLOAD PUSH2 0x1499 PUSH1 0x0 DUP7 ADD DUP3 PUSH2 0x1428 JUMP JUMPDEST POP PUSH1 0x20 DUP4 ADD MLOAD PUSH2 0x14AC PUSH1 0x20 DUP7 ADD DUP3 PUSH2 0x1428 JUMP JUMPDEST POP PUSH1 0x40 DUP4 ADD MLOAD DUP5 DUP3 SUB PUSH1 0x40 DUP7 ADD MSTORE PUSH2 0x14C4 DUP3 DUP3 PUSH2 0x1448 JUMP JUMPDEST SWAP2 POP POP PUSH1 0x60 DUP4 ADD MLOAD PUSH2 0x14D9 PUSH1 0x60 DUP7 ADD DUP3 PUSH2 0x1428 JUMP JUMPDEST POP DUP1 SWAP2 POP POP SWAP3 SWAP2 POP POP JUMP JUMPDEST PUSH1 0x0 PUSH2 0x14F0 DUP4 DUP4 PUSH2 0x1481 JUMP JUMPDEST SWAP1 POP SWAP3 SWAP2 POP POP JUMP JUMPDEST PUSH1 0x0 PUSH1 0x20 DUP3 ADD SWAP1 POP SWAP2 SWAP1 POP JUMP JUMPDEST PUSH1 0x0 PUSH2 0x1510 DUP3 PUSH2 0x13FC JUMP JUMPDEST PUSH2 0x151A DUP2 DUP6 PUSH2 0x1407 JUMP JUMPDEST SWAP4 POP DUP4 PUSH1 0x20 DUP3 MUL DUP6 ADD PUSH2 0x152C DUP6 PUSH2 0x1418 JUMP JUMPDEST DUP1 PUSH1 0x0 JUMPDEST DUP6 DUP2 LT ISZERO PUSH2 0x1568 JUMPI DUP5 DUP5 SUB DUP10 MSTORE DUP2 MLOAD PUSH2 0x1549 DUP6 DUP3 PUSH2 0x14E4 JUMP JUMPDEST SWAP5 POP PUSH2 0x1554 DUP4 PUSH2 0x14F8 JUMP JUMPDEST SWAP3 POP PUSH1 0x20 DUP11 ADD SWAP10 POP POP PUSH1 0x1 DUP2 ADD SWAP1 POP PUSH2 0x1530 JUMP JUMPDEST POP DUP3 SWAP8 POP DUP8 SWAP6 POP POP POP POP POP POP SWAP3 SWAP2 POP POP JUMP JUMPDEST PUSH1 0x0 PUSH1 0x20 DUP3 ADD SWAP1 POP DUP2 DUP2 SUB PUSH1 0x0 DUP4 ADD MSTORE PUSH2 0x1594 DUP2 DUP5 PUSH2 0x1505 JUMP JUMPDEST SWAP1 POP SWAP3 SWAP2 POP POP JUMP JUMPDEST PUSH1 0x0 PUSH1 0x60 DUP3 ADD SWAP1 POP PUSH2 0x15B1 PUSH1 0x0 DUP4 ADD DUP7 PUSH2 0x120C JUMP JUMPDEST DUP2 DUP2 SUB PUSH1 0x20 DUP4 ADD MSTORE PUSH2 0x15C3 DUP2 DUP6 PUSH2 0x1272 JUMP JUMPDEST SWAP1 POP PUSH2 0x15D2 PUSH1 0x40 DUP4 ADD DUP5 PUSH2 0x120C JUMP JUMPDEST SWAP5 SWAP4 POP POP POP POP JUMP JUMPDEST PUSH1 0x0 DUP2 MLOAD SWAP1 POP SWAP2 SWAP1 POP JUMP JUMPDEST PUSH1 0x0 DUP3 DUP3 MSTORE PUSH1 0x20 DUP3 ADD SWAP1 POP SWAP3 SWAP2 POP POP JUMP JUMPDEST PUSH1 0x0 DUP2 SWAP1 POP PUSH1 0x20 DUP3 ADD SWAP1 POP SWAP2 SWAP1 POP JUMP JUMPDEST PUSH1 0x0 PUSH1 0x60 DUP4 ADD PUSH1 0x0 DUP4 ADD MLOAD PUSH2 0x161E PUSH1 0x0 DUP7 ADD DUP3 PUSH2 0x1428 JUMP JUMPDEST POP PUSH1 0x20 DUP4 ADD MLOAD DUP5 DUP3 SUB PUSH1 0x20 DUP7 ADD MSTORE PUSH2 0x1636 DUP3 DUP3 PUSH2 0x1448 JUMP JUMPDEST SWAP2 POP POP PUSH1 0x40 DUP4 ADD MLOAD PUSH2 0x164B PUSH1 0x40 DUP7 ADD DUP3 PUSH2 0x1428 JUMP JUMPDEST POP DUP1 SWAP2 POP POP SWAP3 SWAP2 POP POP JUMP JUMPDEST PUSH1 0x0 PUSH2 0x1662 DUP4 DUP4 PUSH2 0x1606 JUMP JUMPDEST SWAP1 POP SWAP3 SWAP2 POP POP JUMP JUMPDEST PUSH1 0x0 PUSH1 0x20 DUP3 ADD SWAP1 POP SWAP2 SWAP1 POP JUMP JUMPDEST PUSH1 0x0 PUSH2 0x1682 DUP3 PUSH2 0x15DA JUMP JUMPDEST PUSH2 0x168C DUP2 DUP6 PUSH2 0x15E5 JUMP JUMPDEST SWAP4 POP DUP4 PUSH1 0x20 DUP3 MUL DUP6 ADD PUSH2 0x169E DUP6 PUSH2 0x15F6 JUMP JUMPDEST DUP1 PUSH1 0x0 JUMPDEST DUP6 DUP2 LT ISZERO PUSH2 0x16DA JUMPI DUP5 DUP5 SUB DUP10 MSTORE DUP2 MLOAD PUSH2 0x16BB DUP6 DUP3 PUSH2 0x1656 JUMP JUMPDEST SWAP5 POP PUSH2 0x16C6 DUP4 PUSH2 0x166A JUMP JUMPDEST SWAP3 POP PUSH1 0x20 DUP11 ADD SWAP10 POP POP PUSH1 0x1 DUP2 ADD SWAP1 POP PUSH2 0x16A2 JUMP JUMPDEST POP DUP3 SWAP8 POP DUP8 SWAP6 POP POP POP POP POP POP SWAP3 SWAP2 POP POP JUMP JUMPDEST PUSH1 0x0 PUSH1 0x20 DUP3 ADD SWAP1 POP DUP2 DUP2 SUB PUSH1 0x0 DUP4 ADD MSTORE PUSH2 0x1706 DUP2 DUP5 PUSH2 0x1677 JUMP JUMPDEST SWAP1 POP SWAP3 SWAP2 POP POP JUMP JUMPDEST PUSH1 0x0 DUP1 REVERT JUMPDEST PUSH1 0x0 DUP1 REVERT JUMPDEST PUSH32 0x4E487B7100000000000000000000000000000000000000000000000000000000 PUSH1 0x0 MSTORE PUSH1 0x41 PUSH1 0x4 MSTORE PUSH1 0x24 PUSH1 0x0 REVERT JUMPDEST PUSH2 0x1750 DUP3 PUSH2 0x1261 JUMP JUMPDEST DUP2 ADD DUP2 DUP2 LT PUSH8 0xFFFFFFFFFFFFFFFF DUP3 GT OR ISZERO PUSH2 0x176F JUMPI PUSH2 0x176E PUSH2 0x1718 JUMP JUMPDEST JUMPDEST DUP1 PUSH1 0x40 MSTORE POP POP POP JUMP JUMPDEST PUSH1 0x0 PUSH2 0x1782 PUSH2 0x1195 JUMP JUMPDEST SWAP1 POP PUSH2 0x178E DUP3 DUP3 PUSH2 0x1747 JUMP JUMPDEST SWAP2 SWAP1 POP JUMP JUMPDEST PUSH1 0x0 PUSH8 0xFFFFFFFFFFFFFFFF DUP3 GT ISZERO PUSH2 0x17AE JUMPI PUSH2 0x17AD PUSH2 0x1718 JUMP JUMPDEST JUMPDEST PUSH2 0x17B7 DUP3 PUSH2 0x1261 JUMP JUMPDEST SWAP1 POP PUSH1 0x20 DUP2 ADD SWAP1 POP SWAP2 SWAP1 POP JUMP JUMPDEST DUP3 DUP2 DUP4 CALLDATACOPY PUSH1 0x0 DUP4 DUP4 ADD MSTORE POP POP POP JUMP JUMPDEST PUSH1 0x0 PUSH2 0x17E6 PUSH2 0x17E1 DUP5 PUSH2 0x1793 JUMP JUMPDEST PUSH2 0x1778 JUMP JUMPDEST SWAP1 POP DUP3 DUP2 MSTORE PUSH1 0x20 DUP2 ADD DUP5 DUP5 DUP5 ADD GT ISZERO PUSH2 0x1802 JUMPI PUSH2 0x1801 PUSH2 0x1713 JUMP JUMPDEST JUMPDEST PUSH2 0x180D DUP5 DUP3 DUP6 PUSH2 0x17C4 JUMP JUMPDEST POP SWAP4 SWAP3 POP POP POP JUMP JUMPDEST PUSH1 0x0 DUP3 PUSH1 0x1F DUP4 ADD SLT PUSH2 0x182A JUMPI PUSH2 0x1829 PUSH2 0x170E JUMP JUMPDEST JUMPDEST DUP2 CALLDATALOAD PUSH2 0x183A DUP5 DUP3 PUSH1 0x20 DUP7 ADD PUSH2 0x17D3 JUMP JUMPDEST SWAP2 POP POP SWAP3 SWAP2 POP POP JUMP JUMPDEST PUSH1 0x0 DUP1 PUSH1 0x0 DUP1 PUSH1 0x80 DUP6 DUP8 SUB SLT ISZERO PUSH2 0x185D JUMPI PUSH2 0x185C PUSH2 0x119F JUMP JUMPDEST JUMPDEST PUSH1 0x0 PUSH2 0x186B DUP8 DUP3 DUP9 ADD PUSH2 0x11CA JUMP JUMPDEST SWAP5 POP POP PUSH1 0x20 PUSH2 0x187C DUP8 DUP3 DUP9 ADD PUSH2 0x11CA JUMP JUMPDEST SWAP4 POP POP PUSH1 0x40 DUP6 ADD CALLDATALOAD PUSH8 0xFFFFFFFFFFFFFFFF DUP2 GT ISZERO PUSH2 0x189D JUMPI PUSH2 0x189C PUSH2 0x11A4 JUMP JUMPDEST JUMPDEST PUSH2 0x18A9 DUP8 DUP3 DUP9 ADD PUSH2 0x1815 JUMP JUMPDEST SWAP3 POP POP PUSH1 0x60 PUSH2 0x18BA DUP8 DUP3 DUP9 ADD PUSH2 0x11CA JUMP JUMPDEST SWAP2 POP POP SWAP3 SWAP6 SWAP2 SWAP5 POP SWAP3 POP JUMP JUMPDEST PUSH2 0x18CF DUP2 PUSH2 0x1317 JUMP JUMPDEST DUP3 MSTORE POP POP JUMP JUMPDEST PUSH1 0x0 PUSH1 0x20 DUP3 ADD SWAP1 POP PUSH2 0x18EA PUSH1 0x0 DUP4 ADD DUP5 PUSH2 0x18C6 JUMP JUMPDEST SWAP3 SWAP2 POP POP JUMP JUMPDEST PUSH1 0x0 PUSH1 0x20 DUP3 ADD SWAP1 POP PUSH2 0x1905 PUSH1 0x0 DUP4 ADD DUP5 PUSH2 0x120C JUMP JUMPDEST SWAP3 SWAP2 POP POP JUMP JUMPDEST PUSH32 0x4E487B7100000000000000000000000000000000000000000000000000000000 PUSH1 0x0 MSTORE PUSH1 0x22 PUSH1 0x4 MSTORE PUSH1 0x24 PUSH1 0x0 REVERT JUMPDEST PUSH1 0x0 PUSH1 0x2 DUP3 DIV SWAP1 POP PUSH1 0x1 DUP3 AND DUP1 PUSH2 0x1952 JUMPI PUSH1 0x7F DUP3 AND SWAP2 POP JUMPDEST PUSH1 0x20 DUP3 LT DUP2 SUB PUSH2 0x1965 JUMPI PUSH2 0x1964 PUSH2 0x190B JUMP JUMPDEST JUMPDEST POP SWAP2 SWAP1 POP JUMP JUMPDEST PUSH32 0x496E73756666696369656E742042616C616E6365000000000000000000000000 PUSH1 0x0 DUP3 ADD MSTORE POP JUMP JUMPDEST PUSH1 0x0 PUSH2 0x19A1 PUSH1 0x14 DUP4 PUSH2 0x1226 JUMP JUMPDEST SWAP2 POP PUSH2 0x19AC DUP3 PUSH2 0x196B JUMP JUMPDEST PUSH1 0x20 DUP3 ADD SWAP1 POP SWAP2 SWAP1 POP JUMP JUMPDEST PUSH1 0x0 PUSH1 0x20 DUP3 ADD SWAP1 POP DUP2 DUP2 SUB PUSH1 0x0 DUP4 ADD MSTORE PUSH2 0x19D0 DUP2 PUSH2 0x1994 JUMP JUMPDEST SWAP1 POP SWAP2 SWAP1 POP JUMP JUMPDEST PUSH32 0x496E636F7272656374204163636F756E74204E756D6265720000000000000000 PUSH1 0x0 DUP3 ADD MSTORE POP JUMP JUMPDEST PUSH1 0x0 PUSH2 0x1A0D PUSH1 0x18 DUP4 PUSH2 0x1226 JUMP JUMPDEST SWAP2 POP PUSH2 0x1A18 DUP3 PUSH2 0x19D7 JUMP JUMPDEST PUSH1 0x20 DUP3 ADD SWAP1 POP SWAP2 SWAP1 POP JUMP JUMPDEST PUSH1 0x0 PUSH1 0x20 DUP3 ADD SWAP1 POP DUP2 DUP2 SUB PUSH1 0x0 DUP4 ADD MSTORE PUSH2 0x1A3C DUP2 PUSH2 0x1A00 JUMP JUMPDEST SWAP1 POP SWAP2 SWAP1 POP JUMP JUMPDEST PUSH32 0x4E487B7100000000000000000000000000000000000000000000000000000000 PUSH1 0x0 MSTORE PUSH1 0x11 PUSH1 0x4 MSTORE PUSH1 0x24 PUSH1 0x0 REVERT JUMPDEST PUSH1 0x0 PUSH2 0x1A7D DUP3 PUSH2 0x11A9 JUMP JUMPDEST SWAP2 POP PUSH2 0x1A88 DUP4 PUSH2 0x11A9 JUMP JUMPDEST SWAP3 POP DUP3 DUP3 SUB SWAP1 POP DUP2 DUP2 GT ISZERO PUSH2 0x1AA0 JUMPI PUSH2 0x1A9F PUSH2 0x1A43 JUMP JUMPDEST JUMPDEST SWAP3 SWAP2 POP POP JUMP JUMPDEST PUSH1 0x0 PUSH2 0x1AB1 DUP3 PUSH2 0x11A9 JUMP JUMPDEST SWAP2 POP PUSH2 0x1ABC DUP4 PUSH2 0x11A9 JUMP JUMPDEST SWAP3 POP DUP3 DUP3 ADD SWAP1 POP DUP1 DUP3 GT ISZERO PUSH2 0x1AD4 JUMPI PUSH2 0x1AD3 PUSH2 0x1A43 JUMP JUMPDEST JUMPDEST SWAP3 SWAP2 POP POP JUMP JUMPDEST PUSH32 0x4E487B7100000000000000000000000000000000000000000000000000000000 PUSH1 0x0 MSTORE PUSH1 0x32 PUSH1 0x4 MSTORE PUSH1 0x24 PUSH1 0x0 REVERT JUMPDEST PUSH1 0x0 PUSH2 0x1B14 DUP3 PUSH2 0x11A9 JUMP JUMPDEST SWAP2 POP PUSH32 0xFFFFFFFFFFFFFFFFFFFFFFFFFFFFFFFFFFFFFFFFFFFFFFFFFFFFFFFFFFFFFFFF DUP3 SUB PUSH2 0x1B46 JUMPI PUSH2 0x1B45 PUSH2 0x1A43 JUMP JUMPDEST JUMPDEST PUSH1 0x1 DUP3 ADD SWAP1 POP SWAP2 SWAP1 POP JUMP JUMPDEST PUSH1 0x0 DUP2 SWAP1 POP DUP2 PUSH1 0x0 MSTORE PUSH1 0x20 PUSH1 0x0 KECCAK256 SWAP1 POP SWAP2 SWAP1 POP JUMP JUMPDEST PUSH1 0x0 PUSH1 0x20 PUSH1 0x1F DUP4 ADD DIV SWAP1 POP SWAP2 SWAP1 POP JUMP JUMPDEST PUSH1 0x0 DUP3 DUP3 SHL SWAP1 POP SWAP3 SWAP2 POP POP JUMP JUMPDEST PUSH1 0x0 PUSH1 0x8 DUP4 MUL PUSH2 0x1BB3 PUSH32 0xFFFFFFFFFFFFFFFFFFFFFFFFFFFFFFFFFFFFFFFFFFFFFFFFFFFFFFFFFFFFFFFF DUP3 PUSH2 0x1B76 JUMP JUMPDEST PUSH2 0x1BBD DUP7 DUP4 PUSH2 0x1B76 JUMP JUMPDEST SWAP6 POP DUP1 NOT DUP5 AND SWAP4 POP DUP1 DUP7 AND DUP5 OR SWAP3 POP POP POP SWAP4 SWAP3 POP POP POP JUMP JUMPDEST PUSH1 0x0 DUP2 SWAP1 POP SWAP2 SWAP1 POP JUMP JUMPDEST PUSH1 0x0 PUSH2 0x1BFA PUSH2 0x1BF5 PUSH2 0x1BF0 DUP5 PUSH2 0x11A9 JUMP JUMPDEST PUSH2 0x1BD5 JUMP JUMPDEST PUSH2 0x11A9 JUMP JUMPDEST SWAP1 POP SWAP2 SWAP1 POP JUMP JUMPDEST PUSH1 0x0 DUP2 SWAP1 POP SWAP2 SWAP1 POP JUMP JUMPDEST PUSH2 0x1C14 DUP4 PUSH2 0x1BDF JUMP JUMPDEST PUSH2 0x1C28 PUSH2 0x1C20 DUP3 PUSH2 0x1C01 JUMP JUMPDEST DUP5 DUP5 SLOAD PUSH2 0x1B83 JUMP JUMPDEST DUP3 SSTORE POP POP POP POP JUMP JUMPDEST PUSH1 0x0 SWAP1 JUMP JUMPDEST PUSH2 0x1C3D PUSH2 0x1C30 JUMP JUMPDEST PUSH2 0x1C48 DUP2 DUP5 DUP5 PUSH2 0x1C0B JUMP JUMPDEST POP POP POP JUMP JUMPDEST JUMPDEST DUP2 DUP2 LT ISZERO PUSH2 0x1C6C JUMPI PUSH2 0x1C61 PUSH1 0x0 DUP3 PUSH2 0x1C35 JUMP JUMPDEST PUSH1 0x1 DUP2 ADD SWAP1 POP PUSH2 0x1C4E JUMP JUMPDEST POP POP JUMP JUMPDEST PUSH1 0x1F DUP3 GT ISZERO PUSH2 0x1CB1 JUMPI PUSH2 0x1C82 DUP2 PUSH2 0x1B51 JUMP JUMPDEST PUSH2 0x1C8B DUP5 PUSH2 0x1B66 JUMP JUMPDEST DUP2 ADD PUSH1 0x20 DUP6 LT ISZERO PUSH2 0x1C9A JUMPI DUP2 SWAP1 POP JUMPDEST PUSH2 0x1CAE PUSH2 0x1CA6 DUP6 PUSH2 0x1B66 JUMP JUMPDEST DUP4 ADD DUP3 PUSH2 0x1C4D JUMP JUMPDEST POP POP JUMPDEST POP POP POP JUMP JUMPDEST PUSH1 0x0 DUP3 DUP3 SHR SWAP1 POP SWAP3 SWAP2 POP POP JUMP JUMPDEST PUSH1 0x0 PUSH2 0x1CD4 PUSH1 0x0 NOT DUP5 PUSH1 0x8 MUL PUSH2 0x1CB6 JUMP JUMPDEST NOT DUP1 DUP4 AND SWAP2 POP POP SWAP3 SWAP2 POP POP JUMP JUMPDEST PUSH1 0x0 PUSH2 0x1CED DUP4 DUP4 PUSH2 0x1CC3 JUMP JUMPDEST SWAP2 POP DUP3 PUSH1 0x2 MUL DUP3 OR SWAP1 POP SWAP3 SWAP2 POP POP JUMP JUMPDEST PUSH2 0x1D06 DUP3 PUSH2 0x121B JUMP JUMPDEST PUSH8 0xFFFFFFFFFFFFFFFF DUP2 GT ISZERO PUSH2 0x1D1F JUMPI PUSH2 0x1D1E PUSH2 0x1718 JUMP JUMPDEST JUMPDEST PUSH2 0x1D29 DUP3 SLOAD PUSH2 0x193A JUMP JUMPDEST PUSH2 0x1D34 DUP3 DUP3 DUP6 PUSH2 0x1C70 JUMP JUMPDEST PUSH1 0x0 PUSH1 0x20 SWAP1 POP PUSH1 0x1F DUP4 GT PUSH1 0x1 DUP2 EQ PUSH2 0x1D67 JUMPI PUSH1 0x0 DUP5 ISZERO PUSH2 0x1D55 JUMPI DUP3 DUP8 ADD MLOAD SWAP1 POP JUMPDEST PUSH2 0x1D5F DUP6 DUP3 PUSH2 0x1CE1 JUMP JUMPDEST DUP7 SSTORE POP PUSH2 0x1DC7 JUMP JUMPDEST PUSH1 0x1F NOT DUP5 AND PUSH2 0x1D75 DUP7 PUSH2 0x1B51 JUMP JUMPDEST PUSH1 0x0 JUMPDEST DUP3 DUP2 LT ISZERO PUSH2 0x1D9D JUMPI DUP5 DUP10 ADD MLOAD DUP3 SSTORE PUSH1 0x1 DUP3 ADD SWAP2 POP PUSH1 0x20 DUP6 ADD SWAP5 POP PUSH1 0x20 DUP2 ADD SWAP1 POP PUSH2 0x1D78 JUMP JUMPDEST DUP7 DUP4 LT ISZERO PUSH2 0x1DBA JUMPI DUP5 DUP10 ADD MLOAD PUSH2 0x1DB6 PUSH1 0x1F DUP10 AND DUP3 PUSH2 0x1CC3 JUMP JUMPDEST DUP4 SSTORE POP JUMPDEST PUSH1 0x1 PUSH1 0x2 DUP9 MUL ADD DUP9 SSTORE POP POP POP JUMPDEST POP POP POP POP POP POP JUMP INVALID LOG2 PUSH5 0x6970667358 0x22 SLT KECCAK256 0xCE SWAP5 0xB0 ADDRESS CREATE SHL 0x23 SSTORE 0xC5 0xD1 0x4F 0xBA PUSH21 0xF345363BFBE3BCDBD850788EF529B188D595A6473 PUSH16 0x6C634300081000330000000000000000 "
        },
        "methodIdentifiers": {
          "accounts(uint256)": "f2a40db8",
          "addresses(uint256)": "edf26d9b",
          "balanceTransfer(uint256,uint256,address,uint256)": "15f1d66d",
          "createAccount(uint256,uint256,string,uint256)": "c8cb55ae",
          "deposit(uint256,uint256)": "e2bbb158",
          "getBankData(uint256)": "b26ea798",
          "getSpecificAddressData()": "4c7a4ed0",
          "returnBankDataArray(uint256)": "b0fb25cc",
          "returnDataArray(uint256)": "078c9ed3",
          "withdraw(uint256,uint256)": "441a3e70"
        }
      }
    }
  }
}