{
  "_format": "hh-sol-artifact-1",
  "contractName": "functions",
  "sourceName": "contracts/functions.sol",
  "abi": [
    {
      "inputs": [],
      "stateMutability": "nonpayable",
      "type": "constructor"
    },
    {
      "anonymous": false,
      "inputs": [
        {
          "indexed": false,
          "internalType": "address",
          "name": "accountAddress",
          "type": "address"
        },
        {
          "indexed": false,
          "internalType": "uint256",
          "name": "accountNumber",
          "type": "uint256"
        }
      ],
      "name": "eventAccountCreation",
      "type": "event"
    },
    {
      "anonymous": false,
      "inputs": [
        {
          "indexed": false,
          "internalType": "address",
          "name": "newAdmin",
          "type": "address"
        }
      ],
      "name": "eventAdminChange",
      "type": "event"
    },
    {
      "anonymous": false,
      "inputs": [
        {
          "indexed": false,
          "internalType": "address",
          "name": "accountAddress",
          "type": "address"
        },
        {
          "indexed": false,
          "internalType": "uint256",
          "name": "accountNumber",
          "type": "uint256"
        },
        {
          "indexed": false,
          "internalType": "uint256",
          "name": "depositedBalance",
          "type": "uint256"
        }
      ],
      "name": "eventBalanceDeposit",
      "type": "event"
    },
    {
      "anonymous": false,
      "inputs": [
        {
          "indexed": false,
          "internalType": "uint256",
          "name": "accountFrom",
          "type": "uint256"
        },
        {
          "indexed": false,
          "internalType": "uint256",
          "name": "accountTo",
          "type": "uint256"
        },
        {
          "indexed": false,
          "internalType": "uint256",
          "name": "transferedBalance",
          "type": "uint256"
        }
      ],
      "name": "eventBalanceTransfer",
      "type": "event"
    },
    {
      "anonymous": false,
      "inputs": [
        {
          "indexed": false,
          "internalType": "address",
          "name": "accountAddress",
          "type": "address"
        },
        {
          "indexed": false,
          "internalType": "uint256",
          "name": "accountNumber",
          "type": "uint256"
        },
        {
          "indexed": false,
          "internalType": "uint256",
          "name": "withdrawlBalance",
          "type": "uint256"
        }
      ],
      "name": "eventBalanceWithdraw",
      "type": "event"
    },
    {
      "inputs": [
        {
          "internalType": "uint256",
          "name": "",
          "type": "uint256"
        }
      ],
      "name": "accounts",
      "outputs": [
        {
          "internalType": "uint256",
          "name": "",
          "type": "uint256"
        }
      ],
      "stateMutability": "view",
      "type": "function"
    },
    {
      "inputs": [
        {
          "internalType": "uint256",
          "name": "",
          "type": "uint256"
        }
      ],
      "name": "addresses",
      "outputs": [
        {
          "internalType": "address",
          "name": "",
          "type": "address"
        }
      ],
      "stateMutability": "view",
      "type": "function"
    },
    {
      "inputs": [],
      "name": "admin",
      "outputs": [
        {
          "internalType": "address",
          "name": "",
          "type": "address"
        }
      ],
      "stateMutability": "view",
      "type": "function"
    },
    {
      "inputs": [
        {
          "internalType": "uint256",
          "name": "_fromAccount",
          "type": "uint256"
        },
        {
          "internalType": "uint256",
          "name": "_toAccount",
          "type": "uint256"
        },
        {
          "internalType": "address",
          "name": "_toAddress",
          "type": "address"
        },
        {
          "internalType": "uint256",
          "name": "_balance",
          "type": "uint256"
        }
      ],
      "name": "balanceTransfer",
      "outputs": [],
      "stateMutability": "nonpayable",
      "type": "function"
    },
    {
      "inputs": [
        {
          "internalType": "address",
          "name": "_newAdmin",
          "type": "address"
        }
      ],
      "name": "changeAdmin",
      "outputs": [],
      "stateMutability": "nonpayable",
      "type": "function"
    },
    {
      "inputs": [
        {
          "internalType": "uint256",
          "name": "_accountNumber",
          "type": "uint256"
        },
        {
          "internalType": "uint256",
          "name": "_bankName",
          "type": "uint256"
        },
        {
          "internalType": "string",
          "name": "_branch",
          "type": "string"
        },
        {
          "internalType": "uint256",
          "name": "_balance",
          "type": "uint256"
        }
      ],
      "name": "createAccount",
      "outputs": [],
      "stateMutability": "nonpayable",
      "type": "function"
    },
    {
      "inputs": [
        {
          "internalType": "uint256",
          "name": "_accountNumber",
          "type": "uint256"
        },
        {
          "internalType": "uint256",
          "name": "_depositbalance",
          "type": "uint256"
        }
      ],
      "name": "deposit",
      "outputs": [],
      "stateMutability": "nonpayable",
      "type": "function"
    },
    {
      "inputs": [
        {
          "internalType": "address",
          "name": "_addressCheckBalance",
          "type": "address"
        },
        {
          "internalType": "uint256",
          "name": "_accountCheckBalance",
          "type": "uint256"
        }
      ],
      "name": "getBalance",
      "outputs": [
        {
          "internalType": "uint256",
          "name": "",
          "type": "uint256"
        }
      ],
      "stateMutability": "view",
      "type": "function"
    },
    {
      "inputs": [
        {
          "internalType": "uint256",
          "name": "_bankName",
          "type": "uint256"
        }
      ],
      "name": "getBankData",
      "outputs": [
        {
          "components": [
            {
              "internalType": "uint256",
              "name": "accountNumber",
              "type": "uint256"
            },
            {
              "internalType": "string",
              "name": "branch",
              "type": "string"
            },
            {
              "internalType": "uint256",
              "name": "balance",
              "type": "uint256"
            }
          ],
          "internalType": "struct data.returnBankData[]",
          "name": "",
          "type": "tuple[]"
        }
      ],
      "stateMutability": "view",
      "type": "function"
    },
    {
      "inputs": [],
      "name": "personalInfo",
      "outputs": [
        {
          "components": [
            {
              "internalType": "uint256",
              "name": "accountNumber",
              "type": "uint256"
            },
            {
              "internalType": "uint256",
              "name": "bankName",
              "type": "uint256"
            },
            {
              "internalType": "string",
              "name": "branch",
              "type": "string"
            },
            {
              "internalType": "uint256",
              "name": "balance",
              "type": "uint256"
            }
          ],
          "internalType": "struct data.returnData[]",
          "name": "",
          "type": "tuple[]"
        }
      ],
      "stateMutability": "view",
      "type": "function"
    },
    {
      "inputs": [
        {
          "internalType": "uint256",
          "name": "",
          "type": "uint256"
        }
      ],
      "name": "returnBankDataArray",
      "outputs": [
        {
          "internalType": "uint256",
          "name": "accountNumber",
          "type": "uint256"
        },
        {
          "internalType": "string",
          "name": "branch",
          "type": "string"
        },
        {
          "internalType": "uint256",
          "name": "balance",
          "type": "uint256"
        }
      ],
      "stateMutability": "view",
      "type": "function"
    },
    {
      "inputs": [
        {
          "internalType": "uint256",
          "name": "",
          "type": "uint256"
        }
      ],
      "name": "returnDataArray",
      "outputs": [
        {
          "internalType": "uint256",
          "name": "accountNumber",
          "type": "uint256"
        },
        {
          "internalType": "uint256",
          "name": "bankName",
          "type": "uint256"
        },
        {
          "internalType": "string",
          "name": "branch",
          "type": "string"
        },
        {
          "internalType": "uint256",
          "name": "balance",
          "type": "uint256"
        }
      ],
      "stateMutability": "view",
      "type": "function"
    },
    {
      "inputs": [
        {
          "internalType": "uint256",
          "name": "_accountNumber",
          "type": "uint256"
        },
        {
          "internalType": "uint256",
          "name": "_withdrawbalance",
          "type": "uint256"
        }
      ],
      "name": "withdraw",
      "outputs": [],
      "stateMutability": "nonpayable",
      "type": "function"
    }
  ],
  "bytecode": "0x608060405234801561001057600080fd5b50336000806101000a81548173ffffffffffffffffffffffffffffffffffffffff021916908373ffffffffffffffffffffffffffffffffffffffff16021790555061255a806100606000396000f3fe608060405234801561001057600080fd5b50600436106100cf5760003560e01c8063b26ea7981161008c578063edf26d9b11610066578063edf26d9b14610225578063f2a40db814610255578063f2dbf12e14610285578063f851a440146102a3576100cf565b8063b26ea798146101bd578063c8cb55ae146101ed578063e2bbb15814610209576100cf565b8063078c9ed3146100d457806315f1d66d146101075780632b04e84014610123578063441a3e70146101535780638f2839701461016f578063b0fb25cc1461018b575b600080fd5b6100ee60048036038101906100e991906116c6565b6102c1565b6040516100fe9493929190611792565b60405180910390f35b610121600480360381019061011c919061183c565b610389565b005b61013d600480360381019061013891906118a3565b61067b565b60405161014a91906118e3565b60405180910390f35b61016d600480360381019061016891906118fe565b6106d9565b005b6101896004803603810190610184919061193e565b610911565b005b6101a560048036038101906101a091906116c6565b610a19565b6040516101b49392919061196b565b60405180910390f35b6101d760048036038101906101d291906116c6565b610adb565b6040516101e49190611b14565b60405180910390f35b61020760048036038101906102029190611c6b565b610f23565b005b610223600480360381019061021e91906118fe565b611150565b005b61023f600480360381019061023a91906116c6565b611245565b60405161024c9190611cfd565b60405180910390f35b61026f600480360381019061026a91906116c6565b611284565b60405161027c91906118e3565b60405180910390f35b61028d6112a8565b60405161029a9190611e3d565b60405180910390f35b6102ab61160f565b6040516102b89190611cfd565b60405180910390f35b600181815481106102d157600080fd5b906000526020600020906004020160009150905080600001549080600101549080600201805461030090611e8e565b80601f016020809104026020016040519081016040528092919081815260200182805461032c90611e8e565b80156103795780601f1061034e57610100808354040283529160200191610379565b820191906000526020600020905b81548152906001019060200180831161035c57829003601f168201915b5050505050908060030154905084565b818360011515600360008473ffffffffffffffffffffffffffffffffffffffff1673ffffffffffffffffffffffffffffffffffffffff168152602001908152602001600020600083815260200190815260200160002060030160009054906101000a900460ff16151514610432576040517f08c379a000000000000000000000000000000000000000000000000000000000815260040161042990611f0b565b60405180910390fd5b858380600360003373ffffffffffffffffffffffffffffffffffffffff1673ffffffffffffffffffffffffffffffffffffffff16815260200190815260200160002060008481526020019081526020016000206002015410156104ca576040517f08c379a00000000000000000000000000000000000000000000000000000000081526004016104c190611f77565b60405180910390fd5b84600360003373ffffffffffffffffffffffffffffffffffffffff1673ffffffffffffffffffffffffffffffffffffffff16815260200190815260200160002060008a8152602001908152602001600020600201546105299190611fc6565b600360003373ffffffffffffffffffffffffffffffffffffffff1673ffffffffffffffffffffffffffffffffffffffff16815260200190815260200160002060008a81526020019081526020016000206002018190555084600360008873ffffffffffffffffffffffffffffffffffffffff1673ffffffffffffffffffffffffffffffffffffffff1681526020019081526020016000206000898152602001908152602001600020600201546105df9190611ffa565b600360008873ffffffffffffffffffffffffffffffffffffffff1673ffffffffffffffffffffffffffffffffffffffff1681526020019081526020016000206000898152602001908152602001600020600201819055507f3ae171700b753029289ca9d3e702a670ca0dfcdb96ed3edad8a3ec095bd83b7c8888876040516106699392919061202e565b60405180910390a15050505050505050565b6000600360008473ffffffffffffffffffffffffffffffffffffffff1673ffffffffffffffffffffffffffffffffffffffff168152602001908152602001600020600083815260200190815260200160002060020154905092915050565b8160011515600360003373ffffffffffffffffffffffffffffffffffffffff1673ffffffffffffffffffffffffffffffffffffffff168152602001908152602001600020600083815260200190815260200160002060030160009054906101000a900460ff16151514610781576040517f08c379a0000000000000000000000000000000000000000000000000000000008152600401610778906120d7565b60405180910390fd5b828280600360003373ffffffffffffffffffffffffffffffffffffffff1673ffffffffffffffffffffffffffffffffffffffff1681526020019081526020016000206000848152602001908152602001600020600201541015610819576040517f08c379a000000000000000000000000000000000000000000000000000000000815260040161081090611f77565b60405180910390fd5b83600360003373ffffffffffffffffffffffffffffffffffffffff1673ffffffffffffffffffffffffffffffffffffffff1681526020019081526020016000206000878152602001908152602001600020600201546108789190611fc6565b600360003373ffffffffffffffffffffffffffffffffffffffff1673ffffffffffffffffffffffffffffffffffffffff1681526020019081526020016000206000878152602001908152602001600020600201819055507f5053a428dd017c3329e98d4cff49ce323c5b035a842911ce68c38f99f0565431338686604051610902939291906120f7565b60405180910390a15050505050565b60008054906101000a900473ffffffffffffffffffffffffffffffffffffffff1673ffffffffffffffffffffffffffffffffffffffff163373ffffffffffffffffffffffffffffffffffffffff161461099f576040517f08c379a00000000000000000000000000000000000000000000000000000000081526004016109969061217a565b60405180910390fd5b806000806101000a81548173ffffffffffffffffffffffffffffffffffffffff021916908373ffffffffffffffffffffffffffffffffffffffff1602179055507fde5f7e8a61c2ee145fa101881a0add94254dad0e9619807bf458f4d6bf91dfc581604051610a0e9190611cfd565b60405180910390a150565b60028181548110610a2957600080fd5b9060005260206000209060030201600091509050806000015490806001018054610a5290611e8e565b80601f0160208091040260200160405190810160405280929190818152602001828054610a7e90611e8e565b8015610acb5780601f10610aa057610100808354040283529160200191610acb565b820191906000526020600020905b815481529060010190602001808311610aae57829003601f168201915b5050505050908060020154905083565b606060008054906101000a900473ffffffffffffffffffffffffffffffffffffffff1673ffffffffffffffffffffffffffffffffffffffff163373ffffffffffffffffffffffffffffffffffffffff1614610b6b576040517f08c379a0000000000000000000000000000000000000000000000000000000008152600401610b629061217a565b60405180910390fd5b60008060058054905067ffffffffffffffff811115610b8d57610b8c611b40565b5b604051908082528060200260200182016040528015610bc657816020015b610bb3611633565b815260200190600190039081610bab5790505b50905060005b600480549050811015610f185760005b600580549050811015610f0457856003600060048581548110610c0257610c0161219a565b5b9060005260206000200160009054906101000a900473ffffffffffffffffffffffffffffffffffffffff1673ffffffffffffffffffffffffffffffffffffffff1673ffffffffffffffffffffffffffffffffffffffff168152602001908152602001600020600060058481548110610c7d57610c7c61219a565b5b906000526020600020015481526020019081526020016000206000015403610ef1576000604051806060016040528060058481548110610cc057610cbf61219a565b5b906000526020600020015481526020016003600060048781548110610ce857610ce761219a565b5b9060005260206000200160009054906101000a900473ffffffffffffffffffffffffffffffffffffffff1673ffffffffffffffffffffffffffffffffffffffff1673ffffffffffffffffffffffffffffffffffffffff168152602001908152602001600020600060058681548110610d6357610d6261219a565b5b906000526020600020015481526020019081526020016000206001018054610d8a90611e8e565b80601f0160208091040260200160405190810160405280929190818152602001828054610db690611e8e565b8015610e035780601f10610dd857610100808354040283529160200191610e03565b820191906000526020600020905b815481529060010190602001808311610de657829003601f168201915b505050505081526020016003600060048781548110610e2557610e2461219a565b5b9060005260206000200160009054906101000a900473ffffffffffffffffffffffffffffffffffffffff1673ffffffffffffffffffffffffffffffffffffffff1673ffffffffffffffffffffffffffffffffffffffff168152602001908152602001600020600060058681548110610ea057610e9f61219a565b5b9060005260206000200154815260200190815260200160002060020154815250905080848681518110610ed657610ed561219a565b5b60200260200101819052508480610eec906121c9565b955050505b8080610efc906121c9565b915050610bdc565b508080610f10906121c9565b915050610bcc565b508092505050919050565b83600080600090505b600580549050811015610f7a578260058281548110610f4e57610f4d61219a565b5b906000526020600020015403610f675760019150610f7a565b8080610f72906121c9565b915050610f2c565b506000151581151514610fc2576040517f08c379a0000000000000000000000000000000000000000000000000000000008152600401610fb99061225d565b60405180910390fd5b6004339080600181540180825580915050600190039060005260206000200160009091909190916101000a81548173ffffffffffffffffffffffffffffffffffffffff021916908373ffffffffffffffffffffffffffffffffffffffff1602179055506005869080600181540180825580915050600190039060005260206000200160009091909190915055604051806080016040528086815260200185815260200184815260200160011515815250600360003373ffffffffffffffffffffffffffffffffffffffff1673ffffffffffffffffffffffffffffffffffffffff16815260200190815260200160002060008881526020019081526020016000206000820151816000015560208201518160010190816110e19190612429565b506040820151816002015560608201518160030160006101000a81548160ff0219169083151502179055509050507f5d6a2bcc788747229fc037665be0cbbe3c7839036b19181f00c2a6aab53c47af33876040516111409291906124fb565b60405180910390a1505050505050565b80600360003373ffffffffffffffffffffffffffffffffffffffff1673ffffffffffffffffffffffffffffffffffffffff1681526020019081526020016000206000848152602001908152602001600020600201546111af9190611ffa565b600360003373ffffffffffffffffffffffffffffffffffffffff1673ffffffffffffffffffffffffffffffffffffffff1681526020019081526020016000206000848152602001908152602001600020600201819055507f0fb0df1c9c2e29dc4e6a7727d508f554994b0557214379f9bd9ef03529d348c3338383604051611239939291906120f7565b60405180910390a15050565b6004818154811061125557600080fd5b906000526020600020016000915054906101000a900473ffffffffffffffffffffffffffffffffffffffff1681565b6005818154811061129457600080fd5b906000526020600020016000915090505481565b6060600060058054905067ffffffffffffffff8111156112cb576112ca611b40565b5b60405190808252806020026020018201604052801561130457816020015b6112f1611654565b8152602001906001900390816112e95790505b509050600080600090505b6005805490508110156116065760011515600360003373ffffffffffffffffffffffffffffffffffffffff1673ffffffffffffffffffffffffffffffffffffffff1681526020019081526020016000206000600584815481106113755761137461219a565b5b9060005260206000200154815260200190815260200160002060030160009054906101000a900460ff161515036115f35760006040518060800160405280600584815481106113c7576113c661219a565b5b90600052602060002001548152602001600360003373ffffffffffffffffffffffffffffffffffffffff1673ffffffffffffffffffffffffffffffffffffffff16815260200190815260200160002060006005868154811061142c5761142b61219a565b5b90600052602060002001548152602001908152602001600020600001548152602001600360003373ffffffffffffffffffffffffffffffffffffffff1673ffffffffffffffffffffffffffffffffffffffff1681526020019081526020016000206000600586815481106114a3576114a261219a565b5b9060005260206000200154815260200190815260200160002060010180546114ca90611e8e565b80601f01602080910402602001604051908101604052809291908181526020018280546114f690611e8e565b80156115435780601f1061151857610100808354040283529160200191611543565b820191906000526020600020905b81548152906001019060200180831161152657829003601f168201915b50505050508152602001600360003373ffffffffffffffffffffffffffffffffffffffff1673ffffffffffffffffffffffffffffffffffffffff1681526020019081526020016000206000600586815481106115a2576115a161219a565b5b90600052602060002001548152602001908152602001600020600201548152509050808484815181106115d8576115d761219a565b5b602002602001018190525082806115ee906121c9565b935050505b80806115fe906121c9565b91505061130f565b50819250505090565b60008054906101000a900473ffffffffffffffffffffffffffffffffffffffff1681565b60405180606001604052806000815260200160608152602001600081525090565b6040518060800160405280600081526020016000815260200160608152602001600081525090565b6000604051905090565b600080fd5b600080fd5b6000819050919050565b6116a381611690565b81146116ae57600080fd5b50565b6000813590506116c08161169a565b92915050565b6000602082840312156116dc576116db611686565b5b60006116ea848285016116b1565b91505092915050565b6116fc81611690565b82525050565b600081519050919050565b600082825260208201905092915050565b60005b8381101561173c578082015181840152602081019050611721565b60008484015250505050565b6000601f19601f8301169050919050565b600061176482611702565b61176e818561170d565b935061177e81856020860161171e565b61178781611748565b840191505092915050565b60006080820190506117a760008301876116f3565b6117b460208301866116f3565b81810360408301526117c68185611759565b90506117d560608301846116f3565b95945050505050565b600073ffffffffffffffffffffffffffffffffffffffff82169050919050565b6000611809826117de565b9050919050565b611819816117fe565b811461182457600080fd5b50565b60008135905061183681611810565b92915050565b6000806000806080858703121561185657611855611686565b5b6000611864878288016116b1565b9450506020611875878288016116b1565b935050604061188687828801611827565b9250506060611897878288016116b1565b91505092959194509250565b600080604083850312156118ba576118b9611686565b5b60006118c885828601611827565b92505060206118d9858286016116b1565b9150509250929050565b60006020820190506118f860008301846116f3565b92915050565b6000806040838503121561191557611914611686565b5b6000611923858286016116b1565b9250506020611934858286016116b1565b9150509250929050565b60006020828403121561195457611953611686565b5b600061196284828501611827565b91505092915050565b600060608201905061198060008301866116f3565b81810360208301526119928185611759565b90506119a160408301846116f3565b949350505050565b600081519050919050565b600082825260208201905092915050565b6000819050602082019050919050565b6119de81611690565b82525050565b600082825260208201905092915050565b6000611a0082611702565b611a0a81856119e4565b9350611a1a81856020860161171e565b611a2381611748565b840191505092915050565b6000606083016000830151611a4660008601826119d5565b5060208301518482036020860152611a5e82826119f5565b9150506040830151611a7360408601826119d5565b508091505092915050565b6000611a8a8383611a2e565b905092915050565b6000602082019050919050565b6000611aaa826119a9565b611ab481856119b4565b935083602082028501611ac6856119c5565b8060005b85811015611b025784840389528151611ae38582611a7e565b9450611aee83611a92565b925060208a01995050600181019050611aca565b50829750879550505050505092915050565b60006020820190508181036000830152611b2e8184611a9f565b905092915050565b600080fd5b600080fd5b7f4e487b7100000000000000000000000000000000000000000000000000000000600052604160045260246000fd5b611b7882611748565b810181811067ffffffffffffffff82111715611b9757611b96611b40565b5b80604052505050565b6000611baa61167c565b9050611bb68282611b6f565b919050565b600067ffffffffffffffff821115611bd657611bd5611b40565b5b611bdf82611748565b9050602081019050919050565b82818337600083830152505050565b6000611c0e611c0984611bbb565b611ba0565b905082815260208101848484011115611c2a57611c29611b3b565b5b611c35848285611bec565b509392505050565b600082601f830112611c5257611c51611b36565b5b8135611c62848260208601611bfb565b91505092915050565b60008060008060808587031215611c8557611c84611686565b5b6000611c93878288016116b1565b9450506020611ca4878288016116b1565b935050604085013567ffffffffffffffff811115611cc557611cc461168b565b5b611cd187828801611c3d565b9250506060611ce2878288016116b1565b91505092959194509250565b611cf7816117fe565b82525050565b6000602082019050611d126000830184611cee565b92915050565b600081519050919050565b600082825260208201905092915050565b6000819050602082019050919050565b6000608083016000830151611d5c60008601826119d5565b506020830151611d6f60208601826119d5565b5060408301518482036040860152611d8782826119f5565b9150506060830151611d9c60608601826119d5565b508091505092915050565b6000611db38383611d44565b905092915050565b6000602082019050919050565b6000611dd382611d18565b611ddd8185611d23565b935083602082028501611def85611d34565b8060005b85811015611e2b5784840389528151611e0c8582611da7565b9450611e1783611dbb565b925060208a01995050600181019050611df3565b50829750879550505050505092915050565b60006020820190508181036000830152611e578184611dc8565b905092915050565b7f4e487b7100000000000000000000000000000000000000000000000000000000600052602260045260246000fd5b60006002820490506001821680611ea657607f821691505b602082108103611eb957611eb8611e5f565b5b50919050565b7f496e636f7272656374204163636f756e74204e756d6265720000000000000000600082015250565b6000611ef560188361170d565b9150611f0082611ebf565b602082019050919050565b60006020820190508181036000830152611f2481611ee8565b9050919050565b7f496e73756666696369656e742042616c616e6365000000000000000000000000600082015250565b6000611f6160148361170d565b9150611f6c82611f2b565b602082019050919050565b60006020820190508181036000830152611f9081611f54565b9050919050565b7f4e487b7100000000000000000000000000000000000000000000000000000000600052601160045260246000fd5b6000611fd182611690565b9150611fdc83611690565b9250828203905081811115611ff457611ff3611f97565b5b92915050565b600061200582611690565b915061201083611690565b925082820190508082111561202857612027611f97565b5b92915050565b600060608201905061204360008301866116f3565b61205060208301856116f3565b61205d60408301846116f3565b949350505050565b7f4163636f756e7420646f6573206e6f742062656c6f6e677320746f207468697360008201527f2041646472657373000000000000000000000000000000000000000000000000602082015250565b60006120c160288361170d565b91506120cc82612065565b604082019050919050565b600060208201905081810360008301526120f0816120b4565b9050919050565b600060608201905061210c6000830186611cee565b61211960208301856116f3565b61212660408301846116f3565b949350505050565b7f556e617574686f72697a6564207065726d697373696f6e000000000000000000600082015250565b600061216460178361170d565b915061216f8261212e565b602082019050919050565b6000602082019050818103600083015261219381612157565b9050919050565b7f4e487b7100000000000000000000000000000000000000000000000000000000600052603260045260246000fd5b60006121d482611690565b91507fffffffffffffffffffffffffffffffffffffffffffffffffffffffffffffffff820361220657612205611f97565b5b600182019050919050565b7f4163636f756e7420416c72656164792045786973740000000000000000000000600082015250565b600061224760158361170d565b915061225282612211565b602082019050919050565b600060208201905081810360008301526122768161223a565b9050919050565b60008190508160005260206000209050919050565b60006020601f8301049050919050565b600082821b905092915050565b6000600883026122df7fffffffffffffffffffffffffffffffffffffffffffffffffffffffffffffffff826122a2565b6122e986836122a2565b95508019841693508086168417925050509392505050565b6000819050919050565b600061232661232161231c84611690565b612301565b611690565b9050919050565b6000819050919050565b6123408361230b565b61235461234c8261232d565b8484546122af565b825550505050565b600090565b61236961235c565b612374818484612337565b505050565b5b818110156123985761238d600082612361565b60018101905061237a565b5050565b601f8211156123dd576123ae8161227d565b6123b784612292565b810160208510156123c6578190505b6123da6123d285612292565b830182612379565b50505b505050565b600082821c905092915050565b6000612400600019846008026123e2565b1980831691505092915050565b600061241983836123ef565b9150826002028217905092915050565b61243282611702565b67ffffffffffffffff81111561244b5761244a611b40565b5b6124558254611e8e565b61246082828561239c565b600060209050601f8311600181146124935760008415612481578287015190505b61248b858261240d565b8655506124f3565b601f1984166124a18661227d565b60005b828110156124c9578489015182556001820191506020850194506020810190506124a4565b868310156124e657848901516124e2601f8916826123ef565b8355505b6001600288020188555050505b505050505050565b60006040820190506125106000830185611cee565b61251d60208301846116f3565b939250505056fea26469706673582212209c1fe55b4ef6d49902ec577bc8b8ee3fbf9941824a8d1777a522711e28ac138e64736f6c63430008100033",
  "linkReferences": {},
  "deployedLinkReferences": {}
}