{
  "_format": "hh-sol-artifact-1",
  "contractName": "functions",
  "sourceName": "contracts/functions.sol",
  "abi": [
    {
      "inputs": [],
      "stateMutability": "nonpayable",
      "type": "constructor"
    },
    {
      "anonymous": false,
      "inputs": [
        {
          "indexed": false,
          "internalType": "address",
          "name": "accountAddress",
          "type": "address"
        },
        {
          "indexed": false,
          "internalType": "uint256",
          "name": "accountNumber",
          "type": "uint256"
        }
      ],
      "name": "eventAccountCreation",
      "type": "event"
    },
    {
      "anonymous": false,
      "inputs": [
        {
          "indexed": false,
          "internalType": "address",
          "name": "accountAddress",
          "type": "address"
        },
        {
          "indexed": false,
          "internalType": "uint256",
          "name": "accountNumber",
          "type": "uint256"
        },
        {
          "indexed": false,
          "internalType": "uint256",
          "name": "depositedBalance",
          "type": "uint256"
        }
      ],
      "name": "eventBalanceDeposit",
      "type": "event"
    },
    {
      "anonymous": false,
      "inputs": [
        {
          "indexed": false,
          "internalType": "uint256",
          "name": "accountFrom",
          "type": "uint256"
        },
        {
          "indexed": false,
          "internalType": "uint256",
          "name": "accountTo",
          "type": "uint256"
        },
        {
          "indexed": false,
          "internalType": "uint256",
          "name": "transferedBalance",
          "type": "uint256"
        }
      ],
      "name": "eventBalanceTransfer",
      "type": "event"
    },
    {
      "anonymous": false,
      "inputs": [
        {
          "indexed": false,
          "internalType": "address",
          "name": "accountAddress",
          "type": "address"
        },
        {
          "indexed": false,
          "internalType": "uint256",
          "name": "accountNumber",
          "type": "uint256"
        },
        {
          "indexed": false,
          "internalType": "uint256",
          "name": "withdrawlBalance",
          "type": "uint256"
        }
      ],
      "name": "eventBalanceWithdraw",
      "type": "event"
    },
    {
      "inputs": [
        {
          "internalType": "uint256",
          "name": "",
          "type": "uint256"
        }
      ],
      "name": "accounts",
      "outputs": [
        {
          "internalType": "uint256",
          "name": "",
          "type": "uint256"
        }
      ],
      "stateMutability": "view",
      "type": "function"
    },
    {
      "inputs": [
        {
          "internalType": "uint256",
          "name": "",
          "type": "uint256"
        }
      ],
      "name": "addresses",
      "outputs": [
        {
          "internalType": "address",
          "name": "",
          "type": "address"
        }
      ],
      "stateMutability": "view",
      "type": "function"
    },
    {
      "inputs": [],
      "name": "admin",
      "outputs": [
        {
          "internalType": "address",
          "name": "",
          "type": "address"
        }
      ],
      "stateMutability": "view",
      "type": "function"
    },
    {
      "inputs": [
        {
          "internalType": "uint256",
          "name": "_fromAccount",
          "type": "uint256"
        },
        {
          "internalType": "uint256",
          "name": "_toAccount",
          "type": "uint256"
        },
        {
          "internalType": "address",
          "name": "_toAddress",
          "type": "address"
        },
        {
          "internalType": "uint256",
          "name": "_balance",
          "type": "uint256"
        }
      ],
      "name": "balanceTransfer",
      "outputs": [],
      "stateMutability": "nonpayable",
      "type": "function"
    },
    {
      "inputs": [
        {
          "internalType": "address",
          "name": "_newAdmin",
          "type": "address"
        }
      ],
      "name": "changeAdmin",
      "outputs": [],
      "stateMutability": "nonpayable",
      "type": "function"
    },
    {
      "inputs": [
        {
          "internalType": "uint256",
          "name": "_accountNumber",
          "type": "uint256"
        },
        {
          "internalType": "uint256",
          "name": "_bankName",
          "type": "uint256"
        },
        {
          "internalType": "string",
          "name": "_branch",
          "type": "string"
        },
        {
          "internalType": "uint256",
          "name": "_balance",
          "type": "uint256"
        }
      ],
      "name": "createAccount",
      "outputs": [],
      "stateMutability": "nonpayable",
      "type": "function"
    },
    {
      "inputs": [
        {
          "internalType": "uint256",
          "name": "_accountNumber",
          "type": "uint256"
        },
        {
          "internalType": "uint256",
          "name": "_depositbalance",
          "type": "uint256"
        }
      ],
      "name": "deposit",
      "outputs": [],
      "stateMutability": "nonpayable",
      "type": "function"
    },
    {
      "inputs": [
        {
          "internalType": "address",
          "name": "_addressCheckBalance",
          "type": "address"
        },
        {
          "internalType": "uint256",
          "name": "_accountCheckBalance",
          "type": "uint256"
        }
      ],
      "name": "getBalance",
      "outputs": [
        {
          "internalType": "uint256",
          "name": "",
          "type": "uint256"
        }
      ],
      "stateMutability": "view",
      "type": "function"
    },
    {
      "inputs": [
        {
          "internalType": "uint256",
          "name": "_bankName",
          "type": "uint256"
        }
      ],
      "name": "getBankData",
      "outputs": [
        {
          "components": [
            {
              "internalType": "uint256",
              "name": "accountNumber",
              "type": "uint256"
            },
            {
              "internalType": "string",
              "name": "branch",
              "type": "string"
            },
            {
              "internalType": "uint256",
              "name": "balance",
              "type": "uint256"
            }
          ],
          "internalType": "struct data.returnBankData[]",
          "name": "",
          "type": "tuple[]"
        }
      ],
      "stateMutability": "view",
      "type": "function"
    },
    {
      "inputs": [],
      "name": "personalInfo",
      "outputs": [
        {
          "components": [
            {
              "internalType": "uint256",
              "name": "accountNumber",
              "type": "uint256"
            },
            {
              "internalType": "uint256",
              "name": "bankName",
              "type": "uint256"
            },
            {
              "internalType": "string",
              "name": "branch",
              "type": "string"
            },
            {
              "internalType": "uint256",
              "name": "balance",
              "type": "uint256"
            }
          ],
          "internalType": "struct data.returnData[]",
          "name": "",
          "type": "tuple[]"
        }
      ],
      "stateMutability": "view",
      "type": "function"
    },
    {
      "inputs": [
        {
          "internalType": "uint256",
          "name": "",
          "type": "uint256"
        }
      ],
      "name": "returnBankDataArray",
      "outputs": [
        {
          "internalType": "uint256",
          "name": "accountNumber",
          "type": "uint256"
        },
        {
          "internalType": "string",
          "name": "branch",
          "type": "string"
        },
        {
          "internalType": "uint256",
          "name": "balance",
          "type": "uint256"
        }
      ],
      "stateMutability": "view",
      "type": "function"
    },
    {
      "inputs": [
        {
          "internalType": "uint256",
          "name": "",
          "type": "uint256"
        }
      ],
      "name": "returnDataArray",
      "outputs": [
        {
          "internalType": "uint256",
          "name": "accountNumber",
          "type": "uint256"
        },
        {
          "internalType": "uint256",
          "name": "bankName",
          "type": "uint256"
        },
        {
          "internalType": "string",
          "name": "branch",
          "type": "string"
        },
        {
          "internalType": "uint256",
          "name": "balance",
          "type": "uint256"
        }
      ],
      "stateMutability": "view",
      "type": "function"
    },
    {
      "inputs": [
        {
          "internalType": "uint256",
          "name": "_accountNumber",
          "type": "uint256"
        },
        {
          "internalType": "uint256",
          "name": "_withdrawbalance",
          "type": "uint256"
        }
      ],
      "name": "withdraw",
      "outputs": [],
      "stateMutability": "nonpayable",
      "type": "function"
    }
  ],
  "bytecode": "0x608060405234801561001057600080fd5b50336000806101000a81548173ffffffffffffffffffffffffffffffffffffffff021916908373ffffffffffffffffffffffffffffffffffffffff160217905550612523806100606000396000f3fe608060405234801561001057600080fd5b50600436106100cf5760003560e01c8063b26ea7981161008c578063edf26d9b11610066578063edf26d9b14610225578063f2a40db814610255578063f2dbf12e14610285578063f851a440146102a3576100cf565b8063b26ea798146101bd578063c8cb55ae146101ed578063e2bbb15814610209576100cf565b8063078c9ed3146100d457806315f1d66d146101075780632b04e84014610123578063441a3e70146101535780638f2839701461016f578063b0fb25cc1461018b575b600080fd5b6100ee60048036038101906100e9919061168f565b6102c1565b6040516100fe949392919061175b565b60405180910390f35b610121600480360381019061011c9190611805565b610389565b005b61013d6004803603810190610138919061186c565b61067b565b60405161014a91906118ac565b60405180910390f35b61016d600480360381019061016891906118c7565b6106d9565b005b61018960048036038101906101849190611907565b610911565b005b6101a560048036038101906101a0919061168f565b6109e2565b6040516101b493929190611934565b60405180910390f35b6101d760048036038101906101d2919061168f565b610aa4565b6040516101e49190611add565b60405180910390f35b61020760048036038101906102029190611c34565b610eec565b005b610223600480360381019061021e91906118c7565b611119565b005b61023f600480360381019061023a919061168f565b61120e565b60405161024c9190611cc6565b60405180910390f35b61026f600480360381019061026a919061168f565b61124d565b60405161027c91906118ac565b60405180910390f35b61028d611271565b60405161029a9190611e06565b60405180910390f35b6102ab6115d8565b6040516102b89190611cc6565b60405180910390f35b600181815481106102d157600080fd5b906000526020600020906004020160009150905080600001549080600101549080600201805461030090611e57565b80601f016020809104026020016040519081016040528092919081815260200182805461032c90611e57565b80156103795780601f1061034e57610100808354040283529160200191610379565b820191906000526020600020905b81548152906001019060200180831161035c57829003601f168201915b5050505050908060030154905084565b838180600360003373ffffffffffffffffffffffffffffffffffffffff1673ffffffffffffffffffffffffffffffffffffffff1681526020019081526020016000206000848152602001908152602001600020600201541015610421576040517f08c379a000000000000000000000000000000000000000000000000000000000815260040161041890611ed4565b60405180910390fd5b838560011515600360008473ffffffffffffffffffffffffffffffffffffffff1673ffffffffffffffffffffffffffffffffffffffff168152602001908152602001600020600083815260200190815260200160002060030160009054906101000a900460ff161515146104ca576040517f08c379a00000000000000000000000000000000000000000000000000000000081526004016104c190611f40565b60405180910390fd5b84600360003373ffffffffffffffffffffffffffffffffffffffff1673ffffffffffffffffffffffffffffffffffffffff16815260200190815260200160002060008a8152602001908152602001600020600201546105299190611f8f565b600360003373ffffffffffffffffffffffffffffffffffffffff1673ffffffffffffffffffffffffffffffffffffffff16815260200190815260200160002060008a81526020019081526020016000206002018190555084600360008873ffffffffffffffffffffffffffffffffffffffff1673ffffffffffffffffffffffffffffffffffffffff1681526020019081526020016000206000898152602001908152602001600020600201546105df9190611fc3565b600360008873ffffffffffffffffffffffffffffffffffffffff1673ffffffffffffffffffffffffffffffffffffffff1681526020019081526020016000206000898152602001908152602001600020600201819055507f3ae171700b753029289ca9d3e702a670ca0dfcdb96ed3edad8a3ec095bd83b7c88888760405161066993929190611ff7565b60405180910390a15050505050505050565b6000600360008473ffffffffffffffffffffffffffffffffffffffff1673ffffffffffffffffffffffffffffffffffffffff168152602001908152602001600020600083815260200190815260200160002060020154905092915050565b818180600360003373ffffffffffffffffffffffffffffffffffffffff1673ffffffffffffffffffffffffffffffffffffffff1681526020019081526020016000206000848152602001908152602001600020600201541015610771576040517f08c379a000000000000000000000000000000000000000000000000000000000815260040161076890611ed4565b60405180910390fd5b8360011515600360003373ffffffffffffffffffffffffffffffffffffffff1673ffffffffffffffffffffffffffffffffffffffff168152602001908152602001600020600083815260200190815260200160002060030160009054906101000a900460ff16151514610819576040517f08c379a0000000000000000000000000000000000000000000000000000000008152600401610810906120a0565b60405180910390fd5b83600360003373ffffffffffffffffffffffffffffffffffffffff1673ffffffffffffffffffffffffffffffffffffffff1681526020019081526020016000206000878152602001908152602001600020600201546108789190611f8f565b600360003373ffffffffffffffffffffffffffffffffffffffff1673ffffffffffffffffffffffffffffffffffffffff1681526020019081526020016000206000878152602001908152602001600020600201819055507f0fb0df1c9c2e29dc4e6a7727d508f554994b0557214379f9bd9ef03529d348c3338686604051610902939291906120c0565b60405180910390a15050505050565b60008054906101000a900473ffffffffffffffffffffffffffffffffffffffff1673ffffffffffffffffffffffffffffffffffffffff163373ffffffffffffffffffffffffffffffffffffffff161461099f576040517f08c379a000000000000000000000000000000000000000000000000000000000815260040161099690612143565b60405180910390fd5b806000806101000a81548173ffffffffffffffffffffffffffffffffffffffff021916908373ffffffffffffffffffffffffffffffffffffffff16021790555050565b600281815481106109f257600080fd5b9060005260206000209060030201600091509050806000015490806001018054610a1b90611e57565b80601f0160208091040260200160405190810160405280929190818152602001828054610a4790611e57565b8015610a945780601f10610a6957610100808354040283529160200191610a94565b820191906000526020600020905b815481529060010190602001808311610a7757829003601f168201915b5050505050908060020154905083565b606060008054906101000a900473ffffffffffffffffffffffffffffffffffffffff1673ffffffffffffffffffffffffffffffffffffffff163373ffffffffffffffffffffffffffffffffffffffff1614610b34576040517f08c379a0000000000000000000000000000000000000000000000000000000008152600401610b2b90612143565b60405180910390fd5b60008060058054905067ffffffffffffffff811115610b5657610b55611b09565b5b604051908082528060200260200182016040528015610b8f57816020015b610b7c6115fc565b815260200190600190039081610b745790505b50905060005b600480549050811015610ee15760005b600580549050811015610ecd57856003600060048581548110610bcb57610bca612163565b5b9060005260206000200160009054906101000a900473ffffffffffffffffffffffffffffffffffffffff1673ffffffffffffffffffffffffffffffffffffffff1673ffffffffffffffffffffffffffffffffffffffff168152602001908152602001600020600060058481548110610c4657610c45612163565b5b906000526020600020015481526020019081526020016000206000015403610eba576000604051806060016040528060058481548110610c8957610c88612163565b5b906000526020600020015481526020016003600060048781548110610cb157610cb0612163565b5b9060005260206000200160009054906101000a900473ffffffffffffffffffffffffffffffffffffffff1673ffffffffffffffffffffffffffffffffffffffff1673ffffffffffffffffffffffffffffffffffffffff168152602001908152602001600020600060058681548110610d2c57610d2b612163565b5b906000526020600020015481526020019081526020016000206001018054610d5390611e57565b80601f0160208091040260200160405190810160405280929190818152602001828054610d7f90611e57565b8015610dcc5780601f10610da157610100808354040283529160200191610dcc565b820191906000526020600020905b815481529060010190602001808311610daf57829003601f168201915b505050505081526020016003600060048781548110610dee57610ded612163565b5b9060005260206000200160009054906101000a900473ffffffffffffffffffffffffffffffffffffffff1673ffffffffffffffffffffffffffffffffffffffff1673ffffffffffffffffffffffffffffffffffffffff168152602001908152602001600020600060058681548110610e6957610e68612163565b5b9060005260206000200154815260200190815260200160002060020154815250905080848681518110610e9f57610e9e612163565b5b60200260200101819052508480610eb590612192565b955050505b8080610ec590612192565b915050610ba5565b508080610ed990612192565b915050610b95565b508092505050919050565b83600080600090505b600580549050811015610f43578260058281548110610f1757610f16612163565b5b906000526020600020015403610f305760019150610f43565b8080610f3b90612192565b915050610ef5565b506000151581151514610f8b576040517f08c379a0000000000000000000000000000000000000000000000000000000008152600401610f8290612226565b60405180910390fd5b6004339080600181540180825580915050600190039060005260206000200160009091909190916101000a81548173ffffffffffffffffffffffffffffffffffffffff021916908373ffffffffffffffffffffffffffffffffffffffff1602179055506005869080600181540180825580915050600190039060005260206000200160009091909190915055604051806080016040528086815260200185815260200184815260200160011515815250600360003373ffffffffffffffffffffffffffffffffffffffff1673ffffffffffffffffffffffffffffffffffffffff16815260200190815260200160002060008881526020019081526020016000206000820151816000015560208201518160010190816110aa91906123f2565b506040820151816002015560608201518160030160006101000a81548160ff0219169083151502179055509050507f5d6a2bcc788747229fc037665be0cbbe3c7839036b19181f00c2a6aab53c47af33876040516111099291906124c4565b60405180910390a1505050505050565b80600360003373ffffffffffffffffffffffffffffffffffffffff1673ffffffffffffffffffffffffffffffffffffffff1681526020019081526020016000206000848152602001908152602001600020600201546111789190611fc3565b600360003373ffffffffffffffffffffffffffffffffffffffff1673ffffffffffffffffffffffffffffffffffffffff1681526020019081526020016000206000848152602001908152602001600020600201819055507f0fb0df1c9c2e29dc4e6a7727d508f554994b0557214379f9bd9ef03529d348c3338383604051611202939291906120c0565b60405180910390a15050565b6004818154811061121e57600080fd5b906000526020600020016000915054906101000a900473ffffffffffffffffffffffffffffffffffffffff1681565b6005818154811061125d57600080fd5b906000526020600020016000915090505481565b6060600060058054905067ffffffffffffffff81111561129457611293611b09565b5b6040519080825280602002602001820160405280156112cd57816020015b6112ba61161d565b8152602001906001900390816112b25790505b509050600080600090505b6005805490508110156115cf5760011515600360003373ffffffffffffffffffffffffffffffffffffffff1673ffffffffffffffffffffffffffffffffffffffff16815260200190815260200160002060006005848154811061133e5761133d612163565b5b9060005260206000200154815260200190815260200160002060030160009054906101000a900460ff161515036115bc5760006040518060800160405280600584815481106113905761138f612163565b5b90600052602060002001548152602001600360003373ffffffffffffffffffffffffffffffffffffffff1673ffffffffffffffffffffffffffffffffffffffff1681526020019081526020016000206000600586815481106113f5576113f4612163565b5b90600052602060002001548152602001908152602001600020600001548152602001600360003373ffffffffffffffffffffffffffffffffffffffff1673ffffffffffffffffffffffffffffffffffffffff16815260200190815260200160002060006005868154811061146c5761146b612163565b5b90600052602060002001548152602001908152602001600020600101805461149390611e57565b80601f01602080910402602001604051908101604052809291908181526020018280546114bf90611e57565b801561150c5780601f106114e15761010080835404028352916020019161150c565b820191906000526020600020905b8154815290600101906020018083116114ef57829003601f168201915b50505050508152602001600360003373ffffffffffffffffffffffffffffffffffffffff1673ffffffffffffffffffffffffffffffffffffffff16815260200190815260200160002060006005868154811061156b5761156a612163565b5b90600052602060002001548152602001908152602001600020600201548152509050808484815181106115a1576115a0612163565b5b602002602001018190525082806115b790612192565b935050505b80806115c790612192565b9150506112d8565b50819250505090565b60008054906101000a900473ffffffffffffffffffffffffffffffffffffffff1681565b60405180606001604052806000815260200160608152602001600081525090565b6040518060800160405280600081526020016000815260200160608152602001600081525090565b6000604051905090565b600080fd5b600080fd5b6000819050919050565b61166c81611659565b811461167757600080fd5b50565b60008135905061168981611663565b92915050565b6000602082840312156116a5576116a461164f565b5b60006116b38482850161167a565b91505092915050565b6116c581611659565b82525050565b600081519050919050565b600082825260208201905092915050565b60005b838110156117055780820151818401526020810190506116ea565b60008484015250505050565b6000601f19601f8301169050919050565b600061172d826116cb565b61173781856116d6565b93506117478185602086016116e7565b61175081611711565b840191505092915050565b600060808201905061177060008301876116bc565b61177d60208301866116bc565b818103604083015261178f8185611722565b905061179e60608301846116bc565b95945050505050565b600073ffffffffffffffffffffffffffffffffffffffff82169050919050565b60006117d2826117a7565b9050919050565b6117e2816117c7565b81146117ed57600080fd5b50565b6000813590506117ff816117d9565b92915050565b6000806000806080858703121561181f5761181e61164f565b5b600061182d8782880161167a565b945050602061183e8782880161167a565b935050604061184f878288016117f0565b92505060606118608782880161167a565b91505092959194509250565b600080604083850312156118835761188261164f565b5b6000611891858286016117f0565b92505060206118a28582860161167a565b9150509250929050565b60006020820190506118c160008301846116bc565b92915050565b600080604083850312156118de576118dd61164f565b5b60006118ec8582860161167a565b92505060206118fd8582860161167a565b9150509250929050565b60006020828403121561191d5761191c61164f565b5b600061192b848285016117f0565b91505092915050565b600060608201905061194960008301866116bc565b818103602083015261195b8185611722565b905061196a60408301846116bc565b949350505050565b600081519050919050565b600082825260208201905092915050565b6000819050602082019050919050565b6119a781611659565b82525050565b600082825260208201905092915050565b60006119c9826116cb565b6119d381856119ad565b93506119e38185602086016116e7565b6119ec81611711565b840191505092915050565b6000606083016000830151611a0f600086018261199e565b5060208301518482036020860152611a2782826119be565b9150506040830151611a3c604086018261199e565b508091505092915050565b6000611a5383836119f7565b905092915050565b6000602082019050919050565b6000611a7382611972565b611a7d818561197d565b935083602082028501611a8f8561198e565b8060005b85811015611acb5784840389528151611aac8582611a47565b9450611ab783611a5b565b925060208a01995050600181019050611a93565b50829750879550505050505092915050565b60006020820190508181036000830152611af78184611a68565b905092915050565b600080fd5b600080fd5b7f4e487b7100000000000000000000000000000000000000000000000000000000600052604160045260246000fd5b611b4182611711565b810181811067ffffffffffffffff82111715611b6057611b5f611b09565b5b80604052505050565b6000611b73611645565b9050611b7f8282611b38565b919050565b600067ffffffffffffffff821115611b9f57611b9e611b09565b5b611ba882611711565b9050602081019050919050565b82818337600083830152505050565b6000611bd7611bd284611b84565b611b69565b905082815260208101848484011115611bf357611bf2611b04565b5b611bfe848285611bb5565b509392505050565b600082601f830112611c1b57611c1a611aff565b5b8135611c2b848260208601611bc4565b91505092915050565b60008060008060808587031215611c4e57611c4d61164f565b5b6000611c5c8782880161167a565b9450506020611c6d8782880161167a565b935050604085013567ffffffffffffffff811115611c8e57611c8d611654565b5b611c9a87828801611c06565b9250506060611cab8782880161167a565b91505092959194509250565b611cc0816117c7565b82525050565b6000602082019050611cdb6000830184611cb7565b92915050565b600081519050919050565b600082825260208201905092915050565b6000819050602082019050919050565b6000608083016000830151611d25600086018261199e565b506020830151611d38602086018261199e565b5060408301518482036040860152611d5082826119be565b9150506060830151611d65606086018261199e565b508091505092915050565b6000611d7c8383611d0d565b905092915050565b6000602082019050919050565b6000611d9c82611ce1565b611da68185611cec565b935083602082028501611db885611cfd565b8060005b85811015611df45784840389528151611dd58582611d70565b9450611de083611d84565b925060208a01995050600181019050611dbc565b50829750879550505050505092915050565b60006020820190508181036000830152611e208184611d91565b905092915050565b7f4e487b7100000000000000000000000000000000000000000000000000000000600052602260045260246000fd5b60006002820490506001821680611e6f57607f821691505b602082108103611e8257611e81611e28565b5b50919050565b7f496e73756666696369656e742042616c616e6365000000000000000000000000600082015250565b6000611ebe6014836116d6565b9150611ec982611e88565b602082019050919050565b60006020820190508181036000830152611eed81611eb1565b9050919050565b7f496e636f7272656374204163636f756e74204e756d6265720000000000000000600082015250565b6000611f2a6018836116d6565b9150611f3582611ef4565b602082019050919050565b60006020820190508181036000830152611f5981611f1d565b9050919050565b7f4e487b7100000000000000000000000000000000000000000000000000000000600052601160045260246000fd5b6000611f9a82611659565b9150611fa583611659565b9250828203905081811115611fbd57611fbc611f60565b5b92915050565b6000611fce82611659565b9150611fd983611659565b9250828201905080821115611ff157611ff0611f60565b5b92915050565b600060608201905061200c60008301866116bc565b61201960208301856116bc565b61202660408301846116bc565b949350505050565b7f4163636f756e7420646f6573206e6f742062656c6f6e677320746f207468697360008201527f2041646472657373000000000000000000000000000000000000000000000000602082015250565b600061208a6028836116d6565b91506120958261202e565b604082019050919050565b600060208201905081810360008301526120b98161207d565b9050919050565b60006060820190506120d56000830186611cb7565b6120e260208301856116bc565b6120ef60408301846116bc565b949350505050565b7f556e617574686f72697a6564207065726d697373696f6e000000000000000000600082015250565b600061212d6017836116d6565b9150612138826120f7565b602082019050919050565b6000602082019050818103600083015261215c81612120565b9050919050565b7f4e487b7100000000000000000000000000000000000000000000000000000000600052603260045260246000fd5b600061219d82611659565b91507fffffffffffffffffffffffffffffffffffffffffffffffffffffffffffffffff82036121cf576121ce611f60565b5b600182019050919050565b7f4163636f756e7420416c72656164792045786973740000000000000000000000600082015250565b60006122106015836116d6565b915061221b826121da565b602082019050919050565b6000602082019050818103600083015261223f81612203565b9050919050565b60008190508160005260206000209050919050565b60006020601f8301049050919050565b600082821b905092915050565b6000600883026122a87fffffffffffffffffffffffffffffffffffffffffffffffffffffffffffffffff8261226b565b6122b2868361226b565b95508019841693508086168417925050509392505050565b6000819050919050565b60006122ef6122ea6122e584611659565b6122ca565b611659565b9050919050565b6000819050919050565b612309836122d4565b61231d612315826122f6565b848454612278565b825550505050565b600090565b612332612325565b61233d818484612300565b505050565b5b818110156123615761235660008261232a565b600181019050612343565b5050565b601f8211156123a65761237781612246565b6123808461225b565b8101602085101561238f578190505b6123a361239b8561225b565b830182612342565b50505b505050565b600082821c905092915050565b60006123c9600019846008026123ab565b1980831691505092915050565b60006123e283836123b8565b9150826002028217905092915050565b6123fb826116cb565b67ffffffffffffffff81111561241457612413611b09565b5b61241e8254611e57565b612429828285612365565b600060209050601f83116001811461245c576000841561244a578287015190505b61245485826123d6565b8655506124bc565b601f19841661246a86612246565b60005b828110156124925784890151825560018201915060208501945060208101905061246d565b868310156124af57848901516124ab601f8916826123b8565b8355505b6001600288020188555050505b505050505050565b60006040820190506124d96000830185611cb7565b6124e660208301846116bc565b939250505056fea2646970667358221220096ce10dd7cde0196f1ee87c764d5c81b1f3e30874ba0f75f7d52fe85448c38464736f6c63430008100033",
  "linkReferences": {},
  "deployedLinkReferences": {}
}