{
  "_format": "hh-sol-artifact-1",
  "contractName": "Functions",
  "sourceName": "contracts/functions.sol",
  "abi": [
    {
      "inputs": [
        {
          "internalType": "uint256",
          "name": "",
          "type": "uint256"
        }
      ],
      "name": "accounts",
      "outputs": [
        {
          "internalType": "uint256",
          "name": "",
          "type": "uint256"
        }
      ],
      "stateMutability": "view",
      "type": "function"
    },
    {
      "inputs": [
        {
          "internalType": "uint256",
          "name": "",
          "type": "uint256"
        }
      ],
      "name": "addresses",
      "outputs": [
        {
          "internalType": "address",
          "name": "",
          "type": "address"
        }
      ],
      "stateMutability": "view",
      "type": "function"
    },
    {
      "inputs": [
        {
          "internalType": "uint256",
          "name": "_fromAccount",
          "type": "uint256"
        },
        {
          "internalType": "uint256",
          "name": "_toAccount",
          "type": "uint256"
        },
        {
          "internalType": "address",
          "name": "_toAddress",
          "type": "address"
        },
        {
          "internalType": "uint256",
          "name": "_balance",
          "type": "uint256"
        }
      ],
      "name": "balanceTransfer",
      "outputs": [],
      "stateMutability": "nonpayable",
      "type": "function"
    },
    {
      "inputs": [
        {
          "internalType": "uint256",
          "name": "_accountNumber",
          "type": "uint256"
        },
        {
          "internalType": "uint256",
          "name": "_bankName",
          "type": "uint256"
        },
        {
          "internalType": "string",
          "name": "_branch",
          "type": "string"
        },
        {
          "internalType": "uint256",
          "name": "_balance",
          "type": "uint256"
        }
      ],
      "name": "createAccount",
      "outputs": [],
      "stateMutability": "nonpayable",
      "type": "function"
    },
    {
      "inputs": [
        {
          "internalType": "uint256",
          "name": "_accountNumber",
          "type": "uint256"
        },
        {
          "internalType": "uint256",
          "name": "_balance",
          "type": "uint256"
        }
      ],
      "name": "deposit",
      "outputs": [],
      "stateMutability": "nonpayable",
      "type": "function"
    },
    {
      "inputs": [
        {
          "internalType": "address",
          "name": "_addressCheckBalance",
          "type": "address"
        },
        {
          "internalType": "uint256",
          "name": "_accountCheckBalance",
          "type": "uint256"
        }
      ],
      "name": "getBalance",
      "outputs": [
        {
          "internalType": "uint256",
          "name": "",
          "type": "uint256"
        }
      ],
      "stateMutability": "view",
      "type": "function"
    },
    {
      "inputs": [
        {
          "internalType": "uint256",
          "name": "_bankName",
          "type": "uint256"
        }
      ],
      "name": "getBankData",
      "outputs": [
        {
          "components": [
            {
              "internalType": "uint256",
              "name": "accountNumber",
              "type": "uint256"
            },
            {
              "internalType": "string",
              "name": "branch",
              "type": "string"
            },
            {
              "internalType": "uint256",
              "name": "balance",
              "type": "uint256"
            }
          ],
          "internalType": "struct Data.returnBankData[]",
          "name": "",
          "type": "tuple[]"
        }
      ],
      "stateMutability": "view",
      "type": "function"
    },
    {
      "inputs": [],
      "name": "getSpecificAddressData",
      "outputs": [
        {
          "components": [
            {
              "internalType": "uint256",
              "name": "accountNumber",
              "type": "uint256"
            },
            {
              "internalType": "uint256",
              "name": "bankName",
              "type": "uint256"
            },
            {
              "internalType": "string",
              "name": "branch",
              "type": "string"
            },
            {
              "internalType": "uint256",
              "name": "balance",
              "type": "uint256"
            }
          ],
          "internalType": "struct Data.returnData[]",
          "name": "",
          "type": "tuple[]"
        }
      ],
      "stateMutability": "view",
      "type": "function"
    },
    {
      "inputs": [
        {
          "internalType": "uint256",
          "name": "",
          "type": "uint256"
        }
      ],
      "name": "returnBankDataArray",
      "outputs": [
        {
          "internalType": "uint256",
          "name": "accountNumber",
          "type": "uint256"
        },
        {
          "internalType": "string",
          "name": "branch",
          "type": "string"
        },
        {
          "internalType": "uint256",
          "name": "balance",
          "type": "uint256"
        }
      ],
      "stateMutability": "view",
      "type": "function"
    },
    {
      "inputs": [
        {
          "internalType": "uint256",
          "name": "",
          "type": "uint256"
        }
      ],
      "name": "returnDataArray",
      "outputs": [
        {
          "internalType": "uint256",
          "name": "accountNumber",
          "type": "uint256"
        },
        {
          "internalType": "uint256",
          "name": "bankName",
          "type": "uint256"
        },
        {
          "internalType": "string",
          "name": "branch",
          "type": "string"
        },
        {
          "internalType": "uint256",
          "name": "balance",
          "type": "uint256"
        }
      ],
      "stateMutability": "view",
      "type": "function"
    },
    {
      "inputs": [
        {
          "internalType": "uint256",
          "name": "_accountNumber",
          "type": "uint256"
        },
        {
          "internalType": "uint256",
          "name": "_balance",
          "type": "uint256"
        }
      ],
      "name": "withdraw",
      "outputs": [],
      "stateMutability": "nonpayable",
      "type": "function"
    }
  ],
  "bytecode": "0x608060405234801561001057600080fd5b50611ede806100206000396000f3fe608060405234801561001057600080fd5b50600436106100a95760003560e01c8063b0fb25cc11610071578063b0fb25cc14610167578063b26ea79814610199578063c8cb55ae146101c9578063e2bbb158146101e5578063edf26d9b14610201578063f2a40db814610231576100a9565b8063078c9ed3146100ae57806315f1d66d146100e15780632b04e840146100fd578063441a3e701461012d5780634c7a4ed014610149575b600080fd5b6100c860048036038101906100c39190611278565b610261565b6040516100d89493929190611344565b60405180910390f35b6100fb60048036038101906100f691906113ee565b610329565b005b61011760048036038101906101129190611455565b6105e0565b6040516101249190611495565b60405180910390f35b610147600480360381019061014291906114b0565b61063e565b005b610151610792565b60405161015e919061166e565b60405180910390f35b610181600480360381019061017c9190611278565b610af9565b60405161019093929190611690565b60405180910390f35b6101b360048036038101906101ae9190611278565b610bbb565b6040516101c091906117e0565b60405180910390f35b6101e360048036038101906101de9190611937565b610f75565b005b6101ff60048036038101906101fa91906114b0565b6110c8565b005b61021b60048036038101906102169190611278565b611182565b60405161022891906119c9565b60405180910390f35b61024b60048036038101906102469190611278565b6111c1565b6040516102589190611495565b60405180910390f35b6000818154811061027157600080fd5b90600052602060002090600402016000915090508060000154908060010154908060020180546102a090611a13565b80601f01602080910402602001604051908101604052809291908181526020018280546102cc90611a13565b80156103195780601f106102ee57610100808354040283529160200191610319565b820191906000526020600020905b8154815290600101906020018083116102fc57829003601f168201915b5050505050908060030154905084565b838180600260003373ffffffffffffffffffffffffffffffffffffffff1673ffffffffffffffffffffffffffffffffffffffff16815260200190815260200160002060008481526020019081526020016000206002015410156103c1576040517f08c379a00000000000000000000000000000000000000000000000000000000081526004016103b890611a90565b60405180910390fd5b838560011515600260008473ffffffffffffffffffffffffffffffffffffffff1673ffffffffffffffffffffffffffffffffffffffff168152602001908152602001600020600083815260200190815260200160002060030160009054906101000a900460ff1615151461046a576040517f08c379a000000000000000000000000000000000000000000000000000000000815260040161046190611afc565b60405180910390fd5b84600260003373ffffffffffffffffffffffffffffffffffffffff1673ffffffffffffffffffffffffffffffffffffffff16815260200190815260200160002060008a8152602001908152602001600020600201546104c99190611b4b565b600260003373ffffffffffffffffffffffffffffffffffffffff1673ffffffffffffffffffffffffffffffffffffffff16815260200190815260200160002060008a81526020019081526020016000206002018190555084600260008873ffffffffffffffffffffffffffffffffffffffff1673ffffffffffffffffffffffffffffffffffffffff16815260200190815260200160002060008981526020019081526020016000206002015461057f9190611b7f565b600260008873ffffffffffffffffffffffffffffffffffffffff1673ffffffffffffffffffffffffffffffffffffffff1681526020019081526020016000206000898152602001908152602001600020600201819055505050505050505050565b6000600260008473ffffffffffffffffffffffffffffffffffffffff1673ffffffffffffffffffffffffffffffffffffffff168152602001908152602001600020600083815260200190815260200160002060020154905092915050565b818180600260003373ffffffffffffffffffffffffffffffffffffffff1673ffffffffffffffffffffffffffffffffffffffff16815260200190815260200160002060008481526020019081526020016000206002015410156106d6576040517f08c379a00000000000000000000000000000000000000000000000000000000081526004016106cd90611a90565b60405180910390fd5b82600260003373ffffffffffffffffffffffffffffffffffffffff1673ffffffffffffffffffffffffffffffffffffffff1681526020019081526020016000206000868152602001908152602001600020600201546107359190611b4b565b600260003373ffffffffffffffffffffffffffffffffffffffff1673ffffffffffffffffffffffffffffffffffffffff16815260200190815260200160002060008681526020019081526020016000206002018190555050505050565b6060600060048054905067ffffffffffffffff8111156107b5576107b461180c565b5b6040519080825280602002602001820160405280156107ee57816020015b6107db6111e5565b8152602001906001900390816107d35790505b509050600080600090505b600480549050811015610af05760011515600260003373ffffffffffffffffffffffffffffffffffffffff1673ffffffffffffffffffffffffffffffffffffffff16815260200190815260200160002060006004848154811061085f5761085e611bb3565b5b9060005260206000200154815260200190815260200160002060030160009054906101000a900460ff16151503610add5760006040518060800160405280600484815481106108b1576108b0611bb3565b5b90600052602060002001548152602001600260003373ffffffffffffffffffffffffffffffffffffffff1673ffffffffffffffffffffffffffffffffffffffff16815260200190815260200160002060006004868154811061091657610915611bb3565b5b90600052602060002001548152602001908152602001600020600001548152602001600260003373ffffffffffffffffffffffffffffffffffffffff1673ffffffffffffffffffffffffffffffffffffffff16815260200190815260200160002060006004868154811061098d5761098c611bb3565b5b9060005260206000200154815260200190815260200160002060010180546109b490611a13565b80601f01602080910402602001604051908101604052809291908181526020018280546109e090611a13565b8015610a2d5780601f10610a0257610100808354040283529160200191610a2d565b820191906000526020600020905b815481529060010190602001808311610a1057829003601f168201915b50505050508152602001600260003373ffffffffffffffffffffffffffffffffffffffff1673ffffffffffffffffffffffffffffffffffffffff168152602001908152602001600020600060048681548110610a8c57610a8b611bb3565b5b9060005260206000200154815260200190815260200160002060020154815250905080848481518110610ac257610ac1611bb3565b5b60200260200101819052508280610ad890611be2565b935050505b8080610ae890611be2565b9150506107f9565b50819250505090565b60018181548110610b0957600080fd5b9060005260206000209060030201600091509050806000015490806001018054610b3290611a13565b80601f0160208091040260200160405190810160405280929190818152602001828054610b5e90611a13565b8015610bab5780601f10610b8057610100808354040283529160200191610bab565b820191906000526020600020905b815481529060010190602001808311610b8e57829003601f168201915b5050505050908060020154905083565b606060008060048054905067ffffffffffffffff811115610bdf57610bde61180c565b5b604051908082528060200260200182016040528015610c1857816020015b610c0561120d565b815260200190600190039081610bfd5790505b50905060005b600380549050811015610f6a5760005b600480549050811015610f5657856002600060038581548110610c5457610c53611bb3565b5b9060005260206000200160009054906101000a900473ffffffffffffffffffffffffffffffffffffffff1673ffffffffffffffffffffffffffffffffffffffff1673ffffffffffffffffffffffffffffffffffffffff168152602001908152602001600020600060048481548110610ccf57610cce611bb3565b5b906000526020600020015481526020019081526020016000206000015403610f43576000604051806060016040528060048481548110610d1257610d11611bb3565b5b906000526020600020015481526020016002600060038781548110610d3a57610d39611bb3565b5b9060005260206000200160009054906101000a900473ffffffffffffffffffffffffffffffffffffffff1673ffffffffffffffffffffffffffffffffffffffff1673ffffffffffffffffffffffffffffffffffffffff168152602001908152602001600020600060048681548110610db557610db4611bb3565b5b906000526020600020015481526020019081526020016000206001018054610ddc90611a13565b80601f0160208091040260200160405190810160405280929190818152602001828054610e0890611a13565b8015610e555780601f10610e2a57610100808354040283529160200191610e55565b820191906000526020600020905b815481529060010190602001808311610e3857829003601f168201915b505050505081526020016002600060038781548110610e7757610e76611bb3565b5b9060005260206000200160009054906101000a900473ffffffffffffffffffffffffffffffffffffffff1673ffffffffffffffffffffffffffffffffffffffff1673ffffffffffffffffffffffffffffffffffffffff168152602001908152602001600020600060048681548110610ef257610ef1611bb3565b5b9060005260206000200154815260200190815260200160002060020154815250905080848681518110610f2857610f27611bb3565b5b60200260200101819052508480610f3e90611be2565b955050505b8080610f4e90611be2565b915050610c2e565b508080610f6290611be2565b915050610c1e565b508092505050919050565b6003339080600181540180825580915050600190039060005260206000200160009091909190916101000a81548173ffffffffffffffffffffffffffffffffffffffff021916908373ffffffffffffffffffffffffffffffffffffffff1602179055506004849080600181540180825580915050600190039060005260206000200160009091909190915055604051806080016040528084815260200183815260200182815260200160011515815250600260003373ffffffffffffffffffffffffffffffffffffffff1673ffffffffffffffffffffffffffffffffffffffff16815260200190815260200160002060008681526020019081526020016000206000820151816000015560208201518160010190816110949190611dd6565b506040820151816002015560608201518160030160006101000a81548160ff02191690831515021790555090505050505050565b80600260003373ffffffffffffffffffffffffffffffffffffffff1673ffffffffffffffffffffffffffffffffffffffff1681526020019081526020016000206000848152602001908152602001600020600201546111279190611b7f565b600260003373ffffffffffffffffffffffffffffffffffffffff1673ffffffffffffffffffffffffffffffffffffffff1681526020019081526020016000206000848152602001908152602001600020600201819055505050565b6003818154811061119257600080fd5b906000526020600020016000915054906101000a900473ffffffffffffffffffffffffffffffffffffffff1681565b600481815481106111d157600080fd5b906000526020600020016000915090505481565b6040518060800160405280600081526020016000815260200160608152602001600081525090565b60405180606001604052806000815260200160608152602001600081525090565b6000604051905090565b600080fd5b600080fd5b6000819050919050565b61125581611242565b811461126057600080fd5b50565b6000813590506112728161124c565b92915050565b60006020828403121561128e5761128d611238565b5b600061129c84828501611263565b91505092915050565b6112ae81611242565b82525050565b600081519050919050565b600082825260208201905092915050565b60005b838110156112ee5780820151818401526020810190506112d3565b60008484015250505050565b6000601f19601f8301169050919050565b6000611316826112b4565b61132081856112bf565b93506113308185602086016112d0565b611339816112fa565b840191505092915050565b600060808201905061135960008301876112a5565b61136660208301866112a5565b8181036040830152611378818561130b565b905061138760608301846112a5565b95945050505050565b600073ffffffffffffffffffffffffffffffffffffffff82169050919050565b60006113bb82611390565b9050919050565b6113cb816113b0565b81146113d657600080fd5b50565b6000813590506113e8816113c2565b92915050565b6000806000806080858703121561140857611407611238565b5b600061141687828801611263565b945050602061142787828801611263565b9350506040611438878288016113d9565b925050606061144987828801611263565b91505092959194509250565b6000806040838503121561146c5761146b611238565b5b600061147a858286016113d9565b925050602061148b85828601611263565b9150509250929050565b60006020820190506114aa60008301846112a5565b92915050565b600080604083850312156114c7576114c6611238565b5b60006114d585828601611263565b92505060206114e685828601611263565b9150509250929050565b600081519050919050565b600082825260208201905092915050565b6000819050602082019050919050565b61152581611242565b82525050565b600082825260208201905092915050565b6000611547826112b4565b611551818561152b565b93506115618185602086016112d0565b61156a816112fa565b840191505092915050565b600060808301600083015161158d600086018261151c565b5060208301516115a0602086018261151c565b50604083015184820360408601526115b8828261153c565b91505060608301516115cd606086018261151c565b508091505092915050565b60006115e48383611575565b905092915050565b6000602082019050919050565b6000611604826114f0565b61160e81856114fb565b9350836020820285016116208561150c565b8060005b8581101561165c578484038952815161163d85826115d8565b9450611648836115ec565b925060208a01995050600181019050611624565b50829750879550505050505092915050565b6000602082019050818103600083015261168881846115f9565b905092915050565b60006060820190506116a560008301866112a5565b81810360208301526116b7818561130b565b90506116c660408301846112a5565b949350505050565b600081519050919050565b600082825260208201905092915050565b6000819050602082019050919050565b6000606083016000830151611712600086018261151c565b506020830151848203602086015261172a828261153c565b915050604083015161173f604086018261151c565b508091505092915050565b600061175683836116fa565b905092915050565b6000602082019050919050565b6000611776826116ce565b61178081856116d9565b935083602082028501611792856116ea565b8060005b858110156117ce57848403895281516117af858261174a565b94506117ba8361175e565b925060208a01995050600181019050611796565b50829750879550505050505092915050565b600060208201905081810360008301526117fa818461176b565b905092915050565b600080fd5b600080fd5b7f4e487b7100000000000000000000000000000000000000000000000000000000600052604160045260246000fd5b611844826112fa565b810181811067ffffffffffffffff821117156118635761186261180c565b5b80604052505050565b600061187661122e565b9050611882828261183b565b919050565b600067ffffffffffffffff8211156118a2576118a161180c565b5b6118ab826112fa565b9050602081019050919050565b82818337600083830152505050565b60006118da6118d584611887565b61186c565b9050828152602081018484840111156118f6576118f5611807565b5b6119018482856118b8565b509392505050565b600082601f83011261191e5761191d611802565b5b813561192e8482602086016118c7565b91505092915050565b6000806000806080858703121561195157611950611238565b5b600061195f87828801611263565b945050602061197087828801611263565b935050604085013567ffffffffffffffff8111156119915761199061123d565b5b61199d87828801611909565b92505060606119ae87828801611263565b91505092959194509250565b6119c3816113b0565b82525050565b60006020820190506119de60008301846119ba565b92915050565b7f4e487b7100000000000000000000000000000000000000000000000000000000600052602260045260246000fd5b60006002820490506001821680611a2b57607f821691505b602082108103611a3e57611a3d6119e4565b5b50919050565b7f496e73756666696369656e742042616c616e6365000000000000000000000000600082015250565b6000611a7a6014836112bf565b9150611a8582611a44565b602082019050919050565b60006020820190508181036000830152611aa981611a6d565b9050919050565b7f496e636f7272656374204163636f756e74204e756d6265720000000000000000600082015250565b6000611ae66018836112bf565b9150611af182611ab0565b602082019050919050565b60006020820190508181036000830152611b1581611ad9565b9050919050565b7f4e487b7100000000000000000000000000000000000000000000000000000000600052601160045260246000fd5b6000611b5682611242565b9150611b6183611242565b9250828203905081811115611b7957611b78611b1c565b5b92915050565b6000611b8a82611242565b9150611b9583611242565b9250828201905080821115611bad57611bac611b1c565b5b92915050565b7f4e487b7100000000000000000000000000000000000000000000000000000000600052603260045260246000fd5b6000611bed82611242565b91507fffffffffffffffffffffffffffffffffffffffffffffffffffffffffffffffff8203611c1f57611c1e611b1c565b5b600182019050919050565b60008190508160005260206000209050919050565b60006020601f8301049050919050565b600082821b905092915050565b600060088302611c8c7fffffffffffffffffffffffffffffffffffffffffffffffffffffffffffffffff82611c4f565b611c968683611c4f565b95508019841693508086168417925050509392505050565b6000819050919050565b6000611cd3611cce611cc984611242565b611cae565b611242565b9050919050565b6000819050919050565b611ced83611cb8565b611d01611cf982611cda565b848454611c5c565b825550505050565b600090565b611d16611d09565b611d21818484611ce4565b505050565b5b81811015611d4557611d3a600082611d0e565b600181019050611d27565b5050565b601f821115611d8a57611d5b81611c2a565b611d6484611c3f565b81016020851015611d73578190505b611d87611d7f85611c3f565b830182611d26565b50505b505050565b600082821c905092915050565b6000611dad60001984600802611d8f565b1980831691505092915050565b6000611dc68383611d9c565b9150826002028217905092915050565b611ddf826112b4565b67ffffffffffffffff811115611df857611df761180c565b5b611e028254611a13565b611e0d828285611d49565b600060209050601f831160018114611e405760008415611e2e578287015190505b611e388582611dba565b865550611ea0565b601f198416611e4e86611c2a565b60005b82811015611e7657848901518255600182019150602085019450602081019050611e51565b86831015611e935784890151611e8f601f891682611d9c565b8355505b6001600288020188555050505b50505050505056fea26469706673582212203c06b50f8327ab66363236d0289796e10a82fdb6e6103cb8773affc60a8b88ce64736f6c63430008100033",
  "linkReferences": {},
  "deployedLinkReferences": {}
}