{
  "_format": "hh-sol-artifact-1",
  "contractName": "functions",
  "sourceName": "contracts/functions.sol",
  "abi": [
    {
      "inputs": [],
      "stateMutability": "nonpayable",
      "type": "constructor"
    },
    {
      "anonymous": false,
      "inputs": [
        {
          "indexed": false,
          "internalType": "address",
          "name": "accountAddress",
          "type": "address"
        },
        {
          "indexed": false,
          "internalType": "uint256",
          "name": "accountNumber",
          "type": "uint256"
        }
      ],
      "name": "eventAccountCreation",
      "type": "event"
    },
    {
      "anonymous": false,
      "inputs": [
        {
          "indexed": false,
          "internalType": "address",
          "name": "newAdmin",
          "type": "address"
        }
      ],
      "name": "eventAdminChange",
      "type": "event"
    },
    {
      "anonymous": false,
      "inputs": [
        {
          "indexed": false,
          "internalType": "address",
          "name": "accountAddress",
          "type": "address"
        },
        {
          "indexed": false,
          "internalType": "uint256",
          "name": "accountNumber",
          "type": "uint256"
        },
        {
          "indexed": false,
          "internalType": "uint256",
          "name": "depositedBalance",
          "type": "uint256"
        }
      ],
      "name": "eventBalanceDeposit",
      "type": "event"
    },
    {
      "anonymous": false,
      "inputs": [
        {
          "indexed": false,
          "internalType": "uint256",
          "name": "accountFrom",
          "type": "uint256"
        },
        {
          "indexed": false,
          "internalType": "uint256",
          "name": "accountTo",
          "type": "uint256"
        },
        {
          "indexed": false,
          "internalType": "uint256",
          "name": "transferedBalance",
          "type": "uint256"
        }
      ],
      "name": "eventBalanceTransfer",
      "type": "event"
    },
    {
      "anonymous": false,
      "inputs": [
        {
          "indexed": false,
          "internalType": "address",
          "name": "accountAddress",
          "type": "address"
        },
        {
          "indexed": false,
          "internalType": "uint256",
          "name": "accountNumber",
          "type": "uint256"
        },
        {
          "indexed": false,
          "internalType": "uint256",
          "name": "withdrawlBalance",
          "type": "uint256"
        }
      ],
      "name": "eventBalanceWithdraw",
      "type": "event"
    },
    {
      "inputs": [
        {
          "internalType": "uint256",
          "name": "",
          "type": "uint256"
        }
      ],
      "name": "accounts",
      "outputs": [
        {
          "internalType": "uint256",
          "name": "",
          "type": "uint256"
        }
      ],
      "stateMutability": "view",
      "type": "function"
    },
    {
      "inputs": [
        {
          "internalType": "uint256",
          "name": "",
          "type": "uint256"
        }
      ],
      "name": "addresses",
      "outputs": [
        {
          "internalType": "address",
          "name": "",
          "type": "address"
        }
      ],
      "stateMutability": "view",
      "type": "function"
    },
    {
      "inputs": [],
      "name": "admin",
      "outputs": [
        {
          "internalType": "address",
          "name": "",
          "type": "address"
        }
      ],
      "stateMutability": "view",
      "type": "function"
    },
    {
      "inputs": [
        {
          "internalType": "uint256",
          "name": "_fromAccount",
          "type": "uint256"
        },
        {
          "internalType": "uint256",
          "name": "_toAccount",
          "type": "uint256"
        },
        {
          "internalType": "address",
          "name": "_toAddress",
          "type": "address"
        },
        {
          "internalType": "uint256",
          "name": "_balance",
          "type": "uint256"
        }
      ],
      "name": "balanceTransfer",
      "outputs": [],
      "stateMutability": "nonpayable",
      "type": "function"
    },
    {
      "inputs": [
        {
          "internalType": "address",
          "name": "_newAdmin",
          "type": "address"
        }
      ],
      "name": "changeAdmin",
      "outputs": [],
      "stateMutability": "nonpayable",
      "type": "function"
    },
    {
      "inputs": [
        {
          "internalType": "uint256",
          "name": "_accountNumber",
          "type": "uint256"
        },
        {
          "internalType": "uint256",
          "name": "_bankName",
          "type": "uint256"
        },
        {
          "internalType": "string",
          "name": "_branch",
          "type": "string"
        },
        {
          "internalType": "uint256",
          "name": "_balance",
          "type": "uint256"
        }
      ],
      "name": "createAccount",
      "outputs": [],
      "stateMutability": "nonpayable",
      "type": "function"
    },
    {
      "inputs": [
        {
          "internalType": "uint256",
          "name": "_accountNumber",
          "type": "uint256"
        },
        {
          "internalType": "address",
          "name": "_toAccountAddress",
          "type": "address"
        },
        {
          "internalType": "uint256",
          "name": "_depositbalance",
          "type": "uint256"
        }
      ],
      "name": "deposit",
      "outputs": [],
      "stateMutability": "nonpayable",
      "type": "function"
    },
    {
      "inputs": [
        {
          "internalType": "address",
          "name": "_addressCheckBalance",
          "type": "address"
        },
        {
          "internalType": "uint256",
          "name": "_accountCheckBalance",
          "type": "uint256"
        }
      ],
      "name": "getBalance",
      "outputs": [
        {
          "internalType": "uint256",
          "name": "",
          "type": "uint256"
        }
      ],
      "stateMutability": "view",
      "type": "function"
    },
    {
      "inputs": [
        {
          "internalType": "uint256",
          "name": "_bankName",
          "type": "uint256"
        }
      ],
      "name": "getBankData",
      "outputs": [
        {
          "components": [
            {
              "internalType": "uint256",
              "name": "accountNumber",
              "type": "uint256"
            },
            {
              "internalType": "string",
              "name": "branch",
              "type": "string"
            },
            {
              "internalType": "uint256",
              "name": "balance",
              "type": "uint256"
            }
          ],
          "internalType": "struct data.returnBankData[]",
          "name": "",
          "type": "tuple[]"
        }
      ],
      "stateMutability": "view",
      "type": "function"
    },
    {
      "inputs": [],
      "name": "personalInfo",
      "outputs": [
        {
          "components": [
            {
              "internalType": "uint256",
              "name": "accountNumber",
              "type": "uint256"
            },
            {
              "internalType": "uint256",
              "name": "bankName",
              "type": "uint256"
            },
            {
              "internalType": "string",
              "name": "branch",
              "type": "string"
            },
            {
              "internalType": "uint256",
              "name": "balance",
              "type": "uint256"
            }
          ],
          "internalType": "struct data.returnData[]",
          "name": "",
          "type": "tuple[]"
        }
      ],
      "stateMutability": "view",
      "type": "function"
    },
    {
      "inputs": [
        {
          "internalType": "uint256",
          "name": "",
          "type": "uint256"
        }
      ],
      "name": "returnBankDataArray",
      "outputs": [
        {
          "internalType": "uint256",
          "name": "accountNumber",
          "type": "uint256"
        },
        {
          "internalType": "string",
          "name": "branch",
          "type": "string"
        },
        {
          "internalType": "uint256",
          "name": "balance",
          "type": "uint256"
        }
      ],
      "stateMutability": "view",
      "type": "function"
    },
    {
      "inputs": [
        {
          "internalType": "uint256",
          "name": "",
          "type": "uint256"
        }
      ],
      "name": "returnDataArray",
      "outputs": [
        {
          "internalType": "uint256",
          "name": "accountNumber",
          "type": "uint256"
        },
        {
          "internalType": "uint256",
          "name": "bankName",
          "type": "uint256"
        },
        {
          "internalType": "string",
          "name": "branch",
          "type": "string"
        },
        {
          "internalType": "uint256",
          "name": "balance",
          "type": "uint256"
        }
      ],
      "stateMutability": "view",
      "type": "function"
    },
    {
      "inputs": [
        {
          "internalType": "uint256",
          "name": "_accountNumber",
          "type": "uint256"
        },
        {
          "internalType": "uint256",
          "name": "_withdrawbalance",
          "type": "uint256"
        }
      ],
      "name": "withdraw",
      "outputs": [],
      "stateMutability": "nonpayable",
      "type": "function"
    }
  ],
  "bytecode": "0x608060405234801561001057600080fd5b50336000806101000a81548173ffffffffffffffffffffffffffffffffffffffff021916908373ffffffffffffffffffffffffffffffffffffffff160217905550612659806100606000396000f3fe608060405234801561001057600080fd5b50600436106100cf5760003560e01c8063b26ea7981161008c578063edf26d9b11610066578063edf26d9b14610225578063f2a40db814610255578063f2dbf12e14610285578063f851a440146102a3576100cf565b8063b26ea798146101bd578063bc157ac1146101ed578063c8cb55ae14610209576100cf565b8063078c9ed3146100d457806315f1d66d146101075780632b04e84014610123578063441a3e70146101535780638f2839701461016f578063b0fb25cc1461018b575b600080fd5b6100ee60048036038101906100e99190611772565b6102c1565b6040516100fe949392919061183e565b60405180910390f35b610121600480360381019061011c91906118e8565b610389565b005b61013d6004803603810190610138919061194f565b61067b565b60405161014a919061198f565b60405180910390f35b61016d600480360381019061016891906119aa565b6106d9565b005b610189600480360381019061018491906119ea565b610911565b005b6101a560048036038101906101a09190611772565b610a19565b6040516101b493929190611a17565b60405180910390f35b6101d760048036038101906101d29190611772565b610adb565b6040516101e49190611bc0565b60405180910390f35b61020760048036038101906102029190611be2565b610f23565b005b610223600480360381019061021e9190611d6a565b6110c4565b005b61023f600480360381019061023a9190611772565b6112f1565b60405161024c9190611dfc565b60405180910390f35b61026f600480360381019061026a9190611772565b611330565b60405161027c919061198f565b60405180910390f35b61028d611354565b60405161029a9190611f3c565b60405180910390f35b6102ab6116bb565b6040516102b89190611dfc565b60405180910390f35b600181815481106102d157600080fd5b906000526020600020906004020160009150905080600001549080600101549080600201805461030090611f8d565b80601f016020809104026020016040519081016040528092919081815260200182805461032c90611f8d565b80156103795780601f1061034e57610100808354040283529160200191610379565b820191906000526020600020905b81548152906001019060200180831161035c57829003601f168201915b5050505050908060030154905084565b818360011515600360008473ffffffffffffffffffffffffffffffffffffffff1673ffffffffffffffffffffffffffffffffffffffff168152602001908152602001600020600083815260200190815260200160002060030160009054906101000a900460ff16151514610432576040517f08c379a00000000000000000000000000000000000000000000000000000000081526004016104299061200a565b60405180910390fd5b858380600360003373ffffffffffffffffffffffffffffffffffffffff1673ffffffffffffffffffffffffffffffffffffffff16815260200190815260200160002060008481526020019081526020016000206002015410156104ca576040517f08c379a00000000000000000000000000000000000000000000000000000000081526004016104c190612076565b60405180910390fd5b84600360003373ffffffffffffffffffffffffffffffffffffffff1673ffffffffffffffffffffffffffffffffffffffff16815260200190815260200160002060008a81526020019081526020016000206002015461052991906120c5565b600360003373ffffffffffffffffffffffffffffffffffffffff1673ffffffffffffffffffffffffffffffffffffffff16815260200190815260200160002060008a81526020019081526020016000206002018190555084600360008873ffffffffffffffffffffffffffffffffffffffff1673ffffffffffffffffffffffffffffffffffffffff1681526020019081526020016000206000898152602001908152602001600020600201546105df91906120f9565b600360008873ffffffffffffffffffffffffffffffffffffffff1673ffffffffffffffffffffffffffffffffffffffff1681526020019081526020016000206000898152602001908152602001600020600201819055507f3ae171700b753029289ca9d3e702a670ca0dfcdb96ed3edad8a3ec095bd83b7c8888876040516106699392919061212d565b60405180910390a15050505050505050565b6000600360008473ffffffffffffffffffffffffffffffffffffffff1673ffffffffffffffffffffffffffffffffffffffff168152602001908152602001600020600083815260200190815260200160002060020154905092915050565b8160011515600360003373ffffffffffffffffffffffffffffffffffffffff1673ffffffffffffffffffffffffffffffffffffffff168152602001908152602001600020600083815260200190815260200160002060030160009054906101000a900460ff16151514610781576040517f08c379a0000000000000000000000000000000000000000000000000000000008152600401610778906121d6565b60405180910390fd5b828280600360003373ffffffffffffffffffffffffffffffffffffffff1673ffffffffffffffffffffffffffffffffffffffff1681526020019081526020016000206000848152602001908152602001600020600201541015610819576040517f08c379a000000000000000000000000000000000000000000000000000000000815260040161081090612076565b60405180910390fd5b83600360003373ffffffffffffffffffffffffffffffffffffffff1673ffffffffffffffffffffffffffffffffffffffff16815260200190815260200160002060008781526020019081526020016000206002015461087891906120c5565b600360003373ffffffffffffffffffffffffffffffffffffffff1673ffffffffffffffffffffffffffffffffffffffff1681526020019081526020016000206000878152602001908152602001600020600201819055507f5053a428dd017c3329e98d4cff49ce323c5b035a842911ce68c38f99f0565431338686604051610902939291906121f6565b60405180910390a15050505050565b60008054906101000a900473ffffffffffffffffffffffffffffffffffffffff1673ffffffffffffffffffffffffffffffffffffffff163373ffffffffffffffffffffffffffffffffffffffff161461099f576040517f08c379a000000000000000000000000000000000000000000000000000000000815260040161099690612279565b60405180910390fd5b806000806101000a81548173ffffffffffffffffffffffffffffffffffffffff021916908373ffffffffffffffffffffffffffffffffffffffff1602179055507fde5f7e8a61c2ee145fa101881a0add94254dad0e9619807bf458f4d6bf91dfc581604051610a0e9190611dfc565b60405180910390a150565b60028181548110610a2957600080fd5b9060005260206000209060030201600091509050806000015490806001018054610a5290611f8d565b80601f0160208091040260200160405190810160405280929190818152602001828054610a7e90611f8d565b8015610acb5780601f10610aa057610100808354040283529160200191610acb565b820191906000526020600020905b815481529060010190602001808311610aae57829003601f168201915b5050505050908060020154905083565b606060008054906101000a900473ffffffffffffffffffffffffffffffffffffffff1673ffffffffffffffffffffffffffffffffffffffff163373ffffffffffffffffffffffffffffffffffffffff1614610b6b576040517f08c379a0000000000000000000000000000000000000000000000000000000008152600401610b6290612279565b60405180910390fd5b60008060058054905067ffffffffffffffff811115610b8d57610b8c611c3f565b5b604051908082528060200260200182016040528015610bc657816020015b610bb36116df565b815260200190600190039081610bab5790505b50905060005b600480549050811015610f185760005b600580549050811015610f0457856003600060048581548110610c0257610c01612299565b5b9060005260206000200160009054906101000a900473ffffffffffffffffffffffffffffffffffffffff1673ffffffffffffffffffffffffffffffffffffffff1673ffffffffffffffffffffffffffffffffffffffff168152602001908152602001600020600060058481548110610c7d57610c7c612299565b5b906000526020600020015481526020019081526020016000206000015403610ef1576000604051806060016040528060058481548110610cc057610cbf612299565b5b906000526020600020015481526020016003600060048781548110610ce857610ce7612299565b5b9060005260206000200160009054906101000a900473ffffffffffffffffffffffffffffffffffffffff1673ffffffffffffffffffffffffffffffffffffffff1673ffffffffffffffffffffffffffffffffffffffff168152602001908152602001600020600060058681548110610d6357610d62612299565b5b906000526020600020015481526020019081526020016000206001018054610d8a90611f8d565b80601f0160208091040260200160405190810160405280929190818152602001828054610db690611f8d565b8015610e035780601f10610dd857610100808354040283529160200191610e03565b820191906000526020600020905b815481529060010190602001808311610de657829003601f168201915b505050505081526020016003600060048781548110610e2557610e24612299565b5b9060005260206000200160009054906101000a900473ffffffffffffffffffffffffffffffffffffffff1673ffffffffffffffffffffffffffffffffffffffff1673ffffffffffffffffffffffffffffffffffffffff168152602001908152602001600020600060058681548110610ea057610e9f612299565b5b9060005260206000200154815260200190815260200160002060020154815250905080848681518110610ed657610ed5612299565b5b60200260200101819052508480610eec906122c8565b955050505b8080610efc906122c8565b915050610bdc565b508080610f10906122c8565b915050610bcc565b508092505050919050565b818360011515600360008473ffffffffffffffffffffffffffffffffffffffff1673ffffffffffffffffffffffffffffffffffffffff168152602001908152602001600020600083815260200190815260200160002060030160009054906101000a900460ff16151514610fcc576040517f08c379a0000000000000000000000000000000000000000000000000000000008152600401610fc39061200a565b60405180910390fd5b82600360008673ffffffffffffffffffffffffffffffffffffffff1673ffffffffffffffffffffffffffffffffffffffff16815260200190815260200160002060008781526020019081526020016000206002015461102b91906120f9565b600360008673ffffffffffffffffffffffffffffffffffffffff1673ffffffffffffffffffffffffffffffffffffffff1681526020019081526020016000206000878152602001908152602001600020600201819055507f0fb0df1c9c2e29dc4e6a7727d508f554994b0557214379f9bd9ef03529d348c38486856040516110b5939291906121f6565b60405180910390a15050505050565b83600080600090505b60058054905081101561111b5782600582815481106110ef576110ee612299565b5b906000526020600020015403611108576001915061111b565b8080611113906122c8565b9150506110cd565b506000151581151514611163576040517f08c379a000000000000000000000000000000000000000000000000000000000815260040161115a9061235c565b60405180910390fd5b6004339080600181540180825580915050600190039060005260206000200160009091909190916101000a81548173ffffffffffffffffffffffffffffffffffffffff021916908373ffffffffffffffffffffffffffffffffffffffff1602179055506005869080600181540180825580915050600190039060005260206000200160009091909190915055604051806080016040528086815260200185815260200184815260200160011515815250600360003373ffffffffffffffffffffffffffffffffffffffff1673ffffffffffffffffffffffffffffffffffffffff16815260200190815260200160002060008881526020019081526020016000206000820151816000015560208201518160010190816112829190612528565b506040820151816002015560608201518160030160006101000a81548160ff0219169083151502179055509050507f5d6a2bcc788747229fc037665be0cbbe3c7839036b19181f00c2a6aab53c47af33876040516112e19291906125fa565b60405180910390a1505050505050565b6004818154811061130157600080fd5b906000526020600020016000915054906101000a900473ffffffffffffffffffffffffffffffffffffffff1681565b6005818154811061134057600080fd5b906000526020600020016000915090505481565b6060600060058054905067ffffffffffffffff81111561137757611376611c3f565b5b6040519080825280602002602001820160405280156113b057816020015b61139d611700565b8152602001906001900390816113955790505b509050600080600090505b6005805490508110156116b25760011515600360003373ffffffffffffffffffffffffffffffffffffffff1673ffffffffffffffffffffffffffffffffffffffff16815260200190815260200160002060006005848154811061142157611420612299565b5b9060005260206000200154815260200190815260200160002060030160009054906101000a900460ff1615150361169f57600060405180608001604052806005848154811061147357611472612299565b5b90600052602060002001548152602001600360003373ffffffffffffffffffffffffffffffffffffffff1673ffffffffffffffffffffffffffffffffffffffff1681526020019081526020016000206000600586815481106114d8576114d7612299565b5b90600052602060002001548152602001908152602001600020600001548152602001600360003373ffffffffffffffffffffffffffffffffffffffff1673ffffffffffffffffffffffffffffffffffffffff16815260200190815260200160002060006005868154811061154f5761154e612299565b5b90600052602060002001548152602001908152602001600020600101805461157690611f8d565b80601f01602080910402602001604051908101604052809291908181526020018280546115a290611f8d565b80156115ef5780601f106115c4576101008083540402835291602001916115ef565b820191906000526020600020905b8154815290600101906020018083116115d257829003601f168201915b50505050508152602001600360003373ffffffffffffffffffffffffffffffffffffffff1673ffffffffffffffffffffffffffffffffffffffff16815260200190815260200160002060006005868154811061164e5761164d612299565b5b906000526020600020015481526020019081526020016000206002015481525090508084848151811061168457611683612299565b5b6020026020010181905250828061169a906122c8565b935050505b80806116aa906122c8565b9150506113bb565b50819250505090565b60008054906101000a900473ffffffffffffffffffffffffffffffffffffffff1681565b60405180606001604052806000815260200160608152602001600081525090565b6040518060800160405280600081526020016000815260200160608152602001600081525090565b6000604051905090565b600080fd5b600080fd5b6000819050919050565b61174f8161173c565b811461175a57600080fd5b50565b60008135905061176c81611746565b92915050565b60006020828403121561178857611787611732565b5b60006117968482850161175d565b91505092915050565b6117a88161173c565b82525050565b600081519050919050565b600082825260208201905092915050565b60005b838110156117e85780820151818401526020810190506117cd565b60008484015250505050565b6000601f19601f8301169050919050565b6000611810826117ae565b61181a81856117b9565b935061182a8185602086016117ca565b611833816117f4565b840191505092915050565b6000608082019050611853600083018761179f565b611860602083018661179f565b81810360408301526118728185611805565b9050611881606083018461179f565b95945050505050565b600073ffffffffffffffffffffffffffffffffffffffff82169050919050565b60006118b58261188a565b9050919050565b6118c5816118aa565b81146118d057600080fd5b50565b6000813590506118e2816118bc565b92915050565b6000806000806080858703121561190257611901611732565b5b60006119108782880161175d565b94505060206119218782880161175d565b9350506040611932878288016118d3565b92505060606119438782880161175d565b91505092959194509250565b6000806040838503121561196657611965611732565b5b6000611974858286016118d3565b92505060206119858582860161175d565b9150509250929050565b60006020820190506119a4600083018461179f565b92915050565b600080604083850312156119c1576119c0611732565b5b60006119cf8582860161175d565b92505060206119e08582860161175d565b9150509250929050565b600060208284031215611a00576119ff611732565b5b6000611a0e848285016118d3565b91505092915050565b6000606082019050611a2c600083018661179f565b8181036020830152611a3e8185611805565b9050611a4d604083018461179f565b949350505050565b600081519050919050565b600082825260208201905092915050565b6000819050602082019050919050565b611a8a8161173c565b82525050565b600082825260208201905092915050565b6000611aac826117ae565b611ab68185611a90565b9350611ac68185602086016117ca565b611acf816117f4565b840191505092915050565b6000606083016000830151611af26000860182611a81565b5060208301518482036020860152611b0a8282611aa1565b9150506040830151611b1f6040860182611a81565b508091505092915050565b6000611b368383611ada565b905092915050565b6000602082019050919050565b6000611b5682611a55565b611b608185611a60565b935083602082028501611b7285611a71565b8060005b85811015611bae5784840389528151611b8f8582611b2a565b9450611b9a83611b3e565b925060208a01995050600181019050611b76565b50829750879550505050505092915050565b60006020820190508181036000830152611bda8184611b4b565b905092915050565b600080600060608486031215611bfb57611bfa611732565b5b6000611c098682870161175d565b9350506020611c1a868287016118d3565b9250506040611c2b8682870161175d565b9150509250925092565b600080fd5b600080fd5b7f4e487b7100000000000000000000000000000000000000000000000000000000600052604160045260246000fd5b611c77826117f4565b810181811067ffffffffffffffff82111715611c9657611c95611c3f565b5b80604052505050565b6000611ca9611728565b9050611cb58282611c6e565b919050565b600067ffffffffffffffff821115611cd557611cd4611c3f565b5b611cde826117f4565b9050602081019050919050565b82818337600083830152505050565b6000611d0d611d0884611cba565b611c9f565b905082815260208101848484011115611d2957611d28611c3a565b5b611d34848285611ceb565b509392505050565b600082601f830112611d5157611d50611c35565b5b8135611d61848260208601611cfa565b91505092915050565b60008060008060808587031215611d8457611d83611732565b5b6000611d928782880161175d565b9450506020611da38782880161175d565b935050604085013567ffffffffffffffff811115611dc457611dc3611737565b5b611dd087828801611d3c565b9250506060611de18782880161175d565b91505092959194509250565b611df6816118aa565b82525050565b6000602082019050611e116000830184611ded565b92915050565b600081519050919050565b600082825260208201905092915050565b6000819050602082019050919050565b6000608083016000830151611e5b6000860182611a81565b506020830151611e6e6020860182611a81565b5060408301518482036040860152611e868282611aa1565b9150506060830151611e9b6060860182611a81565b508091505092915050565b6000611eb28383611e43565b905092915050565b6000602082019050919050565b6000611ed282611e17565b611edc8185611e22565b935083602082028501611eee85611e33565b8060005b85811015611f2a5784840389528151611f0b8582611ea6565b9450611f1683611eba565b925060208a01995050600181019050611ef2565b50829750879550505050505092915050565b60006020820190508181036000830152611f568184611ec7565b905092915050565b7f4e487b7100000000000000000000000000000000000000000000000000000000600052602260045260246000fd5b60006002820490506001821680611fa557607f821691505b602082108103611fb857611fb7611f5e565b5b50919050565b7f496e636f7272656374204163636f756e74204e756d6265720000000000000000600082015250565b6000611ff46018836117b9565b9150611fff82611fbe565b602082019050919050565b6000602082019050818103600083015261202381611fe7565b9050919050565b7f496e73756666696369656e742042616c616e6365000000000000000000000000600082015250565b60006120606014836117b9565b915061206b8261202a565b602082019050919050565b6000602082019050818103600083015261208f81612053565b9050919050565b7f4e487b7100000000000000000000000000000000000000000000000000000000600052601160045260246000fd5b60006120d08261173c565b91506120db8361173c565b92508282039050818111156120f3576120f2612096565b5b92915050565b60006121048261173c565b915061210f8361173c565b925082820190508082111561212757612126612096565b5b92915050565b6000606082019050612142600083018661179f565b61214f602083018561179f565b61215c604083018461179f565b949350505050565b7f4163636f756e7420646f6573206e6f742062656c6f6e677320746f207468697360008201527f2041646472657373000000000000000000000000000000000000000000000000602082015250565b60006121c06028836117b9565b91506121cb82612164565b604082019050919050565b600060208201905081810360008301526121ef816121b3565b9050919050565b600060608201905061220b6000830186611ded565b612218602083018561179f565b612225604083018461179f565b949350505050565b7f556e617574686f72697a6564207065726d697373696f6e000000000000000000600082015250565b60006122636017836117b9565b915061226e8261222d565b602082019050919050565b6000602082019050818103600083015261229281612256565b9050919050565b7f4e487b7100000000000000000000000000000000000000000000000000000000600052603260045260246000fd5b60006122d38261173c565b91507fffffffffffffffffffffffffffffffffffffffffffffffffffffffffffffffff820361230557612304612096565b5b600182019050919050565b7f4163636f756e7420416c72656164792045786973740000000000000000000000600082015250565b60006123466015836117b9565b915061235182612310565b602082019050919050565b6000602082019050818103600083015261237581612339565b9050919050565b60008190508160005260206000209050919050565b60006020601f8301049050919050565b600082821b905092915050565b6000600883026123de7fffffffffffffffffffffffffffffffffffffffffffffffffffffffffffffffff826123a1565b6123e886836123a1565b95508019841693508086168417925050509392505050565b6000819050919050565b600061242561242061241b8461173c565b612400565b61173c565b9050919050565b6000819050919050565b61243f8361240a565b61245361244b8261242c565b8484546123ae565b825550505050565b600090565b61246861245b565b612473818484612436565b505050565b5b818110156124975761248c600082612460565b600181019050612479565b5050565b601f8211156124dc576124ad8161237c565b6124b684612391565b810160208510156124c5578190505b6124d96124d185612391565b830182612478565b50505b505050565b600082821c905092915050565b60006124ff600019846008026124e1565b1980831691505092915050565b600061251883836124ee565b9150826002028217905092915050565b612531826117ae565b67ffffffffffffffff81111561254a57612549611c3f565b5b6125548254611f8d565b61255f82828561249b565b600060209050601f8311600181146125925760008415612580578287015190505b61258a858261250c565b8655506125f2565b601f1984166125a08661237c565b60005b828110156125c8578489015182556001820191506020850194506020810190506125a3565b868310156125e557848901516125e1601f8916826124ee565b8355505b6001600288020188555050505b505050505050565b600060408201905061260f6000830185611ded565b61261c602083018461179f565b939250505056fea264697066735822122017ac53340b52f584fca81647b791c5125581c5216c2082421e7812f6fa2c5f0464736f6c63430008100033",
  "linkReferences": {},
  "deployedLinkReferences": {}
}