{
  "_format": "hh-sol-artifact-1",
  "contractName": "Functions",
  "sourceName": "contracts/functions.sol",
  "abi": [
    {
      "anonymous": false,
      "inputs": [
        {
          "indexed": false,
          "internalType": "address",
          "name": "accountAddress",
          "type": "address"
        },
        {
          "indexed": false,
          "internalType": "uint256",
          "name": "accountNumber",
          "type": "uint256"
        },
        {
          "indexed": false,
          "internalType": "uint256",
          "name": "time",
          "type": "uint256"
        }
      ],
      "name": "accountCreation",
      "type": "event"
    },
    {
      "inputs": [
        {
          "internalType": "uint256",
          "name": "",
          "type": "uint256"
        }
      ],
      "name": "accounts",
      "outputs": [
        {
          "internalType": "uint256",
          "name": "",
          "type": "uint256"
        }
      ],
      "stateMutability": "view",
      "type": "function"
    },
    {
      "inputs": [
        {
          "internalType": "uint256",
          "name": "",
          "type": "uint256"
        }
      ],
      "name": "addresses",
      "outputs": [
        {
          "internalType": "address",
          "name": "",
          "type": "address"
        }
      ],
      "stateMutability": "view",
      "type": "function"
    },
    {
      "inputs": [
        {
          "internalType": "uint256",
          "name": "_fromAccount",
          "type": "uint256"
        },
        {
          "internalType": "uint256",
          "name": "_toAccount",
          "type": "uint256"
        },
        {
          "internalType": "address",
          "name": "_toAddress",
          "type": "address"
        },
        {
          "internalType": "uint256",
          "name": "_balance",
          "type": "uint256"
        }
      ],
      "name": "balanceTransfer",
      "outputs": [],
      "stateMutability": "nonpayable",
      "type": "function"
    },
    {
      "inputs": [
        {
          "internalType": "uint256",
          "name": "_accountNumber",
          "type": "uint256"
        },
        {
          "internalType": "uint256",
          "name": "_bankName",
          "type": "uint256"
        },
        {
          "internalType": "string",
          "name": "_branch",
          "type": "string"
        },
        {
          "internalType": "uint256",
          "name": "_balance",
          "type": "uint256"
        }
      ],
      "name": "createAccount",
      "outputs": [],
      "stateMutability": "nonpayable",
      "type": "function"
    },
    {
      "inputs": [
        {
          "internalType": "uint256",
          "name": "_accountNumber",
          "type": "uint256"
        },
        {
          "internalType": "uint256",
          "name": "_balance",
          "type": "uint256"
        }
      ],
      "name": "deposit",
      "outputs": [],
      "stateMutability": "nonpayable",
      "type": "function"
    },
    {
      "inputs": [
        {
          "internalType": "address",
          "name": "_addressCheckBalance",
          "type": "address"
        },
        {
          "internalType": "uint256",
          "name": "_accountCheckBalance",
          "type": "uint256"
        }
      ],
      "name": "getBalance",
      "outputs": [
        {
          "internalType": "uint256",
          "name": "",
          "type": "uint256"
        }
      ],
      "stateMutability": "view",
      "type": "function"
    },
    {
      "inputs": [
        {
          "internalType": "uint256",
          "name": "_bankName",
          "type": "uint256"
        }
      ],
      "name": "getBankData",
      "outputs": [
        {
          "components": [
            {
              "internalType": "uint256",
              "name": "accountNumber",
              "type": "uint256"
            },
            {
              "internalType": "string",
              "name": "branch",
              "type": "string"
            },
            {
              "internalType": "uint256",
              "name": "balance",
              "type": "uint256"
            }
          ],
          "internalType": "struct Data.returnBankData[]",
          "name": "",
          "type": "tuple[]"
        }
      ],
      "stateMutability": "view",
      "type": "function"
    },
    {
      "inputs": [],
      "name": "getSpecificAddressData",
      "outputs": [
        {
          "components": [
            {
              "internalType": "uint256",
              "name": "accountNumber",
              "type": "uint256"
            },
            {
              "internalType": "uint256",
              "name": "bankName",
              "type": "uint256"
            },
            {
              "internalType": "string",
              "name": "branch",
              "type": "string"
            },
            {
              "internalType": "uint256",
              "name": "balance",
              "type": "uint256"
            }
          ],
          "internalType": "struct Data.returnData[]",
          "name": "",
          "type": "tuple[]"
        }
      ],
      "stateMutability": "view",
      "type": "function"
    },
    {
      "inputs": [
        {
          "internalType": "uint256",
          "name": "",
          "type": "uint256"
        }
      ],
      "name": "returnBankDataArray",
      "outputs": [
        {
          "internalType": "uint256",
          "name": "accountNumber",
          "type": "uint256"
        },
        {
          "internalType": "string",
          "name": "branch",
          "type": "string"
        },
        {
          "internalType": "uint256",
          "name": "balance",
          "type": "uint256"
        }
      ],
      "stateMutability": "view",
      "type": "function"
    },
    {
      "inputs": [
        {
          "internalType": "uint256",
          "name": "",
          "type": "uint256"
        }
      ],
      "name": "returnDataArray",
      "outputs": [
        {
          "internalType": "uint256",
          "name": "accountNumber",
          "type": "uint256"
        },
        {
          "internalType": "uint256",
          "name": "bankName",
          "type": "uint256"
        },
        {
          "internalType": "string",
          "name": "branch",
          "type": "string"
        },
        {
          "internalType": "uint256",
          "name": "balance",
          "type": "uint256"
        }
      ],
      "stateMutability": "view",
      "type": "function"
    },
    {
      "inputs": [
        {
          "internalType": "uint256",
          "name": "_accountNumber",
          "type": "uint256"
        },
        {
          "internalType": "uint256",
          "name": "_balance",
          "type": "uint256"
        }
      ],
      "name": "withdraw",
      "outputs": [],
      "stateMutability": "nonpayable",
      "type": "function"
    }
  ],
  "bytecode": "0x608060405234801561001057600080fd5b50611f50806100206000396000f3fe608060405234801561001057600080fd5b50600436106100a95760003560e01c8063b0fb25cc11610071578063b0fb25cc14610167578063b26ea79814610199578063c8cb55ae146101c9578063e2bbb158146101e5578063edf26d9b14610201578063f2a40db814610231576100a9565b8063078c9ed3146100ae57806315f1d66d146100e15780632b04e840146100fd578063441a3e701461012d5780634c7a4ed014610149575b600080fd5b6100c860048036038101906100c391906112b3565b610261565b6040516100d8949392919061137f565b60405180910390f35b6100fb60048036038101906100f69190611429565b610329565b005b61011760048036038101906101129190611490565b6105e0565b60405161012491906114d0565b60405180910390f35b610147600480360381019061014291906114eb565b61063e565b005b610151610792565b60405161015e91906116a9565b60405180910390f35b610181600480360381019061017c91906112b3565b610af9565b604051610190939291906116cb565b60405180910390f35b6101b360048036038101906101ae91906112b3565b610bbb565b6040516101c0919061181b565b60405180910390f35b6101e360048036038101906101de9190611972565b610f75565b005b6101ff60048036038101906101fa91906114eb565b611103565b005b61021b600480360381019061021691906112b3565b6111bd565b6040516102289190611a04565b60405180910390f35b61024b600480360381019061024691906112b3565b6111fc565b60405161025891906114d0565b60405180910390f35b6000818154811061027157600080fd5b90600052602060002090600402016000915090508060000154908060010154908060020180546102a090611a4e565b80601f01602080910402602001604051908101604052809291908181526020018280546102cc90611a4e565b80156103195780601f106102ee57610100808354040283529160200191610319565b820191906000526020600020905b8154815290600101906020018083116102fc57829003601f168201915b5050505050908060030154905084565b838180600260003373ffffffffffffffffffffffffffffffffffffffff1673ffffffffffffffffffffffffffffffffffffffff16815260200190815260200160002060008481526020019081526020016000206002015410156103c1576040517f08c379a00000000000000000000000000000000000000000000000000000000081526004016103b890611acb565b60405180910390fd5b838560011515600260008473ffffffffffffffffffffffffffffffffffffffff1673ffffffffffffffffffffffffffffffffffffffff168152602001908152602001600020600083815260200190815260200160002060030160009054906101000a900460ff1615151461046a576040517f08c379a000000000000000000000000000000000000000000000000000000000815260040161046190611b37565b60405180910390fd5b84600260003373ffffffffffffffffffffffffffffffffffffffff1673ffffffffffffffffffffffffffffffffffffffff16815260200190815260200160002060008a8152602001908152602001600020600201546104c99190611b86565b600260003373ffffffffffffffffffffffffffffffffffffffff1673ffffffffffffffffffffffffffffffffffffffff16815260200190815260200160002060008a81526020019081526020016000206002018190555084600260008873ffffffffffffffffffffffffffffffffffffffff1673ffffffffffffffffffffffffffffffffffffffff16815260200190815260200160002060008981526020019081526020016000206002015461057f9190611bba565b600260008873ffffffffffffffffffffffffffffffffffffffff1673ffffffffffffffffffffffffffffffffffffffff1681526020019081526020016000206000898152602001908152602001600020600201819055505050505050505050565b6000600260008473ffffffffffffffffffffffffffffffffffffffff1673ffffffffffffffffffffffffffffffffffffffff168152602001908152602001600020600083815260200190815260200160002060020154905092915050565b818180600260003373ffffffffffffffffffffffffffffffffffffffff1673ffffffffffffffffffffffffffffffffffffffff16815260200190815260200160002060008481526020019081526020016000206002015410156106d6576040517f08c379a00000000000000000000000000000000000000000000000000000000081526004016106cd90611acb565b60405180910390fd5b82600260003373ffffffffffffffffffffffffffffffffffffffff1673ffffffffffffffffffffffffffffffffffffffff1681526020019081526020016000206000868152602001908152602001600020600201546107359190611b86565b600260003373ffffffffffffffffffffffffffffffffffffffff1673ffffffffffffffffffffffffffffffffffffffff16815260200190815260200160002060008681526020019081526020016000206002018190555050505050565b6060600060048054905067ffffffffffffffff8111156107b5576107b4611847565b5b6040519080825280602002602001820160405280156107ee57816020015b6107db611220565b8152602001906001900390816107d35790505b509050600080600090505b600480549050811015610af05760011515600260003373ffffffffffffffffffffffffffffffffffffffff1673ffffffffffffffffffffffffffffffffffffffff16815260200190815260200160002060006004848154811061085f5761085e611bee565b5b9060005260206000200154815260200190815260200160002060030160009054906101000a900460ff16151503610add5760006040518060800160405280600484815481106108b1576108b0611bee565b5b90600052602060002001548152602001600260003373ffffffffffffffffffffffffffffffffffffffff1673ffffffffffffffffffffffffffffffffffffffff16815260200190815260200160002060006004868154811061091657610915611bee565b5b90600052602060002001548152602001908152602001600020600001548152602001600260003373ffffffffffffffffffffffffffffffffffffffff1673ffffffffffffffffffffffffffffffffffffffff16815260200190815260200160002060006004868154811061098d5761098c611bee565b5b9060005260206000200154815260200190815260200160002060010180546109b490611a4e565b80601f01602080910402602001604051908101604052809291908181526020018280546109e090611a4e565b8015610a2d5780601f10610a0257610100808354040283529160200191610a2d565b820191906000526020600020905b815481529060010190602001808311610a1057829003601f168201915b50505050508152602001600260003373ffffffffffffffffffffffffffffffffffffffff1673ffffffffffffffffffffffffffffffffffffffff168152602001908152602001600020600060048681548110610a8c57610a8b611bee565b5b9060005260206000200154815260200190815260200160002060020154815250905080848481518110610ac257610ac1611bee565b5b60200260200101819052508280610ad890611c1d565b935050505b8080610ae890611c1d565b9150506107f9565b50819250505090565b60018181548110610b0957600080fd5b9060005260206000209060030201600091509050806000015490806001018054610b3290611a4e565b80601f0160208091040260200160405190810160405280929190818152602001828054610b5e90611a4e565b8015610bab5780601f10610b8057610100808354040283529160200191610bab565b820191906000526020600020905b815481529060010190602001808311610b8e57829003601f168201915b5050505050908060020154905083565b606060008060048054905067ffffffffffffffff811115610bdf57610bde611847565b5b604051908082528060200260200182016040528015610c1857816020015b610c05611248565b815260200190600190039081610bfd5790505b50905060005b600380549050811015610f6a5760005b600480549050811015610f5657856002600060038581548110610c5457610c53611bee565b5b9060005260206000200160009054906101000a900473ffffffffffffffffffffffffffffffffffffffff1673ffffffffffffffffffffffffffffffffffffffff1673ffffffffffffffffffffffffffffffffffffffff168152602001908152602001600020600060048481548110610ccf57610cce611bee565b5b906000526020600020015481526020019081526020016000206000015403610f43576000604051806060016040528060048481548110610d1257610d11611bee565b5b906000526020600020015481526020016002600060038781548110610d3a57610d39611bee565b5b9060005260206000200160009054906101000a900473ffffffffffffffffffffffffffffffffffffffff1673ffffffffffffffffffffffffffffffffffffffff1673ffffffffffffffffffffffffffffffffffffffff168152602001908152602001600020600060048681548110610db557610db4611bee565b5b906000526020600020015481526020019081526020016000206001018054610ddc90611a4e565b80601f0160208091040260200160405190810160405280929190818152602001828054610e0890611a4e565b8015610e555780601f10610e2a57610100808354040283529160200191610e55565b820191906000526020600020905b815481529060010190602001808311610e3857829003601f168201915b505050505081526020016002600060038781548110610e7757610e76611bee565b5b9060005260206000200160009054906101000a900473ffffffffffffffffffffffffffffffffffffffff1673ffffffffffffffffffffffffffffffffffffffff1673ffffffffffffffffffffffffffffffffffffffff168152602001908152602001600020600060048681548110610ef257610ef1611bee565b5b9060005260206000200154815260200190815260200160002060020154815250905080848681518110610f2857610f27611bee565b5b60200260200101819052508480610f3e90611c1d565b955050505b8080610f4e90611c1d565b915050610c2e565b508080610f6290611c1d565b915050610c1e565b508092505050919050565b6003339080600181540180825580915050600190039060005260206000200160009091909190916101000a81548173ffffffffffffffffffffffffffffffffffffffff021916908373ffffffffffffffffffffffffffffffffffffffff1602179055506004849080600181540180825580915050600190039060005260206000200160009091909190915055604051806080016040528084815260200183815260200182815260200160011515815250600260003373ffffffffffffffffffffffffffffffffffffffff1673ffffffffffffffffffffffffffffffffffffffff16815260200190815260200160002060008681526020019081526020016000206000820151816000015560208201518160010190816110949190611e11565b506040820151816002015560608201518160030160006101000a81548160ff0219169083151502179055509050507f4e8078f60cd3376b003378a5d0f79e87a73e022892ac43236d5ce05d505e26de3385426040516110f593929190611ee3565b60405180910390a150505050565b80600260003373ffffffffffffffffffffffffffffffffffffffff1673ffffffffffffffffffffffffffffffffffffffff1681526020019081526020016000206000848152602001908152602001600020600201546111629190611bba565b600260003373ffffffffffffffffffffffffffffffffffffffff1673ffffffffffffffffffffffffffffffffffffffff1681526020019081526020016000206000848152602001908152602001600020600201819055505050565b600381815481106111cd57600080fd5b906000526020600020016000915054906101000a900473ffffffffffffffffffffffffffffffffffffffff1681565b6004818154811061120c57600080fd5b906000526020600020016000915090505481565b6040518060800160405280600081526020016000815260200160608152602001600081525090565b60405180606001604052806000815260200160608152602001600081525090565b6000604051905090565b600080fd5b600080fd5b6000819050919050565b6112908161127d565b811461129b57600080fd5b50565b6000813590506112ad81611287565b92915050565b6000602082840312156112c9576112c8611273565b5b60006112d78482850161129e565b91505092915050565b6112e98161127d565b82525050565b600081519050919050565b600082825260208201905092915050565b60005b8381101561132957808201518184015260208101905061130e565b60008484015250505050565b6000601f19601f8301169050919050565b6000611351826112ef565b61135b81856112fa565b935061136b81856020860161130b565b61137481611335565b840191505092915050565b600060808201905061139460008301876112e0565b6113a160208301866112e0565b81810360408301526113b38185611346565b90506113c260608301846112e0565b95945050505050565b600073ffffffffffffffffffffffffffffffffffffffff82169050919050565b60006113f6826113cb565b9050919050565b611406816113eb565b811461141157600080fd5b50565b600081359050611423816113fd565b92915050565b6000806000806080858703121561144357611442611273565b5b60006114518782880161129e565b94505060206114628782880161129e565b935050604061147387828801611414565b92505060606114848782880161129e565b91505092959194509250565b600080604083850312156114a7576114a6611273565b5b60006114b585828601611414565b92505060206114c68582860161129e565b9150509250929050565b60006020820190506114e560008301846112e0565b92915050565b6000806040838503121561150257611501611273565b5b60006115108582860161129e565b92505060206115218582860161129e565b9150509250929050565b600081519050919050565b600082825260208201905092915050565b6000819050602082019050919050565b6115608161127d565b82525050565b600082825260208201905092915050565b6000611582826112ef565b61158c8185611566565b935061159c81856020860161130b565b6115a581611335565b840191505092915050565b60006080830160008301516115c86000860182611557565b5060208301516115db6020860182611557565b50604083015184820360408601526115f38282611577565b91505060608301516116086060860182611557565b508091505092915050565b600061161f83836115b0565b905092915050565b6000602082019050919050565b600061163f8261152b565b6116498185611536565b93508360208202850161165b85611547565b8060005b8581101561169757848403895281516116788582611613565b945061168383611627565b925060208a0199505060018101905061165f565b50829750879550505050505092915050565b600060208201905081810360008301526116c38184611634565b905092915050565b60006060820190506116e060008301866112e0565b81810360208301526116f28185611346565b905061170160408301846112e0565b949350505050565b600081519050919050565b600082825260208201905092915050565b6000819050602082019050919050565b600060608301600083015161174d6000860182611557565b50602083015184820360208601526117658282611577565b915050604083015161177a6040860182611557565b508091505092915050565b60006117918383611735565b905092915050565b6000602082019050919050565b60006117b182611709565b6117bb8185611714565b9350836020820285016117cd85611725565b8060005b8581101561180957848403895281516117ea8582611785565b94506117f583611799565b925060208a019950506001810190506117d1565b50829750879550505050505092915050565b6000602082019050818103600083015261183581846117a6565b905092915050565b600080fd5b600080fd5b7f4e487b7100000000000000000000000000000000000000000000000000000000600052604160045260246000fd5b61187f82611335565b810181811067ffffffffffffffff8211171561189e5761189d611847565b5b80604052505050565b60006118b1611269565b90506118bd8282611876565b919050565b600067ffffffffffffffff8211156118dd576118dc611847565b5b6118e682611335565b9050602081019050919050565b82818337600083830152505050565b6000611915611910846118c2565b6118a7565b90508281526020810184848401111561193157611930611842565b5b61193c8482856118f3565b509392505050565b600082601f8301126119595761195861183d565b5b8135611969848260208601611902565b91505092915050565b6000806000806080858703121561198c5761198b611273565b5b600061199a8782880161129e565b94505060206119ab8782880161129e565b935050604085013567ffffffffffffffff8111156119cc576119cb611278565b5b6119d887828801611944565b92505060606119e98782880161129e565b91505092959194509250565b6119fe816113eb565b82525050565b6000602082019050611a1960008301846119f5565b92915050565b7f4e487b7100000000000000000000000000000000000000000000000000000000600052602260045260246000fd5b60006002820490506001821680611a6657607f821691505b602082108103611a7957611a78611a1f565b5b50919050565b7f496e73756666696369656e742042616c616e6365000000000000000000000000600082015250565b6000611ab56014836112fa565b9150611ac082611a7f565b602082019050919050565b60006020820190508181036000830152611ae481611aa8565b9050919050565b7f496e636f7272656374204163636f756e74204e756d6265720000000000000000600082015250565b6000611b216018836112fa565b9150611b2c82611aeb565b602082019050919050565b60006020820190508181036000830152611b5081611b14565b9050919050565b7f4e487b7100000000000000000000000000000000000000000000000000000000600052601160045260246000fd5b6000611b918261127d565b9150611b9c8361127d565b9250828203905081811115611bb457611bb3611b57565b5b92915050565b6000611bc58261127d565b9150611bd08361127d565b9250828201905080821115611be857611be7611b57565b5b92915050565b7f4e487b7100000000000000000000000000000000000000000000000000000000600052603260045260246000fd5b6000611c288261127d565b91507fffffffffffffffffffffffffffffffffffffffffffffffffffffffffffffffff8203611c5a57611c59611b57565b5b600182019050919050565b60008190508160005260206000209050919050565b60006020601f8301049050919050565b600082821b905092915050565b600060088302611cc77fffffffffffffffffffffffffffffffffffffffffffffffffffffffffffffffff82611c8a565b611cd18683611c8a565b95508019841693508086168417925050509392505050565b6000819050919050565b6000611d0e611d09611d048461127d565b611ce9565b61127d565b9050919050565b6000819050919050565b611d2883611cf3565b611d3c611d3482611d15565b848454611c97565b825550505050565b600090565b611d51611d44565b611d5c818484611d1f565b505050565b5b81811015611d8057611d75600082611d49565b600181019050611d62565b5050565b601f821115611dc557611d9681611c65565b611d9f84611c7a565b81016020851015611dae578190505b611dc2611dba85611c7a565b830182611d61565b50505b505050565b600082821c905092915050565b6000611de860001984600802611dca565b1980831691505092915050565b6000611e018383611dd7565b9150826002028217905092915050565b611e1a826112ef565b67ffffffffffffffff811115611e3357611e32611847565b5b611e3d8254611a4e565b611e48828285611d84565b600060209050601f831160018114611e7b5760008415611e69578287015190505b611e738582611df5565b865550611edb565b601f198416611e8986611c65565b60005b82811015611eb157848901518255600182019150602085019450602081019050611e8c565b86831015611ece5784890151611eca601f891682611dd7565b8355505b6001600288020188555050505b505050505050565b6000606082019050611ef860008301866119f5565b611f0560208301856112e0565b611f1260408301846112e0565b94935050505056fea2646970667358221220c701e4fd375cb8ae33d1cbe196cbe66550802565b1e8b7c38066e54e7d4ed06764736f6c63430008100033",
  "linkReferences": {},
  "deployedLinkReferences": {}
}