{
  "_format": "hh-sol-artifact-1",
  "contractName": "functions",
  "sourceName": "contracts/functions.sol",
  "abi": [
    {
      "inputs": [],
      "stateMutability": "nonpayable",
      "type": "constructor"
    },
    {
      "anonymous": false,
      "inputs": [
        {
          "indexed": false,
          "internalType": "address",
          "name": "accountAddress",
          "type": "address"
        },
        {
          "indexed": false,
          "internalType": "uint256",
          "name": "accountNumber",
          "type": "uint256"
        },
        {
          "indexed": false,
          "internalType": "uint256",
          "name": "time",
          "type": "uint256"
        }
      ],
      "name": "eventAccountCreation",
      "type": "event"
    },
    {
      "anonymous": false,
      "inputs": [
        {
          "indexed": false,
          "internalType": "address",
          "name": "accountAddress",
          "type": "address"
        },
        {
          "indexed": false,
          "internalType": "uint256",
          "name": "accountNumber",
          "type": "uint256"
        },
        {
          "indexed": false,
          "internalType": "uint256",
          "name": "depositedBalance",
          "type": "uint256"
        },
        {
          "indexed": false,
          "internalType": "uint256",
          "name": "time",
          "type": "uint256"
        }
      ],
      "name": "eventBalanceDeposit",
      "type": "event"
    },
    {
      "anonymous": false,
      "inputs": [
        {
          "indexed": false,
          "internalType": "uint256",
          "name": "accountFrom",
          "type": "uint256"
        },
        {
          "indexed": false,
          "internalType": "uint256",
          "name": "accountTo",
          "type": "uint256"
        },
        {
          "indexed": false,
          "internalType": "uint256",
          "name": "transferedBalance",
          "type": "uint256"
        },
        {
          "indexed": false,
          "internalType": "uint256",
          "name": "time",
          "type": "uint256"
        }
      ],
      "name": "eventBalanceTransfer",
      "type": "event"
    },
    {
      "anonymous": false,
      "inputs": [
        {
          "indexed": false,
          "internalType": "address",
          "name": "accountAddress",
          "type": "address"
        },
        {
          "indexed": false,
          "internalType": "uint256",
          "name": "accountNumber",
          "type": "uint256"
        },
        {
          "indexed": false,
          "internalType": "uint256",
          "name": "withdrawlBalance",
          "type": "uint256"
        },
        {
          "indexed": false,
          "internalType": "uint256",
          "name": "time",
          "type": "uint256"
        }
      ],
      "name": "eventBalanceWithdraw",
      "type": "event"
    },
    {
      "inputs": [
        {
          "internalType": "uint256",
          "name": "",
          "type": "uint256"
        }
      ],
      "name": "accounts",
      "outputs": [
        {
          "internalType": "uint256",
          "name": "",
          "type": "uint256"
        }
      ],
      "stateMutability": "view",
      "type": "function"
    },
    {
      "inputs": [
        {
          "internalType": "uint256",
          "name": "",
          "type": "uint256"
        }
      ],
      "name": "addresses",
      "outputs": [
        {
          "internalType": "address",
          "name": "",
          "type": "address"
        }
      ],
      "stateMutability": "view",
      "type": "function"
    },
    {
      "inputs": [
        {
          "internalType": "uint256",
          "name": "_fromAccount",
          "type": "uint256"
        },
        {
          "internalType": "uint256",
          "name": "_toAccount",
          "type": "uint256"
        },
        {
          "internalType": "address",
          "name": "_toAddress",
          "type": "address"
        },
        {
          "internalType": "uint256",
          "name": "_balance",
          "type": "uint256"
        }
      ],
      "name": "balanceTransfer",
      "outputs": [],
      "stateMutability": "nonpayable",
      "type": "function"
    },
    {
      "inputs": [
        {
          "internalType": "address",
          "name": "_newAdmin",
          "type": "address"
        }
      ],
      "name": "changeAdmin",
      "outputs": [],
      "stateMutability": "nonpayable",
      "type": "function"
    },
    {
      "inputs": [
        {
          "internalType": "uint256",
          "name": "_accountNumber",
          "type": "uint256"
        },
        {
          "internalType": "uint256",
          "name": "_bankName",
          "type": "uint256"
        },
        {
          "internalType": "string",
          "name": "_branch",
          "type": "string"
        },
        {
          "internalType": "uint256",
          "name": "_balance",
          "type": "uint256"
        }
      ],
      "name": "createAccount",
      "outputs": [],
      "stateMutability": "nonpayable",
      "type": "function"
    },
    {
      "inputs": [
        {
          "internalType": "uint256",
          "name": "_accountNumber",
          "type": "uint256"
        },
        {
          "internalType": "uint256",
          "name": "_depositbalance",
          "type": "uint256"
        }
      ],
      "name": "deposit",
      "outputs": [],
      "stateMutability": "nonpayable",
      "type": "function"
    },
    {
      "inputs": [
        {
          "internalType": "address",
          "name": "_addressCheckBalance",
          "type": "address"
        },
        {
          "internalType": "uint256",
          "name": "_accountCheckBalance",
          "type": "uint256"
        }
      ],
      "name": "getBalance",
      "outputs": [
        {
          "internalType": "uint256",
          "name": "",
          "type": "uint256"
        }
      ],
      "stateMutability": "view",
      "type": "function"
    },
    {
      "inputs": [
        {
          "internalType": "uint256",
          "name": "_bankName",
          "type": "uint256"
        }
      ],
      "name": "getBankData",
      "outputs": [
        {
          "components": [
            {
              "internalType": "uint256",
              "name": "accountNumber",
              "type": "uint256"
            },
            {
              "internalType": "string",
              "name": "branch",
              "type": "string"
            },
            {
              "internalType": "uint256",
              "name": "balance",
              "type": "uint256"
            }
          ],
          "internalType": "struct data.returnBankData[]",
          "name": "",
          "type": "tuple[]"
        }
      ],
      "stateMutability": "view",
      "type": "function"
    },
    {
      "inputs": [],
      "name": "personalInfo",
      "outputs": [
        {
          "components": [
            {
              "internalType": "uint256",
              "name": "accountNumber",
              "type": "uint256"
            },
            {
              "internalType": "uint256",
              "name": "bankName",
              "type": "uint256"
            },
            {
              "internalType": "string",
              "name": "branch",
              "type": "string"
            },
            {
              "internalType": "uint256",
              "name": "balance",
              "type": "uint256"
            }
          ],
          "internalType": "struct data.returnData[]",
          "name": "",
          "type": "tuple[]"
        }
      ],
      "stateMutability": "view",
      "type": "function"
    },
    {
      "inputs": [
        {
          "internalType": "uint256",
          "name": "",
          "type": "uint256"
        }
      ],
      "name": "returnBankDataArray",
      "outputs": [
        {
          "internalType": "uint256",
          "name": "accountNumber",
          "type": "uint256"
        },
        {
          "internalType": "string",
          "name": "branch",
          "type": "string"
        },
        {
          "internalType": "uint256",
          "name": "balance",
          "type": "uint256"
        }
      ],
      "stateMutability": "view",
      "type": "function"
    },
    {
      "inputs": [
        {
          "internalType": "uint256",
          "name": "",
          "type": "uint256"
        }
      ],
      "name": "returnDataArray",
      "outputs": [
        {
          "internalType": "uint256",
          "name": "accountNumber",
          "type": "uint256"
        },
        {
          "internalType": "uint256",
          "name": "bankName",
          "type": "uint256"
        },
        {
          "internalType": "string",
          "name": "branch",
          "type": "string"
        },
        {
          "internalType": "uint256",
          "name": "balance",
          "type": "uint256"
        }
      ],
      "stateMutability": "view",
      "type": "function"
    },
    {
      "inputs": [
        {
          "internalType": "uint256",
          "name": "_accountNumber",
          "type": "uint256"
        },
        {
          "internalType": "uint256",
          "name": "_withdrawbalance",
          "type": "uint256"
        }
      ],
      "name": "withdraw",
      "outputs": [],
      "stateMutability": "nonpayable",
      "type": "function"
    }
  ],
  "bytecode": "0x608060405234801561001057600080fd5b50336000806101000a81548173ffffffffffffffffffffffffffffffffffffffff021916908373ffffffffffffffffffffffffffffffffffffffff1602179055506124f8806100606000396000f3fe608060405234801561001057600080fd5b50600436106100b45760003560e01c8063b26ea79811610071578063b26ea798146101a2578063c8cb55ae146101d2578063e2bbb158146101ee578063edf26d9b1461020a578063f2a40db81461023a578063f2dbf12e1461026a576100b4565b8063078c9ed3146100b957806315f1d66d146100ec5780632b04e84014610108578063441a3e70146101385780638f28397014610154578063b0fb25cc14610170575b600080fd5b6100d360048036038101906100ce919061163a565b610288565b6040516100e39493929190611706565b60405180910390f35b610106600480360381019061010191906117b0565b610350565b005b610122600480360381019061011d9190611817565b610644565b60405161012f9190611857565b60405180910390f35b610152600480360381019061014d9190611872565b6106a2565b005b61016e600480360381019061016991906118b2565b6108dc565b005b61018a6004803603810190610185919061163a565b6109ad565b604051610199939291906118df565b60405180910390f35b6101bc60048036038101906101b7919061163a565b610a6f565b6040516101c99190611a88565b60405180910390f35b6101ec60048036038101906101e79190611bdf565b610eb7565b005b61020860048036038101906102039190611872565b6110e6565b005b610224600480360381019061021f919061163a565b6111dd565b6040516102319190611c71565b60405180910390f35b610254600480360381019061024f919061163a565b61121c565b6040516102619190611857565b60405180910390f35b610272611240565b60405161027f9190611db1565b60405180910390f35b6001818154811061029857600080fd5b90600052602060002090600402016000915090508060000154908060010154908060020180546102c790611e02565b80601f01602080910402602001604051908101604052809291908181526020018280546102f390611e02565b80156103405780601f1061031557610100808354040283529160200191610340565b820191906000526020600020905b81548152906001019060200180831161032357829003601f168201915b5050505050908060030154905084565b838180600360003373ffffffffffffffffffffffffffffffffffffffff1673ffffffffffffffffffffffffffffffffffffffff16815260200190815260200160002060008481526020019081526020016000206002015410156103e8576040517f08c379a00000000000000000000000000000000000000000000000000000000081526004016103df90611e7f565b60405180910390fd5b838560011515600360008473ffffffffffffffffffffffffffffffffffffffff1673ffffffffffffffffffffffffffffffffffffffff168152602001908152602001600020600083815260200190815260200160002060030160009054906101000a900460ff16151514610491576040517f08c379a000000000000000000000000000000000000000000000000000000000815260040161048890611eeb565b60405180910390fd5b84600360003373ffffffffffffffffffffffffffffffffffffffff1673ffffffffffffffffffffffffffffffffffffffff16815260200190815260200160002060008a8152602001908152602001600020600201546104f09190611f3a565b600360003373ffffffffffffffffffffffffffffffffffffffff1673ffffffffffffffffffffffffffffffffffffffff16815260200190815260200160002060008a81526020019081526020016000206002018190555084600360008873ffffffffffffffffffffffffffffffffffffffff1673ffffffffffffffffffffffffffffffffffffffff1681526020019081526020016000206000898152602001908152602001600020600201546105a69190611f6e565b600360008873ffffffffffffffffffffffffffffffffffffffff1673ffffffffffffffffffffffffffffffffffffffff1681526020019081526020016000206000898152602001908152602001600020600201819055507f8f0bcad820b3433bf6ffda6be49871f18b8c267ac1c7db8f94432ae3224adb5d888887426040516106329493929190611fa2565b60405180910390a15050505050505050565b6000600360008473ffffffffffffffffffffffffffffffffffffffff1673ffffffffffffffffffffffffffffffffffffffff168152602001908152602001600020600083815260200190815260200160002060020154905092915050565b818180600360003373ffffffffffffffffffffffffffffffffffffffff1673ffffffffffffffffffffffffffffffffffffffff168152602001908152602001600020600084815260200190815260200160002060020154101561073a576040517f08c379a000000000000000000000000000000000000000000000000000000000815260040161073190611e7f565b60405180910390fd5b8360011515600360003373ffffffffffffffffffffffffffffffffffffffff1673ffffffffffffffffffffffffffffffffffffffff168152602001908152602001600020600083815260200190815260200160002060030160009054906101000a900460ff161515146107e2576040517f08c379a00000000000000000000000000000000000000000000000000000000081526004016107d990612059565b60405180910390fd5b83600360003373ffffffffffffffffffffffffffffffffffffffff1673ffffffffffffffffffffffffffffffffffffffff1681526020019081526020016000206000878152602001908152602001600020600201546108419190611f3a565b600360003373ffffffffffffffffffffffffffffffffffffffff1673ffffffffffffffffffffffffffffffffffffffff1681526020019081526020016000206000878152602001908152602001600020600201819055507f2c475b8285d302922e0b51cace5489a97d98708a2a3a01edf1e62f3b3900c487338686426040516108cd9493929190612079565b60405180910390a15050505050565b60008054906101000a900473ffffffffffffffffffffffffffffffffffffffff1673ffffffffffffffffffffffffffffffffffffffff163373ffffffffffffffffffffffffffffffffffffffff161461096a576040517f08c379a00000000000000000000000000000000000000000000000000000000081526004016109619061210a565b60405180910390fd5b806000806101000a81548173ffffffffffffffffffffffffffffffffffffffff021916908373ffffffffffffffffffffffffffffffffffffffff16021790555050565b600281815481106109bd57600080fd5b90600052602060002090600302016000915090508060000154908060010180546109e690611e02565b80601f0160208091040260200160405190810160405280929190818152602001828054610a1290611e02565b8015610a5f5780601f10610a3457610100808354040283529160200191610a5f565b820191906000526020600020905b815481529060010190602001808311610a4257829003601f168201915b5050505050908060020154905083565b606060008054906101000a900473ffffffffffffffffffffffffffffffffffffffff1673ffffffffffffffffffffffffffffffffffffffff163373ffffffffffffffffffffffffffffffffffffffff1614610aff576040517f08c379a0000000000000000000000000000000000000000000000000000000008152600401610af69061210a565b60405180910390fd5b60008060058054905067ffffffffffffffff811115610b2157610b20611ab4565b5b604051908082528060200260200182016040528015610b5a57816020015b610b476115a7565b815260200190600190039081610b3f5790505b50905060005b600480549050811015610eac5760005b600580549050811015610e9857856003600060048581548110610b9657610b9561212a565b5b9060005260206000200160009054906101000a900473ffffffffffffffffffffffffffffffffffffffff1673ffffffffffffffffffffffffffffffffffffffff1673ffffffffffffffffffffffffffffffffffffffff168152602001908152602001600020600060058481548110610c1157610c1061212a565b5b906000526020600020015481526020019081526020016000206000015403610e85576000604051806060016040528060058481548110610c5457610c5361212a565b5b906000526020600020015481526020016003600060048781548110610c7c57610c7b61212a565b5b9060005260206000200160009054906101000a900473ffffffffffffffffffffffffffffffffffffffff1673ffffffffffffffffffffffffffffffffffffffff1673ffffffffffffffffffffffffffffffffffffffff168152602001908152602001600020600060058681548110610cf757610cf661212a565b5b906000526020600020015481526020019081526020016000206001018054610d1e90611e02565b80601f0160208091040260200160405190810160405280929190818152602001828054610d4a90611e02565b8015610d975780601f10610d6c57610100808354040283529160200191610d97565b820191906000526020600020905b815481529060010190602001808311610d7a57829003601f168201915b505050505081526020016003600060048781548110610db957610db861212a565b5b9060005260206000200160009054906101000a900473ffffffffffffffffffffffffffffffffffffffff1673ffffffffffffffffffffffffffffffffffffffff1673ffffffffffffffffffffffffffffffffffffffff168152602001908152602001600020600060058681548110610e3457610e3361212a565b5b9060005260206000200154815260200190815260200160002060020154815250905080848681518110610e6a57610e6961212a565b5b60200260200101819052508480610e8090612159565b955050505b8080610e9090612159565b915050610b70565b508080610ea490612159565b915050610b60565b508092505050919050565b83600080600090505b600580549050811015610f0e578260058281548110610ee257610ee161212a565b5b906000526020600020015403610efb5760019150610f0e565b8080610f0690612159565b915050610ec0565b506000151581151514610f56576040517f08c379a0000000000000000000000000000000000000000000000000000000008152600401610f4d906121ed565b60405180910390fd5b6004339080600181540180825580915050600190039060005260206000200160009091909190916101000a81548173ffffffffffffffffffffffffffffffffffffffff021916908373ffffffffffffffffffffffffffffffffffffffff1602179055506005869080600181540180825580915050600190039060005260206000200160009091909190915055604051806080016040528086815260200185815260200184815260200160011515815250600360003373ffffffffffffffffffffffffffffffffffffffff1673ffffffffffffffffffffffffffffffffffffffff168152602001908152602001600020600088815260200190815260200160002060008201518160000155602082015181600101908161107591906123b9565b506040820151816002015560608201518160030160006101000a81548160ff0219169083151502179055509050507f86dc9b84d24d91976389928021d50a70822f4a52230234823092b04c828fb7a63387426040516110d69392919061248b565b60405180910390a1505050505050565b80600360003373ffffffffffffffffffffffffffffffffffffffff1673ffffffffffffffffffffffffffffffffffffffff1681526020019081526020016000206000848152602001908152602001600020600201546111459190611f6e565b600360003373ffffffffffffffffffffffffffffffffffffffff1673ffffffffffffffffffffffffffffffffffffffff1681526020019081526020016000206000848152602001908152602001600020600201819055507f2c475b8285d302922e0b51cace5489a97d98708a2a3a01edf1e62f3b3900c487338383426040516111d19493929190612079565b60405180910390a15050565b600481815481106111ed57600080fd5b906000526020600020016000915054906101000a900473ffffffffffffffffffffffffffffffffffffffff1681565b6005818154811061122c57600080fd5b906000526020600020016000915090505481565b6060600060058054905067ffffffffffffffff81111561126357611262611ab4565b5b60405190808252806020026020018201604052801561129c57816020015b6112896115c8565b8152602001906001900390816112815790505b509050600080600090505b60058054905081101561159e5760011515600360003373ffffffffffffffffffffffffffffffffffffffff1673ffffffffffffffffffffffffffffffffffffffff16815260200190815260200160002060006005848154811061130d5761130c61212a565b5b9060005260206000200154815260200190815260200160002060030160009054906101000a900460ff1615150361158b57600060405180608001604052806005848154811061135f5761135e61212a565b5b90600052602060002001548152602001600360003373ffffffffffffffffffffffffffffffffffffffff1673ffffffffffffffffffffffffffffffffffffffff1681526020019081526020016000206000600586815481106113c4576113c361212a565b5b90600052602060002001548152602001908152602001600020600001548152602001600360003373ffffffffffffffffffffffffffffffffffffffff1673ffffffffffffffffffffffffffffffffffffffff16815260200190815260200160002060006005868154811061143b5761143a61212a565b5b90600052602060002001548152602001908152602001600020600101805461146290611e02565b80601f016020809104026020016040519081016040528092919081815260200182805461148e90611e02565b80156114db5780601f106114b0576101008083540402835291602001916114db565b820191906000526020600020905b8154815290600101906020018083116114be57829003601f168201915b50505050508152602001600360003373ffffffffffffffffffffffffffffffffffffffff1673ffffffffffffffffffffffffffffffffffffffff16815260200190815260200160002060006005868154811061153a5761153961212a565b5b90600052602060002001548152602001908152602001600020600201548152509050808484815181106115705761156f61212a565b5b6020026020010181905250828061158690612159565b935050505b808061159690612159565b9150506112a7565b50819250505090565b60405180606001604052806000815260200160608152602001600081525090565b6040518060800160405280600081526020016000815260200160608152602001600081525090565b6000604051905090565b600080fd5b600080fd5b6000819050919050565b61161781611604565b811461162257600080fd5b50565b6000813590506116348161160e565b92915050565b6000602082840312156116505761164f6115fa565b5b600061165e84828501611625565b91505092915050565b61167081611604565b82525050565b600081519050919050565b600082825260208201905092915050565b60005b838110156116b0578082015181840152602081019050611695565b60008484015250505050565b6000601f19601f8301169050919050565b60006116d882611676565b6116e28185611681565b93506116f2818560208601611692565b6116fb816116bc565b840191505092915050565b600060808201905061171b6000830187611667565b6117286020830186611667565b818103604083015261173a81856116cd565b90506117496060830184611667565b95945050505050565b600073ffffffffffffffffffffffffffffffffffffffff82169050919050565b600061177d82611752565b9050919050565b61178d81611772565b811461179857600080fd5b50565b6000813590506117aa81611784565b92915050565b600080600080608085870312156117ca576117c96115fa565b5b60006117d887828801611625565b94505060206117e987828801611625565b93505060406117fa8782880161179b565b925050606061180b87828801611625565b91505092959194509250565b6000806040838503121561182e5761182d6115fa565b5b600061183c8582860161179b565b925050602061184d85828601611625565b9150509250929050565b600060208201905061186c6000830184611667565b92915050565b60008060408385031215611889576118886115fa565b5b600061189785828601611625565b92505060206118a885828601611625565b9150509250929050565b6000602082840312156118c8576118c76115fa565b5b60006118d68482850161179b565b91505092915050565b60006060820190506118f46000830186611667565b818103602083015261190681856116cd565b90506119156040830184611667565b949350505050565b600081519050919050565b600082825260208201905092915050565b6000819050602082019050919050565b61195281611604565b82525050565b600082825260208201905092915050565b600061197482611676565b61197e8185611958565b935061198e818560208601611692565b611997816116bc565b840191505092915050565b60006060830160008301516119ba6000860182611949565b50602083015184820360208601526119d28282611969565b91505060408301516119e76040860182611949565b508091505092915050565b60006119fe83836119a2565b905092915050565b6000602082019050919050565b6000611a1e8261191d565b611a288185611928565b935083602082028501611a3a85611939565b8060005b85811015611a765784840389528151611a5785826119f2565b9450611a6283611a06565b925060208a01995050600181019050611a3e565b50829750879550505050505092915050565b60006020820190508181036000830152611aa28184611a13565b905092915050565b600080fd5b600080fd5b7f4e487b7100000000000000000000000000000000000000000000000000000000600052604160045260246000fd5b611aec826116bc565b810181811067ffffffffffffffff82111715611b0b57611b0a611ab4565b5b80604052505050565b6000611b1e6115f0565b9050611b2a8282611ae3565b919050565b600067ffffffffffffffff821115611b4a57611b49611ab4565b5b611b53826116bc565b9050602081019050919050565b82818337600083830152505050565b6000611b82611b7d84611b2f565b611b14565b905082815260208101848484011115611b9e57611b9d611aaf565b5b611ba9848285611b60565b509392505050565b600082601f830112611bc657611bc5611aaa565b5b8135611bd6848260208601611b6f565b91505092915050565b60008060008060808587031215611bf957611bf86115fa565b5b6000611c0787828801611625565b9450506020611c1887828801611625565b935050604085013567ffffffffffffffff811115611c3957611c386115ff565b5b611c4587828801611bb1565b9250506060611c5687828801611625565b91505092959194509250565b611c6b81611772565b82525050565b6000602082019050611c866000830184611c62565b92915050565b600081519050919050565b600082825260208201905092915050565b6000819050602082019050919050565b6000608083016000830151611cd06000860182611949565b506020830151611ce36020860182611949565b5060408301518482036040860152611cfb8282611969565b9150506060830151611d106060860182611949565b508091505092915050565b6000611d278383611cb8565b905092915050565b6000602082019050919050565b6000611d4782611c8c565b611d518185611c97565b935083602082028501611d6385611ca8565b8060005b85811015611d9f5784840389528151611d808582611d1b565b9450611d8b83611d2f565b925060208a01995050600181019050611d67565b50829750879550505050505092915050565b60006020820190508181036000830152611dcb8184611d3c565b905092915050565b7f4e487b7100000000000000000000000000000000000000000000000000000000600052602260045260246000fd5b60006002820490506001821680611e1a57607f821691505b602082108103611e2d57611e2c611dd3565b5b50919050565b7f496e73756666696369656e742042616c616e6365000000000000000000000000600082015250565b6000611e69601483611681565b9150611e7482611e33565b602082019050919050565b60006020820190508181036000830152611e9881611e5c565b9050919050565b7f496e636f7272656374204163636f756e74204e756d6265720000000000000000600082015250565b6000611ed5601883611681565b9150611ee082611e9f565b602082019050919050565b60006020820190508181036000830152611f0481611ec8565b9050919050565b7f4e487b7100000000000000000000000000000000000000000000000000000000600052601160045260246000fd5b6000611f4582611604565b9150611f5083611604565b9250828203905081811115611f6857611f67611f0b565b5b92915050565b6000611f7982611604565b9150611f8483611604565b9250828201905080821115611f9c57611f9b611f0b565b5b92915050565b6000608082019050611fb76000830187611667565b611fc46020830186611667565b611fd16040830185611667565b611fde6060830184611667565b95945050505050565b7f4163636f756e7420646f6573206e6f742062656c6f6e677320746f207468697360008201527f2041646472657373000000000000000000000000000000000000000000000000602082015250565b6000612043602883611681565b915061204e82611fe7565b604082019050919050565b6000602082019050818103600083015261207281612036565b9050919050565b600060808201905061208e6000830187611c62565b61209b6020830186611667565b6120a86040830185611667565b6120b56060830184611667565b95945050505050565b7f556e617574686f72697a6564207065726d697373696f6e000000000000000000600082015250565b60006120f4601783611681565b91506120ff826120be565b602082019050919050565b60006020820190508181036000830152612123816120e7565b9050919050565b7f4e487b7100000000000000000000000000000000000000000000000000000000600052603260045260246000fd5b600061216482611604565b91507fffffffffffffffffffffffffffffffffffffffffffffffffffffffffffffffff820361219657612195611f0b565b5b600182019050919050565b7f4163636f756e7420416c72656164792045786973740000000000000000000000600082015250565b60006121d7601583611681565b91506121e2826121a1565b602082019050919050565b60006020820190508181036000830152612206816121ca565b9050919050565b60008190508160005260206000209050919050565b60006020601f8301049050919050565b600082821b905092915050565b60006008830261226f7fffffffffffffffffffffffffffffffffffffffffffffffffffffffffffffffff82612232565b6122798683612232565b95508019841693508086168417925050509392505050565b6000819050919050565b60006122b66122b16122ac84611604565b612291565b611604565b9050919050565b6000819050919050565b6122d08361229b565b6122e46122dc826122bd565b84845461223f565b825550505050565b600090565b6122f96122ec565b6123048184846122c7565b505050565b5b818110156123285761231d6000826122f1565b60018101905061230a565b5050565b601f82111561236d5761233e8161220d565b61234784612222565b81016020851015612356578190505b61236a61236285612222565b830182612309565b50505b505050565b600082821c905092915050565b600061239060001984600802612372565b1980831691505092915050565b60006123a9838361237f565b9150826002028217905092915050565b6123c282611676565b67ffffffffffffffff8111156123db576123da611ab4565b5b6123e58254611e02565b6123f082828561232c565b600060209050601f8311600181146124235760008415612411578287015190505b61241b858261239d565b865550612483565b601f1984166124318661220d565b60005b8281101561245957848901518255600182019150602085019450602081019050612434565b868310156124765784890151612472601f89168261237f565b8355505b6001600288020188555050505b505050505050565b60006060820190506124a06000830186611c62565b6124ad6020830185611667565b6124ba6040830184611667565b94935050505056fea264697066735822122056cd6d0ddf01fc6a8e2c2e54239d65c01bbe321755d63e77decb6ae7e26d179464736f6c63430008100033",
  "linkReferences": {},
  "deployedLinkReferences": {}
}