{
  "_format": "hh-sol-artifact-1",
  "contractName": "Functions",
  "sourceName": "contracts/functions.sol",
  "abi": [
    {
      "inputs": [],
      "stateMutability": "nonpayable",
      "type": "constructor"
    },
    {
      "anonymous": false,
      "inputs": [
        {
          "indexed": false,
          "internalType": "address",
          "name": "accountAddress",
          "type": "address"
        },
        {
          "indexed": false,
          "internalType": "uint256",
          "name": "accountNumber",
          "type": "uint256"
        },
        {
          "indexed": false,
          "internalType": "uint256",
          "name": "time",
          "type": "uint256"
        }
      ],
      "name": "eventAccountCreation",
      "type": "event"
    },
    {
      "anonymous": false,
      "inputs": [
        {
          "indexed": false,
          "internalType": "address",
          "name": "accountAddress",
          "type": "address"
        },
        {
          "indexed": false,
          "internalType": "uint256",
          "name": "accountNumber",
          "type": "uint256"
        },
        {
          "indexed": false,
          "internalType": "uint256",
          "name": "depositedBalance",
          "type": "uint256"
        },
        {
          "indexed": false,
          "internalType": "uint256",
          "name": "time",
          "type": "uint256"
        }
      ],
      "name": "eventBalanceDeposit",
      "type": "event"
    },
    {
      "anonymous": false,
      "inputs": [
        {
          "indexed": false,
          "internalType": "uint256",
          "name": "accountFrom",
          "type": "uint256"
        },
        {
          "indexed": false,
          "internalType": "uint256",
          "name": "accountTo",
          "type": "uint256"
        },
        {
          "indexed": false,
          "internalType": "uint256",
          "name": "transferedBalance",
          "type": "uint256"
        },
        {
          "indexed": false,
          "internalType": "uint256",
          "name": "time",
          "type": "uint256"
        }
      ],
      "name": "eventBalanceTransfer",
      "type": "event"
    },
    {
      "anonymous": false,
      "inputs": [
        {
          "indexed": false,
          "internalType": "address",
          "name": "accountAddress",
          "type": "address"
        },
        {
          "indexed": false,
          "internalType": "uint256",
          "name": "accountNumber",
          "type": "uint256"
        },
        {
          "indexed": false,
          "internalType": "uint256",
          "name": "withdrawlBalance",
          "type": "uint256"
        },
        {
          "indexed": false,
          "internalType": "uint256",
          "name": "time",
          "type": "uint256"
        }
      ],
      "name": "eventBalanceWithdraw",
      "type": "event"
    },
    {
      "inputs": [
        {
          "internalType": "uint256",
          "name": "",
          "type": "uint256"
        }
      ],
      "name": "accounts",
      "outputs": [
        {
          "internalType": "uint256",
          "name": "",
          "type": "uint256"
        }
      ],
      "stateMutability": "view",
      "type": "function"
    },
    {
      "inputs": [
        {
          "internalType": "uint256",
          "name": "",
          "type": "uint256"
        }
      ],
      "name": "addresses",
      "outputs": [
        {
          "internalType": "address",
          "name": "",
          "type": "address"
        }
      ],
      "stateMutability": "view",
      "type": "function"
    },
    {
      "inputs": [
        {
          "internalType": "uint256",
          "name": "_fromAccount",
          "type": "uint256"
        },
        {
          "internalType": "uint256",
          "name": "_toAccount",
          "type": "uint256"
        },
        {
          "internalType": "address",
          "name": "_toAddress",
          "type": "address"
        },
        {
          "internalType": "uint256",
          "name": "_balance",
          "type": "uint256"
        }
      ],
      "name": "balanceTransfer",
      "outputs": [],
      "stateMutability": "nonpayable",
      "type": "function"
    },
    {
      "inputs": [
        {
          "internalType": "uint256",
          "name": "_accountNumber",
          "type": "uint256"
        },
        {
          "internalType": "uint256",
          "name": "_bankName",
          "type": "uint256"
        },
        {
          "internalType": "string",
          "name": "_branch",
          "type": "string"
        },
        {
          "internalType": "uint256",
          "name": "_balance",
          "type": "uint256"
        }
      ],
      "name": "createAccount",
      "outputs": [],
      "stateMutability": "nonpayable",
      "type": "function"
    },
    {
      "inputs": [
        {
          "internalType": "uint256",
          "name": "_accountNumber",
          "type": "uint256"
        },
        {
          "internalType": "uint256",
          "name": "_depositbalance",
          "type": "uint256"
        }
      ],
      "name": "deposit",
      "outputs": [],
      "stateMutability": "nonpayable",
      "type": "function"
    },
    {
      "inputs": [
        {
          "internalType": "address",
          "name": "_addressCheckBalance",
          "type": "address"
        },
        {
          "internalType": "uint256",
          "name": "_accountCheckBalance",
          "type": "uint256"
        }
      ],
      "name": "getBalance",
      "outputs": [
        {
          "internalType": "uint256",
          "name": "",
          "type": "uint256"
        }
      ],
      "stateMutability": "view",
      "type": "function"
    },
    {
      "inputs": [
        {
          "internalType": "uint256",
          "name": "_bankName",
          "type": "uint256"
        }
      ],
      "name": "getBankData",
      "outputs": [
        {
          "components": [
            {
              "internalType": "uint256",
              "name": "accountNumber",
              "type": "uint256"
            },
            {
              "internalType": "string",
              "name": "branch",
              "type": "string"
            },
            {
              "internalType": "uint256",
              "name": "balance",
              "type": "uint256"
            }
          ],
          "internalType": "struct Data.returnBankData[]",
          "name": "",
          "type": "tuple[]"
        }
      ],
      "stateMutability": "view",
      "type": "function"
    },
    {
      "inputs": [],
      "name": "personalInfo",
      "outputs": [
        {
          "components": [
            {
              "internalType": "uint256",
              "name": "accountNumber",
              "type": "uint256"
            },
            {
              "internalType": "uint256",
              "name": "bankName",
              "type": "uint256"
            },
            {
              "internalType": "string",
              "name": "branch",
              "type": "string"
            },
            {
              "internalType": "uint256",
              "name": "balance",
              "type": "uint256"
            }
          ],
          "internalType": "struct Data.returnData[]",
          "name": "",
          "type": "tuple[]"
        }
      ],
      "stateMutability": "view",
      "type": "function"
    },
    {
      "inputs": [
        {
          "internalType": "uint256",
          "name": "",
          "type": "uint256"
        }
      ],
      "name": "returnBankDataArray",
      "outputs": [
        {
          "internalType": "uint256",
          "name": "accountNumber",
          "type": "uint256"
        },
        {
          "internalType": "string",
          "name": "branch",
          "type": "string"
        },
        {
          "internalType": "uint256",
          "name": "balance",
          "type": "uint256"
        }
      ],
      "stateMutability": "view",
      "type": "function"
    },
    {
      "inputs": [
        {
          "internalType": "uint256",
          "name": "",
          "type": "uint256"
        }
      ],
      "name": "returnDataArray",
      "outputs": [
        {
          "internalType": "uint256",
          "name": "accountNumber",
          "type": "uint256"
        },
        {
          "internalType": "uint256",
          "name": "bankName",
          "type": "uint256"
        },
        {
          "internalType": "string",
          "name": "branch",
          "type": "string"
        },
        {
          "internalType": "uint256",
          "name": "balance",
          "type": "uint256"
        }
      ],
      "stateMutability": "view",
      "type": "function"
    },
    {
      "inputs": [
        {
          "internalType": "uint256",
          "name": "_accountNumber",
          "type": "uint256"
        },
        {
          "internalType": "uint256",
          "name": "_withdrawbalance",
          "type": "uint256"
        }
      ],
      "name": "withdraw",
      "outputs": [],
      "stateMutability": "nonpayable",
      "type": "function"
    }
  ],
  "bytecode": "0x608060405234801561001057600080fd5b50336000806101000a81548173ffffffffffffffffffffffffffffffffffffffff021916908373ffffffffffffffffffffffffffffffffffffffff160217905550612298806100606000396000f3fe608060405234801561001057600080fd5b50600436106100a95760003560e01c8063b26ea79811610071578063b26ea7981461017b578063c8cb55ae146101ab578063e2bbb158146101c7578063edf26d9b146101e3578063f2a40db814610213578063f2dbf12e14610243576100a9565b8063078c9ed3146100ae57806315f1d66d146100e15780632b04e840146100fd578063441a3e701461012d578063b0fb25cc14610149575b600080fd5b6100c860048036038101906100c39190611499565b610261565b6040516100d89493929190611565565b60405180910390f35b6100fb60048036038101906100f6919061160f565b610329565b005b61011760048036038101906101129190611676565b61061d565b60405161012491906116b6565b60405180910390f35b610147600480360381019061014291906116d1565b61067b565b005b610163600480360381019061015e9190611499565b61080c565b60405161017293929190611711565b60405180910390f35b61019560048036038101906101909190611499565b6108ce565b6040516101a291906118ba565b60405180910390f35b6101c560048036038101906101c09190611a11565b610d16565b005b6101e160048036038101906101dc91906116d1565b610f45565b005b6101fd60048036038101906101f89190611499565b61103c565b60405161020a9190611aa3565b60405180910390f35b61022d60048036038101906102289190611499565b61107b565b60405161023a91906116b6565b60405180910390f35b61024b61109f565b6040516102589190611be3565b60405180910390f35b6001818154811061027157600080fd5b90600052602060002090600402016000915090508060000154908060010154908060020180546102a090611c34565b80601f01602080910402602001604051908101604052809291908181526020018280546102cc90611c34565b80156103195780601f106102ee57610100808354040283529160200191610319565b820191906000526020600020905b8154815290600101906020018083116102fc57829003601f168201915b5050505050908060030154905084565b838180600360003373ffffffffffffffffffffffffffffffffffffffff1673ffffffffffffffffffffffffffffffffffffffff16815260200190815260200160002060008481526020019081526020016000206002015410156103c1576040517f08c379a00000000000000000000000000000000000000000000000000000000081526004016103b890611cb1565b60405180910390fd5b838560011515600360008473ffffffffffffffffffffffffffffffffffffffff1673ffffffffffffffffffffffffffffffffffffffff168152602001908152602001600020600083815260200190815260200160002060030160009054906101000a900460ff1615151461046a576040517f08c379a000000000000000000000000000000000000000000000000000000000815260040161046190611d1d565b60405180910390fd5b84600360003373ffffffffffffffffffffffffffffffffffffffff1673ffffffffffffffffffffffffffffffffffffffff16815260200190815260200160002060008a8152602001908152602001600020600201546104c99190611d6c565b600360003373ffffffffffffffffffffffffffffffffffffffff1673ffffffffffffffffffffffffffffffffffffffff16815260200190815260200160002060008a81526020019081526020016000206002018190555084600360008873ffffffffffffffffffffffffffffffffffffffff1673ffffffffffffffffffffffffffffffffffffffff16815260200190815260200160002060008981526020019081526020016000206002015461057f9190611da0565b600360008873ffffffffffffffffffffffffffffffffffffffff1673ffffffffffffffffffffffffffffffffffffffff1681526020019081526020016000206000898152602001908152602001600020600201819055507f8f0bcad820b3433bf6ffda6be49871f18b8c267ac1c7db8f94432ae3224adb5d8888874260405161060b9493929190611dd4565b60405180910390a15050505050505050565b6000600360008473ffffffffffffffffffffffffffffffffffffffff1673ffffffffffffffffffffffffffffffffffffffff168152602001908152602001600020600083815260200190815260200160002060020154905092915050565b818180600360003373ffffffffffffffffffffffffffffffffffffffff1673ffffffffffffffffffffffffffffffffffffffff1681526020019081526020016000206000848152602001908152602001600020600201541015610713576040517f08c379a000000000000000000000000000000000000000000000000000000000815260040161070a90611cb1565b60405180910390fd5b82600360003373ffffffffffffffffffffffffffffffffffffffff1673ffffffffffffffffffffffffffffffffffffffff1681526020019081526020016000206000868152602001908152602001600020600201546107729190611d6c565b600360003373ffffffffffffffffffffffffffffffffffffffff1673ffffffffffffffffffffffffffffffffffffffff1681526020019081526020016000206000868152602001908152602001600020600201819055507f2c475b8285d302922e0b51cace5489a97d98708a2a3a01edf1e62f3b3900c487338585426040516107fe9493929190611e19565b60405180910390a150505050565b6002818154811061081c57600080fd5b906000526020600020906003020160009150905080600001549080600101805461084590611c34565b80601f016020809104026020016040519081016040528092919081815260200182805461087190611c34565b80156108be5780601f10610893576101008083540402835291602001916108be565b820191906000526020600020905b8154815290600101906020018083116108a157829003601f168201915b5050505050908060020154905083565b606060008054906101000a900473ffffffffffffffffffffffffffffffffffffffff1673ffffffffffffffffffffffffffffffffffffffff163373ffffffffffffffffffffffffffffffffffffffff161461095e576040517f08c379a000000000000000000000000000000000000000000000000000000000815260040161095590611eaa565b60405180910390fd5b60008060058054905067ffffffffffffffff8111156109805761097f6118e6565b5b6040519080825280602002602001820160405280156109b957816020015b6109a6611406565b81526020019060019003908161099e5790505b50905060005b600480549050811015610d0b5760005b600580549050811015610cf7578560036000600485815481106109f5576109f4611eca565b5b9060005260206000200160009054906101000a900473ffffffffffffffffffffffffffffffffffffffff1673ffffffffffffffffffffffffffffffffffffffff1673ffffffffffffffffffffffffffffffffffffffff168152602001908152602001600020600060058481548110610a7057610a6f611eca565b5b906000526020600020015481526020019081526020016000206000015403610ce4576000604051806060016040528060058481548110610ab357610ab2611eca565b5b906000526020600020015481526020016003600060048781548110610adb57610ada611eca565b5b9060005260206000200160009054906101000a900473ffffffffffffffffffffffffffffffffffffffff1673ffffffffffffffffffffffffffffffffffffffff1673ffffffffffffffffffffffffffffffffffffffff168152602001908152602001600020600060058681548110610b5657610b55611eca565b5b906000526020600020015481526020019081526020016000206001018054610b7d90611c34565b80601f0160208091040260200160405190810160405280929190818152602001828054610ba990611c34565b8015610bf65780601f10610bcb57610100808354040283529160200191610bf6565b820191906000526020600020905b815481529060010190602001808311610bd957829003601f168201915b505050505081526020016003600060048781548110610c1857610c17611eca565b5b9060005260206000200160009054906101000a900473ffffffffffffffffffffffffffffffffffffffff1673ffffffffffffffffffffffffffffffffffffffff1673ffffffffffffffffffffffffffffffffffffffff168152602001908152602001600020600060058681548110610c9357610c92611eca565b5b9060005260206000200154815260200190815260200160002060020154815250905080848681518110610cc957610cc8611eca565b5b60200260200101819052508480610cdf90611ef9565b955050505b8080610cef90611ef9565b9150506109cf565b508080610d0390611ef9565b9150506109bf565b508092505050919050565b83600080600090505b600580549050811015610d6d578260058281548110610d4157610d40611eca565b5b906000526020600020015403610d5a5760019150610d6d565b8080610d6590611ef9565b915050610d1f565b506000151581151514610db5576040517f08c379a0000000000000000000000000000000000000000000000000000000008152600401610dac90611f8d565b60405180910390fd5b6004339080600181540180825580915050600190039060005260206000200160009091909190916101000a81548173ffffffffffffffffffffffffffffffffffffffff021916908373ffffffffffffffffffffffffffffffffffffffff1602179055506005869080600181540180825580915050600190039060005260206000200160009091909190915055604051806080016040528086815260200185815260200184815260200160011515815250600360003373ffffffffffffffffffffffffffffffffffffffff1673ffffffffffffffffffffffffffffffffffffffff1681526020019081526020016000206000888152602001908152602001600020600082015181600001556020820151816001019081610ed49190612159565b506040820151816002015560608201518160030160006101000a81548160ff0219169083151502179055509050507f86dc9b84d24d91976389928021d50a70822f4a52230234823092b04c828fb7a6338742604051610f359392919061222b565b60405180910390a1505050505050565b80600360003373ffffffffffffffffffffffffffffffffffffffff1673ffffffffffffffffffffffffffffffffffffffff168152602001908152602001600020600084815260200190815260200160002060020154610fa49190611da0565b600360003373ffffffffffffffffffffffffffffffffffffffff1673ffffffffffffffffffffffffffffffffffffffff1681526020019081526020016000206000848152602001908152602001600020600201819055507f2c475b8285d302922e0b51cace5489a97d98708a2a3a01edf1e62f3b3900c487338383426040516110309493929190611e19565b60405180910390a15050565b6004818154811061104c57600080fd5b906000526020600020016000915054906101000a900473ffffffffffffffffffffffffffffffffffffffff1681565b6005818154811061108b57600080fd5b906000526020600020016000915090505481565b6060600060058054905067ffffffffffffffff8111156110c2576110c16118e6565b5b6040519080825280602002602001820160405280156110fb57816020015b6110e8611427565b8152602001906001900390816110e05790505b509050600080600090505b6005805490508110156113fd5760011515600360003373ffffffffffffffffffffffffffffffffffffffff1673ffffffffffffffffffffffffffffffffffffffff16815260200190815260200160002060006005848154811061116c5761116b611eca565b5b9060005260206000200154815260200190815260200160002060030160009054906101000a900460ff161515036113ea5760006040518060800160405280600584815481106111be576111bd611eca565b5b90600052602060002001548152602001600360003373ffffffffffffffffffffffffffffffffffffffff1673ffffffffffffffffffffffffffffffffffffffff16815260200190815260200160002060006005868154811061122357611222611eca565b5b90600052602060002001548152602001908152602001600020600001548152602001600360003373ffffffffffffffffffffffffffffffffffffffff1673ffffffffffffffffffffffffffffffffffffffff16815260200190815260200160002060006005868154811061129a57611299611eca565b5b9060005260206000200154815260200190815260200160002060010180546112c190611c34565b80601f01602080910402602001604051908101604052809291908181526020018280546112ed90611c34565b801561133a5780601f1061130f5761010080835404028352916020019161133a565b820191906000526020600020905b81548152906001019060200180831161131d57829003601f168201915b50505050508152602001600360003373ffffffffffffffffffffffffffffffffffffffff1673ffffffffffffffffffffffffffffffffffffffff16815260200190815260200160002060006005868154811061139957611398611eca565b5b90600052602060002001548152602001908152602001600020600201548152509050808484815181106113cf576113ce611eca565b5b602002602001018190525082806113e590611ef9565b935050505b80806113f590611ef9565b915050611106565b50819250505090565b60405180606001604052806000815260200160608152602001600081525090565b6040518060800160405280600081526020016000815260200160608152602001600081525090565b6000604051905090565b600080fd5b600080fd5b6000819050919050565b61147681611463565b811461148157600080fd5b50565b6000813590506114938161146d565b92915050565b6000602082840312156114af576114ae611459565b5b60006114bd84828501611484565b91505092915050565b6114cf81611463565b82525050565b600081519050919050565b600082825260208201905092915050565b60005b8381101561150f5780820151818401526020810190506114f4565b60008484015250505050565b6000601f19601f8301169050919050565b6000611537826114d5565b61154181856114e0565b93506115518185602086016114f1565b61155a8161151b565b840191505092915050565b600060808201905061157a60008301876114c6565b61158760208301866114c6565b8181036040830152611599818561152c565b90506115a860608301846114c6565b95945050505050565b600073ffffffffffffffffffffffffffffffffffffffff82169050919050565b60006115dc826115b1565b9050919050565b6115ec816115d1565b81146115f757600080fd5b50565b600081359050611609816115e3565b92915050565b6000806000806080858703121561162957611628611459565b5b600061163787828801611484565b945050602061164887828801611484565b9350506040611659878288016115fa565b925050606061166a87828801611484565b91505092959194509250565b6000806040838503121561168d5761168c611459565b5b600061169b858286016115fa565b92505060206116ac85828601611484565b9150509250929050565b60006020820190506116cb60008301846114c6565b92915050565b600080604083850312156116e8576116e7611459565b5b60006116f685828601611484565b925050602061170785828601611484565b9150509250929050565b600060608201905061172660008301866114c6565b8181036020830152611738818561152c565b905061174760408301846114c6565b949350505050565b600081519050919050565b600082825260208201905092915050565b6000819050602082019050919050565b61178481611463565b82525050565b600082825260208201905092915050565b60006117a6826114d5565b6117b0818561178a565b93506117c08185602086016114f1565b6117c98161151b565b840191505092915050565b60006060830160008301516117ec600086018261177b565b5060208301518482036020860152611804828261179b565b9150506040830151611819604086018261177b565b508091505092915050565b600061183083836117d4565b905092915050565b6000602082019050919050565b60006118508261174f565b61185a818561175a565b93508360208202850161186c8561176b565b8060005b858110156118a857848403895281516118898582611824565b945061189483611838565b925060208a01995050600181019050611870565b50829750879550505050505092915050565b600060208201905081810360008301526118d48184611845565b905092915050565b600080fd5b600080fd5b7f4e487b7100000000000000000000000000000000000000000000000000000000600052604160045260246000fd5b61191e8261151b565b810181811067ffffffffffffffff8211171561193d5761193c6118e6565b5b80604052505050565b600061195061144f565b905061195c8282611915565b919050565b600067ffffffffffffffff82111561197c5761197b6118e6565b5b6119858261151b565b9050602081019050919050565b82818337600083830152505050565b60006119b46119af84611961565b611946565b9050828152602081018484840111156119d0576119cf6118e1565b5b6119db848285611992565b509392505050565b600082601f8301126119f8576119f76118dc565b5b8135611a088482602086016119a1565b91505092915050565b60008060008060808587031215611a2b57611a2a611459565b5b6000611a3987828801611484565b9450506020611a4a87828801611484565b935050604085013567ffffffffffffffff811115611a6b57611a6a61145e565b5b611a77878288016119e3565b9250506060611a8887828801611484565b91505092959194509250565b611a9d816115d1565b82525050565b6000602082019050611ab86000830184611a94565b92915050565b600081519050919050565b600082825260208201905092915050565b6000819050602082019050919050565b6000608083016000830151611b02600086018261177b565b506020830151611b15602086018261177b565b5060408301518482036040860152611b2d828261179b565b9150506060830151611b42606086018261177b565b508091505092915050565b6000611b598383611aea565b905092915050565b6000602082019050919050565b6000611b7982611abe565b611b838185611ac9565b935083602082028501611b9585611ada565b8060005b85811015611bd15784840389528151611bb28582611b4d565b9450611bbd83611b61565b925060208a01995050600181019050611b99565b50829750879550505050505092915050565b60006020820190508181036000830152611bfd8184611b6e565b905092915050565b7f4e487b7100000000000000000000000000000000000000000000000000000000600052602260045260246000fd5b60006002820490506001821680611c4c57607f821691505b602082108103611c5f57611c5e611c05565b5b50919050565b7f496e73756666696369656e742042616c616e6365000000000000000000000000600082015250565b6000611c9b6014836114e0565b9150611ca682611c65565b602082019050919050565b60006020820190508181036000830152611cca81611c8e565b9050919050565b7f496e636f7272656374204163636f756e74204e756d6265720000000000000000600082015250565b6000611d076018836114e0565b9150611d1282611cd1565b602082019050919050565b60006020820190508181036000830152611d3681611cfa565b9050919050565b7f4e487b7100000000000000000000000000000000000000000000000000000000600052601160045260246000fd5b6000611d7782611463565b9150611d8283611463565b9250828203905081811115611d9a57611d99611d3d565b5b92915050565b6000611dab82611463565b9150611db683611463565b9250828201905080821115611dce57611dcd611d3d565b5b92915050565b6000608082019050611de960008301876114c6565b611df660208301866114c6565b611e0360408301856114c6565b611e1060608301846114c6565b95945050505050565b6000608082019050611e2e6000830187611a94565b611e3b60208301866114c6565b611e4860408301856114c6565b611e5560608301846114c6565b95945050505050565b7f556e617574686f72697a6564207065726d697373696f6e000000000000000000600082015250565b6000611e946017836114e0565b9150611e9f82611e5e565b602082019050919050565b60006020820190508181036000830152611ec381611e87565b9050919050565b7f4e487b7100000000000000000000000000000000000000000000000000000000600052603260045260246000fd5b6000611f0482611463565b91507fffffffffffffffffffffffffffffffffffffffffffffffffffffffffffffffff8203611f3657611f35611d3d565b5b600182019050919050565b7f4163636f756e7420416c72656164792045786973740000000000000000000000600082015250565b6000611f776015836114e0565b9150611f8282611f41565b602082019050919050565b60006020820190508181036000830152611fa681611f6a565b9050919050565b60008190508160005260206000209050919050565b60006020601f8301049050919050565b600082821b905092915050565b60006008830261200f7fffffffffffffffffffffffffffffffffffffffffffffffffffffffffffffffff82611fd2565b6120198683611fd2565b95508019841693508086168417925050509392505050565b6000819050919050565b600061205661205161204c84611463565b612031565b611463565b9050919050565b6000819050919050565b6120708361203b565b61208461207c8261205d565b848454611fdf565b825550505050565b600090565b61209961208c565b6120a4818484612067565b505050565b5b818110156120c8576120bd600082612091565b6001810190506120aa565b5050565b601f82111561210d576120de81611fad565b6120e784611fc2565b810160208510156120f6578190505b61210a61210285611fc2565b8301826120a9565b50505b505050565b600082821c905092915050565b600061213060001984600802612112565b1980831691505092915050565b6000612149838361211f565b9150826002028217905092915050565b612162826114d5565b67ffffffffffffffff81111561217b5761217a6118e6565b5b6121858254611c34565b6121908282856120cc565b600060209050601f8311600181146121c357600084156121b1578287015190505b6121bb858261213d565b865550612223565b601f1984166121d186611fad565b60005b828110156121f9578489015182556001820191506020850194506020810190506121d4565b868310156122165784890151612212601f89168261211f565b8355505b6001600288020188555050505b505050505050565b60006060820190506122406000830186611a94565b61224d60208301856114c6565b61225a60408301846114c6565b94935050505056fea2646970667358221220f1b3229ee55ff5ed7fb7b56e83dde01df784d49ba7bcef75acc714c5c7af374d64736f6c63430008100033",
  "linkReferences": {},
  "deployedLinkReferences": {}
}