{
  "_format": "hh-sol-artifact-1",
  "contractName": "data",
  "sourceName": "contracts/data.sol",
  "abi": [
    {
      "inputs": [
        {
          "internalType": "uint256",
          "name": "",
          "type": "uint256"
        }
      ],
      "name": "accounts",
      "outputs": [
        {
          "internalType": "uint256",
          "name": "",
          "type": "uint256"
        }
      ],
      "stateMutability": "view",
      "type": "function"
    },
    {
      "inputs": [
        {
          "internalType": "uint256",
          "name": "",
          "type": "uint256"
        }
      ],
      "name": "addresses",
      "outputs": [
        {
          "internalType": "address",
          "name": "",
          "type": "address"
        }
      ],
      "stateMutability": "view",
      "type": "function"
    },
    {
      "inputs": [
        {
          "internalType": "uint256",
          "name": "",
          "type": "uint256"
        }
      ],
      "name": "returnBankDataArray",
      "outputs": [
        {
          "internalType": "uint256",
          "name": "accountNumber",
          "type": "uint256"
        },
        {
          "internalType": "string",
          "name": "branch",
          "type": "string"
        },
        {
          "internalType": "uint256",
          "name": "balance",
          "type": "uint256"
        }
      ],
      "stateMutability": "view",
      "type": "function"
    },
    {
      "inputs": [
        {
          "internalType": "uint256",
          "name": "",
          "type": "uint256"
        }
      ],
      "name": "returnDataArray",
      "outputs": [
        {
          "internalType": "uint256",
          "name": "accountNumber",
          "type": "uint256"
        },
        {
          "internalType": "uint256",
          "name": "bankName",
          "type": "uint256"
        },
        {
          "internalType": "string",
          "name": "branch",
          "type": "string"
        },
        {
          "internalType": "uint256",
          "name": "balance",
          "type": "uint256"
        }
      ],
      "stateMutability": "view",
      "type": "function"
    }
  ],
  "bytecode": "0x608060405234801561001057600080fd5b506105a1806100206000396000f3fe608060405234801561001057600080fd5b506004361061004c5760003560e01c8063078c9ed314610051578063b0fb25cc14610084578063edf26d9b146100b6578063f2a40db8146100e6575b600080fd5b61006b6004803603810190610066919061033e565b610116565b60405161007b949392919061040a565b60405180910390f35b61009e6004803603810190610099919061033e565b6101de565b6040516100ad93929190610456565b60405180910390f35b6100d060048036038101906100cb919061033e565b6102a0565b6040516100dd91906104d5565b60405180910390f35b61010060048036038101906100fb919061033e565b6102df565b60405161010d91906104f0565b60405180910390f35b6001818154811061012657600080fd5b90600052602060002090600402016000915090508060000154908060010154908060020180546101559061053a565b80601f01602080910402602001604051908101604052809291908181526020018280546101819061053a565b80156101ce5780601f106101a3576101008083540402835291602001916101ce565b820191906000526020600020905b8154815290600101906020018083116101b157829003601f168201915b5050505050908060030154905084565b600281815481106101ee57600080fd5b90600052602060002090600302016000915090508060000154908060010180546102179061053a565b80601f01602080910402602001604051908101604052809291908181526020018280546102439061053a565b80156102905780601f1061026557610100808354040283529160200191610290565b820191906000526020600020905b81548152906001019060200180831161027357829003601f168201915b5050505050908060020154905083565b600481815481106102b057600080fd5b906000526020600020016000915054906101000a900473ffffffffffffffffffffffffffffffffffffffff1681565b600581815481106102ef57600080fd5b906000526020600020016000915090505481565b600080fd5b6000819050919050565b61031b81610308565b811461032657600080fd5b50565b60008135905061033881610312565b92915050565b60006020828403121561035457610353610303565b5b600061036284828501610329565b91505092915050565b61037481610308565b82525050565b600081519050919050565b600082825260208201905092915050565b60005b838110156103b4578082015181840152602081019050610399565b60008484015250505050565b6000601f19601f8301169050919050565b60006103dc8261037a565b6103e68185610385565b93506103f6818560208601610396565b6103ff816103c0565b840191505092915050565b600060808201905061041f600083018761036b565b61042c602083018661036b565b818103604083015261043e81856103d1565b905061044d606083018461036b565b95945050505050565b600060608201905061046b600083018661036b565b818103602083015261047d81856103d1565b905061048c604083018461036b565b949350505050565b600073ffffffffffffffffffffffffffffffffffffffff82169050919050565b60006104bf82610494565b9050919050565b6104cf816104b4565b82525050565b60006020820190506104ea60008301846104c6565b92915050565b6000602082019050610505600083018461036b565b92915050565b7f4e487b7100000000000000000000000000000000000000000000000000000000600052602260045260246000fd5b6000600282049050600182168061055257607f821691505b6020821081036105655761056461050b565b5b5091905056fea26469706673582212204daf62238ab6f07f79ce799d74fc8e5c4a046cd5cae4725cc5a8084203be89de64736f6c63430008100033",
  "linkReferences": {},
  "deployedLinkReferences": {}
}