{
  "_format": "hh-sol-artifact-1",
  "contractName": "data",
  "sourceName": "contracts/data.sol",
  "abi": [
    {
      "inputs": [
        {
          "internalType": "uint256",
          "name": "",
          "type": "uint256"
        }
      ],
      "name": "accounts",
      "outputs": [
        {
          "internalType": "uint256",
          "name": "",
          "type": "uint256"
        }
      ],
      "stateMutability": "view",
      "type": "function"
    },
    {
      "inputs": [
        {
          "internalType": "uint256",
          "name": "",
          "type": "uint256"
        }
      ],
      "name": "addresses",
      "outputs": [
        {
          "internalType": "address",
          "name": "",
          "type": "address"
        }
      ],
      "stateMutability": "view",
      "type": "function"
    },
    {
      "inputs": [],
      "name": "admin",
      "outputs": [
        {
          "internalType": "address",
          "name": "",
          "type": "address"
        }
      ],
      "stateMutability": "view",
      "type": "function"
    },
    {
      "inputs": [
        {
          "internalType": "uint256",
          "name": "",
          "type": "uint256"
        }
      ],
      "name": "returnBankDataArray",
      "outputs": [
        {
          "internalType": "uint256",
          "name": "accountNumber",
          "type": "uint256"
        },
        {
          "internalType": "string",
          "name": "branch",
          "type": "string"
        },
        {
          "internalType": "uint256",
          "name": "balance",
          "type": "uint256"
        }
      ],
      "stateMutability": "view",
      "type": "function"
    },
    {
      "inputs": [
        {
          "internalType": "uint256",
          "name": "",
          "type": "uint256"
        }
      ],
      "name": "returnDataArray",
      "outputs": [
        {
          "internalType": "uint256",
          "name": "accountNumber",
          "type": "uint256"
        },
        {
          "internalType": "uint256",
          "name": "bankName",
          "type": "uint256"
        },
        {
          "internalType": "string",
          "name": "branch",
          "type": "string"
        },
        {
          "internalType": "uint256",
          "name": "balance",
          "type": "uint256"
        }
      ],
      "stateMutability": "view",
      "type": "function"
    }
  ],
  "bytecode": "0x608060405234801561001057600080fd5b506105ee806100206000396000f3fe608060405234801561001057600080fd5b50600436106100575760003560e01c8063078c9ed31461005c578063b0fb25cc1461008f578063edf26d9b146100c1578063f2a40db8146100f1578063f851a44014610121575b600080fd5b6100766004803603810190610071919061038b565b61013f565b6040516100869493929190610457565b60405180910390f35b6100a960048036038101906100a4919061038b565b610207565b6040516100b8939291906104a3565b60405180910390f35b6100db60048036038101906100d6919061038b565b6102c9565b6040516100e89190610522565b60405180910390f35b61010b6004803603810190610106919061038b565b610308565b604051610118919061053d565b60405180910390f35b61012961032c565b6040516101369190610522565b60405180910390f35b6001818154811061014f57600080fd5b906000526020600020906004020160009150905080600001549080600101549080600201805461017e90610587565b80601f01602080910402602001604051908101604052809291908181526020018280546101aa90610587565b80156101f75780601f106101cc576101008083540402835291602001916101f7565b820191906000526020600020905b8154815290600101906020018083116101da57829003601f168201915b5050505050908060030154905084565b6002818154811061021757600080fd5b906000526020600020906003020160009150905080600001549080600101805461024090610587565b80601f016020809104026020016040519081016040528092919081815260200182805461026c90610587565b80156102b95780601f1061028e576101008083540402835291602001916102b9565b820191906000526020600020905b81548152906001019060200180831161029c57829003601f168201915b5050505050908060020154905083565b600481815481106102d957600080fd5b906000526020600020016000915054906101000a900473ffffffffffffffffffffffffffffffffffffffff1681565b6005818154811061031857600080fd5b906000526020600020016000915090505481565b60008054906101000a900473ffffffffffffffffffffffffffffffffffffffff1681565b600080fd5b6000819050919050565b61036881610355565b811461037357600080fd5b50565b6000813590506103858161035f565b92915050565b6000602082840312156103a1576103a0610350565b5b60006103af84828501610376565b91505092915050565b6103c181610355565b82525050565b600081519050919050565b600082825260208201905092915050565b60005b838110156104015780820151818401526020810190506103e6565b60008484015250505050565b6000601f19601f8301169050919050565b6000610429826103c7565b61043381856103d2565b93506104438185602086016103e3565b61044c8161040d565b840191505092915050565b600060808201905061046c60008301876103b8565b61047960208301866103b8565b818103604083015261048b818561041e565b905061049a60608301846103b8565b95945050505050565b60006060820190506104b860008301866103b8565b81810360208301526104ca818561041e565b90506104d960408301846103b8565b949350505050565b600073ffffffffffffffffffffffffffffffffffffffff82169050919050565b600061050c826104e1565b9050919050565b61051c81610501565b82525050565b60006020820190506105376000830184610513565b92915050565b600060208201905061055260008301846103b8565b92915050565b7f4e487b7100000000000000000000000000000000000000000000000000000000600052602260045260246000fd5b6000600282049050600182168061059f57607f821691505b6020821081036105b2576105b1610558565b5b5091905056fea2646970667358221220f5743dd00e53caeb4742886bce8f307948f86e50c9e58a01f535684d52f8497764736f6c63430008100033",
  "linkReferences": {},
  "deployedLinkReferences": {}
}